{
	"contracts/Clase2Modulo2.sol": {
		"Clase2Modulo2": {
			"abi": [
				{
					"inputs": [],
					"stateMutability": "nonpayable",
					"type": "constructor"
				},
				{
					"anonymous": false,
					"inputs": [
						{
							"indexed": true,
							"internalType": "address",
							"name": "editor",
							"type": "address"
						},
						{
							"indexed": false,
							"internalType": "string",
							"name": "key",
							"type": "string"
						},
						{
							"indexed": false,
							"internalType": "string",
							"name": "value",
							"type": "string"
						}
					],
					"name": "DataModified",
					"type": "event"
				},
				{
					"inputs": [],
					"name": "deleteLastElement",
					"outputs": [
						{
							"internalType": "string[]",
							"name": "",
							"type": "string[]"
						}
					],
					"stateMutability": "nonpayable",
					"type": "function"
				},
				{
					"inputs": [
						{
							"internalType": "uint256",
							"name": "_index",
							"type": "uint256"
						},
						{
							"internalType": "string",
							"name": "_newName",
							"type": "string"
						}
					],
					"name": "editNameArray",
					"outputs": [],
					"stateMutability": "nonpayable",
					"type": "function"
				},
				{
					"inputs": [],
					"name": "lastName",
					"outputs": [
						{
							"internalType": "string",
							"name": "",
							"type": "string"
						}
					],
					"stateMutability": "view",
					"type": "function"
				},
				{
					"inputs": [],
					"name": "name",
					"outputs": [
						{
							"internalType": "string",
							"name": "",
							"type": "string"
						}
					],
					"stateMutability": "view",
					"type": "function"
				},
				{
					"inputs": [
						{
							"internalType": "uint256",
							"name": "_index",
							"type": "uint256"
						}
					],
					"name": "readName",
					"outputs": [
						{
							"internalType": "string",
							"name": "",
							"type": "string"
						}
					],
					"stateMutability": "view",
					"type": "function"
				},
				{
					"inputs": [
						{
							"internalType": "string",
							"name": "_lastName",
							"type": "string"
						}
					],
					"name": "setLastName",
					"outputs": [],
					"stateMutability": "nonpayable",
					"type": "function"
				},
				{
					"inputs": [
						{
							"internalType": "string",
							"name": "_name",
							"type": "string"
						}
					],
					"name": "setName",
					"outputs": [],
					"stateMutability": "nonpayable",
					"type": "function"
				}
			],
			"devdoc": {
				"kind": "dev",
				"methods": {},
				"version": 1
			},
			"evm": {
				"assembly": "    /* \"contracts/Clase2Modulo2.sol\":59:1744  contract Clase2Modulo2{... */\n  mstore(0x40, 0x80)\n    /* \"contracts/Clase2Modulo2.sol\":234:416  constructor() {... */\n  callvalue\n  dup1\n  iszero\n  tag_1\n  jumpi\n  0x00\n  dup1\n  revert\ntag_1:\n  pop\n    /* \"contracts/Clase2Modulo2.sol\":266:276  msg.sender */\n  caller\n    /* \"contracts/Clase2Modulo2.sol\":258:263  owner */\n  0x02\n  0x00\n    /* \"contracts/Clase2Modulo2.sol\":258:276  owner = msg.sender */\n  0x0100\n  exp\n  dup2\n  sload\n  dup2\n  0xffffffffffffffffffffffffffffffffffffffff\n  mul\n  not\n  and\n  swap1\n  dup4\n  0xffffffffffffffffffffffffffffffffffffffff\n  and\n  mul\n  or\n  swap1\n  sstore\n  pop\n    /* \"contracts/Clase2Modulo2.sol\":59:1744  contract Clase2Modulo2{... */\n  dataSize(sub_0)\n  dup1\n  dataOffset(sub_0)\n  0x00\n  codecopy\n  0x00\n  return\nstop\n\nsub_0: assembly {\n        /* \"contracts/Clase2Modulo2.sol\":59:1744  contract Clase2Modulo2{... */\n      mstore(0x40, 0x80)\n      callvalue\n      dup1\n      iszero\n      tag_1\n      jumpi\n      0x00\n      dup1\n      revert\n    tag_1:\n      pop\n      jumpi(tag_2, lt(calldatasize, 0x04))\n      shr(0xe0, calldataload(0x00))\n      dup1\n      0x9ab03dcb\n      gt\n      tag_10\n      jumpi\n      dup1\n      0x9ab03dcb\n      eq\n      tag_6\n      jumpi\n      dup1\n      0xae1dfdf6\n      eq\n      tag_7\n      jumpi\n      dup1\n      0xc47f0027\n      eq\n      tag_8\n      jumpi\n      dup1\n      0xf8bd7772\n      eq\n      tag_9\n      jumpi\n      jump(tag_2)\n    tag_10:\n      dup1\n      0x06fdde03\n      eq\n      tag_3\n      jumpi\n      dup1\n      0x2ed84c5a\n      eq\n      tag_4\n      jumpi\n      dup1\n      0x932754f9\n      eq\n      tag_5\n      jumpi\n    tag_2:\n      0x00\n      dup1\n      revert\n        /* \"contracts/Clase2Modulo2.sol\":87:105  string public name */\n    tag_3:\n      tag_11\n      tag_12\n      jump\t// in\n    tag_11:\n      mload(0x40)\n      tag_13\n      swap2\n      swap1\n      tag_14\n      jump\t// in\n    tag_13:\n      mload(0x40)\n      dup1\n      swap2\n      sub\n      swap1\n      return\n        /* \"contracts/Clase2Modulo2.sol\":1297:1431  function editNameArray(uint _index, string memory _newName) checkNamesLength(_index) public  {... */\n    tag_4:\n      tag_15\n      0x04\n      dup1\n      calldatasize\n      sub\n      dup2\n      add\n      swap1\n      tag_16\n      swap2\n      swap1\n      tag_17\n      jump\t// in\n    tag_16:\n      tag_18\n      jump\t// in\n    tag_15:\n      stop\n        /* \"contracts/Clase2Modulo2.sol\":990:1152  function setLastName(string memory _lastName) onlyOwner public {... */\n    tag_5:\n      tag_19\n      0x04\n      dup1\n      calldatasize\n      sub\n      dup2\n      add\n      swap1\n      tag_20\n      swap2\n      swap1\n      tag_21\n      jump\t// in\n    tag_20:\n      tag_22\n      jump\t// in\n    tag_19:\n      stop\n        /* \"contracts/Clase2Modulo2.sol\":111:133  string public lastName */\n    tag_6:\n      tag_23\n      tag_24\n      jump\t// in\n    tag_23:\n      mload(0x40)\n      tag_25\n      swap2\n      swap1\n      tag_14\n      jump\t// in\n    tag_25:\n      mload(0x40)\n      dup1\n      swap2\n      sub\n      swap1\n      return\n        /* \"contracts/Clase2Modulo2.sol\":1158:1288  function readName(uint _index) checkNamesLength(_index) public  view returns  (string memory){... */\n    tag_7:\n      tag_26\n      0x04\n      dup1\n      calldatasize\n      sub\n      dup2\n      add\n      swap1\n      tag_27\n      swap2\n      swap1\n      tag_28\n      jump\t// in\n    tag_27:\n      tag_29\n      jump\t// in\n    tag_26:\n      mload(0x40)\n      tag_30\n      swap2\n      swap1\n      tag_14\n      jump\t// in\n    tag_30:\n      mload(0x40)\n      dup1\n      swap2\n      sub\n      swap1\n      return\n        /* \"contracts/Clase2Modulo2.sol\":688:985  function setName(string memory _name) onlyOwner public { // al poner el modifier ahi ... */\n    tag_8:\n      tag_31\n      0x04\n      dup1\n      calldatasize\n      sub\n      dup2\n      add\n      swap1\n      tag_32\n      swap2\n      swap1\n      tag_21\n      jump\t// in\n    tag_32:\n      tag_33\n      jump\t// in\n    tag_31:\n      stop\n        /* \"contracts/Clase2Modulo2.sol\":1567:1740  function deleteLastElement() public returns(string[] memory){... */\n    tag_9:\n      tag_34\n      tag_35\n      jump\t// in\n    tag_34:\n      mload(0x40)\n      tag_36\n      swap2\n      swap1\n      tag_37\n      jump\t// in\n    tag_36:\n      mload(0x40)\n      dup1\n      swap2\n      sub\n      swap1\n      return\n        /* \"contracts/Clase2Modulo2.sol\":87:105  string public name */\n    tag_12:\n      0x00\n      dup1\n      sload\n      tag_38\n      swap1\n      tag_39\n      jump\t// in\n    tag_38:\n      dup1\n      0x1f\n      add\n      0x20\n      dup1\n      swap2\n      div\n      mul\n      0x20\n      add\n      mload(0x40)\n      swap1\n      dup2\n      add\n      0x40\n      mstore\n      dup1\n      swap3\n      swap2\n      swap1\n      dup2\n      dup2\n      mstore\n      0x20\n      add\n      dup3\n      dup1\n      sload\n      tag_40\n      swap1\n      tag_39\n      jump\t// in\n    tag_40:\n      dup1\n      iszero\n      tag_41\n      jumpi\n      dup1\n      0x1f\n      lt\n      tag_42\n      jumpi\n      0x0100\n      dup1\n      dup4\n      sload\n      div\n      mul\n      dup4\n      mstore\n      swap2\n      0x20\n      add\n      swap2\n      jump(tag_41)\n    tag_42:\n      dup3\n      add\n      swap2\n      swap1\n      0x00\n      mstore\n      keccak256(0x00, 0x20)\n      swap1\n    tag_43:\n      dup2\n      sload\n      dup2\n      mstore\n      swap1\n      0x01\n      add\n      swap1\n      0x20\n      add\n      dup1\n      dup4\n      gt\n      tag_43\n      jumpi\n      dup3\n      swap1\n      sub\n      0x1f\n      and\n      dup3\n      add\n      swap2\n    tag_41:\n      pop\n      pop\n      pop\n      pop\n      pop\n      dup2\n      jump\t// out\n        /* \"contracts/Clase2Modulo2.sol\":1297:1431  function editNameArray(uint _index, string memory _newName) checkNamesLength(_index) public  {... */\n    tag_18:\n        /* \"contracts/Clase2Modulo2.sol\":1374:1380  _index */\n      dup2\n        /* \"contracts/Clase2Modulo2.sol\":1507:1512  names */\n      0x03\n        /* \"contracts/Clase2Modulo2.sol\":1507:1519  names.length */\n      dup1\n      sload\n      swap1\n      pop\n        /* \"contracts/Clase2Modulo2.sol\":1498:1504  _index */\n      dup2\n        /* \"contracts/Clase2Modulo2.sol\":1498:1519  _index < names.length */\n      lt\n        /* \"contracts/Clase2Modulo2.sol\":1490:1543  require(_index < names.length, \"Index out of bounds\") */\n      tag_45\n      jumpi\n      mload(0x40)\n      0x08c379a000000000000000000000000000000000000000000000000000000000\n      dup2\n      mstore\n      0x04\n      add\n      tag_46\n      swap1\n      tag_47\n      jump\t// in\n    tag_46:\n      mload(0x40)\n      dup1\n      swap2\n      sub\n      swap1\n      revert\n    tag_45:\n        /* \"contracts/Clase2Modulo2.sol\":1416:1424  _newName */\n      dup2\n        /* \"contracts/Clase2Modulo2.sol\":1400:1405  names */\n      0x03\n        /* \"contracts/Clase2Modulo2.sol\":1406:1412  _index */\n      dup5\n        /* \"contracts/Clase2Modulo2.sol\":1400:1413  names[_index] */\n      dup2\n      sload\n      dup2\n      lt\n      tag_49\n      jumpi\n      tag_50\n      tag_51\n      jump\t// in\n    tag_50:\n    tag_49:\n      swap1\n      0x00\n      mstore\n      keccak256(0x00, 0x20)\n      add\n        /* \"contracts/Clase2Modulo2.sol\":1400:1424  names[_index] = _newName */\n      swap1\n      dup2\n      tag_53\n      swap2\n      swap1\n      tag_54\n      jump\t// in\n    tag_53:\n      pop\n        /* \"contracts/Clase2Modulo2.sol\":1297:1431  function editNameArray(uint _index, string memory _newName) checkNamesLength(_index) public  {... */\n      pop\n      pop\n      pop\n      jump\t// out\n        /* \"contracts/Clase2Modulo2.sol\":990:1152  function setLastName(string memory _lastName) onlyOwner public {... */\n    tag_22:\n        /* \"contracts/Clase2Modulo2.sol\":611:621  msg.sender */\n      caller\n        /* \"contracts/Clase2Modulo2.sol\":602:621  owner == msg.sender */\n      0xffffffffffffffffffffffffffffffffffffffff\n      and\n        /* \"contracts/Clase2Modulo2.sol\":602:607  owner */\n      0x02\n      0x00\n      swap1\n      sload\n      swap1\n      0x0100\n      exp\n      swap1\n      div\n      0xffffffffffffffffffffffffffffffffffffffff\n      and\n        /* \"contracts/Clase2Modulo2.sol\":602:621  owner == msg.sender */\n      0xffffffffffffffffffffffffffffffffffffffff\n      and\n      eq\n        /* \"contracts/Clase2Modulo2.sol\":594:664  require(owner == msg.sender, \"Only the owner can modify the contract\") */\n      tag_56\n      jumpi\n      mload(0x40)\n      0x08c379a000000000000000000000000000000000000000000000000000000000\n      dup2\n      mstore\n      0x04\n      add\n      tag_57\n      swap1\n      tag_58\n      jump\t// in\n    tag_57:\n      mload(0x40)\n      dup1\n      swap2\n      sub\n      swap1\n      revert\n    tag_56:\n        /* \"contracts/Clase2Modulo2.sol\":1081:1091  msg.sender */\n      caller\n        /* \"contracts/Clase2Modulo2.sol\":1068:1115  DataModified(msg.sender, \"LastName\", _lastName) */\n      0xffffffffffffffffffffffffffffffffffffffff\n      and\n      0xde4389d0e2b82c1da27da351a07c61a1c281a257dd810bc7fad7e95a2fffd0d2\n        /* \"contracts/Clase2Modulo2.sol\":1105:1114  _lastName */\n      dup3\n        /* \"contracts/Clase2Modulo2.sol\":1068:1115  DataModified(msg.sender, \"LastName\", _lastName) */\n      mload(0x40)\n      tag_60\n      swap2\n      swap1\n      tag_61\n      jump\t// in\n    tag_60:\n      mload(0x40)\n      dup1\n      swap2\n      sub\n      swap1\n      log2\n        /* \"contracts/Clase2Modulo2.sol\":1136:1145  _lastName */\n      dup1\n        /* \"contracts/Clase2Modulo2.sol\":1125:1133  lastName */\n      0x01\n        /* \"contracts/Clase2Modulo2.sol\":1125:1145  lastName = _lastName */\n      swap1\n      dup2\n      tag_62\n      swap2\n      swap1\n      tag_54\n      jump\t// in\n    tag_62:\n      pop\n        /* \"contracts/Clase2Modulo2.sol\":990:1152  function setLastName(string memory _lastName) onlyOwner public {... */\n      pop\n      jump\t// out\n        /* \"contracts/Clase2Modulo2.sol\":111:133  string public lastName */\n    tag_24:\n      0x01\n      dup1\n      sload\n      tag_63\n      swap1\n      tag_39\n      jump\t// in\n    tag_63:\n      dup1\n      0x1f\n      add\n      0x20\n      dup1\n      swap2\n      div\n      mul\n      0x20\n      add\n      mload(0x40)\n      swap1\n      dup2\n      add\n      0x40\n      mstore\n      dup1\n      swap3\n      swap2\n      swap1\n      dup2\n      dup2\n      mstore\n      0x20\n      add\n      dup3\n      dup1\n      sload\n      tag_64\n      swap1\n      tag_39\n      jump\t// in\n    tag_64:\n      dup1\n      iszero\n      tag_65\n      jumpi\n      dup1\n      0x1f\n      lt\n      tag_66\n      jumpi\n      0x0100\n      dup1\n      dup4\n      sload\n      div\n      mul\n      dup4\n      mstore\n      swap2\n      0x20\n      add\n      swap2\n      jump(tag_65)\n    tag_66:\n      dup3\n      add\n      swap2\n      swap1\n      0x00\n      mstore\n      keccak256(0x00, 0x20)\n      swap1\n    tag_67:\n      dup2\n      sload\n      dup2\n      mstore\n      swap1\n      0x01\n      add\n      swap1\n      0x20\n      add\n      dup1\n      dup4\n      gt\n      tag_67\n      jumpi\n      dup3\n      swap1\n      sub\n      0x1f\n      and\n      dup3\n      add\n      swap2\n    tag_65:\n      pop\n      pop\n      pop\n      pop\n      pop\n      dup2\n      jump\t// out\n        /* \"contracts/Clase2Modulo2.sol\":1158:1288  function readName(uint _index) checkNamesLength(_index) public  view returns  (string memory){... */\n    tag_29:\n        /* \"contracts/Clase2Modulo2.sol\":1237:1250  string memory */\n      0x60\n        /* \"contracts/Clase2Modulo2.sol\":1206:1212  _index */\n      dup2\n        /* \"contracts/Clase2Modulo2.sol\":1507:1512  names */\n      0x03\n        /* \"contracts/Clase2Modulo2.sol\":1507:1519  names.length */\n      dup1\n      sload\n      swap1\n      pop\n        /* \"contracts/Clase2Modulo2.sol\":1498:1504  _index */\n      dup2\n        /* \"contracts/Clase2Modulo2.sol\":1498:1519  _index < names.length */\n      lt\n        /* \"contracts/Clase2Modulo2.sol\":1490:1543  require(_index < names.length, \"Index out of bounds\") */\n      tag_69\n      jumpi\n      mload(0x40)\n      0x08c379a000000000000000000000000000000000000000000000000000000000\n      dup2\n      mstore\n      0x04\n      add\n      tag_70\n      swap1\n      tag_47\n      jump\t// in\n    tag_70:\n      mload(0x40)\n      dup1\n      swap2\n      sub\n      swap1\n      revert\n    tag_69:\n        /* \"contracts/Clase2Modulo2.sol\":1268:1273  names */\n      0x03\n        /* \"contracts/Clase2Modulo2.sol\":1274:1280  _index */\n      dup4\n        /* \"contracts/Clase2Modulo2.sol\":1268:1281  names[_index] */\n      dup2\n      sload\n      dup2\n      lt\n      tag_72\n      jumpi\n      tag_73\n      tag_51\n      jump\t// in\n    tag_73:\n    tag_72:\n      swap1\n      0x00\n      mstore\n      keccak256(0x00, 0x20)\n      add\n        /* \"contracts/Clase2Modulo2.sol\":1261:1281  return names[_index] */\n      dup1\n      sload\n      tag_75\n      swap1\n      tag_39\n      jump\t// in\n    tag_75:\n      dup1\n      0x1f\n      add\n      0x20\n      dup1\n      swap2\n      div\n      mul\n      0x20\n      add\n      mload(0x40)\n      swap1\n      dup2\n      add\n      0x40\n      mstore\n      dup1\n      swap3\n      swap2\n      swap1\n      dup2\n      dup2\n      mstore\n      0x20\n      add\n      dup3\n      dup1\n      sload\n      tag_76\n      swap1\n      tag_39\n      jump\t// in\n    tag_76:\n      dup1\n      iszero\n      tag_77\n      jumpi\n      dup1\n      0x1f\n      lt\n      tag_78\n      jumpi\n      0x0100\n      dup1\n      dup4\n      sload\n      div\n      mul\n      dup4\n      mstore\n      swap2\n      0x20\n      add\n      swap2\n      jump(tag_77)\n    tag_78:\n      dup3\n      add\n      swap2\n      swap1\n      0x00\n      mstore\n      keccak256(0x00, 0x20)\n      swap1\n    tag_79:\n      dup2\n      sload\n      dup2\n      mstore\n      swap1\n      0x01\n      add\n      swap1\n      0x20\n      add\n      dup1\n      dup4\n      gt\n      tag_79\n      jumpi\n      dup3\n      swap1\n      sub\n      0x1f\n      and\n      dup3\n      add\n      swap2\n    tag_77:\n      pop\n      pop\n      pop\n      pop\n      pop\n      swap2\n      pop\n        /* \"contracts/Clase2Modulo2.sol\":1158:1288  function readName(uint _index) checkNamesLength(_index) public  view returns  (string memory){... */\n      pop\n      swap2\n      swap1\n      pop\n      jump\t// out\n        /* \"contracts/Clase2Modulo2.sol\":688:985  function setName(string memory _name) onlyOwner public { // al poner el modifier ahi ... */\n    tag_33:\n        /* \"contracts/Clase2Modulo2.sol\":611:621  msg.sender */\n      caller\n        /* \"contracts/Clase2Modulo2.sol\":602:621  owner == msg.sender */\n      0xffffffffffffffffffffffffffffffffffffffff\n      and\n        /* \"contracts/Clase2Modulo2.sol\":602:607  owner */\n      0x02\n      0x00\n      swap1\n      sload\n      swap1\n      0x0100\n      exp\n      swap1\n      div\n      0xffffffffffffffffffffffffffffffffffffffff\n      and\n        /* \"contracts/Clase2Modulo2.sol\":602:621  owner == msg.sender */\n      0xffffffffffffffffffffffffffffffffffffffff\n      and\n      eq\n        /* \"contracts/Clase2Modulo2.sol\":594:664  require(owner == msg.sender, \"Only the owner can modify the contract\") */\n      tag_81\n      jumpi\n      mload(0x40)\n      0x08c379a000000000000000000000000000000000000000000000000000000000\n      dup2\n      mstore\n      0x04\n      add\n      tag_82\n      swap1\n      tag_58\n      jump\t// in\n    tag_82:\n      mload(0x40)\n      dup1\n      swap2\n      sub\n      swap1\n      revert\n    tag_81:\n        /* \"contracts/Clase2Modulo2.sol\":903:913  msg.sender */\n      caller\n        /* \"contracts/Clase2Modulo2.sol\":890:929  DataModified(msg.sender, \"Name\", _name) */\n      0xffffffffffffffffffffffffffffffffffffffff\n      and\n      0xde4389d0e2b82c1da27da351a07c61a1c281a257dd810bc7fad7e95a2fffd0d2\n        /* \"contracts/Clase2Modulo2.sol\":923:928  _name */\n      dup3\n        /* \"contracts/Clase2Modulo2.sol\":890:929  DataModified(msg.sender, \"Name\", _name) */\n      mload(0x40)\n      tag_84\n      swap2\n      swap1\n      tag_85\n      jump\t// in\n    tag_84:\n      mload(0x40)\n      dup1\n      swap2\n      sub\n      swap1\n      log2\n        /* \"contracts/Clase2Modulo2.sol\":946:951  _name */\n      dup1\n        /* \"contracts/Clase2Modulo2.sol\":939:943  name */\n      0x00\n        /* \"contracts/Clase2Modulo2.sol\":939:951  name = _name */\n      swap1\n      dup2\n      tag_86\n      swap2\n      swap1\n      tag_54\n      jump\t// in\n    tag_86:\n      pop\n        /* \"contracts/Clase2Modulo2.sol\":961:966  names */\n      0x03\n        /* \"contracts/Clase2Modulo2.sol\":972:977  _name */\n      dup2\n        /* \"contracts/Clase2Modulo2.sol\":961:978  names.push(_name) */\n      swap1\n      dup1\n      0x01\n      dup2\n      sload\n      add\n      dup1\n      dup3\n      sstore\n      dup1\n      swap2\n      pop\n      pop\n      0x01\n      swap1\n      sub\n      swap1\n      0x00\n      mstore\n      keccak256(0x00, 0x20)\n      add\n      0x00\n      swap1\n      swap2\n      swap1\n      swap2\n      swap1\n      swap2\n      pop\n      swap1\n      dup2\n      tag_88\n      swap2\n      swap1\n      tag_54\n      jump\t// in\n    tag_88:\n      pop\n        /* \"contracts/Clase2Modulo2.sol\":688:985  function setName(string memory _name) onlyOwner public { // al poner el modifier ahi ... */\n      pop\n      jump\t// out\n        /* \"contracts/Clase2Modulo2.sol\":1567:1740  function deleteLastElement() public returns(string[] memory){... */\n    tag_35:\n        /* \"contracts/Clase2Modulo2.sol\":1611:1626  string[] memory */\n      0x60\n        /* \"contracts/Clase2Modulo2.sol\":1649:1659  msg.sender */\n      caller\n        /* \"contracts/Clase2Modulo2.sol\":1636:1693  DataModified(msg.sender, \"Name\", names[names.length - 1]) */\n      0xffffffffffffffffffffffffffffffffffffffff\n      and\n      0xde4389d0e2b82c1da27da351a07c61a1c281a257dd810bc7fad7e95a2fffd0d2\n        /* \"contracts/Clase2Modulo2.sol\":1669:1674  names */\n      0x03\n        /* \"contracts/Clase2Modulo2.sol\":1690:1691  1 */\n      0x01\n        /* \"contracts/Clase2Modulo2.sol\":1675:1680  names */\n      0x03\n        /* \"contracts/Clase2Modulo2.sol\":1675:1687  names.length */\n      dup1\n      sload\n      swap1\n      pop\n        /* \"contracts/Clase2Modulo2.sol\":1675:1691  names.length - 1 */\n      tag_90\n      swap2\n      swap1\n      tag_91\n      jump\t// in\n    tag_90:\n        /* \"contracts/Clase2Modulo2.sol\":1669:1692  names[names.length - 1] */\n      dup2\n      sload\n      dup2\n      lt\n      tag_92\n      jumpi\n      tag_93\n      tag_51\n      jump\t// in\n    tag_93:\n    tag_92:\n      swap1\n      0x00\n      mstore\n      keccak256(0x00, 0x20)\n      add\n        /* \"contracts/Clase2Modulo2.sol\":1636:1693  DataModified(msg.sender, \"Name\", names[names.length - 1]) */\n      mload(0x40)\n      tag_95\n      swap2\n      swap1\n      tag_96\n      jump\t// in\n    tag_95:\n      mload(0x40)\n      dup1\n      swap2\n      sub\n      swap1\n      log2\n        /* \"contracts/Clase2Modulo2.sol\":1703:1708  names */\n      0x03\n        /* \"contracts/Clase2Modulo2.sol\":1703:1714  names.pop() */\n      dup1\n      sload\n      dup1\n      tag_97\n      jumpi\n      tag_98\n      tag_99\n      jump\t// in\n    tag_98:\n    tag_97:\n      0x01\n      swap1\n      sub\n      dup2\n      dup2\n      swap1\n      0x00\n      mstore\n      keccak256(0x00, 0x20)\n      add\n      0x00\n      tag_101\n      swap2\n      swap1\n      tag_102\n      jump\t// in\n    tag_101:\n      swap1\n      sstore\n        /* \"contracts/Clase2Modulo2.sol\":1726:1731  names */\n      0x03\n        /* \"contracts/Clase2Modulo2.sol\":1719:1731  return names */\n      dup1\n      sload\n      dup1\n      0x20\n      mul\n      0x20\n      add\n      mload(0x40)\n      swap1\n      dup2\n      add\n      0x40\n      mstore\n      dup1\n      swap3\n      swap2\n      swap1\n      dup2\n      dup2\n      mstore\n      0x20\n      add\n      0x00\n      swap1\n    tag_103:\n      dup3\n      dup3\n      lt\n      iszero\n      tag_104\n      jumpi\n      dup4\n      dup3\n      swap1\n      0x00\n      mstore\n      keccak256(0x00, 0x20)\n      add\n      dup1\n      sload\n      tag_106\n      swap1\n      tag_39\n      jump\t// in\n    tag_106:\n      dup1\n      0x1f\n      add\n      0x20\n      dup1\n      swap2\n      div\n      mul\n      0x20\n      add\n      mload(0x40)\n      swap1\n      dup2\n      add\n      0x40\n      mstore\n      dup1\n      swap3\n      swap2\n      swap1\n      dup2\n      dup2\n      mstore\n      0x20\n      add\n      dup3\n      dup1\n      sload\n      tag_107\n      swap1\n      tag_39\n      jump\t// in\n    tag_107:\n      dup1\n      iszero\n      tag_108\n      jumpi\n      dup1\n      0x1f\n      lt\n      tag_109\n      jumpi\n      0x0100\n      dup1\n      dup4\n      sload\n      div\n      mul\n      dup4\n      mstore\n      swap2\n      0x20\n      add\n      swap2\n      jump(tag_108)\n    tag_109:\n      dup3\n      add\n      swap2\n      swap1\n      0x00\n      mstore\n      keccak256(0x00, 0x20)\n      swap1\n    tag_110:\n      dup2\n      sload\n      dup2\n      mstore\n      swap1\n      0x01\n      add\n      swap1\n      0x20\n      add\n      dup1\n      dup4\n      gt\n      tag_110\n      jumpi\n      dup3\n      swap1\n      sub\n      0x1f\n      and\n      dup3\n      add\n      swap2\n    tag_108:\n      pop\n      pop\n      pop\n      pop\n      pop\n      dup2\n      mstore\n      0x20\n      add\n      swap1\n      0x01\n      add\n      swap1\n      jump(tag_103)\n    tag_104:\n      pop\n      pop\n      pop\n      pop\n      swap1\n      pop\n        /* \"contracts/Clase2Modulo2.sol\":1567:1740  function deleteLastElement() public returns(string[] memory){... */\n      swap1\n      jump\t// out\n    tag_102:\n      pop\n      dup1\n      sload\n      tag_111\n      swap1\n      tag_39\n      jump\t// in\n    tag_111:\n      0x00\n      dup3\n      sstore\n      dup1\n      0x1f\n      lt\n      tag_113\n      jumpi\n      pop\n      jump(tag_112)\n    tag_113:\n      0x1f\n      add\n      0x20\n      swap1\n      div\n      swap1\n      0x00\n      mstore\n      keccak256(0x00, 0x20)\n      swap1\n      dup2\n      add\n      swap1\n      tag_114\n      swap2\n      swap1\n      tag_115\n      jump\t// in\n    tag_114:\n    tag_112:\n      pop\n      jump\t// out\n    tag_115:\n    tag_116:\n      dup1\n      dup3\n      gt\n      iszero\n      tag_117\n      jumpi\n      0x00\n      dup2\n      0x00\n      swap1\n      sstore\n      pop\n      0x01\n      add\n      jump(tag_116)\n    tag_117:\n      pop\n      swap1\n      jump\t// out\n        /* \"#utility.yul\":7:106   */\n    tag_118:\n        /* \"#utility.yul\":59:65   */\n      0x00\n        /* \"#utility.yul\":93:98   */\n      dup2\n        /* \"#utility.yul\":87:99   */\n      mload\n        /* \"#utility.yul\":77:99   */\n      swap1\n      pop\n        /* \"#utility.yul\":7:106   */\n      swap2\n      swap1\n      pop\n      jump\t// out\n        /* \"#utility.yul\":112:281   */\n    tag_119:\n        /* \"#utility.yul\":196:207   */\n      0x00\n        /* \"#utility.yul\":230:236   */\n      dup3\n        /* \"#utility.yul\":225:228   */\n      dup3\n        /* \"#utility.yul\":218:237   */\n      mstore\n        /* \"#utility.yul\":270:274   */\n      0x20\n        /* \"#utility.yul\":265:268   */\n      dup3\n        /* \"#utility.yul\":261:275   */\n      add\n        /* \"#utility.yul\":246:275   */\n      swap1\n      pop\n        /* \"#utility.yul\":112:281   */\n      swap3\n      swap2\n      pop\n      pop\n      jump\t// out\n        /* \"#utility.yul\":287:426   */\n    tag_120:\n        /* \"#utility.yul\":376:382   */\n      dup3\n        /* \"#utility.yul\":371:374   */\n      dup2\n        /* \"#utility.yul\":366:369   */\n      dup4\n        /* \"#utility.yul\":360:383   */\n      mcopy\n        /* \"#utility.yul\":417:418   */\n      0x00\n        /* \"#utility.yul\":408:414   */\n      dup4\n        /* \"#utility.yul\":403:406   */\n      dup4\n        /* \"#utility.yul\":399:415   */\n      add\n        /* \"#utility.yul\":392:419   */\n      mstore\n        /* \"#utility.yul\":287:426   */\n      pop\n      pop\n      pop\n      jump\t// out\n        /* \"#utility.yul\":432:534   */\n    tag_121:\n        /* \"#utility.yul\":473:479   */\n      0x00\n        /* \"#utility.yul\":524:526   */\n      0x1f\n        /* \"#utility.yul\":520:527   */\n      not\n        /* \"#utility.yul\":515:517   */\n      0x1f\n        /* \"#utility.yul\":508:513   */\n      dup4\n        /* \"#utility.yul\":504:518   */\n      add\n        /* \"#utility.yul\":500:528   */\n      and\n        /* \"#utility.yul\":490:528   */\n      swap1\n      pop\n        /* \"#utility.yul\":432:534   */\n      swap2\n      swap1\n      pop\n      jump\t// out\n        /* \"#utility.yul\":540:917   */\n    tag_122:\n        /* \"#utility.yul\":628:631   */\n      0x00\n        /* \"#utility.yul\":656:695   */\n      tag_178\n        /* \"#utility.yul\":689:694   */\n      dup3\n        /* \"#utility.yul\":656:695   */\n      tag_118\n      jump\t// in\n    tag_178:\n        /* \"#utility.yul\":711:782   */\n      tag_179\n        /* \"#utility.yul\":775:781   */\n      dup2\n        /* \"#utility.yul\":770:773   */\n      dup6\n        /* \"#utility.yul\":711:782   */\n      tag_119\n      jump\t// in\n    tag_179:\n        /* \"#utility.yul\":704:782   */\n      swap4\n      pop\n        /* \"#utility.yul\":791:856   */\n      tag_180\n        /* \"#utility.yul\":849:855   */\n      dup2\n        /* \"#utility.yul\":844:847   */\n      dup6\n        /* \"#utility.yul\":837:841   */\n      0x20\n        /* \"#utility.yul\":830:835   */\n      dup7\n        /* \"#utility.yul\":826:842   */\n      add\n        /* \"#utility.yul\":791:856   */\n      tag_120\n      jump\t// in\n    tag_180:\n        /* \"#utility.yul\":881:910   */\n      tag_181\n        /* \"#utility.yul\":903:909   */\n      dup2\n        /* \"#utility.yul\":881:910   */\n      tag_121\n      jump\t// in\n    tag_181:\n        /* \"#utility.yul\":876:879   */\n      dup5\n        /* \"#utility.yul\":872:911   */\n      add\n        /* \"#utility.yul\":865:911   */\n      swap2\n      pop\n        /* \"#utility.yul\":632:917   */\n      pop\n        /* \"#utility.yul\":540:917   */\n      swap3\n      swap2\n      pop\n      pop\n      jump\t// out\n        /* \"#utility.yul\":923:1236   */\n    tag_14:\n        /* \"#utility.yul\":1036:1040   */\n      0x00\n        /* \"#utility.yul\":1074:1076   */\n      0x20\n        /* \"#utility.yul\":1063:1072   */\n      dup3\n        /* \"#utility.yul\":1059:1077   */\n      add\n        /* \"#utility.yul\":1051:1077   */\n      swap1\n      pop\n        /* \"#utility.yul\":1123:1132   */\n      dup2\n        /* \"#utility.yul\":1117:1121   */\n      dup2\n        /* \"#utility.yul\":1113:1133   */\n      sub\n        /* \"#utility.yul\":1109:1110   */\n      0x00\n        /* \"#utility.yul\":1098:1107   */\n      dup4\n        /* \"#utility.yul\":1094:1111   */\n      add\n        /* \"#utility.yul\":1087:1134   */\n      mstore\n        /* \"#utility.yul\":1151:1229   */\n      tag_183\n        /* \"#utility.yul\":1224:1228   */\n      dup2\n        /* \"#utility.yul\":1215:1221   */\n      dup5\n        /* \"#utility.yul\":1151:1229   */\n      tag_122\n      jump\t// in\n    tag_183:\n        /* \"#utility.yul\":1143:1229   */\n      swap1\n      pop\n        /* \"#utility.yul\":923:1236   */\n      swap3\n      swap2\n      pop\n      pop\n      jump\t// out\n        /* \"#utility.yul\":1242:1317   */\n    tag_123:\n        /* \"#utility.yul\":1275:1281   */\n      0x00\n        /* \"#utility.yul\":1308:1310   */\n      0x40\n        /* \"#utility.yul\":1302:1311   */\n      mload\n        /* \"#utility.yul\":1292:1311   */\n      swap1\n      pop\n        /* \"#utility.yul\":1242:1317   */\n      swap1\n      jump\t// out\n        /* \"#utility.yul\":1323:1440   */\n    tag_124:\n        /* \"#utility.yul\":1432:1433   */\n      0x00\n        /* \"#utility.yul\":1429:1430   */\n      dup1\n        /* \"#utility.yul\":1422:1434   */\n      revert\n        /* \"#utility.yul\":1446:1563   */\n    tag_125:\n        /* \"#utility.yul\":1555:1556   */\n      0x00\n        /* \"#utility.yul\":1552:1553   */\n      dup1\n        /* \"#utility.yul\":1545:1557   */\n      revert\n        /* \"#utility.yul\":1569:1646   */\n    tag_126:\n        /* \"#utility.yul\":1606:1613   */\n      0x00\n        /* \"#utility.yul\":1635:1640   */\n      dup2\n        /* \"#utility.yul\":1624:1640   */\n      swap1\n      pop\n        /* \"#utility.yul\":1569:1646   */\n      swap2\n      swap1\n      pop\n      jump\t// out\n        /* \"#utility.yul\":1652:1774   */\n    tag_127:\n        /* \"#utility.yul\":1725:1749   */\n      tag_189\n        /* \"#utility.yul\":1743:1748   */\n      dup2\n        /* \"#utility.yul\":1725:1749   */\n      tag_126\n      jump\t// in\n    tag_189:\n        /* \"#utility.yul\":1718:1723   */\n      dup2\n        /* \"#utility.yul\":1715:1750   */\n      eq\n        /* \"#utility.yul\":1705:1768   */\n      tag_190\n      jumpi\n        /* \"#utility.yul\":1764:1765   */\n      0x00\n        /* \"#utility.yul\":1761:1762   */\n      dup1\n        /* \"#utility.yul\":1754:1766   */\n      revert\n        /* \"#utility.yul\":1705:1768   */\n    tag_190:\n        /* \"#utility.yul\":1652:1774   */\n      pop\n      jump\t// out\n        /* \"#utility.yul\":1780:1919   */\n    tag_128:\n        /* \"#utility.yul\":1826:1831   */\n      0x00\n        /* \"#utility.yul\":1864:1870   */\n      dup2\n        /* \"#utility.yul\":1851:1871   */\n      calldataload\n        /* \"#utility.yul\":1842:1871   */\n      swap1\n      pop\n        /* \"#utility.yul\":1880:1913   */\n      tag_192\n        /* \"#utility.yul\":1907:1912   */\n      dup2\n        /* \"#utility.yul\":1880:1913   */\n      tag_127\n      jump\t// in\n    tag_192:\n        /* \"#utility.yul\":1780:1919   */\n      swap3\n      swap2\n      pop\n      pop\n      jump\t// out\n        /* \"#utility.yul\":1925:2042   */\n    tag_129:\n        /* \"#utility.yul\":2034:2035   */\n      0x00\n        /* \"#utility.yul\":2031:2032   */\n      dup1\n        /* \"#utility.yul\":2024:2036   */\n      revert\n        /* \"#utility.yul\":2048:2165   */\n    tag_130:\n        /* \"#utility.yul\":2157:2158   */\n      0x00\n        /* \"#utility.yul\":2154:2155   */\n      dup1\n        /* \"#utility.yul\":2147:2159   */\n      revert\n        /* \"#utility.yul\":2171:2351   */\n    tag_131:\n        /* \"#utility.yul\":2219:2296   */\n      0x4e487b7100000000000000000000000000000000000000000000000000000000\n        /* \"#utility.yul\":2216:2217   */\n      0x00\n        /* \"#utility.yul\":2209:2297   */\n      mstore\n        /* \"#utility.yul\":2316:2320   */\n      0x41\n        /* \"#utility.yul\":2313:2314   */\n      0x04\n        /* \"#utility.yul\":2306:2321   */\n      mstore\n        /* \"#utility.yul\":2340:2344   */\n      0x24\n        /* \"#utility.yul\":2337:2338   */\n      0x00\n        /* \"#utility.yul\":2330:2345   */\n      revert\n        /* \"#utility.yul\":2357:2638   */\n    tag_132:\n        /* \"#utility.yul\":2440:2467   */\n      tag_197\n        /* \"#utility.yul\":2462:2466   */\n      dup3\n        /* \"#utility.yul\":2440:2467   */\n      tag_121\n      jump\t// in\n    tag_197:\n        /* \"#utility.yul\":2432:2438   */\n      dup2\n        /* \"#utility.yul\":2428:2468   */\n      add\n        /* \"#utility.yul\":2570:2576   */\n      dup2\n        /* \"#utility.yul\":2558:2568   */\n      dup2\n        /* \"#utility.yul\":2555:2577   */\n      lt\n        /* \"#utility.yul\":2534:2552   */\n      0xffffffffffffffff\n        /* \"#utility.yul\":2522:2532   */\n      dup3\n        /* \"#utility.yul\":2519:2553   */\n      gt\n        /* \"#utility.yul\":2516:2578   */\n      or\n        /* \"#utility.yul\":2513:2601   */\n      iszero\n      tag_198\n      jumpi\n        /* \"#utility.yul\":2581:2599   */\n      tag_199\n      tag_131\n      jump\t// in\n    tag_199:\n        /* \"#utility.yul\":2513:2601   */\n    tag_198:\n        /* \"#utility.yul\":2621:2631   */\n      dup1\n        /* \"#utility.yul\":2617:2619   */\n      0x40\n        /* \"#utility.yul\":2610:2632   */\n      mstore\n        /* \"#utility.yul\":2400:2638   */\n      pop\n        /* \"#utility.yul\":2357:2638   */\n      pop\n      pop\n      jump\t// out\n        /* \"#utility.yul\":2644:2773   */\n    tag_133:\n        /* \"#utility.yul\":2678:2684   */\n      0x00\n        /* \"#utility.yul\":2705:2725   */\n      tag_201\n      tag_123\n      jump\t// in\n    tag_201:\n        /* \"#utility.yul\":2695:2725   */\n      swap1\n      pop\n        /* \"#utility.yul\":2734:2767   */\n      tag_202\n        /* \"#utility.yul\":2762:2766   */\n      dup3\n        /* \"#utility.yul\":2754:2760   */\n      dup3\n        /* \"#utility.yul\":2734:2767   */\n      tag_132\n      jump\t// in\n    tag_202:\n        /* \"#utility.yul\":2644:2773   */\n      swap2\n      swap1\n      pop\n      jump\t// out\n        /* \"#utility.yul\":2779:3087   */\n    tag_134:\n        /* \"#utility.yul\":2841:2845   */\n      0x00\n        /* \"#utility.yul\":2931:2949   */\n      0xffffffffffffffff\n        /* \"#utility.yul\":2923:2929   */\n      dup3\n        /* \"#utility.yul\":2920:2950   */\n      gt\n        /* \"#utility.yul\":2917:2973   */\n      iszero\n      tag_204\n      jumpi\n        /* \"#utility.yul\":2953:2971   */\n      tag_205\n      tag_131\n      jump\t// in\n    tag_205:\n        /* \"#utility.yul\":2917:2973   */\n    tag_204:\n        /* \"#utility.yul\":2991:3020   */\n      tag_206\n        /* \"#utility.yul\":3013:3019   */\n      dup3\n        /* \"#utility.yul\":2991:3020   */\n      tag_121\n      jump\t// in\n    tag_206:\n        /* \"#utility.yul\":2983:3020   */\n      swap1\n      pop\n        /* \"#utility.yul\":3075:3079   */\n      0x20\n        /* \"#utility.yul\":3069:3073   */\n      dup2\n        /* \"#utility.yul\":3065:3080   */\n      add\n        /* \"#utility.yul\":3057:3080   */\n      swap1\n      pop\n        /* \"#utility.yul\":2779:3087   */\n      swap2\n      swap1\n      pop\n      jump\t// out\n        /* \"#utility.yul\":3093:3241   */\n    tag_135:\n        /* \"#utility.yul\":3191:3197   */\n      dup3\n        /* \"#utility.yul\":3186:3189   */\n      dup2\n        /* \"#utility.yul\":3181:3184   */\n      dup4\n        /* \"#utility.yul\":3168:3198   */\n      calldatacopy\n        /* \"#utility.yul\":3232:3233   */\n      0x00\n        /* \"#utility.yul\":3223:3229   */\n      dup4\n        /* \"#utility.yul\":3218:3221   */\n      dup4\n        /* \"#utility.yul\":3214:3230   */\n      add\n        /* \"#utility.yul\":3207:3234   */\n      mstore\n        /* \"#utility.yul\":3093:3241   */\n      pop\n      pop\n      pop\n      jump\t// out\n        /* \"#utility.yul\":3247:3672   */\n    tag_136:\n        /* \"#utility.yul\":3325:3330   */\n      0x00\n        /* \"#utility.yul\":3350:3416   */\n      tag_209\n        /* \"#utility.yul\":3366:3415   */\n      tag_210\n        /* \"#utility.yul\":3408:3414   */\n      dup5\n        /* \"#utility.yul\":3366:3415   */\n      tag_134\n      jump\t// in\n    tag_210:\n        /* \"#utility.yul\":3350:3416   */\n      tag_133\n      jump\t// in\n    tag_209:\n        /* \"#utility.yul\":3341:3416   */\n      swap1\n      pop\n        /* \"#utility.yul\":3439:3445   */\n      dup3\n        /* \"#utility.yul\":3432:3437   */\n      dup2\n        /* \"#utility.yul\":3425:3446   */\n      mstore\n        /* \"#utility.yul\":3477:3481   */\n      0x20\n        /* \"#utility.yul\":3470:3475   */\n      dup2\n        /* \"#utility.yul\":3466:3482   */\n      add\n        /* \"#utility.yul\":3515:3518   */\n      dup5\n        /* \"#utility.yul\":3506:3512   */\n      dup5\n        /* \"#utility.yul\":3501:3504   */\n      dup5\n        /* \"#utility.yul\":3497:3513   */\n      add\n        /* \"#utility.yul\":3494:3519   */\n      gt\n        /* \"#utility.yul\":3491:3603   */\n      iszero\n      tag_211\n      jumpi\n        /* \"#utility.yul\":3522:3601   */\n      tag_212\n      tag_130\n      jump\t// in\n    tag_212:\n        /* \"#utility.yul\":3491:3603   */\n    tag_211:\n        /* \"#utility.yul\":3612:3666   */\n      tag_213\n        /* \"#utility.yul\":3659:3665   */\n      dup5\n        /* \"#utility.yul\":3654:3657   */\n      dup3\n        /* \"#utility.yul\":3649:3652   */\n      dup6\n        /* \"#utility.yul\":3612:3666   */\n      tag_135\n      jump\t// in\n    tag_213:\n        /* \"#utility.yul\":3331:3672   */\n      pop\n        /* \"#utility.yul\":3247:3672   */\n      swap4\n      swap3\n      pop\n      pop\n      pop\n      jump\t// out\n        /* \"#utility.yul\":3692:4032   */\n    tag_137:\n        /* \"#utility.yul\":3748:3753   */\n      0x00\n        /* \"#utility.yul\":3797:3800   */\n      dup3\n        /* \"#utility.yul\":3790:3794   */\n      0x1f\n        /* \"#utility.yul\":3782:3788   */\n      dup4\n        /* \"#utility.yul\":3778:3795   */\n      add\n        /* \"#utility.yul\":3774:3801   */\n      slt\n        /* \"#utility.yul\":3764:3886   */\n      tag_215\n      jumpi\n        /* \"#utility.yul\":3805:3884   */\n      tag_216\n      tag_129\n      jump\t// in\n    tag_216:\n        /* \"#utility.yul\":3764:3886   */\n    tag_215:\n        /* \"#utility.yul\":3922:3928   */\n      dup2\n        /* \"#utility.yul\":3909:3929   */\n      calldataload\n        /* \"#utility.yul\":3947:4026   */\n      tag_217\n        /* \"#utility.yul\":4022:4025   */\n      dup5\n        /* \"#utility.yul\":4014:4020   */\n      dup3\n        /* \"#utility.yul\":4007:4011   */\n      0x20\n        /* \"#utility.yul\":3999:4005   */\n      dup7\n        /* \"#utility.yul\":3995:4012   */\n      add\n        /* \"#utility.yul\":3947:4026   */\n      tag_136\n      jump\t// in\n    tag_217:\n        /* \"#utility.yul\":3938:4026   */\n      swap2\n      pop\n        /* \"#utility.yul\":3754:4032   */\n      pop\n        /* \"#utility.yul\":3692:4032   */\n      swap3\n      swap2\n      pop\n      pop\n      jump\t// out\n        /* \"#utility.yul\":4038:4692   */\n    tag_17:\n        /* \"#utility.yul\":4116:4122   */\n      0x00\n        /* \"#utility.yul\":4124:4130   */\n      dup1\n        /* \"#utility.yul\":4173:4175   */\n      0x40\n        /* \"#utility.yul\":4161:4170   */\n      dup4\n        /* \"#utility.yul\":4152:4159   */\n      dup6\n        /* \"#utility.yul\":4148:4171   */\n      sub\n        /* \"#utility.yul\":4144:4176   */\n      slt\n        /* \"#utility.yul\":4141:4260   */\n      iszero\n      tag_219\n      jumpi\n        /* \"#utility.yul\":4179:4258   */\n      tag_220\n      tag_124\n      jump\t// in\n    tag_220:\n        /* \"#utility.yul\":4141:4260   */\n    tag_219:\n        /* \"#utility.yul\":4299:4300   */\n      0x00\n        /* \"#utility.yul\":4324:4377   */\n      tag_221\n        /* \"#utility.yul\":4369:4376   */\n      dup6\n        /* \"#utility.yul\":4360:4366   */\n      dup3\n        /* \"#utility.yul\":4349:4358   */\n      dup7\n        /* \"#utility.yul\":4345:4367   */\n      add\n        /* \"#utility.yul\":4324:4377   */\n      tag_128\n      jump\t// in\n    tag_221:\n        /* \"#utility.yul\":4314:4377   */\n      swap3\n      pop\n        /* \"#utility.yul\":4270:4387   */\n      pop\n        /* \"#utility.yul\":4454:4456   */\n      0x20\n        /* \"#utility.yul\":4443:4452   */\n      dup4\n        /* \"#utility.yul\":4439:4457   */\n      add\n        /* \"#utility.yul\":4426:4458   */\n      calldataload\n        /* \"#utility.yul\":4485:4503   */\n      0xffffffffffffffff\n        /* \"#utility.yul\":4477:4483   */\n      dup2\n        /* \"#utility.yul\":4474:4504   */\n      gt\n        /* \"#utility.yul\":4471:4588   */\n      iszero\n      tag_222\n      jumpi\n        /* \"#utility.yul\":4507:4586   */\n      tag_223\n      tag_125\n      jump\t// in\n    tag_223:\n        /* \"#utility.yul\":4471:4588   */\n    tag_222:\n        /* \"#utility.yul\":4612:4675   */\n      tag_224\n        /* \"#utility.yul\":4667:4674   */\n      dup6\n        /* \"#utility.yul\":4658:4664   */\n      dup3\n        /* \"#utility.yul\":4647:4656   */\n      dup7\n        /* \"#utility.yul\":4643:4665   */\n      add\n        /* \"#utility.yul\":4612:4675   */\n      tag_137\n      jump\t// in\n    tag_224:\n        /* \"#utility.yul\":4602:4675   */\n      swap2\n      pop\n        /* \"#utility.yul\":4397:4685   */\n      pop\n        /* \"#utility.yul\":4038:4692   */\n      swap3\n      pop\n      swap3\n      swap1\n      pop\n      jump\t// out\n        /* \"#utility.yul\":4698:5207   */\n    tag_21:\n        /* \"#utility.yul\":4767:4773   */\n      0x00\n        /* \"#utility.yul\":4816:4818   */\n      0x20\n        /* \"#utility.yul\":4804:4813   */\n      dup3\n        /* \"#utility.yul\":4795:4802   */\n      dup5\n        /* \"#utility.yul\":4791:4814   */\n      sub\n        /* \"#utility.yul\":4787:4819   */\n      slt\n        /* \"#utility.yul\":4784:4903   */\n      iszero\n      tag_226\n      jumpi\n        /* \"#utility.yul\":4822:4901   */\n      tag_227\n      tag_124\n      jump\t// in\n    tag_227:\n        /* \"#utility.yul\":4784:4903   */\n    tag_226:\n        /* \"#utility.yul\":4970:4971   */\n      0x00\n        /* \"#utility.yul\":4959:4968   */\n      dup3\n        /* \"#utility.yul\":4955:4972   */\n      add\n        /* \"#utility.yul\":4942:4973   */\n      calldataload\n        /* \"#utility.yul\":5000:5018   */\n      0xffffffffffffffff\n        /* \"#utility.yul\":4992:4998   */\n      dup2\n        /* \"#utility.yul\":4989:5019   */\n      gt\n        /* \"#utility.yul\":4986:5103   */\n      iszero\n      tag_228\n      jumpi\n        /* \"#utility.yul\":5022:5101   */\n      tag_229\n      tag_125\n      jump\t// in\n    tag_229:\n        /* \"#utility.yul\":4986:5103   */\n    tag_228:\n        /* \"#utility.yul\":5127:5190   */\n      tag_230\n        /* \"#utility.yul\":5182:5189   */\n      dup5\n        /* \"#utility.yul\":5173:5179   */\n      dup3\n        /* \"#utility.yul\":5162:5171   */\n      dup6\n        /* \"#utility.yul\":5158:5180   */\n      add\n        /* \"#utility.yul\":5127:5190   */\n      tag_137\n      jump\t// in\n    tag_230:\n        /* \"#utility.yul\":5117:5190   */\n      swap2\n      pop\n        /* \"#utility.yul\":4913:5200   */\n      pop\n        /* \"#utility.yul\":4698:5207   */\n      swap3\n      swap2\n      pop\n      pop\n      jump\t// out\n        /* \"#utility.yul\":5213:5542   */\n    tag_28:\n        /* \"#utility.yul\":5272:5278   */\n      0x00\n        /* \"#utility.yul\":5321:5323   */\n      0x20\n        /* \"#utility.yul\":5309:5318   */\n      dup3\n        /* \"#utility.yul\":5300:5307   */\n      dup5\n        /* \"#utility.yul\":5296:5319   */\n      sub\n        /* \"#utility.yul\":5292:5324   */\n      slt\n        /* \"#utility.yul\":5289:5408   */\n      iszero\n      tag_232\n      jumpi\n        /* \"#utility.yul\":5327:5406   */\n      tag_233\n      tag_124\n      jump\t// in\n    tag_233:\n        /* \"#utility.yul\":5289:5408   */\n    tag_232:\n        /* \"#utility.yul\":5447:5448   */\n      0x00\n        /* \"#utility.yul\":5472:5525   */\n      tag_234\n        /* \"#utility.yul\":5517:5524   */\n      dup5\n        /* \"#utility.yul\":5508:5514   */\n      dup3\n        /* \"#utility.yul\":5497:5506   */\n      dup6\n        /* \"#utility.yul\":5493:5515   */\n      add\n        /* \"#utility.yul\":5472:5525   */\n      tag_128\n      jump\t// in\n    tag_234:\n        /* \"#utility.yul\":5462:5525   */\n      swap2\n      pop\n        /* \"#utility.yul\":5418:5535   */\n      pop\n        /* \"#utility.yul\":5213:5542   */\n      swap3\n      swap2\n      pop\n      pop\n      jump\t// out\n        /* \"#utility.yul\":5548:5672   */\n    tag_138:\n        /* \"#utility.yul\":5625:5631   */\n      0x00\n        /* \"#utility.yul\":5659:5664   */\n      dup2\n        /* \"#utility.yul\":5653:5665   */\n      mload\n        /* \"#utility.yul\":5643:5665   */\n      swap1\n      pop\n        /* \"#utility.yul\":5548:5672   */\n      swap2\n      swap1\n      pop\n      jump\t// out\n        /* \"#utility.yul\":5678:5872   */\n    tag_139:\n        /* \"#utility.yul\":5787:5798   */\n      0x00\n        /* \"#utility.yul\":5821:5827   */\n      dup3\n        /* \"#utility.yul\":5816:5819   */\n      dup3\n        /* \"#utility.yul\":5809:5828   */\n      mstore\n        /* \"#utility.yul\":5861:5865   */\n      0x20\n        /* \"#utility.yul\":5856:5859   */\n      dup3\n        /* \"#utility.yul\":5852:5866   */\n      add\n        /* \"#utility.yul\":5837:5866   */\n      swap1\n      pop\n        /* \"#utility.yul\":5678:5872   */\n      swap3\n      swap2\n      pop\n      pop\n      jump\t// out\n        /* \"#utility.yul\":5878:6020   */\n    tag_140:\n        /* \"#utility.yul\":5955:5959   */\n      0x00\n        /* \"#utility.yul\":5978:5981   */\n      dup2\n        /* \"#utility.yul\":5970:5981   */\n      swap1\n      pop\n        /* \"#utility.yul\":6008:6012   */\n      0x20\n        /* \"#utility.yul\":6003:6006   */\n      dup3\n        /* \"#utility.yul\":5999:6013   */\n      add\n        /* \"#utility.yul\":5991:6013   */\n      swap1\n      pop\n        /* \"#utility.yul\":5878:6020   */\n      swap2\n      swap1\n      pop\n      jump\t// out\n        /* \"#utility.yul\":6026:6185   */\n    tag_141:\n        /* \"#utility.yul\":6100:6111   */\n      0x00\n        /* \"#utility.yul\":6134:6140   */\n      dup3\n        /* \"#utility.yul\":6129:6132   */\n      dup3\n        /* \"#utility.yul\":6122:6141   */\n      mstore\n        /* \"#utility.yul\":6174:6178   */\n      0x20\n        /* \"#utility.yul\":6169:6172   */\n      dup3\n        /* \"#utility.yul\":6165:6179   */\n      add\n        /* \"#utility.yul\":6150:6179   */\n      swap1\n      pop\n        /* \"#utility.yul\":6026:6185   */\n      swap3\n      swap2\n      pop\n      pop\n      jump\t// out\n        /* \"#utility.yul\":6191:6548   */\n    tag_142:\n        /* \"#utility.yul\":6269:6272   */\n      0x00\n        /* \"#utility.yul\":6297:6336   */\n      tag_240\n        /* \"#utility.yul\":6330:6335   */\n      dup3\n        /* \"#utility.yul\":6297:6336   */\n      tag_118\n      jump\t// in\n    tag_240:\n        /* \"#utility.yul\":6352:6413   */\n      tag_241\n        /* \"#utility.yul\":6406:6412   */\n      dup2\n        /* \"#utility.yul\":6401:6404   */\n      dup6\n        /* \"#utility.yul\":6352:6413   */\n      tag_141\n      jump\t// in\n    tag_241:\n        /* \"#utility.yul\":6345:6413   */\n      swap4\n      pop\n        /* \"#utility.yul\":6422:6487   */\n      tag_242\n        /* \"#utility.yul\":6480:6486   */\n      dup2\n        /* \"#utility.yul\":6475:6478   */\n      dup6\n        /* \"#utility.yul\":6468:6472   */\n      0x20\n        /* \"#utility.yul\":6461:6466   */\n      dup7\n        /* \"#utility.yul\":6457:6473   */\n      add\n        /* \"#utility.yul\":6422:6487   */\n      tag_120\n      jump\t// in\n    tag_242:\n        /* \"#utility.yul\":6512:6541   */\n      tag_243\n        /* \"#utility.yul\":6534:6540   */\n      dup2\n        /* \"#utility.yul\":6512:6541   */\n      tag_121\n      jump\t// in\n    tag_243:\n        /* \"#utility.yul\":6507:6510   */\n      dup5\n        /* \"#utility.yul\":6503:6542   */\n      add\n        /* \"#utility.yul\":6496:6542   */\n      swap2\n      pop\n        /* \"#utility.yul\":6273:6548   */\n      pop\n        /* \"#utility.yul\":6191:6548   */\n      swap3\n      swap2\n      pop\n      pop\n      jump\t// out\n        /* \"#utility.yul\":6554:6750   */\n    tag_143:\n        /* \"#utility.yul\":6643:6653   */\n      0x00\n        /* \"#utility.yul\":6678:6744   */\n      tag_245\n        /* \"#utility.yul\":6740:6743   */\n      dup4\n        /* \"#utility.yul\":6732:6738   */\n      dup4\n        /* \"#utility.yul\":6678:6744   */\n      tag_142\n      jump\t// in\n    tag_245:\n        /* \"#utility.yul\":6664:6744   */\n      swap1\n      pop\n        /* \"#utility.yul\":6554:6750   */\n      swap3\n      swap2\n      pop\n      pop\n      jump\t// out\n        /* \"#utility.yul\":6756:6879   */\n    tag_144:\n        /* \"#utility.yul\":6836:6840   */\n      0x00\n        /* \"#utility.yul\":6868:6872   */\n      0x20\n        /* \"#utility.yul\":6863:6866   */\n      dup3\n        /* \"#utility.yul\":6859:6873   */\n      add\n        /* \"#utility.yul\":6851:6873   */\n      swap1\n      pop\n        /* \"#utility.yul\":6756:6879   */\n      swap2\n      swap1\n      pop\n      jump\t// out\n        /* \"#utility.yul\":6913:7904   */\n    tag_145:\n        /* \"#utility.yul\":7052:7055   */\n      0x00\n        /* \"#utility.yul\":7081:7145   */\n      tag_248\n        /* \"#utility.yul\":7139:7144   */\n      dup3\n        /* \"#utility.yul\":7081:7145   */\n      tag_138\n      jump\t// in\n    tag_248:\n        /* \"#utility.yul\":7161:7257   */\n      tag_249\n        /* \"#utility.yul\":7250:7256   */\n      dup2\n        /* \"#utility.yul\":7245:7248   */\n      dup6\n        /* \"#utility.yul\":7161:7257   */\n      tag_139\n      jump\t// in\n    tag_249:\n        /* \"#utility.yul\":7154:7257   */\n      swap4\n      pop\n        /* \"#utility.yul\":7283:7286   */\n      dup4\n        /* \"#utility.yul\":7328:7332   */\n      0x20\n        /* \"#utility.yul\":7320:7326   */\n      dup3\n        /* \"#utility.yul\":7316:7333   */\n      mul\n        /* \"#utility.yul\":7311:7314   */\n      dup6\n        /* \"#utility.yul\":7307:7334   */\n      add\n        /* \"#utility.yul\":7358:7424   */\n      tag_250\n        /* \"#utility.yul\":7418:7423   */\n      dup6\n        /* \"#utility.yul\":7358:7424   */\n      tag_140\n      jump\t// in\n    tag_250:\n        /* \"#utility.yul\":7447:7454   */\n      dup1\n        /* \"#utility.yul\":7478:7479   */\n      0x00\n        /* \"#utility.yul\":7463:7859   */\n    tag_251:\n        /* \"#utility.yul\":7488:7494   */\n      dup6\n        /* \"#utility.yul\":7485:7486   */\n      dup2\n        /* \"#utility.yul\":7482:7495   */\n      lt\n        /* \"#utility.yul\":7463:7859   */\n      iszero\n      tag_253\n      jumpi\n        /* \"#utility.yul\":7559:7568   */\n      dup5\n        /* \"#utility.yul\":7553:7557   */\n      dup5\n        /* \"#utility.yul\":7549:7569   */\n      sub\n        /* \"#utility.yul\":7544:7547   */\n      dup10\n        /* \"#utility.yul\":7537:7570   */\n      mstore\n        /* \"#utility.yul\":7610:7616   */\n      dup2\n        /* \"#utility.yul\":7604:7617   */\n      mload\n        /* \"#utility.yul\":7638:7722   */\n      tag_254\n        /* \"#utility.yul\":7717:7721   */\n      dup6\n        /* \"#utility.yul\":7702:7715   */\n      dup3\n        /* \"#utility.yul\":7638:7722   */\n      tag_143\n      jump\t// in\n    tag_254:\n        /* \"#utility.yul\":7630:7722   */\n      swap5\n      pop\n        /* \"#utility.yul\":7745:7815   */\n      tag_255\n        /* \"#utility.yul\":7808:7814   */\n      dup4\n        /* \"#utility.yul\":7745:7815   */\n      tag_144\n      jump\t// in\n    tag_255:\n        /* \"#utility.yul\":7735:7815   */\n      swap3\n      pop\n        /* \"#utility.yul\":7844:7848   */\n      0x20\n        /* \"#utility.yul\":7839:7842   */\n      dup11\n        /* \"#utility.yul\":7835:7849   */\n      add\n        /* \"#utility.yul\":7828:7849   */\n      swap10\n      pop\n        /* \"#utility.yul\":7523:7859   */\n      pop\n        /* \"#utility.yul\":7510:7511   */\n      0x01\n        /* \"#utility.yul\":7507:7508   */\n      dup2\n        /* \"#utility.yul\":7503:7512   */\n      add\n        /* \"#utility.yul\":7498:7512   */\n      swap1\n      pop\n        /* \"#utility.yul\":7463:7859   */\n      jump(tag_251)\n    tag_253:\n        /* \"#utility.yul\":7467:7481   */\n      pop\n        /* \"#utility.yul\":7875:7879   */\n      dup3\n        /* \"#utility.yul\":7868:7879   */\n      swap8\n      pop\n        /* \"#utility.yul\":7895:7898   */\n      dup8\n        /* \"#utility.yul\":7888:7898   */\n      swap6\n      pop\n        /* \"#utility.yul\":7057:7904   */\n      pop\n      pop\n      pop\n      pop\n      pop\n        /* \"#utility.yul\":6913:7904   */\n      swap3\n      swap2\n      pop\n      pop\n      jump\t// out\n        /* \"#utility.yul\":7910:8323   */\n    tag_37:\n        /* \"#utility.yul\":8073:8077   */\n      0x00\n        /* \"#utility.yul\":8111:8113   */\n      0x20\n        /* \"#utility.yul\":8100:8109   */\n      dup3\n        /* \"#utility.yul\":8096:8114   */\n      add\n        /* \"#utility.yul\":8088:8114   */\n      swap1\n      pop\n        /* \"#utility.yul\":8160:8169   */\n      dup2\n        /* \"#utility.yul\":8154:8158   */\n      dup2\n        /* \"#utility.yul\":8150:8170   */\n      sub\n        /* \"#utility.yul\":8146:8147   */\n      0x00\n        /* \"#utility.yul\":8135:8144   */\n      dup4\n        /* \"#utility.yul\":8131:8148   */\n      add\n        /* \"#utility.yul\":8124:8171   */\n      mstore\n        /* \"#utility.yul\":8188:8316   */\n      tag_257\n        /* \"#utility.yul\":8311:8315   */\n      dup2\n        /* \"#utility.yul\":8302:8308   */\n      dup5\n        /* \"#utility.yul\":8188:8316   */\n      tag_145\n      jump\t// in\n    tag_257:\n        /* \"#utility.yul\":8180:8316   */\n      swap1\n      pop\n        /* \"#utility.yul\":7910:8323   */\n      swap3\n      swap2\n      pop\n      pop\n      jump\t// out\n        /* \"#utility.yul\":8329:8509   */\n    tag_146:\n        /* \"#utility.yul\":8377:8454   */\n      0x4e487b7100000000000000000000000000000000000000000000000000000000\n        /* \"#utility.yul\":8374:8375   */\n      0x00\n        /* \"#utility.yul\":8367:8455   */\n      mstore\n        /* \"#utility.yul\":8474:8478   */\n      0x22\n        /* \"#utility.yul\":8471:8472   */\n      0x04\n        /* \"#utility.yul\":8464:8479   */\n      mstore\n        /* \"#utility.yul\":8498:8502   */\n      0x24\n        /* \"#utility.yul\":8495:8496   */\n      0x00\n        /* \"#utility.yul\":8488:8503   */\n      revert\n        /* \"#utility.yul\":8515:8835   */\n    tag_39:\n        /* \"#utility.yul\":8559:8565   */\n      0x00\n        /* \"#utility.yul\":8596:8597   */\n      0x02\n        /* \"#utility.yul\":8590:8594   */\n      dup3\n        /* \"#utility.yul\":8586:8598   */\n      div\n        /* \"#utility.yul\":8576:8598   */\n      swap1\n      pop\n        /* \"#utility.yul\":8643:8644   */\n      0x01\n        /* \"#utility.yul\":8637:8641   */\n      dup3\n        /* \"#utility.yul\":8633:8645   */\n      and\n        /* \"#utility.yul\":8664:8682   */\n      dup1\n        /* \"#utility.yul\":8654:8735   */\n      tag_260\n      jumpi\n        /* \"#utility.yul\":8720:8724   */\n      0x7f\n        /* \"#utility.yul\":8712:8718   */\n      dup3\n        /* \"#utility.yul\":8708:8725   */\n      and\n        /* \"#utility.yul\":8698:8725   */\n      swap2\n      pop\n        /* \"#utility.yul\":8654:8735   */\n    tag_260:\n        /* \"#utility.yul\":8782:8784   */\n      0x20\n        /* \"#utility.yul\":8774:8780   */\n      dup3\n        /* \"#utility.yul\":8771:8785   */\n      lt\n        /* \"#utility.yul\":8751:8769   */\n      dup2\n        /* \"#utility.yul\":8748:8786   */\n      sub\n        /* \"#utility.yul\":8745:8829   */\n      tag_261\n      jumpi\n        /* \"#utility.yul\":8801:8819   */\n      tag_262\n      tag_146\n      jump\t// in\n    tag_262:\n        /* \"#utility.yul\":8745:8829   */\n    tag_261:\n        /* \"#utility.yul\":8566:8835   */\n      pop\n        /* \"#utility.yul\":8515:8835   */\n      swap2\n      swap1\n      pop\n      jump\t// out\n        /* \"#utility.yul\":8841:9010   */\n    tag_147:\n        /* \"#utility.yul\":8981:9002   */\n      0x496e646578206f7574206f6620626f756e647300000000000000000000000000\n        /* \"#utility.yul\":8977:8978   */\n      0x00\n        /* \"#utility.yul\":8969:8975   */\n      dup3\n        /* \"#utility.yul\":8965:8979   */\n      add\n        /* \"#utility.yul\":8958:9003   */\n      mstore\n        /* \"#utility.yul\":8841:9010   */\n      pop\n      jump\t// out\n        /* \"#utility.yul\":9016:9382   */\n    tag_148:\n        /* \"#utility.yul\":9158:9161   */\n      0x00\n        /* \"#utility.yul\":9179:9246   */\n      tag_265\n        /* \"#utility.yul\":9243:9245   */\n      0x13\n        /* \"#utility.yul\":9238:9241   */\n      dup4\n        /* \"#utility.yul\":9179:9246   */\n      tag_119\n      jump\t// in\n    tag_265:\n        /* \"#utility.yul\":9172:9246   */\n      swap2\n      pop\n        /* \"#utility.yul\":9255:9348   */\n      tag_266\n        /* \"#utility.yul\":9344:9347   */\n      dup3\n        /* \"#utility.yul\":9255:9348   */\n      tag_147\n      jump\t// in\n    tag_266:\n        /* \"#utility.yul\":9373:9375   */\n      0x20\n        /* \"#utility.yul\":9368:9371   */\n      dup3\n        /* \"#utility.yul\":9364:9376   */\n      add\n        /* \"#utility.yul\":9357:9376   */\n      swap1\n      pop\n        /* \"#utility.yul\":9016:9382   */\n      swap2\n      swap1\n      pop\n      jump\t// out\n        /* \"#utility.yul\":9388:9807   */\n    tag_47:\n        /* \"#utility.yul\":9554:9558   */\n      0x00\n        /* \"#utility.yul\":9592:9594   */\n      0x20\n        /* \"#utility.yul\":9581:9590   */\n      dup3\n        /* \"#utility.yul\":9577:9595   */\n      add\n        /* \"#utility.yul\":9569:9595   */\n      swap1\n      pop\n        /* \"#utility.yul\":9641:9650   */\n      dup2\n        /* \"#utility.yul\":9635:9639   */\n      dup2\n        /* \"#utility.yul\":9631:9651   */\n      sub\n        /* \"#utility.yul\":9627:9628   */\n      0x00\n        /* \"#utility.yul\":9616:9625   */\n      dup4\n        /* \"#utility.yul\":9612:9629   */\n      add\n        /* \"#utility.yul\":9605:9652   */\n      mstore\n        /* \"#utility.yul\":9669:9800   */\n      tag_268\n        /* \"#utility.yul\":9795:9799   */\n      dup2\n        /* \"#utility.yul\":9669:9800   */\n      tag_148\n      jump\t// in\n    tag_268:\n        /* \"#utility.yul\":9661:9800   */\n      swap1\n      pop\n        /* \"#utility.yul\":9388:9807   */\n      swap2\n      swap1\n      pop\n      jump\t// out\n        /* \"#utility.yul\":9813:9993   */\n    tag_51:\n        /* \"#utility.yul\":9861:9938   */\n      0x4e487b7100000000000000000000000000000000000000000000000000000000\n        /* \"#utility.yul\":9858:9859   */\n      0x00\n        /* \"#utility.yul\":9851:9939   */\n      mstore\n        /* \"#utility.yul\":9958:9962   */\n      0x32\n        /* \"#utility.yul\":9955:9956   */\n      0x04\n        /* \"#utility.yul\":9948:9963   */\n      mstore\n        /* \"#utility.yul\":9982:9986   */\n      0x24\n        /* \"#utility.yul\":9979:9980   */\n      0x00\n        /* \"#utility.yul\":9972:9987   */\n      revert\n        /* \"#utility.yul\":9999:10140   */\n    tag_149:\n        /* \"#utility.yul\":10048:10052   */\n      0x00\n        /* \"#utility.yul\":10071:10074   */\n      dup2\n        /* \"#utility.yul\":10063:10074   */\n      swap1\n      pop\n        /* \"#utility.yul\":10094:10097   */\n      dup2\n        /* \"#utility.yul\":10091:10092   */\n      0x00\n        /* \"#utility.yul\":10084:10098   */\n      mstore\n        /* \"#utility.yul\":10128:10132   */\n      0x20\n        /* \"#utility.yul\":10125:10126   */\n      0x00\n        /* \"#utility.yul\":10115:10133   */\n      keccak256\n        /* \"#utility.yul\":10107:10133   */\n      swap1\n      pop\n        /* \"#utility.yul\":9999:10140   */\n      swap2\n      swap1\n      pop\n      jump\t// out\n        /* \"#utility.yul\":10146:10239   */\n    tag_150:\n        /* \"#utility.yul\":10183:10189   */\n      0x00\n        /* \"#utility.yul\":10230:10232   */\n      0x20\n        /* \"#utility.yul\":10225:10227   */\n      0x1f\n        /* \"#utility.yul\":10218:10223   */\n      dup4\n        /* \"#utility.yul\":10214:10228   */\n      add\n        /* \"#utility.yul\":10210:10233   */\n      div\n        /* \"#utility.yul\":10200:10233   */\n      swap1\n      pop\n        /* \"#utility.yul\":10146:10239   */\n      swap2\n      swap1\n      pop\n      jump\t// out\n        /* \"#utility.yul\":10245:10352   */\n    tag_151:\n        /* \"#utility.yul\":10289:10297   */\n      0x00\n        /* \"#utility.yul\":10339:10344   */\n      dup3\n        /* \"#utility.yul\":10333:10337   */\n      dup3\n        /* \"#utility.yul\":10329:10345   */\n      shl\n        /* \"#utility.yul\":10308:10345   */\n      swap1\n      pop\n        /* \"#utility.yul\":10245:10352   */\n      swap3\n      swap2\n      pop\n      pop\n      jump\t// out\n        /* \"#utility.yul\":10358:10751   */\n    tag_152:\n        /* \"#utility.yul\":10427:10433   */\n      0x00\n        /* \"#utility.yul\":10477:10478   */\n      0x08\n        /* \"#utility.yul\":10465:10475   */\n      dup4\n        /* \"#utility.yul\":10461:10479   */\n      mul\n        /* \"#utility.yul\":10500:10597   */\n      tag_274\n        /* \"#utility.yul\":10530:10596   */\n      0xffffffffffffffffffffffffffffffffffffffffffffffffffffffffffffffff\n        /* \"#utility.yul\":10519:10528   */\n      dup3\n        /* \"#utility.yul\":10500:10597   */\n      tag_151\n      jump\t// in\n    tag_274:\n        /* \"#utility.yul\":10618:10657   */\n      tag_275\n        /* \"#utility.yul\":10648:10656   */\n      dup7\n        /* \"#utility.yul\":10637:10646   */\n      dup4\n        /* \"#utility.yul\":10618:10657   */\n      tag_151\n      jump\t// in\n    tag_275:\n        /* \"#utility.yul\":10606:10657   */\n      swap6\n      pop\n        /* \"#utility.yul\":10690:10694   */\n      dup1\n        /* \"#utility.yul\":10686:10695   */\n      not\n        /* \"#utility.yul\":10679:10684   */\n      dup5\n        /* \"#utility.yul\":10675:10696   */\n      and\n        /* \"#utility.yul\":10666:10696   */\n      swap4\n      pop\n        /* \"#utility.yul\":10739:10743   */\n      dup1\n        /* \"#utility.yul\":10729:10737   */\n      dup7\n        /* \"#utility.yul\":10725:10744   */\n      and\n        /* \"#utility.yul\":10718:10723   */\n      dup5\n        /* \"#utility.yul\":10715:10745   */\n      or\n        /* \"#utility.yul\":10705:10745   */\n      swap3\n      pop\n        /* \"#utility.yul\":10434:10751   */\n      pop\n      pop\n        /* \"#utility.yul\":10358:10751   */\n      swap4\n      swap3\n      pop\n      pop\n      pop\n      jump\t// out\n        /* \"#utility.yul\":10757:10817   */\n    tag_153:\n        /* \"#utility.yul\":10785:10788   */\n      0x00\n        /* \"#utility.yul\":10806:10811   */\n      dup2\n        /* \"#utility.yul\":10799:10811   */\n      swap1\n      pop\n        /* \"#utility.yul\":10757:10817   */\n      swap2\n      swap1\n      pop\n      jump\t// out\n        /* \"#utility.yul\":10823:10965   */\n    tag_154:\n        /* \"#utility.yul\":10873:10882   */\n      0x00\n        /* \"#utility.yul\":10906:10959   */\n      tag_278\n        /* \"#utility.yul\":10924:10958   */\n      tag_279\n        /* \"#utility.yul\":10933:10957   */\n      tag_280\n        /* \"#utility.yul\":10951:10956   */\n      dup5\n        /* \"#utility.yul\":10933:10957   */\n      tag_126\n      jump\t// in\n    tag_280:\n        /* \"#utility.yul\":10924:10958   */\n      tag_153\n      jump\t// in\n    tag_279:\n        /* \"#utility.yul\":10906:10959   */\n      tag_126\n      jump\t// in\n    tag_278:\n        /* \"#utility.yul\":10893:10959   */\n      swap1\n      pop\n        /* \"#utility.yul\":10823:10965   */\n      swap2\n      swap1\n      pop\n      jump\t// out\n        /* \"#utility.yul\":10971:11046   */\n    tag_155:\n        /* \"#utility.yul\":11014:11017   */\n      0x00\n        /* \"#utility.yul\":11035:11040   */\n      dup2\n        /* \"#utility.yul\":11028:11040   */\n      swap1\n      pop\n        /* \"#utility.yul\":10971:11046   */\n      swap2\n      swap1\n      pop\n      jump\t// out\n        /* \"#utility.yul\":11052:11321   */\n    tag_156:\n        /* \"#utility.yul\":11162:11201   */\n      tag_283\n        /* \"#utility.yul\":11193:11200   */\n      dup4\n        /* \"#utility.yul\":11162:11201   */\n      tag_154\n      jump\t// in\n    tag_283:\n        /* \"#utility.yul\":11223:11314   */\n      tag_284\n        /* \"#utility.yul\":11272:11313   */\n      tag_285\n        /* \"#utility.yul\":11296:11312   */\n      dup3\n        /* \"#utility.yul\":11272:11313   */\n      tag_155\n      jump\t// in\n    tag_285:\n        /* \"#utility.yul\":11264:11270   */\n      dup5\n        /* \"#utility.yul\":11257:11261   */\n      dup5\n        /* \"#utility.yul\":11251:11262   */\n      sload\n        /* \"#utility.yul\":11223:11314   */\n      tag_152\n      jump\t// in\n    tag_284:\n        /* \"#utility.yul\":11217:11221   */\n      dup3\n        /* \"#utility.yul\":11210:11315   */\n      sstore\n        /* \"#utility.yul\":11128:11321   */\n      pop\n        /* \"#utility.yul\":11052:11321   */\n      pop\n      pop\n      pop\n      jump\t// out\n        /* \"#utility.yul\":11327:11400   */\n    tag_157:\n        /* \"#utility.yul\":11372:11375   */\n      0x00\n        /* \"#utility.yul\":11327:11400   */\n      swap1\n      jump\t// out\n        /* \"#utility.yul\":11406:11595   */\n    tag_158:\n        /* \"#utility.yul\":11483:11515   */\n      tag_288\n      tag_157\n      jump\t// in\n    tag_288:\n        /* \"#utility.yul\":11524:11589   */\n      tag_289\n        /* \"#utility.yul\":11582:11588   */\n      dup2\n        /* \"#utility.yul\":11574:11580   */\n      dup5\n        /* \"#utility.yul\":11568:11572   */\n      dup5\n        /* \"#utility.yul\":11524:11589   */\n      tag_156\n      jump\t// in\n    tag_289:\n        /* \"#utility.yul\":11459:11595   */\n      pop\n        /* \"#utility.yul\":11406:11595   */\n      pop\n      pop\n      jump\t// out\n        /* \"#utility.yul\":11601:11787   */\n    tag_159:\n        /* \"#utility.yul\":11661:11781   */\n    tag_291:\n        /* \"#utility.yul\":11678:11681   */\n      dup2\n        /* \"#utility.yul\":11671:11676   */\n      dup2\n        /* \"#utility.yul\":11668:11682   */\n      lt\n        /* \"#utility.yul\":11661:11781   */\n      iszero\n      tag_293\n      jumpi\n        /* \"#utility.yul\":11732:11771   */\n      tag_294\n        /* \"#utility.yul\":11769:11770   */\n      0x00\n        /* \"#utility.yul\":11762:11767   */\n      dup3\n        /* \"#utility.yul\":11732:11771   */\n      tag_158\n      jump\t// in\n    tag_294:\n        /* \"#utility.yul\":11705:11706   */\n      0x01\n        /* \"#utility.yul\":11698:11703   */\n      dup2\n        /* \"#utility.yul\":11694:11707   */\n      add\n        /* \"#utility.yul\":11685:11707   */\n      swap1\n      pop\n        /* \"#utility.yul\":11661:11781   */\n      jump(tag_291)\n    tag_293:\n        /* \"#utility.yul\":11601:11787   */\n      pop\n      pop\n      jump\t// out\n        /* \"#utility.yul\":11793:12336   */\n    tag_160:\n        /* \"#utility.yul\":11894:11896   */\n      0x1f\n        /* \"#utility.yul\":11889:11892   */\n      dup3\n        /* \"#utility.yul\":11886:11897   */\n      gt\n        /* \"#utility.yul\":11883:12329   */\n      iszero\n      tag_296\n      jumpi\n        /* \"#utility.yul\":11928:11966   */\n      tag_297\n        /* \"#utility.yul\":11960:11965   */\n      dup2\n        /* \"#utility.yul\":11928:11966   */\n      tag_149\n      jump\t// in\n    tag_297:\n        /* \"#utility.yul\":12012:12041   */\n      tag_298\n        /* \"#utility.yul\":12030:12040   */\n      dup5\n        /* \"#utility.yul\":12012:12041   */\n      tag_150\n      jump\t// in\n    tag_298:\n        /* \"#utility.yul\":12002:12010   */\n      dup2\n        /* \"#utility.yul\":11998:12042   */\n      add\n        /* \"#utility.yul\":12195:12197   */\n      0x20\n        /* \"#utility.yul\":12183:12193   */\n      dup6\n        /* \"#utility.yul\":12180:12198   */\n      lt\n        /* \"#utility.yul\":12177:12226   */\n      iszero\n      tag_299\n      jumpi\n        /* \"#utility.yul\":12216:12224   */\n      dup2\n        /* \"#utility.yul\":12201:12224   */\n      swap1\n      pop\n        /* \"#utility.yul\":12177:12226   */\n    tag_299:\n        /* \"#utility.yul\":12239:12319   */\n      tag_300\n        /* \"#utility.yul\":12295:12317   */\n      tag_301\n        /* \"#utility.yul\":12313:12316   */\n      dup6\n        /* \"#utility.yul\":12295:12317   */\n      tag_150\n      jump\t// in\n    tag_301:\n        /* \"#utility.yul\":12285:12293   */\n      dup4\n        /* \"#utility.yul\":12281:12318   */\n      add\n        /* \"#utility.yul\":12268:12279   */\n      dup3\n        /* \"#utility.yul\":12239:12319   */\n      tag_159\n      jump\t// in\n    tag_300:\n        /* \"#utility.yul\":11898:12329   */\n      pop\n      pop\n        /* \"#utility.yul\":11883:12329   */\n    tag_296:\n        /* \"#utility.yul\":11793:12336   */\n      pop\n      pop\n      pop\n      jump\t// out\n        /* \"#utility.yul\":12342:12459   */\n    tag_161:\n        /* \"#utility.yul\":12396:12404   */\n      0x00\n        /* \"#utility.yul\":12446:12451   */\n      dup3\n        /* \"#utility.yul\":12440:12444   */\n      dup3\n        /* \"#utility.yul\":12436:12452   */\n      shr\n        /* \"#utility.yul\":12415:12452   */\n      swap1\n      pop\n        /* \"#utility.yul\":12342:12459   */\n      swap3\n      swap2\n      pop\n      pop\n      jump\t// out\n        /* \"#utility.yul\":12465:12634   */\n    tag_162:\n        /* \"#utility.yul\":12509:12515   */\n      0x00\n        /* \"#utility.yul\":12542:12593   */\n      tag_304\n        /* \"#utility.yul\":12590:12591   */\n      0x00\n        /* \"#utility.yul\":12586:12592   */\n      not\n        /* \"#utility.yul\":12578:12583   */\n      dup5\n        /* \"#utility.yul\":12575:12576   */\n      0x08\n        /* \"#utility.yul\":12571:12584   */\n      mul\n        /* \"#utility.yul\":12542:12593   */\n      tag_161\n      jump\t// in\n    tag_304:\n        /* \"#utility.yul\":12538:12594   */\n      not\n        /* \"#utility.yul\":12623:12627   */\n      dup1\n        /* \"#utility.yul\":12617:12621   */\n      dup4\n        /* \"#utility.yul\":12613:12628   */\n      and\n        /* \"#utility.yul\":12603:12628   */\n      swap2\n      pop\n        /* \"#utility.yul\":12516:12634   */\n      pop\n        /* \"#utility.yul\":12465:12634   */\n      swap3\n      swap2\n      pop\n      pop\n      jump\t// out\n        /* \"#utility.yul\":12639:12934   */\n    tag_163:\n        /* \"#utility.yul\":12715:12719   */\n      0x00\n        /* \"#utility.yul\":12861:12890   */\n      tag_306\n        /* \"#utility.yul\":12886:12889   */\n      dup4\n        /* \"#utility.yul\":12880:12884   */\n      dup4\n        /* \"#utility.yul\":12861:12890   */\n      tag_162\n      jump\t// in\n    tag_306:\n        /* \"#utility.yul\":12853:12890   */\n      swap2\n      pop\n        /* \"#utility.yul\":12923:12926   */\n      dup3\n        /* \"#utility.yul\":12920:12921   */\n      0x02\n        /* \"#utility.yul\":12916:12927   */\n      mul\n        /* \"#utility.yul\":12910:12914   */\n      dup3\n        /* \"#utility.yul\":12907:12928   */\n      or\n        /* \"#utility.yul\":12899:12928   */\n      swap1\n      pop\n        /* \"#utility.yul\":12639:12934   */\n      swap3\n      swap2\n      pop\n      pop\n      jump\t// out\n        /* \"#utility.yul\":12939:14334   */\n    tag_54:\n        /* \"#utility.yul\":13056:13093   */\n      tag_308\n        /* \"#utility.yul\":13089:13092   */\n      dup3\n        /* \"#utility.yul\":13056:13093   */\n      tag_118\n      jump\t// in\n    tag_308:\n        /* \"#utility.yul\":13158:13176   */\n      0xffffffffffffffff\n        /* \"#utility.yul\":13150:13156   */\n      dup2\n        /* \"#utility.yul\":13147:13177   */\n      gt\n        /* \"#utility.yul\":13144:13200   */\n      iszero\n      tag_309\n      jumpi\n        /* \"#utility.yul\":13180:13198   */\n      tag_310\n      tag_131\n      jump\t// in\n    tag_310:\n        /* \"#utility.yul\":13144:13200   */\n    tag_309:\n        /* \"#utility.yul\":13224:13262   */\n      tag_311\n        /* \"#utility.yul\":13256:13260   */\n      dup3\n        /* \"#utility.yul\":13250:13261   */\n      sload\n        /* \"#utility.yul\":13224:13262   */\n      tag_39\n      jump\t// in\n    tag_311:\n        /* \"#utility.yul\":13309:13376   */\n      tag_312\n        /* \"#utility.yul\":13369:13375   */\n      dup3\n        /* \"#utility.yul\":13361:13367   */\n      dup3\n        /* \"#utility.yul\":13355:13359   */\n      dup6\n        /* \"#utility.yul\":13309:13376   */\n      tag_160\n      jump\t// in\n    tag_312:\n        /* \"#utility.yul\":13403:13404   */\n      0x00\n        /* \"#utility.yul\":13427:13431   */\n      0x20\n        /* \"#utility.yul\":13414:13431   */\n      swap1\n      pop\n        /* \"#utility.yul\":13459:13461   */\n      0x1f\n        /* \"#utility.yul\":13451:13457   */\n      dup4\n        /* \"#utility.yul\":13448:13462   */\n      gt\n        /* \"#utility.yul\":13476:13477   */\n      0x01\n        /* \"#utility.yul\":13471:14089   */\n      dup2\n      eq\n      tag_314\n      jumpi\n        /* \"#utility.yul\":14133:14134   */\n      0x00\n        /* \"#utility.yul\":14150:14156   */\n      dup5\n        /* \"#utility.yul\":14147:14224   */\n      iszero\n      tag_315\n      jumpi\n        /* \"#utility.yul\":14199:14208   */\n      dup3\n        /* \"#utility.yul\":14194:14197   */\n      dup8\n        /* \"#utility.yul\":14190:14209   */\n      add\n        /* \"#utility.yul\":14184:14210   */\n      mload\n        /* \"#utility.yul\":14175:14210   */\n      swap1\n      pop\n        /* \"#utility.yul\":14147:14224   */\n    tag_315:\n        /* \"#utility.yul\":14250:14317   */\n      tag_316\n        /* \"#utility.yul\":14310:14316   */\n      dup6\n        /* \"#utility.yul\":14303:14308   */\n      dup3\n        /* \"#utility.yul\":14250:14317   */\n      tag_163\n      jump\t// in\n    tag_316:\n        /* \"#utility.yul\":14244:14248   */\n      dup7\n        /* \"#utility.yul\":14237:14318   */\n      sstore\n        /* \"#utility.yul\":14106:14328   */\n      pop\n        /* \"#utility.yul\":13441:14328   */\n      jump(tag_313)\n        /* \"#utility.yul\":13471:14089   */\n    tag_314:\n        /* \"#utility.yul\":13523:13527   */\n      0x1f\n        /* \"#utility.yul\":13519:13528   */\n      not\n        /* \"#utility.yul\":13511:13517   */\n      dup5\n        /* \"#utility.yul\":13507:13529   */\n      and\n        /* \"#utility.yul\":13557:13594   */\n      tag_317\n        /* \"#utility.yul\":13589:13593   */\n      dup7\n        /* \"#utility.yul\":13557:13594   */\n      tag_149\n      jump\t// in\n    tag_317:\n        /* \"#utility.yul\":13616:13617   */\n      0x00\n        /* \"#utility.yul\":13630:13838   */\n    tag_318:\n        /* \"#utility.yul\":13644:13651   */\n      dup3\n        /* \"#utility.yul\":13641:13642   */\n      dup2\n        /* \"#utility.yul\":13638:13652   */\n      lt\n        /* \"#utility.yul\":13630:13838   */\n      iszero\n      tag_320\n      jumpi\n        /* \"#utility.yul\":13723:13732   */\n      dup5\n        /* \"#utility.yul\":13718:13721   */\n      dup10\n        /* \"#utility.yul\":13714:13733   */\n      add\n        /* \"#utility.yul\":13708:13734   */\n      mload\n        /* \"#utility.yul\":13700:13706   */\n      dup3\n        /* \"#utility.yul\":13693:13735   */\n      sstore\n        /* \"#utility.yul\":13774:13775   */\n      0x01\n        /* \"#utility.yul\":13766:13772   */\n      dup3\n        /* \"#utility.yul\":13762:13776   */\n      add\n        /* \"#utility.yul\":13752:13776   */\n      swap2\n      pop\n        /* \"#utility.yul\":13821:13823   */\n      0x20\n        /* \"#utility.yul\":13810:13819   */\n      dup6\n        /* \"#utility.yul\":13806:13824   */\n      add\n        /* \"#utility.yul\":13793:13824   */\n      swap5\n      pop\n        /* \"#utility.yul\":13667:13671   */\n      0x20\n        /* \"#utility.yul\":13664:13665   */\n      dup2\n        /* \"#utility.yul\":13660:13672   */\n      add\n        /* \"#utility.yul\":13655:13672   */\n      swap1\n      pop\n        /* \"#utility.yul\":13630:13838   */\n      jump(tag_318)\n    tag_320:\n        /* \"#utility.yul\":13866:13872   */\n      dup7\n        /* \"#utility.yul\":13857:13864   */\n      dup4\n        /* \"#utility.yul\":13854:13873   */\n      lt\n        /* \"#utility.yul\":13851:14030   */\n      iszero\n      tag_321\n      jumpi\n        /* \"#utility.yul\":13924:13933   */\n      dup5\n        /* \"#utility.yul\":13919:13922   */\n      dup10\n        /* \"#utility.yul\":13915:13934   */\n      add\n        /* \"#utility.yul\":13909:13935   */\n      mload\n        /* \"#utility.yul\":13967:14015   */\n      tag_322\n        /* \"#utility.yul\":14009:14013   */\n      0x1f\n        /* \"#utility.yul\":14001:14007   */\n      dup10\n        /* \"#utility.yul\":13997:14014   */\n      and\n        /* \"#utility.yul\":13986:13995   */\n      dup3\n        /* \"#utility.yul\":13967:14015   */\n      tag_162\n      jump\t// in\n    tag_322:\n        /* \"#utility.yul\":13959:13965   */\n      dup4\n        /* \"#utility.yul\":13952:14016   */\n      sstore\n        /* \"#utility.yul\":13874:14030   */\n      pop\n        /* \"#utility.yul\":13851:14030   */\n    tag_321:\n        /* \"#utility.yul\":14076:14077   */\n      0x01\n        /* \"#utility.yul\":14072:14073   */\n      0x02\n        /* \"#utility.yul\":14064:14070   */\n      dup9\n        /* \"#utility.yul\":14060:14074   */\n      mul\n        /* \"#utility.yul\":14056:14078   */\n      add\n        /* \"#utility.yul\":14050:14054   */\n      dup9\n        /* \"#utility.yul\":14043:14079   */\n      sstore\n        /* \"#utility.yul\":13478:14089   */\n      pop\n      pop\n      pop\n        /* \"#utility.yul\":13441:14328   */\n    tag_313:\n      pop\n        /* \"#utility.yul\":13031:14334   */\n      pop\n      pop\n      pop\n        /* \"#utility.yul\":12939:14334   */\n      pop\n      pop\n      jump\t// out\n        /* \"#utility.yul\":14340:14565   */\n    tag_164:\n        /* \"#utility.yul\":14480:14514   */\n      0x4f6e6c7920746865206f776e65722063616e206d6f646966792074686520636f\n        /* \"#utility.yul\":14476:14477   */\n      0x00\n        /* \"#utility.yul\":14468:14474   */\n      dup3\n        /* \"#utility.yul\":14464:14478   */\n      add\n        /* \"#utility.yul\":14457:14515   */\n      mstore\n        /* \"#utility.yul\":14549:14557   */\n      0x6e74726163740000000000000000000000000000000000000000000000000000\n        /* \"#utility.yul\":14544:14546   */\n      0x20\n        /* \"#utility.yul\":14536:14542   */\n      dup3\n        /* \"#utility.yul\":14532:14547   */\n      add\n        /* \"#utility.yul\":14525:14558   */\n      mstore\n        /* \"#utility.yul\":14340:14565   */\n      pop\n      jump\t// out\n        /* \"#utility.yul\":14571:14937   */\n    tag_165:\n        /* \"#utility.yul\":14713:14716   */\n      0x00\n        /* \"#utility.yul\":14734:14801   */\n      tag_325\n        /* \"#utility.yul\":14798:14800   */\n      0x26\n        /* \"#utility.yul\":14793:14796   */\n      dup4\n        /* \"#utility.yul\":14734:14801   */\n      tag_119\n      jump\t// in\n    tag_325:\n        /* \"#utility.yul\":14727:14801   */\n      swap2\n      pop\n        /* \"#utility.yul\":14810:14903   */\n      tag_326\n        /* \"#utility.yul\":14899:14902   */\n      dup3\n        /* \"#utility.yul\":14810:14903   */\n      tag_164\n      jump\t// in\n    tag_326:\n        /* \"#utility.yul\":14928:14930   */\n      0x40\n        /* \"#utility.yul\":14923:14926   */\n      dup3\n        /* \"#utility.yul\":14919:14931   */\n      add\n        /* \"#utility.yul\":14912:14931   */\n      swap1\n      pop\n        /* \"#utility.yul\":14571:14937   */\n      swap2\n      swap1\n      pop\n      jump\t// out\n        /* \"#utility.yul\":14943:15362   */\n    tag_58:\n        /* \"#utility.yul\":15109:15113   */\n      0x00\n        /* \"#utility.yul\":15147:15149   */\n      0x20\n        /* \"#utility.yul\":15136:15145   */\n      dup3\n        /* \"#utility.yul\":15132:15150   */\n      add\n        /* \"#utility.yul\":15124:15150   */\n      swap1\n      pop\n        /* \"#utility.yul\":15196:15205   */\n      dup2\n        /* \"#utility.yul\":15190:15194   */\n      dup2\n        /* \"#utility.yul\":15186:15206   */\n      sub\n        /* \"#utility.yul\":15182:15183   */\n      0x00\n        /* \"#utility.yul\":15171:15180   */\n      dup4\n        /* \"#utility.yul\":15167:15184   */\n      add\n        /* \"#utility.yul\":15160:15207   */\n      mstore\n        /* \"#utility.yul\":15224:15355   */\n      tag_328\n        /* \"#utility.yul\":15350:15354   */\n      dup2\n        /* \"#utility.yul\":15224:15355   */\n      tag_165\n      jump\t// in\n    tag_328:\n        /* \"#utility.yul\":15216:15355   */\n      swap1\n      pop\n        /* \"#utility.yul\":14943:15362   */\n      swap2\n      swap1\n      pop\n      jump\t// out\n        /* \"#utility.yul\":15368:15526   */\n    tag_166:\n        /* \"#utility.yul\":15508:15518   */\n      0x4c6173744e616d65000000000000000000000000000000000000000000000000\n        /* \"#utility.yul\":15504:15505   */\n      0x00\n        /* \"#utility.yul\":15496:15502   */\n      dup3\n        /* \"#utility.yul\":15492:15506   */\n      add\n        /* \"#utility.yul\":15485:15519   */\n      mstore\n        /* \"#utility.yul\":15368:15526   */\n      pop\n      jump\t// out\n        /* \"#utility.yul\":15532:15897   */\n    tag_167:\n        /* \"#utility.yul\":15674:15677   */\n      0x00\n        /* \"#utility.yul\":15695:15761   */\n      tag_331\n        /* \"#utility.yul\":15759:15760   */\n      0x08\n        /* \"#utility.yul\":15754:15757   */\n      dup4\n        /* \"#utility.yul\":15695:15761   */\n      tag_119\n      jump\t// in\n    tag_331:\n        /* \"#utility.yul\":15688:15761   */\n      swap2\n      pop\n        /* \"#utility.yul\":15770:15863   */\n      tag_332\n        /* \"#utility.yul\":15859:15862   */\n      dup3\n        /* \"#utility.yul\":15770:15863   */\n      tag_166\n      jump\t// in\n    tag_332:\n        /* \"#utility.yul\":15888:15890   */\n      0x20\n        /* \"#utility.yul\":15883:15886   */\n      dup3\n        /* \"#utility.yul\":15879:15891   */\n      add\n        /* \"#utility.yul\":15872:15891   */\n      swap1\n      pop\n        /* \"#utility.yul\":15532:15897   */\n      swap2\n      swap1\n      pop\n      jump\t// out\n        /* \"#utility.yul\":15903:16523   */\n    tag_61:\n        /* \"#utility.yul\":16117:16121   */\n      0x00\n        /* \"#utility.yul\":16155:16157   */\n      0x40\n        /* \"#utility.yul\":16144:16153   */\n      dup3\n        /* \"#utility.yul\":16140:16158   */\n      add\n        /* \"#utility.yul\":16132:16158   */\n      swap1\n      pop\n        /* \"#utility.yul\":16204:16213   */\n      dup2\n        /* \"#utility.yul\":16198:16202   */\n      dup2\n        /* \"#utility.yul\":16194:16214   */\n      sub\n        /* \"#utility.yul\":16190:16191   */\n      0x00\n        /* \"#utility.yul\":16179:16188   */\n      dup4\n        /* \"#utility.yul\":16175:16192   */\n      add\n        /* \"#utility.yul\":16168:16215   */\n      mstore\n        /* \"#utility.yul\":16232:16363   */\n      tag_334\n        /* \"#utility.yul\":16358:16362   */\n      dup2\n        /* \"#utility.yul\":16232:16363   */\n      tag_167\n      jump\t// in\n    tag_334:\n        /* \"#utility.yul\":16224:16363   */\n      swap1\n      pop\n        /* \"#utility.yul\":16410:16419   */\n      dup2\n        /* \"#utility.yul\":16404:16408   */\n      dup2\n        /* \"#utility.yul\":16400:16420   */\n      sub\n        /* \"#utility.yul\":16395:16397   */\n      0x20\n        /* \"#utility.yul\":16384:16393   */\n      dup4\n        /* \"#utility.yul\":16380:16398   */\n      add\n        /* \"#utility.yul\":16373:16421   */\n      mstore\n        /* \"#utility.yul\":16438:16516   */\n      tag_335\n        /* \"#utility.yul\":16511:16515   */\n      dup2\n        /* \"#utility.yul\":16502:16508   */\n      dup5\n        /* \"#utility.yul\":16438:16516   */\n      tag_122\n      jump\t// in\n    tag_335:\n        /* \"#utility.yul\":16430:16516   */\n      swap1\n      pop\n        /* \"#utility.yul\":15903:16523   */\n      swap3\n      swap2\n      pop\n      pop\n      jump\t// out\n        /* \"#utility.yul\":16529:16683   */\n    tag_168:\n        /* \"#utility.yul\":16669:16675   */\n      0x4e616d6500000000000000000000000000000000000000000000000000000000\n        /* \"#utility.yul\":16665:16666   */\n      0x00\n        /* \"#utility.yul\":16657:16663   */\n      dup3\n        /* \"#utility.yul\":16653:16667   */\n      add\n        /* \"#utility.yul\":16646:16676   */\n      mstore\n        /* \"#utility.yul\":16529:16683   */\n      pop\n      jump\t// out\n        /* \"#utility.yul\":16689:17054   */\n    tag_169:\n        /* \"#utility.yul\":16831:16834   */\n      0x00\n        /* \"#utility.yul\":16852:16918   */\n      tag_338\n        /* \"#utility.yul\":16916:16917   */\n      0x04\n        /* \"#utility.yul\":16911:16914   */\n      dup4\n        /* \"#utility.yul\":16852:16918   */\n      tag_119\n      jump\t// in\n    tag_338:\n        /* \"#utility.yul\":16845:16918   */\n      swap2\n      pop\n        /* \"#utility.yul\":16927:17020   */\n      tag_339\n        /* \"#utility.yul\":17016:17019   */\n      dup3\n        /* \"#utility.yul\":16927:17020   */\n      tag_168\n      jump\t// in\n    tag_339:\n        /* \"#utility.yul\":17045:17047   */\n      0x20\n        /* \"#utility.yul\":17040:17043   */\n      dup3\n        /* \"#utility.yul\":17036:17048   */\n      add\n        /* \"#utility.yul\":17029:17048   */\n      swap1\n      pop\n        /* \"#utility.yul\":16689:17054   */\n      swap2\n      swap1\n      pop\n      jump\t// out\n        /* \"#utility.yul\":17060:17680   */\n    tag_85:\n        /* \"#utility.yul\":17274:17278   */\n      0x00\n        /* \"#utility.yul\":17312:17314   */\n      0x40\n        /* \"#utility.yul\":17301:17310   */\n      dup3\n        /* \"#utility.yul\":17297:17315   */\n      add\n        /* \"#utility.yul\":17289:17315   */\n      swap1\n      pop\n        /* \"#utility.yul\":17361:17370   */\n      dup2\n        /* \"#utility.yul\":17355:17359   */\n      dup2\n        /* \"#utility.yul\":17351:17371   */\n      sub\n        /* \"#utility.yul\":17347:17348   */\n      0x00\n        /* \"#utility.yul\":17336:17345   */\n      dup4\n        /* \"#utility.yul\":17332:17349   */\n      add\n        /* \"#utility.yul\":17325:17372   */\n      mstore\n        /* \"#utility.yul\":17389:17520   */\n      tag_341\n        /* \"#utility.yul\":17515:17519   */\n      dup2\n        /* \"#utility.yul\":17389:17520   */\n      tag_169\n      jump\t// in\n    tag_341:\n        /* \"#utility.yul\":17381:17520   */\n      swap1\n      pop\n        /* \"#utility.yul\":17567:17576   */\n      dup2\n        /* \"#utility.yul\":17561:17565   */\n      dup2\n        /* \"#utility.yul\":17557:17577   */\n      sub\n        /* \"#utility.yul\":17552:17554   */\n      0x20\n        /* \"#utility.yul\":17541:17550   */\n      dup4\n        /* \"#utility.yul\":17537:17555   */\n      add\n        /* \"#utility.yul\":17530:17578   */\n      mstore\n        /* \"#utility.yul\":17595:17673   */\n      tag_342\n        /* \"#utility.yul\":17668:17672   */\n      dup2\n        /* \"#utility.yul\":17659:17665   */\n      dup5\n        /* \"#utility.yul\":17595:17673   */\n      tag_122\n      jump\t// in\n    tag_342:\n        /* \"#utility.yul\":17587:17673   */\n      swap1\n      pop\n        /* \"#utility.yul\":17060:17680   */\n      swap3\n      swap2\n      pop\n      pop\n      jump\t// out\n        /* \"#utility.yul\":17686:17866   */\n    tag_170:\n        /* \"#utility.yul\":17734:17811   */\n      0x4e487b7100000000000000000000000000000000000000000000000000000000\n        /* \"#utility.yul\":17731:17732   */\n      0x00\n        /* \"#utility.yul\":17724:17812   */\n      mstore\n        /* \"#utility.yul\":17831:17835   */\n      0x11\n        /* \"#utility.yul\":17828:17829   */\n      0x04\n        /* \"#utility.yul\":17821:17836   */\n      mstore\n        /* \"#utility.yul\":17855:17859   */\n      0x24\n        /* \"#utility.yul\":17852:17853   */\n      0x00\n        /* \"#utility.yul\":17845:17860   */\n      revert\n        /* \"#utility.yul\":17872:18066   */\n    tag_91:\n        /* \"#utility.yul\":17912:17916   */\n      0x00\n        /* \"#utility.yul\":17932:17952   */\n      tag_345\n        /* \"#utility.yul\":17950:17951   */\n      dup3\n        /* \"#utility.yul\":17932:17952   */\n      tag_126\n      jump\t// in\n    tag_345:\n        /* \"#utility.yul\":17927:17952   */\n      swap2\n      pop\n        /* \"#utility.yul\":17966:17986   */\n      tag_346\n        /* \"#utility.yul\":17984:17985   */\n      dup4\n        /* \"#utility.yul\":17966:17986   */\n      tag_126\n      jump\t// in\n    tag_346:\n        /* \"#utility.yul\":17961:17986   */\n      swap3\n      pop\n        /* \"#utility.yul\":18010:18011   */\n      dup3\n        /* \"#utility.yul\":18007:18008   */\n      dup3\n        /* \"#utility.yul\":18003:18012   */\n      sub\n        /* \"#utility.yul\":17995:18012   */\n      swap1\n      pop\n        /* \"#utility.yul\":18034:18035   */\n      dup2\n        /* \"#utility.yul\":18028:18032   */\n      dup2\n        /* \"#utility.yul\":18025:18036   */\n      gt\n        /* \"#utility.yul\":18022:18059   */\n      iszero\n      tag_347\n      jumpi\n        /* \"#utility.yul\":18039:18057   */\n      tag_348\n      tag_170\n      jump\t// in\n    tag_348:\n        /* \"#utility.yul\":18022:18059   */\n    tag_347:\n        /* \"#utility.yul\":17872:18066   */\n      swap3\n      swap2\n      pop\n      pop\n      jump\t// out\n        /* \"#utility.yul\":18096:18927   */\n    tag_171:\n        /* \"#utility.yul\":18181:18184   */\n      0x00\n        /* \"#utility.yul\":18218:18223   */\n      dup2\n        /* \"#utility.yul\":18212:18224   */\n      sload\n        /* \"#utility.yul\":18247:18283   */\n      tag_350\n        /* \"#utility.yul\":18273:18282   */\n      dup2\n        /* \"#utility.yul\":18247:18283   */\n      tag_39\n      jump\t// in\n    tag_350:\n        /* \"#utility.yul\":18299:18370   */\n      tag_351\n        /* \"#utility.yul\":18363:18369   */\n      dup2\n        /* \"#utility.yul\":18358:18361   */\n      dup7\n        /* \"#utility.yul\":18299:18370   */\n      tag_119\n      jump\t// in\n    tag_351:\n        /* \"#utility.yul\":18292:18370   */\n      swap5\n      pop\n        /* \"#utility.yul\":18401:18402   */\n      0x01\n        /* \"#utility.yul\":18390:18399   */\n      dup3\n        /* \"#utility.yul\":18386:18403   */\n      and\n        /* \"#utility.yul\":18417:18418   */\n      0x00\n        /* \"#utility.yul\":18412:18576   */\n      dup2\n      eq\n      tag_353\n      jumpi\n        /* \"#utility.yul\":18590:18591   */\n      0x01\n        /* \"#utility.yul\":18585:18921   */\n      dup2\n      eq\n      tag_354\n      jumpi\n        /* \"#utility.yul\":18379:18921   */\n      jump(tag_352)\n        /* \"#utility.yul\":18412:18576   */\n    tag_353:\n        /* \"#utility.yul\":18496:18500   */\n      0xff\n        /* \"#utility.yul\":18492:18501   */\n      not\n        /* \"#utility.yul\":18481:18490   */\n      dup4\n        /* \"#utility.yul\":18477:18502   */\n      and\n        /* \"#utility.yul\":18472:18475   */\n      dup7\n        /* \"#utility.yul\":18465:18503   */\n      mstore\n        /* \"#utility.yul\":18556:18562   */\n      dup2\n        /* \"#utility.yul\":18549:18563   */\n      iszero\n        /* \"#utility.yul\":18542:18564   */\n      iszero\n        /* \"#utility.yul\":18536:18540   */\n      0x20\n        /* \"#utility.yul\":18532:18565   */\n      mul\n        /* \"#utility.yul\":18527:18530   */\n      dup7\n        /* \"#utility.yul\":18523:18566   */\n      add\n        /* \"#utility.yul\":18516:18566   */\n      swap4\n      pop\n        /* \"#utility.yul\":18412:18576   */\n      jump(tag_352)\n        /* \"#utility.yul\":18585:18921   */\n    tag_354:\n        /* \"#utility.yul\":18652:18690   */\n      tag_355\n        /* \"#utility.yul\":18684:18689   */\n      dup6\n        /* \"#utility.yul\":18652:18690   */\n      tag_149\n      jump\t// in\n    tag_355:\n        /* \"#utility.yul\":18712:18713   */\n      0x00\n        /* \"#utility.yul\":18726:18880   */\n    tag_356:\n        /* \"#utility.yul\":18740:18746   */\n      dup4\n        /* \"#utility.yul\":18737:18738   */\n      dup2\n        /* \"#utility.yul\":18734:18747   */\n      lt\n        /* \"#utility.yul\":18726:18880   */\n      iszero\n      tag_358\n      jumpi\n        /* \"#utility.yul\":18814:18821   */\n      dup2\n        /* \"#utility.yul\":18808:18822   */\n      sload\n        /* \"#utility.yul\":18804:18805   */\n      dup2\n        /* \"#utility.yul\":18799:18802   */\n      dup10\n        /* \"#utility.yul\":18795:18806   */\n      add\n        /* \"#utility.yul\":18788:18823   */\n      mstore\n        /* \"#utility.yul\":18864:18865   */\n      0x01\n        /* \"#utility.yul\":18855:18862   */\n      dup3\n        /* \"#utility.yul\":18851:18866   */\n      add\n        /* \"#utility.yul\":18840:18866   */\n      swap2\n      pop\n        /* \"#utility.yul\":18762:18766   */\n      0x20\n        /* \"#utility.yul\":18759:18760   */\n      dup2\n        /* \"#utility.yul\":18755:18767   */\n      add\n        /* \"#utility.yul\":18750:18767   */\n      swap1\n      pop\n        /* \"#utility.yul\":18726:18880   */\n      jump(tag_356)\n    tag_358:\n        /* \"#utility.yul\":18909:18910   */\n      dup1\n        /* \"#utility.yul\":18904:18907   */\n      dup9\n        /* \"#utility.yul\":18900:18911   */\n      add\n        /* \"#utility.yul\":18893:18911   */\n      swap6\n      pop\n        /* \"#utility.yul\":18592:18921   */\n      pop\n      pop\n        /* \"#utility.yul\":18379:18921   */\n    tag_352:\n      pop\n        /* \"#utility.yul\":18185:18927   */\n      pop\n      pop\n        /* \"#utility.yul\":18096:18927   */\n      swap3\n      swap2\n      pop\n      pop\n      jump\t// out\n        /* \"#utility.yul\":18933:19547   */\n    tag_96:\n        /* \"#utility.yul\":19144:19148   */\n      0x00\n        /* \"#utility.yul\":19182:19184   */\n      0x40\n        /* \"#utility.yul\":19171:19180   */\n      dup3\n        /* \"#utility.yul\":19167:19185   */\n      add\n        /* \"#utility.yul\":19159:19185   */\n      swap1\n      pop\n        /* \"#utility.yul\":19231:19240   */\n      dup2\n        /* \"#utility.yul\":19225:19229   */\n      dup2\n        /* \"#utility.yul\":19221:19241   */\n      sub\n        /* \"#utility.yul\":19217:19218   */\n      0x00\n        /* \"#utility.yul\":19206:19215   */\n      dup4\n        /* \"#utility.yul\":19202:19219   */\n      add\n        /* \"#utility.yul\":19195:19242   */\n      mstore\n        /* \"#utility.yul\":19259:19390   */\n      tag_360\n        /* \"#utility.yul\":19385:19389   */\n      dup2\n        /* \"#utility.yul\":19259:19390   */\n      tag_169\n      jump\t// in\n    tag_360:\n        /* \"#utility.yul\":19251:19390   */\n      swap1\n      pop\n        /* \"#utility.yul\":19437:19446   */\n      dup2\n        /* \"#utility.yul\":19431:19435   */\n      dup2\n        /* \"#utility.yul\":19427:19447   */\n      sub\n        /* \"#utility.yul\":19422:19424   */\n      0x20\n        /* \"#utility.yul\":19411:19420   */\n      dup4\n        /* \"#utility.yul\":19407:19425   */\n      add\n        /* \"#utility.yul\":19400:19448   */\n      mstore\n        /* \"#utility.yul\":19465:19540   */\n      tag_361\n        /* \"#utility.yul\":19535:19539   */\n      dup2\n        /* \"#utility.yul\":19526:19532   */\n      dup5\n        /* \"#utility.yul\":19465:19540   */\n      tag_171\n      jump\t// in\n    tag_361:\n        /* \"#utility.yul\":19457:19540   */\n      swap1\n      pop\n        /* \"#utility.yul\":18933:19547   */\n      swap3\n      swap2\n      pop\n      pop\n      jump\t// out\n        /* \"#utility.yul\":19553:19733   */\n    tag_99:\n        /* \"#utility.yul\":19601:19678   */\n      0x4e487b7100000000000000000000000000000000000000000000000000000000\n        /* \"#utility.yul\":19598:19599   */\n      0x00\n        /* \"#utility.yul\":19591:19679   */\n      mstore\n        /* \"#utility.yul\":19698:19702   */\n      0x31\n        /* \"#utility.yul\":19695:19696   */\n      0x04\n        /* \"#utility.yul\":19688:19703   */\n      mstore\n        /* \"#utility.yul\":19722:19726   */\n      0x24\n        /* \"#utility.yul\":19719:19720   */\n      0x00\n        /* \"#utility.yul\":19712:19727   */\n      revert\n\n    auxdata: 0xa2646970667358221220e0ac128abe4b780378f5171c5754556fdd19e1fa3cae95beee527cd4cf3ec37c64736f6c634300081a0033\n}\n",
				"bytecode": {
					"linkReferences": {},
					"object": "6080604052348015600e575f80fd5b503360025f6101000a81548173ffffffffffffffffffffffffffffffffffffffff021916908373ffffffffffffffffffffffffffffffffffffffff1602179055506112108061005c5f395ff3fe608060405234801561000f575f80fd5b506004361061007b575f3560e01c80639ab03dcb116100595780639ab03dcb146100d5578063ae1dfdf6146100f3578063c47f002714610123578063f8bd77721461013f5761007b565b806306fdde031461007f5780632ed84c5a1461009d578063932754f9146100b9575b5f80fd5b61008761015d565b6040516100949190610834565b60405180910390f35b6100b760048036038101906100b291906109c4565b6101e8565b005b6100d360048036038101906100ce9190610a1e565b61025f565b005b6100dd61034f565b6040516100ea9190610834565b60405180910390f35b61010d60048036038101906101089190610a65565b6103db565b60405161011a9190610834565b60405180910390f35b61013d60048036038101906101389190610a1e565b6104d0565b005b6101476105f1565b6040516101549190610b93565b60405180910390f35b5f805461016990610be0565b80601f016020809104026020016040519081016040528092919081815260200182805461019590610be0565b80156101e05780601f106101b7576101008083540402835291602001916101e0565b820191905f5260205f20905b8154815290600101906020018083116101c357829003601f168201915b505050505081565b816003805490508110610230576040517f08c379a000000000000000000000000000000000000000000000000000000000815260040161022790610c5a565b60405180910390fd5b816003848154811061024557610244610c78565b5b905f5260205f200190816102599190610e42565b50505050565b3373ffffffffffffffffffffffffffffffffffffffff1660025f9054906101000a900473ffffffffffffffffffffffffffffffffffffffff1673ffffffffffffffffffffffffffffffffffffffff16146102ee576040517f08c379a00000000000000000000000000000000000000000000000000000000081526004016102e590610f81565b60405180910390fd5b3373ffffffffffffffffffffffffffffffffffffffff167fde4389d0e2b82c1da27da351a07c61a1c281a257dd810bc7fad7e95a2fffd0d2826040516103349190610fe9565b60405180910390a2806001908161034b9190610e42565b5050565b6001805461035c90610be0565b80601f016020809104026020016040519081016040528092919081815260200182805461038890610be0565b80156103d35780601f106103aa576101008083540402835291602001916103d3565b820191905f5260205f20905b8154815290600101906020018083116103b657829003601f168201915b505050505081565b6060816003805490508110610425576040517f08c379a000000000000000000000000000000000000000000000000000000000815260040161041c90610c5a565b60405180910390fd5b6003838154811061043957610438610c78565b5b905f5260205f2001805461044c90610be0565b80601f016020809104026020016040519081016040528092919081815260200182805461047890610be0565b80156104c35780601f1061049a576101008083540402835291602001916104c3565b820191905f5260205f20905b8154815290600101906020018083116104a657829003601f168201915b5050505050915050919050565b3373ffffffffffffffffffffffffffffffffffffffff1660025f9054906101000a900473ffffffffffffffffffffffffffffffffffffffff1673ffffffffffffffffffffffffffffffffffffffff161461055f576040517f08c379a000000000000000000000000000000000000000000000000000000000815260040161055690610f81565b60405180910390fd5b3373ffffffffffffffffffffffffffffffffffffffff167fde4389d0e2b82c1da27da351a07c61a1c281a257dd810bc7fad7e95a2fffd0d2826040516105a59190611066565b60405180910390a2805f90816105bb9190610e42565b50600381908060018154018082558091505060019003905f5260205f20015f9091909190915090816105ed9190610e42565b5050565b60603373ffffffffffffffffffffffffffffffffffffffff167fde4389d0e2b82c1da27da351a07c61a1c281a257dd810bc7fad7e95a2fffd0d26003600160038054905061063f91906110c6565b815481106106505761064f610c78565b5b905f5260205f2001604051610665919061117a565b60405180910390a2600380548061067f5761067e6111ad565b5b600190038181905f5260205f20015f610698919061076c565b90556003805480602002602001604051908101604052809291908181526020015f905b82821015610763578382905f5260205f200180546106d890610be0565b80601f016020809104026020016040519081016040528092919081815260200182805461070490610be0565b801561074f5780601f106107265761010080835404028352916020019161074f565b820191905f5260205f20905b81548152906001019060200180831161073257829003601f168201915b5050505050815260200190600101906106bb565b50505050905090565b50805461077890610be0565b5f825580601f1061078957506107a6565b601f0160209004905f5260205f20908101906107a591906107a9565b5b50565b5b808211156107c0575f815f9055506001016107aa565b5090565b5f81519050919050565b5f82825260208201905092915050565b8281835e5f83830152505050565b5f601f19601f8301169050919050565b5f610806826107c4565b61081081856107ce565b93506108208185602086016107de565b610829816107ec565b840191505092915050565b5f6020820190508181035f83015261084c81846107fc565b905092915050565b5f604051905090565b5f80fd5b5f80fd5b5f819050919050565b61087781610865565b8114610881575f80fd5b50565b5f813590506108928161086e565b92915050565b5f80fd5b5f80fd5b7f4e487b71000000000000000000000000000000000000000000000000000000005f52604160045260245ffd5b6108d6826107ec565b810181811067ffffffffffffffff821117156108f5576108f46108a0565b5b80604052505050565b5f610907610854565b905061091382826108cd565b919050565b5f67ffffffffffffffff821115610932576109316108a0565b5b61093b826107ec565b9050602081019050919050565b828183375f83830152505050565b5f61096861096384610918565b6108fe565b9050828152602081018484840111156109845761098361089c565b5b61098f848285610948565b509392505050565b5f82601f8301126109ab576109aa610898565b5b81356109bb848260208601610956565b91505092915050565b5f80604083850312156109da576109d961085d565b5b5f6109e785828601610884565b925050602083013567ffffffffffffffff811115610a0857610a07610861565b5b610a1485828601610997565b9150509250929050565b5f60208284031215610a3357610a3261085d565b5b5f82013567ffffffffffffffff811115610a5057610a4f610861565b5b610a5c84828501610997565b91505092915050565b5f60208284031215610a7a57610a7961085d565b5b5f610a8784828501610884565b91505092915050565b5f81519050919050565b5f82825260208201905092915050565b5f819050602082019050919050565b5f82825260208201905092915050565b5f610ad3826107c4565b610add8185610ab9565b9350610aed8185602086016107de565b610af6816107ec565b840191505092915050565b5f610b0c8383610ac9565b905092915050565b5f602082019050919050565b5f610b2a82610a90565b610b348185610a9a565b935083602082028501610b4685610aaa565b805f5b85811015610b815784840389528151610b628582610b01565b9450610b6d83610b14565b925060208a01995050600181019050610b49565b50829750879550505050505092915050565b5f6020820190508181035f830152610bab8184610b20565b905092915050565b7f4e487b71000000000000000000000000000000000000000000000000000000005f52602260045260245ffd5b5f6002820490506001821680610bf757607f821691505b602082108103610c0a57610c09610bb3565b5b50919050565b7f496e646578206f7574206f6620626f756e6473000000000000000000000000005f82015250565b5f610c446013836107ce565b9150610c4f82610c10565b602082019050919050565b5f6020820190508181035f830152610c7181610c38565b9050919050565b7f4e487b71000000000000000000000000000000000000000000000000000000005f52603260045260245ffd5b5f819050815f5260205f209050919050565b5f6020601f8301049050919050565b5f82821b905092915050565b5f60088302610d017fffffffffffffffffffffffffffffffffffffffffffffffffffffffffffffffff82610cc6565b610d0b8683610cc6565b95508019841693508086168417925050509392505050565b5f819050919050565b5f610d46610d41610d3c84610865565b610d23565b610865565b9050919050565b5f819050919050565b610d5f83610d2c565b610d73610d6b82610d4d565b848454610cd2565b825550505050565b5f90565b610d87610d7b565b610d92818484610d56565b505050565b5b81811015610db557610daa5f82610d7f565b600181019050610d98565b5050565b601f821115610dfa57610dcb81610ca5565b610dd484610cb7565b81016020851015610de3578190505b610df7610def85610cb7565b830182610d97565b50505b505050565b5f82821c905092915050565b5f610e1a5f1984600802610dff565b1980831691505092915050565b5f610e328383610e0b565b9150826002028217905092915050565b610e4b826107c4565b67ffffffffffffffff811115610e6457610e636108a0565b5b610e6e8254610be0565b610e79828285610db9565b5f60209050601f831160018114610eaa575f8415610e98578287015190505b610ea28582610e27565b865550610f09565b601f198416610eb886610ca5565b5f5b82811015610edf57848901518255600182019150602085019450602081019050610eba565b86831015610efc5784890151610ef8601f891682610e0b565b8355505b6001600288020188555050505b505050505050565b7f4f6e6c7920746865206f776e65722063616e206d6f646966792074686520636f5f8201527f6e74726163740000000000000000000000000000000000000000000000000000602082015250565b5f610f6b6026836107ce565b9150610f7682610f11565b604082019050919050565b5f6020820190508181035f830152610f9881610f5f565b9050919050565b7f4c6173744e616d650000000000000000000000000000000000000000000000005f82015250565b5f610fd36008836107ce565b9150610fde82610f9f565b602082019050919050565b5f6040820190508181035f83015261100081610fc7565b9050818103602083015261101481846107fc565b905092915050565b7f4e616d65000000000000000000000000000000000000000000000000000000005f82015250565b5f6110506004836107ce565b915061105b8261101c565b602082019050919050565b5f6040820190508181035f83015261107d81611044565b9050818103602083015261109181846107fc565b905092915050565b7f4e487b71000000000000000000000000000000000000000000000000000000005f52601160045260245ffd5b5f6110d082610865565b91506110db83610865565b92508282039050818111156110f3576110f2611099565b5b92915050565b5f815461110581610be0565b61110f81866107ce565b9450600182165f8114611129576001811461113f57611171565b60ff198316865281151560200286019350611171565b61114885610ca5565b5f5b838110156111695781548189015260018201915060208101905061114a565b808801955050505b50505092915050565b5f6040820190508181035f83015261119181611044565b905081810360208301526111a581846110f9565b905092915050565b7f4e487b71000000000000000000000000000000000000000000000000000000005f52603160045260245ffdfea2646970667358221220e0ac128abe4b780378f5171c5754556fdd19e1fa3cae95beee527cd4cf3ec37c64736f6c634300081a0033",
					"opcodes": "PUSH1 0x80 PUSH1 0x40 MSTORE CALLVALUE DUP1 ISZERO PUSH1 0xE JUMPI PUSH0 DUP1 REVERT JUMPDEST POP CALLER PUSH1 0x2 PUSH0 PUSH2 0x100 EXP DUP2 SLOAD DUP2 PUSH20 0xFFFFFFFFFFFFFFFFFFFFFFFFFFFFFFFFFFFFFFFF MUL NOT AND SWAP1 DUP4 PUSH20 0xFFFFFFFFFFFFFFFFFFFFFFFFFFFFFFFFFFFFFFFF AND MUL OR SWAP1 SSTORE POP PUSH2 0x1210 DUP1 PUSH2 0x5C PUSH0 CODECOPY PUSH0 RETURN INVALID PUSH1 0x80 PUSH1 0x40 MSTORE CALLVALUE DUP1 ISZERO PUSH2 0xF JUMPI PUSH0 DUP1 REVERT JUMPDEST POP PUSH1 0x4 CALLDATASIZE LT PUSH2 0x7B JUMPI PUSH0 CALLDATALOAD PUSH1 0xE0 SHR DUP1 PUSH4 0x9AB03DCB GT PUSH2 0x59 JUMPI DUP1 PUSH4 0x9AB03DCB EQ PUSH2 0xD5 JUMPI DUP1 PUSH4 0xAE1DFDF6 EQ PUSH2 0xF3 JUMPI DUP1 PUSH4 0xC47F0027 EQ PUSH2 0x123 JUMPI DUP1 PUSH4 0xF8BD7772 EQ PUSH2 0x13F JUMPI PUSH2 0x7B JUMP JUMPDEST DUP1 PUSH4 0x6FDDE03 EQ PUSH2 0x7F JUMPI DUP1 PUSH4 0x2ED84C5A EQ PUSH2 0x9D JUMPI DUP1 PUSH4 0x932754F9 EQ PUSH2 0xB9 JUMPI JUMPDEST PUSH0 DUP1 REVERT JUMPDEST PUSH2 0x87 PUSH2 0x15D JUMP JUMPDEST PUSH1 0x40 MLOAD PUSH2 0x94 SWAP2 SWAP1 PUSH2 0x834 JUMP JUMPDEST PUSH1 0x40 MLOAD DUP1 SWAP2 SUB SWAP1 RETURN JUMPDEST PUSH2 0xB7 PUSH1 0x4 DUP1 CALLDATASIZE SUB DUP2 ADD SWAP1 PUSH2 0xB2 SWAP2 SWAP1 PUSH2 0x9C4 JUMP JUMPDEST PUSH2 0x1E8 JUMP JUMPDEST STOP JUMPDEST PUSH2 0xD3 PUSH1 0x4 DUP1 CALLDATASIZE SUB DUP2 ADD SWAP1 PUSH2 0xCE SWAP2 SWAP1 PUSH2 0xA1E JUMP JUMPDEST PUSH2 0x25F JUMP JUMPDEST STOP JUMPDEST PUSH2 0xDD PUSH2 0x34F JUMP JUMPDEST PUSH1 0x40 MLOAD PUSH2 0xEA SWAP2 SWAP1 PUSH2 0x834 JUMP JUMPDEST PUSH1 0x40 MLOAD DUP1 SWAP2 SUB SWAP1 RETURN JUMPDEST PUSH2 0x10D PUSH1 0x4 DUP1 CALLDATASIZE SUB DUP2 ADD SWAP1 PUSH2 0x108 SWAP2 SWAP1 PUSH2 0xA65 JUMP JUMPDEST PUSH2 0x3DB JUMP JUMPDEST PUSH1 0x40 MLOAD PUSH2 0x11A SWAP2 SWAP1 PUSH2 0x834 JUMP JUMPDEST PUSH1 0x40 MLOAD DUP1 SWAP2 SUB SWAP1 RETURN JUMPDEST PUSH2 0x13D PUSH1 0x4 DUP1 CALLDATASIZE SUB DUP2 ADD SWAP1 PUSH2 0x138 SWAP2 SWAP1 PUSH2 0xA1E JUMP JUMPDEST PUSH2 0x4D0 JUMP JUMPDEST STOP JUMPDEST PUSH2 0x147 PUSH2 0x5F1 JUMP JUMPDEST PUSH1 0x40 MLOAD PUSH2 0x154 SWAP2 SWAP1 PUSH2 0xB93 JUMP JUMPDEST PUSH1 0x40 MLOAD DUP1 SWAP2 SUB SWAP1 RETURN JUMPDEST PUSH0 DUP1 SLOAD PUSH2 0x169 SWAP1 PUSH2 0xBE0 JUMP JUMPDEST DUP1 PUSH1 0x1F ADD PUSH1 0x20 DUP1 SWAP2 DIV MUL PUSH1 0x20 ADD PUSH1 0x40 MLOAD SWAP1 DUP2 ADD PUSH1 0x40 MSTORE DUP1 SWAP3 SWAP2 SWAP1 DUP2 DUP2 MSTORE PUSH1 0x20 ADD DUP3 DUP1 SLOAD PUSH2 0x195 SWAP1 PUSH2 0xBE0 JUMP JUMPDEST DUP1 ISZERO PUSH2 0x1E0 JUMPI DUP1 PUSH1 0x1F LT PUSH2 0x1B7 JUMPI PUSH2 0x100 DUP1 DUP4 SLOAD DIV MUL DUP4 MSTORE SWAP2 PUSH1 0x20 ADD SWAP2 PUSH2 0x1E0 JUMP JUMPDEST DUP3 ADD SWAP2 SWAP1 PUSH0 MSTORE PUSH1 0x20 PUSH0 KECCAK256 SWAP1 JUMPDEST DUP2 SLOAD DUP2 MSTORE SWAP1 PUSH1 0x1 ADD SWAP1 PUSH1 0x20 ADD DUP1 DUP4 GT PUSH2 0x1C3 JUMPI DUP3 SWAP1 SUB PUSH1 0x1F AND DUP3 ADD SWAP2 JUMPDEST POP POP POP POP POP DUP2 JUMP JUMPDEST DUP2 PUSH1 0x3 DUP1 SLOAD SWAP1 POP DUP2 LT PUSH2 0x230 JUMPI PUSH1 0x40 MLOAD PUSH32 0x8C379A000000000000000000000000000000000000000000000000000000000 DUP2 MSTORE PUSH1 0x4 ADD PUSH2 0x227 SWAP1 PUSH2 0xC5A JUMP JUMPDEST PUSH1 0x40 MLOAD DUP1 SWAP2 SUB SWAP1 REVERT JUMPDEST DUP2 PUSH1 0x3 DUP5 DUP2 SLOAD DUP2 LT PUSH2 0x245 JUMPI PUSH2 0x244 PUSH2 0xC78 JUMP JUMPDEST JUMPDEST SWAP1 PUSH0 MSTORE PUSH1 0x20 PUSH0 KECCAK256 ADD SWAP1 DUP2 PUSH2 0x259 SWAP2 SWAP1 PUSH2 0xE42 JUMP JUMPDEST POP POP POP POP JUMP JUMPDEST CALLER PUSH20 0xFFFFFFFFFFFFFFFFFFFFFFFFFFFFFFFFFFFFFFFF AND PUSH1 0x2 PUSH0 SWAP1 SLOAD SWAP1 PUSH2 0x100 EXP SWAP1 DIV PUSH20 0xFFFFFFFFFFFFFFFFFFFFFFFFFFFFFFFFFFFFFFFF AND PUSH20 0xFFFFFFFFFFFFFFFFFFFFFFFFFFFFFFFFFFFFFFFF AND EQ PUSH2 0x2EE JUMPI PUSH1 0x40 MLOAD PUSH32 0x8C379A000000000000000000000000000000000000000000000000000000000 DUP2 MSTORE PUSH1 0x4 ADD PUSH2 0x2E5 SWAP1 PUSH2 0xF81 JUMP JUMPDEST PUSH1 0x40 MLOAD DUP1 SWAP2 SUB SWAP1 REVERT JUMPDEST CALLER PUSH20 0xFFFFFFFFFFFFFFFFFFFFFFFFFFFFFFFFFFFFFFFF AND PUSH32 0xDE4389D0E2B82C1DA27DA351A07C61A1C281A257DD810BC7FAD7E95A2FFFD0D2 DUP3 PUSH1 0x40 MLOAD PUSH2 0x334 SWAP2 SWAP1 PUSH2 0xFE9 JUMP JUMPDEST PUSH1 0x40 MLOAD DUP1 SWAP2 SUB SWAP1 LOG2 DUP1 PUSH1 0x1 SWAP1 DUP2 PUSH2 0x34B SWAP2 SWAP1 PUSH2 0xE42 JUMP JUMPDEST POP POP JUMP JUMPDEST PUSH1 0x1 DUP1 SLOAD PUSH2 0x35C SWAP1 PUSH2 0xBE0 JUMP JUMPDEST DUP1 PUSH1 0x1F ADD PUSH1 0x20 DUP1 SWAP2 DIV MUL PUSH1 0x20 ADD PUSH1 0x40 MLOAD SWAP1 DUP2 ADD PUSH1 0x40 MSTORE DUP1 SWAP3 SWAP2 SWAP1 DUP2 DUP2 MSTORE PUSH1 0x20 ADD DUP3 DUP1 SLOAD PUSH2 0x388 SWAP1 PUSH2 0xBE0 JUMP JUMPDEST DUP1 ISZERO PUSH2 0x3D3 JUMPI DUP1 PUSH1 0x1F LT PUSH2 0x3AA JUMPI PUSH2 0x100 DUP1 DUP4 SLOAD DIV MUL DUP4 MSTORE SWAP2 PUSH1 0x20 ADD SWAP2 PUSH2 0x3D3 JUMP JUMPDEST DUP3 ADD SWAP2 SWAP1 PUSH0 MSTORE PUSH1 0x20 PUSH0 KECCAK256 SWAP1 JUMPDEST DUP2 SLOAD DUP2 MSTORE SWAP1 PUSH1 0x1 ADD SWAP1 PUSH1 0x20 ADD DUP1 DUP4 GT PUSH2 0x3B6 JUMPI DUP3 SWAP1 SUB PUSH1 0x1F AND DUP3 ADD SWAP2 JUMPDEST POP POP POP POP POP DUP2 JUMP JUMPDEST PUSH1 0x60 DUP2 PUSH1 0x3 DUP1 SLOAD SWAP1 POP DUP2 LT PUSH2 0x425 JUMPI PUSH1 0x40 MLOAD PUSH32 0x8C379A000000000000000000000000000000000000000000000000000000000 DUP2 MSTORE PUSH1 0x4 ADD PUSH2 0x41C SWAP1 PUSH2 0xC5A JUMP JUMPDEST PUSH1 0x40 MLOAD DUP1 SWAP2 SUB SWAP1 REVERT JUMPDEST PUSH1 0x3 DUP4 DUP2 SLOAD DUP2 LT PUSH2 0x439 JUMPI PUSH2 0x438 PUSH2 0xC78 JUMP JUMPDEST JUMPDEST SWAP1 PUSH0 MSTORE PUSH1 0x20 PUSH0 KECCAK256 ADD DUP1 SLOAD PUSH2 0x44C SWAP1 PUSH2 0xBE0 JUMP JUMPDEST DUP1 PUSH1 0x1F ADD PUSH1 0x20 DUP1 SWAP2 DIV MUL PUSH1 0x20 ADD PUSH1 0x40 MLOAD SWAP1 DUP2 ADD PUSH1 0x40 MSTORE DUP1 SWAP3 SWAP2 SWAP1 DUP2 DUP2 MSTORE PUSH1 0x20 ADD DUP3 DUP1 SLOAD PUSH2 0x478 SWAP1 PUSH2 0xBE0 JUMP JUMPDEST DUP1 ISZERO PUSH2 0x4C3 JUMPI DUP1 PUSH1 0x1F LT PUSH2 0x49A JUMPI PUSH2 0x100 DUP1 DUP4 SLOAD DIV MUL DUP4 MSTORE SWAP2 PUSH1 0x20 ADD SWAP2 PUSH2 0x4C3 JUMP JUMPDEST DUP3 ADD SWAP2 SWAP1 PUSH0 MSTORE PUSH1 0x20 PUSH0 KECCAK256 SWAP1 JUMPDEST DUP2 SLOAD DUP2 MSTORE SWAP1 PUSH1 0x1 ADD SWAP1 PUSH1 0x20 ADD DUP1 DUP4 GT PUSH2 0x4A6 JUMPI DUP3 SWAP1 SUB PUSH1 0x1F AND DUP3 ADD SWAP2 JUMPDEST POP POP POP POP POP SWAP2 POP POP SWAP2 SWAP1 POP JUMP JUMPDEST CALLER PUSH20 0xFFFFFFFFFFFFFFFFFFFFFFFFFFFFFFFFFFFFFFFF AND PUSH1 0x2 PUSH0 SWAP1 SLOAD SWAP1 PUSH2 0x100 EXP SWAP1 DIV PUSH20 0xFFFFFFFFFFFFFFFFFFFFFFFFFFFFFFFFFFFFFFFF AND PUSH20 0xFFFFFFFFFFFFFFFFFFFFFFFFFFFFFFFFFFFFFFFF AND EQ PUSH2 0x55F JUMPI PUSH1 0x40 MLOAD PUSH32 0x8C379A000000000000000000000000000000000000000000000000000000000 DUP2 MSTORE PUSH1 0x4 ADD PUSH2 0x556 SWAP1 PUSH2 0xF81 JUMP JUMPDEST PUSH1 0x40 MLOAD DUP1 SWAP2 SUB SWAP1 REVERT JUMPDEST CALLER PUSH20 0xFFFFFFFFFFFFFFFFFFFFFFFFFFFFFFFFFFFFFFFF AND PUSH32 0xDE4389D0E2B82C1DA27DA351A07C61A1C281A257DD810BC7FAD7E95A2FFFD0D2 DUP3 PUSH1 0x40 MLOAD PUSH2 0x5A5 SWAP2 SWAP1 PUSH2 0x1066 JUMP JUMPDEST PUSH1 0x40 MLOAD DUP1 SWAP2 SUB SWAP1 LOG2 DUP1 PUSH0 SWAP1 DUP2 PUSH2 0x5BB SWAP2 SWAP1 PUSH2 0xE42 JUMP JUMPDEST POP PUSH1 0x3 DUP2 SWAP1 DUP1 PUSH1 0x1 DUP2 SLOAD ADD DUP1 DUP3 SSTORE DUP1 SWAP2 POP POP PUSH1 0x1 SWAP1 SUB SWAP1 PUSH0 MSTORE PUSH1 0x20 PUSH0 KECCAK256 ADD PUSH0 SWAP1 SWAP2 SWAP1 SWAP2 SWAP1 SWAP2 POP SWAP1 DUP2 PUSH2 0x5ED SWAP2 SWAP1 PUSH2 0xE42 JUMP JUMPDEST POP POP JUMP JUMPDEST PUSH1 0x60 CALLER PUSH20 0xFFFFFFFFFFFFFFFFFFFFFFFFFFFFFFFFFFFFFFFF AND PUSH32 0xDE4389D0E2B82C1DA27DA351A07C61A1C281A257DD810BC7FAD7E95A2FFFD0D2 PUSH1 0x3 PUSH1 0x1 PUSH1 0x3 DUP1 SLOAD SWAP1 POP PUSH2 0x63F SWAP2 SWAP1 PUSH2 0x10C6 JUMP JUMPDEST DUP2 SLOAD DUP2 LT PUSH2 0x650 JUMPI PUSH2 0x64F PUSH2 0xC78 JUMP JUMPDEST JUMPDEST SWAP1 PUSH0 MSTORE PUSH1 0x20 PUSH0 KECCAK256 ADD PUSH1 0x40 MLOAD PUSH2 0x665 SWAP2 SWAP1 PUSH2 0x117A JUMP JUMPDEST PUSH1 0x40 MLOAD DUP1 SWAP2 SUB SWAP1 LOG2 PUSH1 0x3 DUP1 SLOAD DUP1 PUSH2 0x67F JUMPI PUSH2 0x67E PUSH2 0x11AD JUMP JUMPDEST JUMPDEST PUSH1 0x1 SWAP1 SUB DUP2 DUP2 SWAP1 PUSH0 MSTORE PUSH1 0x20 PUSH0 KECCAK256 ADD PUSH0 PUSH2 0x698 SWAP2 SWAP1 PUSH2 0x76C JUMP JUMPDEST SWAP1 SSTORE PUSH1 0x3 DUP1 SLOAD DUP1 PUSH1 0x20 MUL PUSH1 0x20 ADD PUSH1 0x40 MLOAD SWAP1 DUP2 ADD PUSH1 0x40 MSTORE DUP1 SWAP3 SWAP2 SWAP1 DUP2 DUP2 MSTORE PUSH1 0x20 ADD PUSH0 SWAP1 JUMPDEST DUP3 DUP3 LT ISZERO PUSH2 0x763 JUMPI DUP4 DUP3 SWAP1 PUSH0 MSTORE PUSH1 0x20 PUSH0 KECCAK256 ADD DUP1 SLOAD PUSH2 0x6D8 SWAP1 PUSH2 0xBE0 JUMP JUMPDEST DUP1 PUSH1 0x1F ADD PUSH1 0x20 DUP1 SWAP2 DIV MUL PUSH1 0x20 ADD PUSH1 0x40 MLOAD SWAP1 DUP2 ADD PUSH1 0x40 MSTORE DUP1 SWAP3 SWAP2 SWAP1 DUP2 DUP2 MSTORE PUSH1 0x20 ADD DUP3 DUP1 SLOAD PUSH2 0x704 SWAP1 PUSH2 0xBE0 JUMP JUMPDEST DUP1 ISZERO PUSH2 0x74F JUMPI DUP1 PUSH1 0x1F LT PUSH2 0x726 JUMPI PUSH2 0x100 DUP1 DUP4 SLOAD DIV MUL DUP4 MSTORE SWAP2 PUSH1 0x20 ADD SWAP2 PUSH2 0x74F JUMP JUMPDEST DUP3 ADD SWAP2 SWAP1 PUSH0 MSTORE PUSH1 0x20 PUSH0 KECCAK256 SWAP1 JUMPDEST DUP2 SLOAD DUP2 MSTORE SWAP1 PUSH1 0x1 ADD SWAP1 PUSH1 0x20 ADD DUP1 DUP4 GT PUSH2 0x732 JUMPI DUP3 SWAP1 SUB PUSH1 0x1F AND DUP3 ADD SWAP2 JUMPDEST POP POP POP POP POP DUP2 MSTORE PUSH1 0x20 ADD SWAP1 PUSH1 0x1 ADD SWAP1 PUSH2 0x6BB JUMP JUMPDEST POP POP POP POP SWAP1 POP SWAP1 JUMP JUMPDEST POP DUP1 SLOAD PUSH2 0x778 SWAP1 PUSH2 0xBE0 JUMP JUMPDEST PUSH0 DUP3 SSTORE DUP1 PUSH1 0x1F LT PUSH2 0x789 JUMPI POP PUSH2 0x7A6 JUMP JUMPDEST PUSH1 0x1F ADD PUSH1 0x20 SWAP1 DIV SWAP1 PUSH0 MSTORE PUSH1 0x20 PUSH0 KECCAK256 SWAP1 DUP2 ADD SWAP1 PUSH2 0x7A5 SWAP2 SWAP1 PUSH2 0x7A9 JUMP JUMPDEST JUMPDEST POP JUMP JUMPDEST JUMPDEST DUP1 DUP3 GT ISZERO PUSH2 0x7C0 JUMPI PUSH0 DUP2 PUSH0 SWAP1 SSTORE POP PUSH1 0x1 ADD PUSH2 0x7AA JUMP JUMPDEST POP SWAP1 JUMP JUMPDEST PUSH0 DUP2 MLOAD SWAP1 POP SWAP2 SWAP1 POP JUMP JUMPDEST PUSH0 DUP3 DUP3 MSTORE PUSH1 0x20 DUP3 ADD SWAP1 POP SWAP3 SWAP2 POP POP JUMP JUMPDEST DUP3 DUP2 DUP4 MCOPY PUSH0 DUP4 DUP4 ADD MSTORE POP POP POP JUMP JUMPDEST PUSH0 PUSH1 0x1F NOT PUSH1 0x1F DUP4 ADD AND SWAP1 POP SWAP2 SWAP1 POP JUMP JUMPDEST PUSH0 PUSH2 0x806 DUP3 PUSH2 0x7C4 JUMP JUMPDEST PUSH2 0x810 DUP2 DUP6 PUSH2 0x7CE JUMP JUMPDEST SWAP4 POP PUSH2 0x820 DUP2 DUP6 PUSH1 0x20 DUP7 ADD PUSH2 0x7DE JUMP JUMPDEST PUSH2 0x829 DUP2 PUSH2 0x7EC JUMP JUMPDEST DUP5 ADD SWAP2 POP POP SWAP3 SWAP2 POP POP JUMP JUMPDEST PUSH0 PUSH1 0x20 DUP3 ADD SWAP1 POP DUP2 DUP2 SUB PUSH0 DUP4 ADD MSTORE PUSH2 0x84C DUP2 DUP5 PUSH2 0x7FC JUMP JUMPDEST SWAP1 POP SWAP3 SWAP2 POP POP JUMP JUMPDEST PUSH0 PUSH1 0x40 MLOAD SWAP1 POP SWAP1 JUMP JUMPDEST PUSH0 DUP1 REVERT JUMPDEST PUSH0 DUP1 REVERT JUMPDEST PUSH0 DUP2 SWAP1 POP SWAP2 SWAP1 POP JUMP JUMPDEST PUSH2 0x877 DUP2 PUSH2 0x865 JUMP JUMPDEST DUP2 EQ PUSH2 0x881 JUMPI PUSH0 DUP1 REVERT JUMPDEST POP JUMP JUMPDEST PUSH0 DUP2 CALLDATALOAD SWAP1 POP PUSH2 0x892 DUP2 PUSH2 0x86E JUMP JUMPDEST SWAP3 SWAP2 POP POP JUMP JUMPDEST PUSH0 DUP1 REVERT JUMPDEST PUSH0 DUP1 REVERT JUMPDEST PUSH32 0x4E487B7100000000000000000000000000000000000000000000000000000000 PUSH0 MSTORE PUSH1 0x41 PUSH1 0x4 MSTORE PUSH1 0x24 PUSH0 REVERT JUMPDEST PUSH2 0x8D6 DUP3 PUSH2 0x7EC JUMP JUMPDEST DUP2 ADD DUP2 DUP2 LT PUSH8 0xFFFFFFFFFFFFFFFF DUP3 GT OR ISZERO PUSH2 0x8F5 JUMPI PUSH2 0x8F4 PUSH2 0x8A0 JUMP JUMPDEST JUMPDEST DUP1 PUSH1 0x40 MSTORE POP POP POP JUMP JUMPDEST PUSH0 PUSH2 0x907 PUSH2 0x854 JUMP JUMPDEST SWAP1 POP PUSH2 0x913 DUP3 DUP3 PUSH2 0x8CD JUMP JUMPDEST SWAP2 SWAP1 POP JUMP JUMPDEST PUSH0 PUSH8 0xFFFFFFFFFFFFFFFF DUP3 GT ISZERO PUSH2 0x932 JUMPI PUSH2 0x931 PUSH2 0x8A0 JUMP JUMPDEST JUMPDEST PUSH2 0x93B DUP3 PUSH2 0x7EC JUMP JUMPDEST SWAP1 POP PUSH1 0x20 DUP2 ADD SWAP1 POP SWAP2 SWAP1 POP JUMP JUMPDEST DUP3 DUP2 DUP4 CALLDATACOPY PUSH0 DUP4 DUP4 ADD MSTORE POP POP POP JUMP JUMPDEST PUSH0 PUSH2 0x968 PUSH2 0x963 DUP5 PUSH2 0x918 JUMP JUMPDEST PUSH2 0x8FE JUMP JUMPDEST SWAP1 POP DUP3 DUP2 MSTORE PUSH1 0x20 DUP2 ADD DUP5 DUP5 DUP5 ADD GT ISZERO PUSH2 0x984 JUMPI PUSH2 0x983 PUSH2 0x89C JUMP JUMPDEST JUMPDEST PUSH2 0x98F DUP5 DUP3 DUP6 PUSH2 0x948 JUMP JUMPDEST POP SWAP4 SWAP3 POP POP POP JUMP JUMPDEST PUSH0 DUP3 PUSH1 0x1F DUP4 ADD SLT PUSH2 0x9AB JUMPI PUSH2 0x9AA PUSH2 0x898 JUMP JUMPDEST JUMPDEST DUP2 CALLDATALOAD PUSH2 0x9BB DUP5 DUP3 PUSH1 0x20 DUP7 ADD PUSH2 0x956 JUMP JUMPDEST SWAP2 POP POP SWAP3 SWAP2 POP POP JUMP JUMPDEST PUSH0 DUP1 PUSH1 0x40 DUP4 DUP6 SUB SLT ISZERO PUSH2 0x9DA JUMPI PUSH2 0x9D9 PUSH2 0x85D JUMP JUMPDEST JUMPDEST PUSH0 PUSH2 0x9E7 DUP6 DUP3 DUP7 ADD PUSH2 0x884 JUMP JUMPDEST SWAP3 POP POP PUSH1 0x20 DUP4 ADD CALLDATALOAD PUSH8 0xFFFFFFFFFFFFFFFF DUP2 GT ISZERO PUSH2 0xA08 JUMPI PUSH2 0xA07 PUSH2 0x861 JUMP JUMPDEST JUMPDEST PUSH2 0xA14 DUP6 DUP3 DUP7 ADD PUSH2 0x997 JUMP JUMPDEST SWAP2 POP POP SWAP3 POP SWAP3 SWAP1 POP JUMP JUMPDEST PUSH0 PUSH1 0x20 DUP3 DUP5 SUB SLT ISZERO PUSH2 0xA33 JUMPI PUSH2 0xA32 PUSH2 0x85D JUMP JUMPDEST JUMPDEST PUSH0 DUP3 ADD CALLDATALOAD PUSH8 0xFFFFFFFFFFFFFFFF DUP2 GT ISZERO PUSH2 0xA50 JUMPI PUSH2 0xA4F PUSH2 0x861 JUMP JUMPDEST JUMPDEST PUSH2 0xA5C DUP5 DUP3 DUP6 ADD PUSH2 0x997 JUMP JUMPDEST SWAP2 POP POP SWAP3 SWAP2 POP POP JUMP JUMPDEST PUSH0 PUSH1 0x20 DUP3 DUP5 SUB SLT ISZERO PUSH2 0xA7A JUMPI PUSH2 0xA79 PUSH2 0x85D JUMP JUMPDEST JUMPDEST PUSH0 PUSH2 0xA87 DUP5 DUP3 DUP6 ADD PUSH2 0x884 JUMP JUMPDEST SWAP2 POP POP SWAP3 SWAP2 POP POP JUMP JUMPDEST PUSH0 DUP2 MLOAD SWAP1 POP SWAP2 SWAP1 POP JUMP JUMPDEST PUSH0 DUP3 DUP3 MSTORE PUSH1 0x20 DUP3 ADD SWAP1 POP SWAP3 SWAP2 POP POP JUMP JUMPDEST PUSH0 DUP2 SWAP1 POP PUSH1 0x20 DUP3 ADD SWAP1 POP SWAP2 SWAP1 POP JUMP JUMPDEST PUSH0 DUP3 DUP3 MSTORE PUSH1 0x20 DUP3 ADD SWAP1 POP SWAP3 SWAP2 POP POP JUMP JUMPDEST PUSH0 PUSH2 0xAD3 DUP3 PUSH2 0x7C4 JUMP JUMPDEST PUSH2 0xADD DUP2 DUP6 PUSH2 0xAB9 JUMP JUMPDEST SWAP4 POP PUSH2 0xAED DUP2 DUP6 PUSH1 0x20 DUP7 ADD PUSH2 0x7DE JUMP JUMPDEST PUSH2 0xAF6 DUP2 PUSH2 0x7EC JUMP JUMPDEST DUP5 ADD SWAP2 POP POP SWAP3 SWAP2 POP POP JUMP JUMPDEST PUSH0 PUSH2 0xB0C DUP4 DUP4 PUSH2 0xAC9 JUMP JUMPDEST SWAP1 POP SWAP3 SWAP2 POP POP JUMP JUMPDEST PUSH0 PUSH1 0x20 DUP3 ADD SWAP1 POP SWAP2 SWAP1 POP JUMP JUMPDEST PUSH0 PUSH2 0xB2A DUP3 PUSH2 0xA90 JUMP JUMPDEST PUSH2 0xB34 DUP2 DUP6 PUSH2 0xA9A JUMP JUMPDEST SWAP4 POP DUP4 PUSH1 0x20 DUP3 MUL DUP6 ADD PUSH2 0xB46 DUP6 PUSH2 0xAAA JUMP JUMPDEST DUP1 PUSH0 JUMPDEST DUP6 DUP2 LT ISZERO PUSH2 0xB81 JUMPI DUP5 DUP5 SUB DUP10 MSTORE DUP2 MLOAD PUSH2 0xB62 DUP6 DUP3 PUSH2 0xB01 JUMP JUMPDEST SWAP5 POP PUSH2 0xB6D DUP4 PUSH2 0xB14 JUMP JUMPDEST SWAP3 POP PUSH1 0x20 DUP11 ADD SWAP10 POP POP PUSH1 0x1 DUP2 ADD SWAP1 POP PUSH2 0xB49 JUMP JUMPDEST POP DUP3 SWAP8 POP DUP8 SWAP6 POP POP POP POP POP POP SWAP3 SWAP2 POP POP JUMP JUMPDEST PUSH0 PUSH1 0x20 DUP3 ADD SWAP1 POP DUP2 DUP2 SUB PUSH0 DUP4 ADD MSTORE PUSH2 0xBAB DUP2 DUP5 PUSH2 0xB20 JUMP JUMPDEST SWAP1 POP SWAP3 SWAP2 POP POP JUMP JUMPDEST PUSH32 0x4E487B7100000000000000000000000000000000000000000000000000000000 PUSH0 MSTORE PUSH1 0x22 PUSH1 0x4 MSTORE PUSH1 0x24 PUSH0 REVERT JUMPDEST PUSH0 PUSH1 0x2 DUP3 DIV SWAP1 POP PUSH1 0x1 DUP3 AND DUP1 PUSH2 0xBF7 JUMPI PUSH1 0x7F DUP3 AND SWAP2 POP JUMPDEST PUSH1 0x20 DUP3 LT DUP2 SUB PUSH2 0xC0A JUMPI PUSH2 0xC09 PUSH2 0xBB3 JUMP JUMPDEST JUMPDEST POP SWAP2 SWAP1 POP JUMP JUMPDEST PUSH32 0x496E646578206F7574206F6620626F756E647300000000000000000000000000 PUSH0 DUP3 ADD MSTORE POP JUMP JUMPDEST PUSH0 PUSH2 0xC44 PUSH1 0x13 DUP4 PUSH2 0x7CE JUMP JUMPDEST SWAP2 POP PUSH2 0xC4F DUP3 PUSH2 0xC10 JUMP JUMPDEST PUSH1 0x20 DUP3 ADD SWAP1 POP SWAP2 SWAP1 POP JUMP JUMPDEST PUSH0 PUSH1 0x20 DUP3 ADD SWAP1 POP DUP2 DUP2 SUB PUSH0 DUP4 ADD MSTORE PUSH2 0xC71 DUP2 PUSH2 0xC38 JUMP JUMPDEST SWAP1 POP SWAP2 SWAP1 POP JUMP JUMPDEST PUSH32 0x4E487B7100000000000000000000000000000000000000000000000000000000 PUSH0 MSTORE PUSH1 0x32 PUSH1 0x4 MSTORE PUSH1 0x24 PUSH0 REVERT JUMPDEST PUSH0 DUP2 SWAP1 POP DUP2 PUSH0 MSTORE PUSH1 0x20 PUSH0 KECCAK256 SWAP1 POP SWAP2 SWAP1 POP JUMP JUMPDEST PUSH0 PUSH1 0x20 PUSH1 0x1F DUP4 ADD DIV SWAP1 POP SWAP2 SWAP1 POP JUMP JUMPDEST PUSH0 DUP3 DUP3 SHL SWAP1 POP SWAP3 SWAP2 POP POP JUMP JUMPDEST PUSH0 PUSH1 0x8 DUP4 MUL PUSH2 0xD01 PUSH32 0xFFFFFFFFFFFFFFFFFFFFFFFFFFFFFFFFFFFFFFFFFFFFFFFFFFFFFFFFFFFFFFFF DUP3 PUSH2 0xCC6 JUMP JUMPDEST PUSH2 0xD0B DUP7 DUP4 PUSH2 0xCC6 JUMP JUMPDEST SWAP6 POP DUP1 NOT DUP5 AND SWAP4 POP DUP1 DUP7 AND DUP5 OR SWAP3 POP POP POP SWAP4 SWAP3 POP POP POP JUMP JUMPDEST PUSH0 DUP2 SWAP1 POP SWAP2 SWAP1 POP JUMP JUMPDEST PUSH0 PUSH2 0xD46 PUSH2 0xD41 PUSH2 0xD3C DUP5 PUSH2 0x865 JUMP JUMPDEST PUSH2 0xD23 JUMP JUMPDEST PUSH2 0x865 JUMP JUMPDEST SWAP1 POP SWAP2 SWAP1 POP JUMP JUMPDEST PUSH0 DUP2 SWAP1 POP SWAP2 SWAP1 POP JUMP JUMPDEST PUSH2 0xD5F DUP4 PUSH2 0xD2C JUMP JUMPDEST PUSH2 0xD73 PUSH2 0xD6B DUP3 PUSH2 0xD4D JUMP JUMPDEST DUP5 DUP5 SLOAD PUSH2 0xCD2 JUMP JUMPDEST DUP3 SSTORE POP POP POP POP JUMP JUMPDEST PUSH0 SWAP1 JUMP JUMPDEST PUSH2 0xD87 PUSH2 0xD7B JUMP JUMPDEST PUSH2 0xD92 DUP2 DUP5 DUP5 PUSH2 0xD56 JUMP JUMPDEST POP POP POP JUMP JUMPDEST JUMPDEST DUP2 DUP2 LT ISZERO PUSH2 0xDB5 JUMPI PUSH2 0xDAA PUSH0 DUP3 PUSH2 0xD7F JUMP JUMPDEST PUSH1 0x1 DUP2 ADD SWAP1 POP PUSH2 0xD98 JUMP JUMPDEST POP POP JUMP JUMPDEST PUSH1 0x1F DUP3 GT ISZERO PUSH2 0xDFA JUMPI PUSH2 0xDCB DUP2 PUSH2 0xCA5 JUMP JUMPDEST PUSH2 0xDD4 DUP5 PUSH2 0xCB7 JUMP JUMPDEST DUP2 ADD PUSH1 0x20 DUP6 LT ISZERO PUSH2 0xDE3 JUMPI DUP2 SWAP1 POP JUMPDEST PUSH2 0xDF7 PUSH2 0xDEF DUP6 PUSH2 0xCB7 JUMP JUMPDEST DUP4 ADD DUP3 PUSH2 0xD97 JUMP JUMPDEST POP POP JUMPDEST POP POP POP JUMP JUMPDEST PUSH0 DUP3 DUP3 SHR SWAP1 POP SWAP3 SWAP2 POP POP JUMP JUMPDEST PUSH0 PUSH2 0xE1A PUSH0 NOT DUP5 PUSH1 0x8 MUL PUSH2 0xDFF JUMP JUMPDEST NOT DUP1 DUP4 AND SWAP2 POP POP SWAP3 SWAP2 POP POP JUMP JUMPDEST PUSH0 PUSH2 0xE32 DUP4 DUP4 PUSH2 0xE0B JUMP JUMPDEST SWAP2 POP DUP3 PUSH1 0x2 MUL DUP3 OR SWAP1 POP SWAP3 SWAP2 POP POP JUMP JUMPDEST PUSH2 0xE4B DUP3 PUSH2 0x7C4 JUMP JUMPDEST PUSH8 0xFFFFFFFFFFFFFFFF DUP2 GT ISZERO PUSH2 0xE64 JUMPI PUSH2 0xE63 PUSH2 0x8A0 JUMP JUMPDEST JUMPDEST PUSH2 0xE6E DUP3 SLOAD PUSH2 0xBE0 JUMP JUMPDEST PUSH2 0xE79 DUP3 DUP3 DUP6 PUSH2 0xDB9 JUMP JUMPDEST PUSH0 PUSH1 0x20 SWAP1 POP PUSH1 0x1F DUP4 GT PUSH1 0x1 DUP2 EQ PUSH2 0xEAA JUMPI PUSH0 DUP5 ISZERO PUSH2 0xE98 JUMPI DUP3 DUP8 ADD MLOAD SWAP1 POP JUMPDEST PUSH2 0xEA2 DUP6 DUP3 PUSH2 0xE27 JUMP JUMPDEST DUP7 SSTORE POP PUSH2 0xF09 JUMP JUMPDEST PUSH1 0x1F NOT DUP5 AND PUSH2 0xEB8 DUP7 PUSH2 0xCA5 JUMP JUMPDEST PUSH0 JUMPDEST DUP3 DUP2 LT ISZERO PUSH2 0xEDF JUMPI DUP5 DUP10 ADD MLOAD DUP3 SSTORE PUSH1 0x1 DUP3 ADD SWAP2 POP PUSH1 0x20 DUP6 ADD SWAP5 POP PUSH1 0x20 DUP2 ADD SWAP1 POP PUSH2 0xEBA JUMP JUMPDEST DUP7 DUP4 LT ISZERO PUSH2 0xEFC JUMPI DUP5 DUP10 ADD MLOAD PUSH2 0xEF8 PUSH1 0x1F DUP10 AND DUP3 PUSH2 0xE0B JUMP JUMPDEST DUP4 SSTORE POP JUMPDEST PUSH1 0x1 PUSH1 0x2 DUP9 MUL ADD DUP9 SSTORE POP POP POP JUMPDEST POP POP POP POP POP POP JUMP JUMPDEST PUSH32 0x4F6E6C7920746865206F776E65722063616E206D6F646966792074686520636F PUSH0 DUP3 ADD MSTORE PUSH32 0x6E74726163740000000000000000000000000000000000000000000000000000 PUSH1 0x20 DUP3 ADD MSTORE POP JUMP JUMPDEST PUSH0 PUSH2 0xF6B PUSH1 0x26 DUP4 PUSH2 0x7CE JUMP JUMPDEST SWAP2 POP PUSH2 0xF76 DUP3 PUSH2 0xF11 JUMP JUMPDEST PUSH1 0x40 DUP3 ADD SWAP1 POP SWAP2 SWAP1 POP JUMP JUMPDEST PUSH0 PUSH1 0x20 DUP3 ADD SWAP1 POP DUP2 DUP2 SUB PUSH0 DUP4 ADD MSTORE PUSH2 0xF98 DUP2 PUSH2 0xF5F JUMP JUMPDEST SWAP1 POP SWAP2 SWAP1 POP JUMP JUMPDEST PUSH32 0x4C6173744E616D65000000000000000000000000000000000000000000000000 PUSH0 DUP3 ADD MSTORE POP JUMP JUMPDEST PUSH0 PUSH2 0xFD3 PUSH1 0x8 DUP4 PUSH2 0x7CE JUMP JUMPDEST SWAP2 POP PUSH2 0xFDE DUP3 PUSH2 0xF9F JUMP JUMPDEST PUSH1 0x20 DUP3 ADD SWAP1 POP SWAP2 SWAP1 POP JUMP JUMPDEST PUSH0 PUSH1 0x40 DUP3 ADD SWAP1 POP DUP2 DUP2 SUB PUSH0 DUP4 ADD MSTORE PUSH2 0x1000 DUP2 PUSH2 0xFC7 JUMP JUMPDEST SWAP1 POP DUP2 DUP2 SUB PUSH1 0x20 DUP4 ADD MSTORE PUSH2 0x1014 DUP2 DUP5 PUSH2 0x7FC JUMP JUMPDEST SWAP1 POP SWAP3 SWAP2 POP POP JUMP JUMPDEST PUSH32 0x4E616D6500000000000000000000000000000000000000000000000000000000 PUSH0 DUP3 ADD MSTORE POP JUMP JUMPDEST PUSH0 PUSH2 0x1050 PUSH1 0x4 DUP4 PUSH2 0x7CE JUMP JUMPDEST SWAP2 POP PUSH2 0x105B DUP3 PUSH2 0x101C JUMP JUMPDEST PUSH1 0x20 DUP3 ADD SWAP1 POP SWAP2 SWAP1 POP JUMP JUMPDEST PUSH0 PUSH1 0x40 DUP3 ADD SWAP1 POP DUP2 DUP2 SUB PUSH0 DUP4 ADD MSTORE PUSH2 0x107D DUP2 PUSH2 0x1044 JUMP JUMPDEST SWAP1 POP DUP2 DUP2 SUB PUSH1 0x20 DUP4 ADD MSTORE PUSH2 0x1091 DUP2 DUP5 PUSH2 0x7FC JUMP JUMPDEST SWAP1 POP SWAP3 SWAP2 POP POP JUMP JUMPDEST PUSH32 0x4E487B7100000000000000000000000000000000000000000000000000000000 PUSH0 MSTORE PUSH1 0x11 PUSH1 0x4 MSTORE PUSH1 0x24 PUSH0 REVERT JUMPDEST PUSH0 PUSH2 0x10D0 DUP3 PUSH2 0x865 JUMP JUMPDEST SWAP2 POP PUSH2 0x10DB DUP4 PUSH2 0x865 JUMP JUMPDEST SWAP3 POP DUP3 DUP3 SUB SWAP1 POP DUP2 DUP2 GT ISZERO PUSH2 0x10F3 JUMPI PUSH2 0x10F2 PUSH2 0x1099 JUMP JUMPDEST JUMPDEST SWAP3 SWAP2 POP POP JUMP JUMPDEST PUSH0 DUP2 SLOAD PUSH2 0x1105 DUP2 PUSH2 0xBE0 JUMP JUMPDEST PUSH2 0x110F DUP2 DUP7 PUSH2 0x7CE JUMP JUMPDEST SWAP5 POP PUSH1 0x1 DUP3 AND PUSH0 DUP2 EQ PUSH2 0x1129 JUMPI PUSH1 0x1 DUP2 EQ PUSH2 0x113F JUMPI PUSH2 0x1171 JUMP JUMPDEST PUSH1 0xFF NOT DUP4 AND DUP7 MSTORE DUP2 ISZERO ISZERO PUSH1 0x20 MUL DUP7 ADD SWAP4 POP PUSH2 0x1171 JUMP JUMPDEST PUSH2 0x1148 DUP6 PUSH2 0xCA5 JUMP JUMPDEST PUSH0 JUMPDEST DUP4 DUP2 LT ISZERO PUSH2 0x1169 JUMPI DUP2 SLOAD DUP2 DUP10 ADD MSTORE PUSH1 0x1 DUP3 ADD SWAP2 POP PUSH1 0x20 DUP2 ADD SWAP1 POP PUSH2 0x114A JUMP JUMPDEST DUP1 DUP9 ADD SWAP6 POP POP POP JUMPDEST POP POP POP SWAP3 SWAP2 POP POP JUMP JUMPDEST PUSH0 PUSH1 0x40 DUP3 ADD SWAP1 POP DUP2 DUP2 SUB PUSH0 DUP4 ADD MSTORE PUSH2 0x1191 DUP2 PUSH2 0x1044 JUMP JUMPDEST SWAP1 POP DUP2 DUP2 SUB PUSH1 0x20 DUP4 ADD MSTORE PUSH2 0x11A5 DUP2 DUP5 PUSH2 0x10F9 JUMP JUMPDEST SWAP1 POP SWAP3 SWAP2 POP POP JUMP JUMPDEST PUSH32 0x4E487B7100000000000000000000000000000000000000000000000000000000 PUSH0 MSTORE PUSH1 0x31 PUSH1 0x4 MSTORE PUSH1 0x24 PUSH0 REVERT INVALID LOG2 PUSH5 0x6970667358 0x22 SLT KECCAK256 0xE0 0xAC SLT DUP11 0xBE 0x4B PUSH25 0x378F5171C5754556FDD19E1FA3CAE95BEEE527CD4CF3EC37C PUSH5 0x736F6C6343 STOP ADDMOD BYTE STOP CALLER "
				},
				"gasEstimates": {
					"creation": {
						"codeDepositCost": "924800",
						"executionCost": "25225",
						"totalCost": "950025"
					},
					"external": {
						"deleteLastElement()": "infinite",
						"editNameArray(uint256,string)": "infinite",
						"lastName()": "infinite",
						"name()": "infinite",
						"readName(uint256)": "infinite",
						"setLastName(string)": "infinite",
						"setName(string)": "infinite"
					}
				},
				"methodIdentifiers": {
					"deleteLastElement()": "f8bd7772",
					"editNameArray(uint256,string)": "2ed84c5a",
					"lastName()": "9ab03dcb",
					"name()": "06fdde03",
					"readName(uint256)": "ae1dfdf6",
					"setLastName(string)": "932754f9",
					"setName(string)": "c47f0027"
				}
			},
			"storageLayout": {
				"storage": [
					{
						"astId": 3,
						"contract": "contracts/Clase2Modulo2.sol:Clase2Modulo2",
						"label": "name",
						"offset": 0,
						"slot": "0",
						"type": "t_string_storage"
					},
					{
						"astId": 5,
						"contract": "contracts/Clase2Modulo2.sol:Clase2Modulo2",
						"label": "lastName",
						"offset": 0,
						"slot": "1",
						"type": "t_string_storage"
					},
					{
						"astId": 7,
						"contract": "contracts/Clase2Modulo2.sol:Clase2Modulo2",
						"label": "owner",
						"offset": 0,
						"slot": "2",
						"type": "t_address"
					},
					{
						"astId": 10,
						"contract": "contracts/Clase2Modulo2.sol:Clase2Modulo2",
						"label": "names",
						"offset": 0,
						"slot": "3",
						"type": "t_array(t_string_storage)dyn_storage"
					}
				],
				"types": {
					"t_address": {
						"encoding": "inplace",
						"label": "address",
						"numberOfBytes": "20"
					},
					"t_array(t_string_storage)dyn_storage": {
						"base": "t_string_storage",
						"encoding": "dynamic_array",
						"label": "string[]",
						"numberOfBytes": "32"
					},
					"t_string_storage": {
						"encoding": "bytes",
						"label": "string",
						"numberOfBytes": "32"
					}
				}
			},
			"userdoc": {
				"kind": "user",
				"methods": {},
				"version": 1
			}
		}
	}
}