{
	"contracts/EntregableFinalMod2.sol": {
		"EntregableFinalMod2": {
			"abi": [
				{
					"inputs": [
						{
							"internalType": "uint256",
							"name": "_fee",
							"type": "uint256"
						}
					],
					"stateMutability": "nonpayable",
					"type": "constructor"
				},
				{
					"anonymous": false,
					"inputs": [
						{
							"indexed": true,
							"internalType": "address",
							"name": "userAddress",
							"type": "address"
						},
						{
							"indexed": true,
							"internalType": "uint256",
							"name": "amount",
							"type": "uint256"
						}
					],
					"name": "Deposit",
					"type": "event"
				},
				{
					"anonymous": false,
					"inputs": [
						{
							"indexed": true,
							"internalType": "address",
							"name": "owner",
							"type": "address"
						},
						{
							"indexed": true,
							"internalType": "uint256",
							"name": "amount",
							"type": "uint256"
						}
					],
					"name": "TreasuryWithdrawal",
					"type": "event"
				},
				{
					"anonymous": false,
					"inputs": [
						{
							"indexed": true,
							"internalType": "address",
							"name": "userAddress",
							"type": "address"
						},
						{
							"indexed": true,
							"internalType": "string",
							"name": "firstName",
							"type": "string"
						},
						{
							"indexed": true,
							"internalType": "string",
							"name": "lastName",
							"type": "string"
						}
					],
					"name": "UserRegistered",
					"type": "event"
				},
				{
					"anonymous": false,
					"inputs": [
						{
							"indexed": true,
							"internalType": "address",
							"name": "userAddress",
							"type": "address"
						},
						{
							"indexed": true,
							"internalType": "uint256",
							"name": "amount",
							"type": "uint256"
						},
						{
							"indexed": true,
							"internalType": "uint256",
							"name": "fee",
							"type": "uint256"
						}
					],
					"name": "Withdrawal",
					"type": "event"
				},
				{
					"inputs": [
						{
							"internalType": "uint256",
							"name": "_amount",
							"type": "uint256"
						}
					],
					"name": "deposit",
					"outputs": [],
					"stateMutability": "payable",
					"type": "function"
				},
				{
					"inputs": [],
					"name": "getBalance",
					"outputs": [
						{
							"internalType": "uint256",
							"name": "",
							"type": "uint256"
						}
					],
					"stateMutability": "view",
					"type": "function"
				},
				{
					"inputs": [
						{
							"internalType": "string",
							"name": "_firstName",
							"type": "string"
						},
						{
							"internalType": "string",
							"name": "_lastName",
							"type": "string"
						}
					],
					"name": "register",
					"outputs": [],
					"stateMutability": "nonpayable",
					"type": "function"
				},
				{
					"inputs": [],
					"name": "treasuryBalance",
					"outputs": [
						{
							"internalType": "uint256",
							"name": "",
							"type": "uint256"
						}
					],
					"stateMutability": "view",
					"type": "function"
				},
				{
					"inputs": [
						{
							"internalType": "address",
							"name": "",
							"type": "address"
						}
					],
					"name": "users",
					"outputs": [
						{
							"internalType": "string",
							"name": "name",
							"type": "string"
						},
						{
							"internalType": "string",
							"name": "lastName",
							"type": "string"
						},
						{
							"internalType": "uint256",
							"name": "balance",
							"type": "uint256"
						},
						{
							"internalType": "bool",
							"name": "isRegistered",
							"type": "bool"
						}
					],
					"stateMutability": "view",
					"type": "function"
				},
				{
					"inputs": [
						{
							"internalType": "uint256",
							"name": "_amount",
							"type": "uint256"
						}
					],
					"name": "withdraw",
					"outputs": [],
					"stateMutability": "nonpayable",
					"type": "function"
				},
				{
					"inputs": [
						{
							"internalType": "uint256",
							"name": "_amount",
							"type": "uint256"
						}
					],
					"name": "withdrawTreasury",
					"outputs": [],
					"stateMutability": "nonpayable",
					"type": "function"
				},
				{
					"stateMutability": "payable",
					"type": "receive"
				}
			],
			"devdoc": {
				"kind": "dev",
				"methods": {},
				"version": 1
			},
			"evm": {
				"assembly": "    /* \"contracts/EntregableFinalMod2.sol\":88:3005  contract EntregableFinalMod2 {... */\n  mstore(0x40, 0x80)\n    /* \"contracts/EntregableFinalMod2.sol\":1537:1614  constructor(uint _fee){... */\n  callvalue\n  dup1\n  iszero\n  tag_1\n  jumpi\n  0x00\n  dup1\n  revert\ntag_1:\n  pop\n  mload(0x40)\n  sub(codesize, bytecodeSize)\n  dup1\n  bytecodeSize\n  dup4\n  codecopy\n  dup2\n  dup2\n  add\n  0x40\n  mstore\n  dup2\n  add\n  swap1\n  tag_2\n  swap2\n  swap1\n  tag_3\n  jump\t// in\ntag_2:\n    /* \"contracts/EntregableFinalMod2.sol\":1577:1587  msg.sender */\n  caller\n    /* \"contracts/EntregableFinalMod2.sol\":1569:1574  owner */\n  0x01\n  0x00\n    /* \"contracts/EntregableFinalMod2.sol\":1569:1587  owner = msg.sender */\n  0x0100\n  exp\n  dup2\n  sload\n  dup2\n  0xffffffffffffffffffffffffffffffffffffffff\n  mul\n  not\n  and\n  swap1\n  dup4\n  0xffffffffffffffffffffffffffffffffffffffff\n  and\n  mul\n  or\n  swap1\n  sstore\n  pop\n    /* \"contracts/EntregableFinalMod2.sol\":1603:1607  _fee */\n  dup1\n    /* \"contracts/EntregableFinalMod2.sol\":1597:1600  fee */\n  0x00\n    /* \"contracts/EntregableFinalMod2.sol\":1597:1607  fee = _fee */\n  dup2\n  swap1\n  sstore\n  pop\n    /* \"contracts/EntregableFinalMod2.sol\":1537:1614  constructor(uint _fee){... */\n  pop\n    /* \"contracts/EntregableFinalMod2.sol\":88:3005  contract EntregableFinalMod2 {... */\n  jump(tag_6)\n    /* \"#utility.yul\":88:205   */\ntag_8:\n    /* \"#utility.yul\":197:198   */\n  0x00\n    /* \"#utility.yul\":194:195   */\n  dup1\n    /* \"#utility.yul\":187:199   */\n  revert\n    /* \"#utility.yul\":334:411   */\ntag_10:\n    /* \"#utility.yul\":371:378   */\n  0x00\n    /* \"#utility.yul\":400:405   */\n  dup2\n    /* \"#utility.yul\":389:405   */\n  swap1\n  pop\n    /* \"#utility.yul\":334:411   */\n  swap2\n  swap1\n  pop\n  jump\t// out\n    /* \"#utility.yul\":417:539   */\ntag_11:\n    /* \"#utility.yul\":490:514   */\n  tag_19\n    /* \"#utility.yul\":508:513   */\n  dup2\n    /* \"#utility.yul\":490:514   */\n  tag_10\n  jump\t// in\ntag_19:\n    /* \"#utility.yul\":483:488   */\n  dup2\n    /* \"#utility.yul\":480:515   */\n  eq\n    /* \"#utility.yul\":470:533   */\n  tag_20\n  jumpi\n    /* \"#utility.yul\":529:530   */\n  0x00\n    /* \"#utility.yul\":526:527   */\n  dup1\n    /* \"#utility.yul\":519:531   */\n  revert\n    /* \"#utility.yul\":470:533   */\ntag_20:\n    /* \"#utility.yul\":417:539   */\n  pop\n  jump\t// out\n    /* \"#utility.yul\":545:688   */\ntag_12:\n    /* \"#utility.yul\":602:607   */\n  0x00\n    /* \"#utility.yul\":633:639   */\n  dup2\n    /* \"#utility.yul\":627:640   */\n  mload\n    /* \"#utility.yul\":618:640   */\n  swap1\n  pop\n    /* \"#utility.yul\":649:682   */\n  tag_22\n    /* \"#utility.yul\":676:681   */\n  dup2\n    /* \"#utility.yul\":649:682   */\n  tag_11\n  jump\t// in\ntag_22:\n    /* \"#utility.yul\":545:688   */\n  swap3\n  swap2\n  pop\n  pop\n  jump\t// out\n    /* \"#utility.yul\":694:1045   */\ntag_3:\n    /* \"#utility.yul\":764:770   */\n  0x00\n    /* \"#utility.yul\":813:815   */\n  0x20\n    /* \"#utility.yul\":801:810   */\n  dup3\n    /* \"#utility.yul\":792:799   */\n  dup5\n    /* \"#utility.yul\":788:811   */\n  sub\n    /* \"#utility.yul\":784:816   */\n  slt\n    /* \"#utility.yul\":781:900   */\n  iszero\n  tag_24\n  jumpi\n    /* \"#utility.yul\":819:898   */\n  tag_25\n  tag_8\n  jump\t// in\ntag_25:\n    /* \"#utility.yul\":781:900   */\ntag_24:\n    /* \"#utility.yul\":939:940   */\n  0x00\n    /* \"#utility.yul\":964:1028   */\n  tag_26\n    /* \"#utility.yul\":1020:1027   */\n  dup5\n    /* \"#utility.yul\":1011:1017   */\n  dup3\n    /* \"#utility.yul\":1000:1009   */\n  dup6\n    /* \"#utility.yul\":996:1018   */\n  add\n    /* \"#utility.yul\":964:1028   */\n  tag_12\n  jump\t// in\ntag_26:\n    /* \"#utility.yul\":954:1028   */\n  swap2\n  pop\n    /* \"#utility.yul\":910:1038   */\n  pop\n    /* \"#utility.yul\":694:1045   */\n  swap3\n  swap2\n  pop\n  pop\n  jump\t// out\n    /* \"contracts/EntregableFinalMod2.sol\":88:3005  contract EntregableFinalMod2 {... */\ntag_6:\n  dataSize(sub_0)\n  dup1\n  dataOffset(sub_0)\n  0x00\n  codecopy\n  0x00\n  return\nstop\n\nsub_0: assembly {\n        /* \"contracts/EntregableFinalMod2.sol\":88:3005  contract EntregableFinalMod2 {... */\n      mstore(0x40, 0x80)\n      jumpi(tag_1, lt(calldatasize, 0x04))\n      shr(0xe0, calldataload(0x00))\n      dup1\n      0x313dab20\n      gt\n      tag_10\n      jumpi\n      dup1\n      0x313dab20\n      eq\n      tag_6\n      jumpi\n      dup1\n      0x3ffbd47f\n      eq\n      tag_7\n      jumpi\n      dup1\n      0xa87430ba\n      eq\n      tag_8\n      jumpi\n      dup1\n      0xb6b55f25\n      eq\n      tag_9\n      jumpi\n      jump(tag_2)\n    tag_10:\n      dup1\n      0x11f1fc99\n      eq\n      tag_3\n      jumpi\n      dup1\n      0x12065fe0\n      eq\n      tag_4\n      jumpi\n      dup1\n      0x2e1a7d4d\n      eq\n      tag_5\n      jumpi\n      jump(tag_2)\n    tag_1:\n      jumpi(tag_2, calldatasize)\n      stop\n    tag_2:\n      0x00\n      dup1\n      revert\n        /* \"contracts/EntregableFinalMod2.sol\":2681:2968  function withdrawTreasury(uint256 _amount) checkTreasuryBalance(_amount) onlyOwner external {... */\n    tag_3:\n      callvalue\n      dup1\n      iszero\n      tag_13\n      jumpi\n      0x00\n      dup1\n      revert\n    tag_13:\n      pop\n      tag_14\n      0x04\n      dup1\n      calldatasize\n      sub\n      dup2\n      add\n      swap1\n      tag_15\n      swap2\n      swap1\n      tag_16\n      jump\t// in\n    tag_15:\n      tag_17\n      jump\t// in\n    tag_14:\n      stop\n        /* \"contracts/EntregableFinalMod2.sol\":2050:2169  function getBalance() onlyRegisteredUser external view returns (uint) {... */\n    tag_4:\n      callvalue\n      dup1\n      iszero\n      tag_18\n      jumpi\n      0x00\n      dup1\n      revert\n    tag_18:\n      pop\n      tag_19\n      tag_20\n      jump\t// in\n    tag_19:\n      mload(0x40)\n      tag_21\n      swap2\n      swap1\n      tag_22\n      jump\t// in\n    tag_21:\n      mload(0x40)\n      dup1\n      swap2\n      sub\n      swap1\n      return\n        /* \"contracts/EntregableFinalMod2.sol\":2175:2675  function withdraw(uint256 _amount)  onlyRegisteredUser external{... */\n    tag_5:\n      callvalue\n      dup1\n      iszero\n      tag_23\n      jumpi\n      0x00\n      dup1\n      revert\n    tag_23:\n      pop\n      tag_24\n      0x04\n      dup1\n      calldatasize\n      sub\n      dup2\n      add\n      swap1\n      tag_25\n      swap2\n      swap1\n      tag_16\n      jump\t// in\n    tag_25:\n      tag_26\n      jump\t// in\n    tag_24:\n      stop\n        /* \"contracts/EntregableFinalMod2.sol\":190:220  uint256 public treasuryBalance */\n    tag_6:\n      callvalue\n      dup1\n      iszero\n      tag_27\n      jumpi\n      0x00\n      dup1\n      revert\n    tag_27:\n      pop\n      tag_28\n      tag_29\n      jump\t// in\n    tag_28:\n      mload(0x40)\n      tag_30\n      swap2\n      swap1\n      tag_22\n      jump\t// in\n    tag_30:\n      mload(0x40)\n      dup1\n      swap2\n      sub\n      swap1\n      return\n        /* \"contracts/EntregableFinalMod2.sol\":1637:1874  function register(string calldata _firstName, string calldata _lastName) notRegisteredUser external {... */\n    tag_7:\n      callvalue\n      dup1\n      iszero\n      tag_31\n      jumpi\n      0x00\n      dup1\n      revert\n    tag_31:\n      pop\n      tag_32\n      0x04\n      dup1\n      calldatasize\n      sub\n      dup2\n      add\n      swap1\n      tag_33\n      swap2\n      swap1\n      tag_34\n      jump\t// in\n    tag_33:\n      tag_35\n      jump\t// in\n    tag_32:\n      stop\n        /* \"contracts/EntregableFinalMod2.sol\":347:385  mapping(address => User) public  users */\n    tag_8:\n      callvalue\n      dup1\n      iszero\n      tag_36\n      jumpi\n      0x00\n      dup1\n      revert\n    tag_36:\n      pop\n      tag_37\n      0x04\n      dup1\n      calldatasize\n      sub\n      dup2\n      add\n      swap1\n      tag_38\n      swap2\n      swap1\n      tag_39\n      jump\t// in\n    tag_38:\n      tag_40\n      jump\t// in\n    tag_37:\n      mload(0x40)\n      tag_41\n      swap5\n      swap4\n      swap3\n      swap2\n      swap1\n      tag_42\n      jump\t// in\n    tag_41:\n      mload(0x40)\n      dup1\n      swap2\n      sub\n      swap1\n      return\n        /* \"contracts/EntregableFinalMod2.sol\":1880:2044  function deposit(uint _amount) onlyRegisteredUser external payable  {... */\n    tag_9:\n      tag_43\n      0x04\n      dup1\n      calldatasize\n      sub\n      dup2\n      add\n      swap1\n      tag_44\n      swap2\n      swap1\n      tag_16\n      jump\t// in\n    tag_44:\n      tag_45\n      jump\t// in\n    tag_43:\n      stop\n        /* \"contracts/EntregableFinalMod2.sol\":2681:2968  function withdrawTreasury(uint256 _amount) checkTreasuryBalance(_amount) onlyOwner external {... */\n    tag_17:\n        /* \"contracts/EntregableFinalMod2.sol\":2745:2752  _amount */\n      dup1\n        /* \"contracts/EntregableFinalMod2.sol\":1451:1458  _amount */\n      dup1\n        /* \"contracts/EntregableFinalMod2.sol\":1432:1447  treasuryBalance */\n      sload(0x02)\n        /* \"contracts/EntregableFinalMod2.sol\":1432:1458  treasuryBalance >= _amount */\n      lt\n      iszero\n        /* \"contracts/EntregableFinalMod2.sol\":1424:1492  require(treasuryBalance >= _amount, \"Insufficient treasury balance\") */\n      tag_47\n      jumpi\n      mload(0x40)\n      0x08c379a000000000000000000000000000000000000000000000000000000000\n      dup2\n      mstore\n      0x04\n      add\n      tag_48\n      swap1\n      tag_49\n      jump\t// in\n    tag_48:\n      mload(0x40)\n      dup1\n      swap2\n      sub\n      swap1\n      revert\n    tag_47:\n        /* \"contracts/EntregableFinalMod2.sol\":824:834  msg.sender */\n      caller\n        /* \"contracts/EntregableFinalMod2.sol\":815:834  owner == msg.sender */\n      0xffffffffffffffffffffffffffffffffffffffff\n      and\n        /* \"contracts/EntregableFinalMod2.sol\":815:820  owner */\n      0x01\n      0x00\n      swap1\n      sload\n      swap1\n      0x0100\n      exp\n      swap1\n      div\n      0xffffffffffffffffffffffffffffffffffffffff\n      and\n        /* \"contracts/EntregableFinalMod2.sol\":815:834  owner == msg.sender */\n      0xffffffffffffffffffffffffffffffffffffffff\n      and\n      eq\n        /* \"contracts/EntregableFinalMod2.sol\":807:877  require(owner == msg.sender, \"Only the owner can modify the contract\") */\n      tag_51\n      jumpi\n      mload(0x40)\n      0x08c379a000000000000000000000000000000000000000000000000000000000\n      dup2\n      mstore\n      0x04\n      add\n      tag_52\n      swap1\n      tag_53\n      jump\t// in\n    tag_52:\n      mload(0x40)\n      dup1\n      swap2\n      sub\n      swap1\n      revert\n    tag_51:\n        /* \"contracts/EntregableFinalMod2.sol\":2802:2809  _amount */\n      dup2\n        /* \"contracts/EntregableFinalMod2.sol\":2783:2798  treasuryBalance */\n      0x02\n      0x00\n        /* \"contracts/EntregableFinalMod2.sol\":2783:2809  treasuryBalance -= _amount */\n      dup3\n      dup3\n      sload\n      tag_55\n      swap2\n      swap1\n      tag_56\n      jump\t// in\n    tag_55:\n      swap3\n      pop\n      pop\n      dup2\n      swap1\n      sstore\n      pop\n        /* \"contracts/EntregableFinalMod2.sol\":2820:2829  bool sent */\n      0x00\n        /* \"contracts/EntregableFinalMod2.sol\":2835:2840  owner */\n      0x01\n      0x00\n      swap1\n      sload\n      swap1\n      0x0100\n      exp\n      swap1\n      div\n      0xffffffffffffffffffffffffffffffffffffffff\n      and\n        /* \"contracts/EntregableFinalMod2.sol\":2835:2845  owner.call */\n      0xffffffffffffffffffffffffffffffffffffffff\n      and\n        /* \"contracts/EntregableFinalMod2.sol\":2853:2860  _amount */\n      dup4\n        /* \"contracts/EntregableFinalMod2.sol\":2835:2865  owner.call{value: _amount}(\"\") */\n      mload(0x40)\n      tag_57\n      swap1\n      tag_58\n      jump\t// in\n    tag_57:\n      0x00\n      mload(0x40)\n      dup1\n      dup4\n      sub\n      dup2\n      dup6\n      dup8\n      gas\n      call\n      swap3\n      pop\n      pop\n      pop\n      returndatasize\n      dup1\n      0x00\n      dup2\n      eq\n      tag_61\n      jumpi\n      mload(0x40)\n      swap2\n      pop\n      and(add(returndatasize, 0x3f), not(0x1f))\n      dup3\n      add\n      0x40\n      mstore\n      returndatasize\n      dup3\n      mstore\n      returndatasize\n      0x00\n      0x20\n      dup5\n      add\n      returndatacopy\n      jump(tag_60)\n    tag_61:\n      0x60\n      swap2\n      pop\n    tag_60:\n      pop\n        /* \"contracts/EntregableFinalMod2.sol\":2819:2865  (bool sent, ) = owner.call{value: _amount}(\"\") */\n      pop\n      swap1\n      pop\n        /* \"contracts/EntregableFinalMod2.sol\":2883:2887  sent */\n      dup1\n        /* \"contracts/EntregableFinalMod2.sol\":2875:2912  require(sent, \"Failed to send Ether\") */\n      tag_62\n      jumpi\n      mload(0x40)\n      0x08c379a000000000000000000000000000000000000000000000000000000000\n      dup2\n      mstore\n      0x04\n      add\n      tag_63\n      swap1\n      tag_64\n      jump\t// in\n    tag_63:\n      mload(0x40)\n      dup1\n      swap2\n      sub\n      swap1\n      revert\n    tag_62:\n        /* \"contracts/EntregableFinalMod2.sol\":2953:2960  _amount */\n      dup3\n        /* \"contracts/EntregableFinalMod2.sol\":2946:2951  owner */\n      0x01\n      0x00\n      swap1\n      sload\n      swap1\n      0x0100\n      exp\n      swap1\n      div\n      0xffffffffffffffffffffffffffffffffffffffff\n      and\n        /* \"contracts/EntregableFinalMod2.sol\":2927:2961  TreasuryWithdrawal(owner, _amount) */\n      0xffffffffffffffffffffffffffffffffffffffff\n      and\n      0x233c84dc0c19fbf51f9fa92214ffd8a59f512e0098bff5827455d02e401221c0\n      mload(0x40)\n      mload(0x40)\n      dup1\n      swap2\n      sub\n      swap1\n      log3\n        /* \"contracts/EntregableFinalMod2.sol\":2773:2968  {... */\n      pop\n        /* \"contracts/EntregableFinalMod2.sol\":2681:2968  function withdrawTreasury(uint256 _amount) checkTreasuryBalance(_amount) onlyOwner external {... */\n      pop\n      pop\n      jump\t// out\n        /* \"contracts/EntregableFinalMod2.sol\":2050:2169  function getBalance() onlyRegisteredUser external view returns (uint) {... */\n    tag_20:\n        /* \"contracts/EntregableFinalMod2.sol\":2114:2118  uint */\n      0x00\n        /* \"contracts/EntregableFinalMod2.sol\":948:953  users */\n      0x03\n        /* \"contracts/EntregableFinalMod2.sol\":948:965  users[msg.sender] */\n      0x00\n        /* \"contracts/EntregableFinalMod2.sol\":954:964  msg.sender */\n      caller\n        /* \"contracts/EntregableFinalMod2.sol\":948:965  users[msg.sender] */\n      0xffffffffffffffffffffffffffffffffffffffff\n      and\n      0xffffffffffffffffffffffffffffffffffffffff\n      and\n      dup2\n      mstore\n      0x20\n      add\n      swap1\n      dup2\n      mstore\n      0x20\n      add\n      0x00\n      keccak256\n        /* \"contracts/EntregableFinalMod2.sol\":948:978  users[msg.sender].isRegistered */\n      0x03\n      add\n      0x00\n      swap1\n      sload\n      swap1\n      0x0100\n      exp\n      swap1\n      div\n      0xff\n      and\n        /* \"contracts/EntregableFinalMod2.sol\":940:1040  require(users[msg.sender].isRegistered , \"Only the registered users can interact with the contract\") */\n      tag_66\n      jumpi\n      mload(0x40)\n      0x08c379a000000000000000000000000000000000000000000000000000000000\n      dup2\n      mstore\n      0x04\n      add\n      tag_67\n      swap1\n      tag_68\n      jump\t// in\n    tag_67:\n      mload(0x40)\n      dup1\n      swap2\n      sub\n      swap1\n      revert\n    tag_66:\n        /* \"contracts/EntregableFinalMod2.sol\":2137:2142  users */\n      0x03\n        /* \"contracts/EntregableFinalMod2.sol\":2137:2154  users[msg.sender] */\n      0x00\n        /* \"contracts/EntregableFinalMod2.sol\":2143:2153  msg.sender */\n      caller\n        /* \"contracts/EntregableFinalMod2.sol\":2137:2154  users[msg.sender] */\n      0xffffffffffffffffffffffffffffffffffffffff\n      and\n      0xffffffffffffffffffffffffffffffffffffffff\n      and\n      dup2\n      mstore\n      0x20\n      add\n      swap1\n      dup2\n      mstore\n      0x20\n      add\n      0x00\n      keccak256\n        /* \"contracts/EntregableFinalMod2.sol\":2137:2162  users[msg.sender].balance */\n      0x02\n      add\n      sload\n        /* \"contracts/EntregableFinalMod2.sol\":2130:2162  return users[msg.sender].balance */\n      swap1\n      pop\n        /* \"contracts/EntregableFinalMod2.sol\":2050:2169  function getBalance() onlyRegisteredUser external view returns (uint) {... */\n      swap1\n      jump\t// out\n        /* \"contracts/EntregableFinalMod2.sol\":2175:2675  function withdraw(uint256 _amount)  onlyRegisteredUser external{... */\n    tag_26:\n        /* \"contracts/EntregableFinalMod2.sol\":948:953  users */\n      0x03\n        /* \"contracts/EntregableFinalMod2.sol\":948:965  users[msg.sender] */\n      0x00\n        /* \"contracts/EntregableFinalMod2.sol\":954:964  msg.sender */\n      caller\n        /* \"contracts/EntregableFinalMod2.sol\":948:965  users[msg.sender] */\n      0xffffffffffffffffffffffffffffffffffffffff\n      and\n      0xffffffffffffffffffffffffffffffffffffffff\n      and\n      dup2\n      mstore\n      0x20\n      add\n      swap1\n      dup2\n      mstore\n      0x20\n      add\n      0x00\n      keccak256\n        /* \"contracts/EntregableFinalMod2.sol\":948:978  users[msg.sender].isRegistered */\n      0x03\n      add\n      0x00\n      swap1\n      sload\n      swap1\n      0x0100\n      exp\n      swap1\n      div\n      0xff\n      and\n        /* \"contracts/EntregableFinalMod2.sol\":940:1040  require(users[msg.sender].isRegistered , \"Only the registered users can interact with the contract\") */\n      tag_71\n      jumpi\n      mload(0x40)\n      0x08c379a000000000000000000000000000000000000000000000000000000000\n      dup2\n      mstore\n      0x04\n      add\n      tag_72\n      swap1\n      tag_68\n      jump\t// in\n    tag_72:\n      mload(0x40)\n      dup1\n      swap2\n      sub\n      swap1\n      revert\n    tag_71:\n        /* \"contracts/EntregableFinalMod2.sol\":2248:2262  uint256 newFee */\n      0x00\n        /* \"contracts/EntregableFinalMod2.sol\":2283:2288  10000 */\n      0x2710\n        /* \"contracts/EntregableFinalMod2.sol\":2276:2279  fee */\n      sload(0x00)\n        /* \"contracts/EntregableFinalMod2.sol\":2266:2273  _amount */\n      dup4\n        /* \"contracts/EntregableFinalMod2.sol\":2266:2279  _amount * fee */\n      tag_74\n      swap2\n      swap1\n      tag_75\n      jump\t// in\n    tag_74:\n        /* \"contracts/EntregableFinalMod2.sol\":2265:2288  (_amount * fee) / 10000 */\n      tag_76\n      swap2\n      swap1\n      tag_77\n      jump\t// in\n    tag_76:\n        /* \"contracts/EntregableFinalMod2.sol\":2248:2288  uint256 newFee = (_amount * fee) / 10000 */\n      swap1\n      pop\n        /* \"contracts/EntregableFinalMod2.sol\":2298:2315  uint256 netAmount */\n      0x00\n        /* \"contracts/EntregableFinalMod2.sol\":2328:2334  newFee */\n      dup2\n        /* \"contracts/EntregableFinalMod2.sol\":2318:2325  _amount */\n      dup4\n        /* \"contracts/EntregableFinalMod2.sol\":2318:2334  _amount - newFee */\n      tag_78\n      swap2\n      swap1\n      tag_56\n      jump\t// in\n    tag_78:\n        /* \"contracts/EntregableFinalMod2.sol\":2298:2334  uint256 netAmount = _amount - newFee */\n      swap1\n      pop\n        /* \"contracts/EntregableFinalMod2.sol\":2381:2388  _amount */\n      dup3\n        /* \"contracts/EntregableFinalMod2.sol\":2352:2357  users */\n      0x03\n        /* \"contracts/EntregableFinalMod2.sol\":2352:2369  users[msg.sender] */\n      0x00\n        /* \"contracts/EntregableFinalMod2.sol\":2358:2368  msg.sender */\n      caller\n        /* \"contracts/EntregableFinalMod2.sol\":2352:2369  users[msg.sender] */\n      0xffffffffffffffffffffffffffffffffffffffff\n      and\n      0xffffffffffffffffffffffffffffffffffffffff\n      and\n      dup2\n      mstore\n      0x20\n      add\n      swap1\n      dup2\n      mstore\n      0x20\n      add\n      0x00\n      keccak256\n        /* \"contracts/EntregableFinalMod2.sol\":2352:2377  users[msg.sender].balance */\n      0x02\n      add\n      sload\n        /* \"contracts/EntregableFinalMod2.sol\":2352:2388  users[msg.sender].balance >= _amount */\n      lt\n      iszero\n        /* \"contracts/EntregableFinalMod2.sol\":2344:2413  require(users[msg.sender].balance >= _amount, \"Insufficient balance\") */\n      tag_79\n      jumpi\n      mload(0x40)\n      0x08c379a000000000000000000000000000000000000000000000000000000000\n      dup2\n      mstore\n      0x04\n      add\n      tag_80\n      swap1\n      tag_81\n      jump\t// in\n    tag_80:\n      mload(0x40)\n      dup1\n      swap2\n      sub\n      swap1\n      revert\n    tag_79:\n        /* \"contracts/EntregableFinalMod2.sol\":2461:2468  _amount */\n      dup3\n        /* \"contracts/EntregableFinalMod2.sol\":2432:2437  users */\n      0x03\n        /* \"contracts/EntregableFinalMod2.sol\":2432:2449  users[msg.sender] */\n      0x00\n        /* \"contracts/EntregableFinalMod2.sol\":2438:2448  msg.sender */\n      caller\n        /* \"contracts/EntregableFinalMod2.sol\":2432:2449  users[msg.sender] */\n      0xffffffffffffffffffffffffffffffffffffffff\n      and\n      0xffffffffffffffffffffffffffffffffffffffff\n      and\n      dup2\n      mstore\n      0x20\n      add\n      swap1\n      dup2\n      mstore\n      0x20\n      add\n      0x00\n      keccak256\n        /* \"contracts/EntregableFinalMod2.sol\":2432:2457  users[msg.sender].balance */\n      0x02\n      add\n      0x00\n        /* \"contracts/EntregableFinalMod2.sol\":2432:2468  users[msg.sender].balance -= _amount */\n      dup3\n      dup3\n      sload\n      tag_82\n      swap2\n      swap1\n      tag_56\n      jump\t// in\n    tag_82:\n      swap3\n      pop\n      pop\n      dup2\n      swap1\n      sstore\n      pop\n        /* \"contracts/EntregableFinalMod2.sol\":2497:2503  newFee */\n      dup2\n        /* \"contracts/EntregableFinalMod2.sol\":2478:2493  treasuryBalance */\n      0x02\n      0x00\n        /* \"contracts/EntregableFinalMod2.sol\":2478:2503  treasuryBalance += newFee */\n      dup3\n      dup3\n      sload\n      tag_83\n      swap2\n      swap1\n      tag_84\n      jump\t// in\n    tag_83:\n      swap3\n      pop\n      pop\n      dup2\n      swap1\n      sstore\n      pop\n        /* \"contracts/EntregableFinalMod2.sol\":2515:2524  bool sent */\n      0x00\n        /* \"contracts/EntregableFinalMod2.sol\":2530:2540  msg.sender */\n      caller\n        /* \"contracts/EntregableFinalMod2.sol\":2530:2545  msg.sender.call */\n      0xffffffffffffffffffffffffffffffffffffffff\n      and\n        /* \"contracts/EntregableFinalMod2.sol\":2553:2560  _amount */\n      dup5\n        /* \"contracts/EntregableFinalMod2.sol\":2530:2565  msg.sender.call{value: _amount}(\"\") */\n      mload(0x40)\n      tag_85\n      swap1\n      tag_58\n      jump\t// in\n    tag_85:\n      0x00\n      mload(0x40)\n      dup1\n      dup4\n      sub\n      dup2\n      dup6\n      dup8\n      gas\n      call\n      swap3\n      pop\n      pop\n      pop\n      returndatasize\n      dup1\n      0x00\n      dup2\n      eq\n      tag_88\n      jumpi\n      mload(0x40)\n      swap2\n      pop\n      and(add(returndatasize, 0x3f), not(0x1f))\n      dup3\n      add\n      0x40\n      mstore\n      returndatasize\n      dup3\n      mstore\n      returndatasize\n      0x00\n      0x20\n      dup5\n      add\n      returndatacopy\n      jump(tag_87)\n    tag_88:\n      0x60\n      swap2\n      pop\n    tag_87:\n      pop\n        /* \"contracts/EntregableFinalMod2.sol\":2514:2565  (bool sent, ) = msg.sender.call{value: _amount}(\"\") */\n      pop\n      swap1\n      pop\n        /* \"contracts/EntregableFinalMod2.sol\":2583:2587  sent */\n      dup1\n        /* \"contracts/EntregableFinalMod2.sol\":2575:2612  require(sent, \"Failed to send Ether\") */\n      tag_89\n      jumpi\n      mload(0x40)\n      0x08c379a000000000000000000000000000000000000000000000000000000000\n      dup2\n      mstore\n      0x04\n      add\n      tag_90\n      swap1\n      tag_64\n      jump\t// in\n    tag_90:\n      mload(0x40)\n      dup1\n      swap2\n      sub\n      swap1\n      revert\n    tag_89:\n        /* \"contracts/EntregableFinalMod2.sol\":2661:2667  newFee */\n      dup3\n        /* \"contracts/EntregableFinalMod2.sol\":2650:2659  netAmount */\n      dup3\n        /* \"contracts/EntregableFinalMod2.sol\":2638:2648  msg.sender */\n      caller\n        /* \"contracts/EntregableFinalMod2.sol\":2627:2668  Withdrawal(msg.sender, netAmount, newFee) */\n      0xffffffffffffffffffffffffffffffffffffffff\n      and\n      0xdf273cb619d95419a9cd0ec88123a0538c85064229baa6363788f743fff90deb\n      mload(0x40)\n      mload(0x40)\n      dup1\n      swap2\n      sub\n      swap1\n      log4\n        /* \"contracts/EntregableFinalMod2.sol\":2238:2675  {... */\n      pop\n      pop\n      pop\n        /* \"contracts/EntregableFinalMod2.sol\":2175:2675  function withdraw(uint256 _amount)  onlyRegisteredUser external{... */\n      pop\n      jump\t// out\n        /* \"contracts/EntregableFinalMod2.sol\":190:220  uint256 public treasuryBalance */\n    tag_29:\n      sload(0x02)\n      dup2\n      jump\t// out\n        /* \"contracts/EntregableFinalMod2.sol\":1637:1874  function register(string calldata _firstName, string calldata _lastName) notRegisteredUser external {... */\n    tag_35:\n        /* \"contracts/EntregableFinalMod2.sol\":1111:1116  users */\n      0x03\n        /* \"contracts/EntregableFinalMod2.sol\":1111:1128  users[msg.sender] */\n      0x00\n        /* \"contracts/EntregableFinalMod2.sol\":1117:1127  msg.sender */\n      caller\n        /* \"contracts/EntregableFinalMod2.sol\":1111:1128  users[msg.sender] */\n      0xffffffffffffffffffffffffffffffffffffffff\n      and\n      0xffffffffffffffffffffffffffffffffffffffff\n      and\n      dup2\n      mstore\n      0x20\n      add\n      swap1\n      dup2\n      mstore\n      0x20\n      add\n      0x00\n      keccak256\n        /* \"contracts/EntregableFinalMod2.sol\":1111:1141  users[msg.sender].isRegistered */\n      0x03\n      add\n      0x00\n      swap1\n      sload\n      swap1\n      0x0100\n      exp\n      swap1\n      div\n      0xff\n      and\n        /* \"contracts/EntregableFinalMod2.sol\":1110:1141  !users[msg.sender].isRegistered */\n      iszero\n        /* \"contracts/EntregableFinalMod2.sol\":1102:1203  require(!users[msg.sender].isRegistered , \"Only the registered users can interact with the contract\") */\n      tag_92\n      jumpi\n      mload(0x40)\n      0x08c379a000000000000000000000000000000000000000000000000000000000\n      dup2\n      mstore\n      0x04\n      add\n      tag_93\n      swap1\n      tag_68\n      jump\t// in\n    tag_93:\n      mload(0x40)\n      dup1\n      swap2\n      sub\n      swap1\n      revert\n    tag_92:\n        /* \"contracts/EntregableFinalMod2.sol\":1767:1803  User(_firstName, _lastName, 0, true) */\n      mload(0x40)\n      dup1\n      0x80\n      add\n      0x40\n      mstore\n      dup1\n        /* \"contracts/EntregableFinalMod2.sol\":1772:1782  _firstName */\n      dup6\n      dup6\n        /* \"contracts/EntregableFinalMod2.sol\":1767:1803  User(_firstName, _lastName, 0, true) */\n      dup1\n      dup1\n      0x1f\n      add\n      0x20\n      dup1\n      swap2\n      div\n      mul\n      0x20\n      add\n      mload(0x40)\n      swap1\n      dup2\n      add\n      0x40\n      mstore\n      dup1\n      swap4\n      swap3\n      swap2\n      swap1\n      dup2\n      dup2\n      mstore\n      0x20\n      add\n      dup4\n      dup4\n      dup1\n      dup3\n      dup5\n      calldatacopy\n      0x00\n      dup2\n      dup5\n      add\n      mstore\n      not(0x1f)\n      0x1f\n      dup3\n      add\n      and\n      swap1\n      pop\n      dup1\n      dup4\n      add\n      swap3\n      pop\n      pop\n      pop\n      pop\n      pop\n      pop\n      pop\n      dup2\n      mstore\n      0x20\n      add\n        /* \"contracts/EntregableFinalMod2.sol\":1784:1793  _lastName */\n      dup4\n      dup4\n        /* \"contracts/EntregableFinalMod2.sol\":1767:1803  User(_firstName, _lastName, 0, true) */\n      dup1\n      dup1\n      0x1f\n      add\n      0x20\n      dup1\n      swap2\n      div\n      mul\n      0x20\n      add\n      mload(0x40)\n      swap1\n      dup2\n      add\n      0x40\n      mstore\n      dup1\n      swap4\n      swap3\n      swap2\n      swap1\n      dup2\n      dup2\n      mstore\n      0x20\n      add\n      dup4\n      dup4\n      dup1\n      dup3\n      dup5\n      calldatacopy\n      0x00\n      dup2\n      dup5\n      add\n      mstore\n      not(0x1f)\n      0x1f\n      dup3\n      add\n      and\n      swap1\n      pop\n      dup1\n      dup4\n      add\n      swap3\n      pop\n      pop\n      pop\n      pop\n      pop\n      pop\n      pop\n      dup2\n      mstore\n      0x20\n      add\n        /* \"contracts/EntregableFinalMod2.sol\":1795:1796  0 */\n      0x00\n        /* \"contracts/EntregableFinalMod2.sol\":1767:1803  User(_firstName, _lastName, 0, true) */\n      dup2\n      mstore\n      0x20\n      add\n        /* \"contracts/EntregableFinalMod2.sol\":1798:1802  true */\n      0x01\n        /* \"contracts/EntregableFinalMod2.sol\":1767:1803  User(_firstName, _lastName, 0, true) */\n      iszero\n      iszero\n      dup2\n      mstore\n      pop\n        /* \"contracts/EntregableFinalMod2.sol\":1747:1752  users */\n      0x03\n        /* \"contracts/EntregableFinalMod2.sol\":1747:1764  users[msg.sender] */\n      0x00\n        /* \"contracts/EntregableFinalMod2.sol\":1753:1763  msg.sender */\n      caller\n        /* \"contracts/EntregableFinalMod2.sol\":1747:1764  users[msg.sender] */\n      0xffffffffffffffffffffffffffffffffffffffff\n      and\n      0xffffffffffffffffffffffffffffffffffffffff\n      and\n      dup2\n      mstore\n      0x20\n      add\n      swap1\n      dup2\n      mstore\n      0x20\n      add\n      0x00\n      keccak256\n        /* \"contracts/EntregableFinalMod2.sol\":1747:1803  users[msg.sender] = User(_firstName, _lastName, 0, true) */\n      0x00\n      dup3\n      add\n      mload\n      dup2\n      0x00\n      add\n      swap1\n      dup2\n      tag_95\n      swap2\n      swap1\n      tag_96\n      jump\t// in\n    tag_95:\n      pop\n      0x20\n      dup3\n      add\n      mload\n      dup2\n      0x01\n      add\n      swap1\n      dup2\n      tag_97\n      swap2\n      swap1\n      tag_96\n      jump\t// in\n    tag_97:\n      pop\n      0x40\n      dup3\n      add\n      mload\n      dup2\n      0x02\n      add\n      sstore\n      0x60\n      dup3\n      add\n      mload\n      dup2\n      0x03\n      add\n      exp(0x0100, 0x00)\n      dup2\n      sload\n      dup2\n      0xff\n      mul\n      not\n      and\n      swap1\n      dup4\n      iszero\n      iszero\n      mul\n      or\n      swap1\n      sstore\n      pop\n      swap1\n      pop\n      pop\n        /* \"contracts/EntregableFinalMod2.sol\":1857:1866  _lastName */\n      dup2\n      dup2\n        /* \"contracts/EntregableFinalMod2.sol\":1818:1867  UserRegistered(msg.sender, _firstName, _lastName) */\n      mload(0x40)\n      tag_98\n      swap3\n      swap2\n      swap1\n      tag_99\n      jump\t// in\n    tag_98:\n      mload(0x40)\n      dup1\n      swap2\n      sub\n      swap1\n      keccak256\n        /* \"contracts/EntregableFinalMod2.sol\":1845:1855  _firstName */\n      dup5\n      dup5\n        /* \"contracts/EntregableFinalMod2.sol\":1818:1867  UserRegistered(msg.sender, _firstName, _lastName) */\n      mload(0x40)\n      tag_100\n      swap3\n      swap2\n      swap1\n      tag_99\n      jump\t// in\n    tag_100:\n      mload(0x40)\n      dup1\n      swap2\n      sub\n      swap1\n      keccak256\n        /* \"contracts/EntregableFinalMod2.sol\":1833:1843  msg.sender */\n      caller\n        /* \"contracts/EntregableFinalMod2.sol\":1818:1867  UserRegistered(msg.sender, _firstName, _lastName) */\n      0xffffffffffffffffffffffffffffffffffffffff\n      and\n      0x92822564bab8864c3a47b34e8d23fbce5c46234eb5da261f94087b995ac0f33b\n      mload(0x40)\n      mload(0x40)\n      dup1\n      swap2\n      sub\n      swap1\n      log4\n        /* \"contracts/EntregableFinalMod2.sol\":1637:1874  function register(string calldata _firstName, string calldata _lastName) notRegisteredUser external {... */\n      pop\n      pop\n      pop\n      pop\n      jump\t// out\n        /* \"contracts/EntregableFinalMod2.sol\":347:385  mapping(address => User) public  users */\n    tag_40:\n      mstore(0x20, 0x03)\n      dup1\n      0x00\n      mstore\n      keccak256(0x00, 0x40)\n      0x00\n      swap2\n      pop\n      swap1\n      pop\n      dup1\n      0x00\n      add\n      dup1\n      sload\n      tag_101\n      swap1\n      tag_102\n      jump\t// in\n    tag_101:\n      dup1\n      0x1f\n      add\n      0x20\n      dup1\n      swap2\n      div\n      mul\n      0x20\n      add\n      mload(0x40)\n      swap1\n      dup2\n      add\n      0x40\n      mstore\n      dup1\n      swap3\n      swap2\n      swap1\n      dup2\n      dup2\n      mstore\n      0x20\n      add\n      dup3\n      dup1\n      sload\n      tag_103\n      swap1\n      tag_102\n      jump\t// in\n    tag_103:\n      dup1\n      iszero\n      tag_104\n      jumpi\n      dup1\n      0x1f\n      lt\n      tag_105\n      jumpi\n      0x0100\n      dup1\n      dup4\n      sload\n      div\n      mul\n      dup4\n      mstore\n      swap2\n      0x20\n      add\n      swap2\n      jump(tag_104)\n    tag_105:\n      dup3\n      add\n      swap2\n      swap1\n      0x00\n      mstore\n      keccak256(0x00, 0x20)\n      swap1\n    tag_106:\n      dup2\n      sload\n      dup2\n      mstore\n      swap1\n      0x01\n      add\n      swap1\n      0x20\n      add\n      dup1\n      dup4\n      gt\n      tag_106\n      jumpi\n      dup3\n      swap1\n      sub\n      0x1f\n      and\n      dup3\n      add\n      swap2\n    tag_104:\n      pop\n      pop\n      pop\n      pop\n      pop\n      swap1\n      dup1\n      0x01\n      add\n      dup1\n      sload\n      tag_107\n      swap1\n      tag_102\n      jump\t// in\n    tag_107:\n      dup1\n      0x1f\n      add\n      0x20\n      dup1\n      swap2\n      div\n      mul\n      0x20\n      add\n      mload(0x40)\n      swap1\n      dup2\n      add\n      0x40\n      mstore\n      dup1\n      swap3\n      swap2\n      swap1\n      dup2\n      dup2\n      mstore\n      0x20\n      add\n      dup3\n      dup1\n      sload\n      tag_108\n      swap1\n      tag_102\n      jump\t// in\n    tag_108:\n      dup1\n      iszero\n      tag_109\n      jumpi\n      dup1\n      0x1f\n      lt\n      tag_110\n      jumpi\n      0x0100\n      dup1\n      dup4\n      sload\n      div\n      mul\n      dup4\n      mstore\n      swap2\n      0x20\n      add\n      swap2\n      jump(tag_109)\n    tag_110:\n      dup3\n      add\n      swap2\n      swap1\n      0x00\n      mstore\n      keccak256(0x00, 0x20)\n      swap1\n    tag_111:\n      dup2\n      sload\n      dup2\n      mstore\n      swap1\n      0x01\n      add\n      swap1\n      0x20\n      add\n      dup1\n      dup4\n      gt\n      tag_111\n      jumpi\n      dup3\n      swap1\n      sub\n      0x1f\n      and\n      dup3\n      add\n      swap2\n    tag_109:\n      pop\n      pop\n      pop\n      pop\n      pop\n      swap1\n      dup1\n      0x02\n      add\n      sload\n      swap1\n      dup1\n      0x03\n      add\n      0x00\n      swap1\n      sload\n      swap1\n      0x0100\n      exp\n      swap1\n      div\n      0xff\n      and\n      swap1\n      pop\n      dup5\n      jump\t// out\n        /* \"contracts/EntregableFinalMod2.sol\":1880:2044  function deposit(uint _amount) onlyRegisteredUser external payable  {... */\n    tag_45:\n        /* \"contracts/EntregableFinalMod2.sol\":948:953  users */\n      0x03\n        /* \"contracts/EntregableFinalMod2.sol\":948:965  users[msg.sender] */\n      0x00\n        /* \"contracts/EntregableFinalMod2.sol\":954:964  msg.sender */\n      caller\n        /* \"contracts/EntregableFinalMod2.sol\":948:965  users[msg.sender] */\n      0xffffffffffffffffffffffffffffffffffffffff\n      and\n      0xffffffffffffffffffffffffffffffffffffffff\n      and\n      dup2\n      mstore\n      0x20\n      add\n      swap1\n      dup2\n      mstore\n      0x20\n      add\n      0x00\n      keccak256\n        /* \"contracts/EntregableFinalMod2.sol\":948:978  users[msg.sender].isRegistered */\n      0x03\n      add\n      0x00\n      swap1\n      sload\n      swap1\n      0x0100\n      exp\n      swap1\n      div\n      0xff\n      and\n        /* \"contracts/EntregableFinalMod2.sol\":940:1040  require(users[msg.sender].isRegistered , \"Only the registered users can interact with the contract\") */\n      tag_113\n      jumpi\n      mload(0x40)\n      0x08c379a000000000000000000000000000000000000000000000000000000000\n      dup2\n      mstore\n      0x04\n      add\n      tag_114\n      swap1\n      tag_68\n      jump\t// in\n    tag_114:\n      mload(0x40)\n      dup1\n      swap2\n      sub\n      swap1\n      revert\n    tag_113:\n        /* \"contracts/EntregableFinalMod2.sol\":1987:1994  _amount */\n      dup1\n        /* \"contracts/EntregableFinalMod2.sol\":1958:1963  users */\n      0x03\n        /* \"contracts/EntregableFinalMod2.sol\":1958:1975  users[msg.sender] */\n      0x00\n        /* \"contracts/EntregableFinalMod2.sol\":1964:1974  msg.sender */\n      caller\n        /* \"contracts/EntregableFinalMod2.sol\":1958:1975  users[msg.sender] */\n      0xffffffffffffffffffffffffffffffffffffffff\n      and\n      0xffffffffffffffffffffffffffffffffffffffff\n      and\n      dup2\n      mstore\n      0x20\n      add\n      swap1\n      dup2\n      mstore\n      0x20\n      add\n      0x00\n      keccak256\n        /* \"contracts/EntregableFinalMod2.sol\":1958:1983  users[msg.sender].balance */\n      0x02\n      add\n      0x00\n        /* \"contracts/EntregableFinalMod2.sol\":1958:1994  users[msg.sender].balance += _amount */\n      dup3\n      dup3\n      sload\n      tag_116\n      swap2\n      swap1\n      tag_84\n      jump\t// in\n    tag_116:\n      swap3\n      pop\n      pop\n      dup2\n      swap1\n      sstore\n      pop\n        /* \"contracts/EntregableFinalMod2.sol\":2029:2036  _amount */\n      dup1\n        /* \"contracts/EntregableFinalMod2.sol\":2017:2027  msg.sender */\n      caller\n        /* \"contracts/EntregableFinalMod2.sol\":2009:2037  Deposit(msg.sender, _amount) */\n      0xffffffffffffffffffffffffffffffffffffffff\n      and\n      0xe1fffcc4923d04b559f4d29a8bfc6cda04eb5b0d3c460751c2402c5c5cc9109c\n      mload(0x40)\n      mload(0x40)\n      dup1\n      swap2\n      sub\n      swap1\n      log3\n        /* \"contracts/EntregableFinalMod2.sol\":1880:2044  function deposit(uint _amount) onlyRegisteredUser external payable  {... */\n      pop\n      jump\t// out\n        /* \"#utility.yul\":88:205   */\n    tag_118:\n        /* \"#utility.yul\":197:198   */\n      0x00\n        /* \"#utility.yul\":194:195   */\n      dup1\n        /* \"#utility.yul\":187:199   */\n      revert\n        /* \"#utility.yul\":211:328   */\n    tag_119:\n        /* \"#utility.yul\":320:321   */\n      0x00\n        /* \"#utility.yul\":317:318   */\n      dup1\n        /* \"#utility.yul\":310:322   */\n      revert\n        /* \"#utility.yul\":334:411   */\n    tag_120:\n        /* \"#utility.yul\":371:378   */\n      0x00\n        /* \"#utility.yul\":400:405   */\n      dup2\n        /* \"#utility.yul\":389:405   */\n      swap1\n      pop\n        /* \"#utility.yul\":334:411   */\n      swap2\n      swap1\n      pop\n      jump\t// out\n        /* \"#utility.yul\":417:539   */\n    tag_121:\n        /* \"#utility.yul\":490:514   */\n      tag_180\n        /* \"#utility.yul\":508:513   */\n      dup2\n        /* \"#utility.yul\":490:514   */\n      tag_120\n      jump\t// in\n    tag_180:\n        /* \"#utility.yul\":483:488   */\n      dup2\n        /* \"#utility.yul\":480:515   */\n      eq\n        /* \"#utility.yul\":470:533   */\n      tag_181\n      jumpi\n        /* \"#utility.yul\":529:530   */\n      0x00\n        /* \"#utility.yul\":526:527   */\n      dup1\n        /* \"#utility.yul\":519:531   */\n      revert\n        /* \"#utility.yul\":470:533   */\n    tag_181:\n        /* \"#utility.yul\":417:539   */\n      pop\n      jump\t// out\n        /* \"#utility.yul\":545:684   */\n    tag_122:\n        /* \"#utility.yul\":591:596   */\n      0x00\n        /* \"#utility.yul\":629:635   */\n      dup2\n        /* \"#utility.yul\":616:636   */\n      calldataload\n        /* \"#utility.yul\":607:636   */\n      swap1\n      pop\n        /* \"#utility.yul\":645:678   */\n      tag_183\n        /* \"#utility.yul\":672:677   */\n      dup2\n        /* \"#utility.yul\":645:678   */\n      tag_121\n      jump\t// in\n    tag_183:\n        /* \"#utility.yul\":545:684   */\n      swap3\n      swap2\n      pop\n      pop\n      jump\t// out\n        /* \"#utility.yul\":690:1019   */\n    tag_16:\n        /* \"#utility.yul\":749:755   */\n      0x00\n        /* \"#utility.yul\":798:800   */\n      0x20\n        /* \"#utility.yul\":786:795   */\n      dup3\n        /* \"#utility.yul\":777:784   */\n      dup5\n        /* \"#utility.yul\":773:796   */\n      sub\n        /* \"#utility.yul\":769:801   */\n      slt\n        /* \"#utility.yul\":766:885   */\n      iszero\n      tag_185\n      jumpi\n        /* \"#utility.yul\":804:883   */\n      tag_186\n      tag_118\n      jump\t// in\n    tag_186:\n        /* \"#utility.yul\":766:885   */\n    tag_185:\n        /* \"#utility.yul\":924:925   */\n      0x00\n        /* \"#utility.yul\":949:1002   */\n      tag_187\n        /* \"#utility.yul\":994:1001   */\n      dup5\n        /* \"#utility.yul\":985:991   */\n      dup3\n        /* \"#utility.yul\":974:983   */\n      dup6\n        /* \"#utility.yul\":970:992   */\n      add\n        /* \"#utility.yul\":949:1002   */\n      tag_122\n      jump\t// in\n    tag_187:\n        /* \"#utility.yul\":939:1002   */\n      swap2\n      pop\n        /* \"#utility.yul\":895:1012   */\n      pop\n        /* \"#utility.yul\":690:1019   */\n      swap3\n      swap2\n      pop\n      pop\n      jump\t// out\n        /* \"#utility.yul\":1025:1143   */\n    tag_123:\n        /* \"#utility.yul\":1112:1136   */\n      tag_189\n        /* \"#utility.yul\":1130:1135   */\n      dup2\n        /* \"#utility.yul\":1112:1136   */\n      tag_120\n      jump\t// in\n    tag_189:\n        /* \"#utility.yul\":1107:1110   */\n      dup3\n        /* \"#utility.yul\":1100:1137   */\n      mstore\n        /* \"#utility.yul\":1025:1143   */\n      pop\n      pop\n      jump\t// out\n        /* \"#utility.yul\":1149:1371   */\n    tag_22:\n        /* \"#utility.yul\":1242:1246   */\n      0x00\n        /* \"#utility.yul\":1280:1282   */\n      0x20\n        /* \"#utility.yul\":1269:1278   */\n      dup3\n        /* \"#utility.yul\":1265:1283   */\n      add\n        /* \"#utility.yul\":1257:1283   */\n      swap1\n      pop\n        /* \"#utility.yul\":1293:1364   */\n      tag_191\n        /* \"#utility.yul\":1361:1362   */\n      0x00\n        /* \"#utility.yul\":1350:1359   */\n      dup4\n        /* \"#utility.yul\":1346:1363   */\n      add\n        /* \"#utility.yul\":1337:1343   */\n      dup5\n        /* \"#utility.yul\":1293:1364   */\n      tag_123\n      jump\t// in\n    tag_191:\n        /* \"#utility.yul\":1149:1371   */\n      swap3\n      swap2\n      pop\n      pop\n      jump\t// out\n        /* \"#utility.yul\":1377:1494   */\n    tag_124:\n        /* \"#utility.yul\":1486:1487   */\n      0x00\n        /* \"#utility.yul\":1483:1484   */\n      dup1\n        /* \"#utility.yul\":1476:1488   */\n      revert\n        /* \"#utility.yul\":1500:1617   */\n    tag_125:\n        /* \"#utility.yul\":1609:1610   */\n      0x00\n        /* \"#utility.yul\":1606:1607   */\n      dup1\n        /* \"#utility.yul\":1599:1611   */\n      revert\n        /* \"#utility.yul\":1623:1740   */\n    tag_126:\n        /* \"#utility.yul\":1732:1733   */\n      0x00\n        /* \"#utility.yul\":1729:1730   */\n      dup1\n        /* \"#utility.yul\":1722:1734   */\n      revert\n        /* \"#utility.yul\":1760:2313   */\n    tag_127:\n        /* \"#utility.yul\":1818:1826   */\n      0x00\n        /* \"#utility.yul\":1828:1834   */\n      dup1\n        /* \"#utility.yul\":1878:1881   */\n      dup4\n        /* \"#utility.yul\":1871:1875   */\n      0x1f\n        /* \"#utility.yul\":1863:1869   */\n      dup5\n        /* \"#utility.yul\":1859:1876   */\n      add\n        /* \"#utility.yul\":1855:1882   */\n      slt\n        /* \"#utility.yul\":1845:1967   */\n      tag_196\n      jumpi\n        /* \"#utility.yul\":1886:1965   */\n      tag_197\n      tag_124\n      jump\t// in\n    tag_197:\n        /* \"#utility.yul\":1845:1967   */\n    tag_196:\n        /* \"#utility.yul\":1999:2005   */\n      dup3\n        /* \"#utility.yul\":1986:2006   */\n      calldataload\n        /* \"#utility.yul\":1976:2006   */\n      swap1\n      pop\n        /* \"#utility.yul\":2029:2047   */\n      0xffffffffffffffff\n        /* \"#utility.yul\":2021:2027   */\n      dup2\n        /* \"#utility.yul\":2018:2048   */\n      gt\n        /* \"#utility.yul\":2015:2132   */\n      iszero\n      tag_198\n      jumpi\n        /* \"#utility.yul\":2051:2130   */\n      tag_199\n      tag_125\n      jump\t// in\n    tag_199:\n        /* \"#utility.yul\":2015:2132   */\n    tag_198:\n        /* \"#utility.yul\":2165:2169   */\n      0x20\n        /* \"#utility.yul\":2157:2163   */\n      dup4\n        /* \"#utility.yul\":2153:2170   */\n      add\n        /* \"#utility.yul\":2141:2170   */\n      swap2\n      pop\n        /* \"#utility.yul\":2219:2222   */\n      dup4\n        /* \"#utility.yul\":2211:2215   */\n      0x01\n        /* \"#utility.yul\":2203:2209   */\n      dup3\n        /* \"#utility.yul\":2199:2216   */\n      mul\n        /* \"#utility.yul\":2189:2197   */\n      dup4\n        /* \"#utility.yul\":2185:2217   */\n      add\n        /* \"#utility.yul\":2182:2223   */\n      gt\n        /* \"#utility.yul\":2179:2307   */\n      iszero\n      tag_200\n      jumpi\n        /* \"#utility.yul\":2226:2305   */\n      tag_201\n      tag_126\n      jump\t// in\n    tag_201:\n        /* \"#utility.yul\":2179:2307   */\n    tag_200:\n        /* \"#utility.yul\":1760:2313   */\n      swap3\n      pop\n      swap3\n      swap1\n      pop\n      jump\t// out\n        /* \"#utility.yul\":2319:3193   */\n    tag_34:\n        /* \"#utility.yul\":2411:2417   */\n      0x00\n        /* \"#utility.yul\":2419:2425   */\n      dup1\n        /* \"#utility.yul\":2427:2433   */\n      0x00\n        /* \"#utility.yul\":2435:2441   */\n      dup1\n        /* \"#utility.yul\":2484:2486   */\n      0x40\n        /* \"#utility.yul\":2472:2481   */\n      dup6\n        /* \"#utility.yul\":2463:2470   */\n      dup8\n        /* \"#utility.yul\":2459:2482   */\n      sub\n        /* \"#utility.yul\":2455:2487   */\n      slt\n        /* \"#utility.yul\":2452:2571   */\n      iszero\n      tag_203\n      jumpi\n        /* \"#utility.yul\":2490:2569   */\n      tag_204\n      tag_118\n      jump\t// in\n    tag_204:\n        /* \"#utility.yul\":2452:2571   */\n    tag_203:\n        /* \"#utility.yul\":2638:2639   */\n      0x00\n        /* \"#utility.yul\":2627:2636   */\n      dup6\n        /* \"#utility.yul\":2623:2640   */\n      add\n        /* \"#utility.yul\":2610:2641   */\n      calldataload\n        /* \"#utility.yul\":2668:2686   */\n      0xffffffffffffffff\n        /* \"#utility.yul\":2660:2666   */\n      dup2\n        /* \"#utility.yul\":2657:2687   */\n      gt\n        /* \"#utility.yul\":2654:2771   */\n      iszero\n      tag_205\n      jumpi\n        /* \"#utility.yul\":2690:2769   */\n      tag_206\n      tag_119\n      jump\t// in\n    tag_206:\n        /* \"#utility.yul\":2654:2771   */\n    tag_205:\n        /* \"#utility.yul\":2803:2868   */\n      tag_207\n        /* \"#utility.yul\":2860:2867   */\n      dup8\n        /* \"#utility.yul\":2851:2857   */\n      dup3\n        /* \"#utility.yul\":2840:2849   */\n      dup9\n        /* \"#utility.yul\":2836:2858   */\n      add\n        /* \"#utility.yul\":2803:2868   */\n      tag_127\n      jump\t// in\n    tag_207:\n        /* \"#utility.yul\":2785:2868   */\n      swap5\n      pop\n      swap5\n      pop\n        /* \"#utility.yul\":2581:2878   */\n      pop\n        /* \"#utility.yul\":2945:2947   */\n      0x20\n        /* \"#utility.yul\":2934:2943   */\n      dup6\n        /* \"#utility.yul\":2930:2948   */\n      add\n        /* \"#utility.yul\":2917:2949   */\n      calldataload\n        /* \"#utility.yul\":2976:2994   */\n      0xffffffffffffffff\n        /* \"#utility.yul\":2968:2974   */\n      dup2\n        /* \"#utility.yul\":2965:2995   */\n      gt\n        /* \"#utility.yul\":2962:3079   */\n      iszero\n      tag_208\n      jumpi\n        /* \"#utility.yul\":2998:3077   */\n      tag_209\n      tag_119\n      jump\t// in\n    tag_209:\n        /* \"#utility.yul\":2962:3079   */\n    tag_208:\n        /* \"#utility.yul\":3111:3176   */\n      tag_210\n        /* \"#utility.yul\":3168:3175   */\n      dup8\n        /* \"#utility.yul\":3159:3165   */\n      dup3\n        /* \"#utility.yul\":3148:3157   */\n      dup9\n        /* \"#utility.yul\":3144:3166   */\n      add\n        /* \"#utility.yul\":3111:3176   */\n      tag_127\n      jump\t// in\n    tag_210:\n        /* \"#utility.yul\":3093:3176   */\n      swap3\n      pop\n      swap3\n      pop\n        /* \"#utility.yul\":2888:3186   */\n      pop\n        /* \"#utility.yul\":2319:3193   */\n      swap3\n      swap6\n      swap2\n      swap5\n      pop\n      swap3\n      pop\n      jump\t// out\n        /* \"#utility.yul\":3199:3325   */\n    tag_128:\n        /* \"#utility.yul\":3236:3243   */\n      0x00\n        /* \"#utility.yul\":3276:3318   */\n      0xffffffffffffffffffffffffffffffffffffffff\n        /* \"#utility.yul\":3269:3274   */\n      dup3\n        /* \"#utility.yul\":3265:3319   */\n      and\n        /* \"#utility.yul\":3254:3319   */\n      swap1\n      pop\n        /* \"#utility.yul\":3199:3325   */\n      swap2\n      swap1\n      pop\n      jump\t// out\n        /* \"#utility.yul\":3331:3427   */\n    tag_129:\n        /* \"#utility.yul\":3368:3375   */\n      0x00\n        /* \"#utility.yul\":3397:3421   */\n      tag_213\n        /* \"#utility.yul\":3415:3420   */\n      dup3\n        /* \"#utility.yul\":3397:3421   */\n      tag_128\n      jump\t// in\n    tag_213:\n        /* \"#utility.yul\":3386:3421   */\n      swap1\n      pop\n        /* \"#utility.yul\":3331:3427   */\n      swap2\n      swap1\n      pop\n      jump\t// out\n        /* \"#utility.yul\":3433:3555   */\n    tag_130:\n        /* \"#utility.yul\":3506:3530   */\n      tag_215\n        /* \"#utility.yul\":3524:3529   */\n      dup2\n        /* \"#utility.yul\":3506:3530   */\n      tag_129\n      jump\t// in\n    tag_215:\n        /* \"#utility.yul\":3499:3504   */\n      dup2\n        /* \"#utility.yul\":3496:3531   */\n      eq\n        /* \"#utility.yul\":3486:3549   */\n      tag_216\n      jumpi\n        /* \"#utility.yul\":3545:3546   */\n      0x00\n        /* \"#utility.yul\":3542:3543   */\n      dup1\n        /* \"#utility.yul\":3535:3547   */\n      revert\n        /* \"#utility.yul\":3486:3549   */\n    tag_216:\n        /* \"#utility.yul\":3433:3555   */\n      pop\n      jump\t// out\n        /* \"#utility.yul\":3561:3700   */\n    tag_131:\n        /* \"#utility.yul\":3607:3612   */\n      0x00\n        /* \"#utility.yul\":3645:3651   */\n      dup2\n        /* \"#utility.yul\":3632:3652   */\n      calldataload\n        /* \"#utility.yul\":3623:3652   */\n      swap1\n      pop\n        /* \"#utility.yul\":3661:3694   */\n      tag_218\n        /* \"#utility.yul\":3688:3693   */\n      dup2\n        /* \"#utility.yul\":3661:3694   */\n      tag_130\n      jump\t// in\n    tag_218:\n        /* \"#utility.yul\":3561:3700   */\n      swap3\n      swap2\n      pop\n      pop\n      jump\t// out\n        /* \"#utility.yul\":3706:4035   */\n    tag_39:\n        /* \"#utility.yul\":3765:3771   */\n      0x00\n        /* \"#utility.yul\":3814:3816   */\n      0x20\n        /* \"#utility.yul\":3802:3811   */\n      dup3\n        /* \"#utility.yul\":3793:3800   */\n      dup5\n        /* \"#utility.yul\":3789:3812   */\n      sub\n        /* \"#utility.yul\":3785:3817   */\n      slt\n        /* \"#utility.yul\":3782:3901   */\n      iszero\n      tag_220\n      jumpi\n        /* \"#utility.yul\":3820:3899   */\n      tag_221\n      tag_118\n      jump\t// in\n    tag_221:\n        /* \"#utility.yul\":3782:3901   */\n    tag_220:\n        /* \"#utility.yul\":3940:3941   */\n      0x00\n        /* \"#utility.yul\":3965:4018   */\n      tag_222\n        /* \"#utility.yul\":4010:4017   */\n      dup5\n        /* \"#utility.yul\":4001:4007   */\n      dup3\n        /* \"#utility.yul\":3990:3999   */\n      dup6\n        /* \"#utility.yul\":3986:4008   */\n      add\n        /* \"#utility.yul\":3965:4018   */\n      tag_131\n      jump\t// in\n    tag_222:\n        /* \"#utility.yul\":3955:4018   */\n      swap2\n      pop\n        /* \"#utility.yul\":3911:4028   */\n      pop\n        /* \"#utility.yul\":3706:4035   */\n      swap3\n      swap2\n      pop\n      pop\n      jump\t// out\n        /* \"#utility.yul\":4041:4140   */\n    tag_132:\n        /* \"#utility.yul\":4093:4099   */\n      0x00\n        /* \"#utility.yul\":4127:4132   */\n      dup2\n        /* \"#utility.yul\":4121:4133   */\n      mload\n        /* \"#utility.yul\":4111:4133   */\n      swap1\n      pop\n        /* \"#utility.yul\":4041:4140   */\n      swap2\n      swap1\n      pop\n      jump\t// out\n        /* \"#utility.yul\":4146:4315   */\n    tag_133:\n        /* \"#utility.yul\":4230:4241   */\n      0x00\n        /* \"#utility.yul\":4264:4270   */\n      dup3\n        /* \"#utility.yul\":4259:4262   */\n      dup3\n        /* \"#utility.yul\":4252:4271   */\n      mstore\n        /* \"#utility.yul\":4304:4308   */\n      0x20\n        /* \"#utility.yul\":4299:4302   */\n      dup3\n        /* \"#utility.yul\":4295:4309   */\n      add\n        /* \"#utility.yul\":4280:4309   */\n      swap1\n      pop\n        /* \"#utility.yul\":4146:4315   */\n      swap3\n      swap2\n      pop\n      pop\n      jump\t// out\n        /* \"#utility.yul\":4321:4460   */\n    tag_134:\n        /* \"#utility.yul\":4410:4416   */\n      dup3\n        /* \"#utility.yul\":4405:4408   */\n      dup2\n        /* \"#utility.yul\":4400:4403   */\n      dup4\n        /* \"#utility.yul\":4394:4417   */\n      mcopy\n        /* \"#utility.yul\":4451:4452   */\n      0x00\n        /* \"#utility.yul\":4442:4448   */\n      dup4\n        /* \"#utility.yul\":4437:4440   */\n      dup4\n        /* \"#utility.yul\":4433:4449   */\n      add\n        /* \"#utility.yul\":4426:4453   */\n      mstore\n        /* \"#utility.yul\":4321:4460   */\n      pop\n      pop\n      pop\n      jump\t// out\n        /* \"#utility.yul\":4466:4568   */\n    tag_135:\n        /* \"#utility.yul\":4507:4513   */\n      0x00\n        /* \"#utility.yul\":4558:4560   */\n      0x1f\n        /* \"#utility.yul\":4554:4561   */\n      not\n        /* \"#utility.yul\":4549:4551   */\n      0x1f\n        /* \"#utility.yul\":4542:4547   */\n      dup4\n        /* \"#utility.yul\":4538:4552   */\n      add\n        /* \"#utility.yul\":4534:4562   */\n      and\n        /* \"#utility.yul\":4524:4562   */\n      swap1\n      pop\n        /* \"#utility.yul\":4466:4568   */\n      swap2\n      swap1\n      pop\n      jump\t// out\n        /* \"#utility.yul\":4574:4951   */\n    tag_136:\n        /* \"#utility.yul\":4662:4665   */\n      0x00\n        /* \"#utility.yul\":4690:4729   */\n      tag_228\n        /* \"#utility.yul\":4723:4728   */\n      dup3\n        /* \"#utility.yul\":4690:4729   */\n      tag_132\n      jump\t// in\n    tag_228:\n        /* \"#utility.yul\":4745:4816   */\n      tag_229\n        /* \"#utility.yul\":4809:4815   */\n      dup2\n        /* \"#utility.yul\":4804:4807   */\n      dup6\n        /* \"#utility.yul\":4745:4816   */\n      tag_133\n      jump\t// in\n    tag_229:\n        /* \"#utility.yul\":4738:4816   */\n      swap4\n      pop\n        /* \"#utility.yul\":4825:4890   */\n      tag_230\n        /* \"#utility.yul\":4883:4889   */\n      dup2\n        /* \"#utility.yul\":4878:4881   */\n      dup6\n        /* \"#utility.yul\":4871:4875   */\n      0x20\n        /* \"#utility.yul\":4864:4869   */\n      dup7\n        /* \"#utility.yul\":4860:4876   */\n      add\n        /* \"#utility.yul\":4825:4890   */\n      tag_134\n      jump\t// in\n    tag_230:\n        /* \"#utility.yul\":4915:4944   */\n      tag_231\n        /* \"#utility.yul\":4937:4943   */\n      dup2\n        /* \"#utility.yul\":4915:4944   */\n      tag_135\n      jump\t// in\n    tag_231:\n        /* \"#utility.yul\":4910:4913   */\n      dup5\n        /* \"#utility.yul\":4906:4945   */\n      add\n        /* \"#utility.yul\":4899:4945   */\n      swap2\n      pop\n        /* \"#utility.yul\":4666:4951   */\n      pop\n        /* \"#utility.yul\":4574:4951   */\n      swap3\n      swap2\n      pop\n      pop\n      jump\t// out\n        /* \"#utility.yul\":4957:5047   */\n    tag_137:\n        /* \"#utility.yul\":4991:4998   */\n      0x00\n        /* \"#utility.yul\":5034:5039   */\n      dup2\n        /* \"#utility.yul\":5027:5040   */\n      iszero\n        /* \"#utility.yul\":5020:5041   */\n      iszero\n        /* \"#utility.yul\":5009:5041   */\n      swap1\n      pop\n        /* \"#utility.yul\":4957:5047   */\n      swap2\n      swap1\n      pop\n      jump\t// out\n        /* \"#utility.yul\":5053:5162   */\n    tag_138:\n        /* \"#utility.yul\":5134:5155   */\n      tag_234\n        /* \"#utility.yul\":5149:5154   */\n      dup2\n        /* \"#utility.yul\":5134:5155   */\n      tag_137\n      jump\t// in\n    tag_234:\n        /* \"#utility.yul\":5129:5132   */\n      dup3\n        /* \"#utility.yul\":5122:5156   */\n      mstore\n        /* \"#utility.yul\":5053:5162   */\n      pop\n      pop\n      jump\t// out\n        /* \"#utility.yul\":5168:5891   */\n    tag_42:\n        /* \"#utility.yul\":5379:5383   */\n      0x00\n        /* \"#utility.yul\":5417:5420   */\n      0x80\n        /* \"#utility.yul\":5406:5415   */\n      dup3\n        /* \"#utility.yul\":5402:5421   */\n      add\n        /* \"#utility.yul\":5394:5421   */\n      swap1\n      pop\n        /* \"#utility.yul\":5467:5476   */\n      dup2\n        /* \"#utility.yul\":5461:5465   */\n      dup2\n        /* \"#utility.yul\":5457:5477   */\n      sub\n        /* \"#utility.yul\":5453:5454   */\n      0x00\n        /* \"#utility.yul\":5442:5451   */\n      dup4\n        /* \"#utility.yul\":5438:5455   */\n      add\n        /* \"#utility.yul\":5431:5478   */\n      mstore\n        /* \"#utility.yul\":5495:5573   */\n      tag_236\n        /* \"#utility.yul\":5568:5572   */\n      dup2\n        /* \"#utility.yul\":5559:5565   */\n      dup8\n        /* \"#utility.yul\":5495:5573   */\n      tag_136\n      jump\t// in\n    tag_236:\n        /* \"#utility.yul\":5487:5573   */\n      swap1\n      pop\n        /* \"#utility.yul\":5620:5629   */\n      dup2\n        /* \"#utility.yul\":5614:5618   */\n      dup2\n        /* \"#utility.yul\":5610:5630   */\n      sub\n        /* \"#utility.yul\":5605:5607   */\n      0x20\n        /* \"#utility.yul\":5594:5603   */\n      dup4\n        /* \"#utility.yul\":5590:5608   */\n      add\n        /* \"#utility.yul\":5583:5631   */\n      mstore\n        /* \"#utility.yul\":5648:5726   */\n      tag_237\n        /* \"#utility.yul\":5721:5725   */\n      dup2\n        /* \"#utility.yul\":5712:5718   */\n      dup7\n        /* \"#utility.yul\":5648:5726   */\n      tag_136\n      jump\t// in\n    tag_237:\n        /* \"#utility.yul\":5640:5726   */\n      swap1\n      pop\n        /* \"#utility.yul\":5736:5808   */\n      tag_238\n        /* \"#utility.yul\":5804:5806   */\n      0x40\n        /* \"#utility.yul\":5793:5802   */\n      dup4\n        /* \"#utility.yul\":5789:5807   */\n      add\n        /* \"#utility.yul\":5780:5786   */\n      dup6\n        /* \"#utility.yul\":5736:5808   */\n      tag_123\n      jump\t// in\n    tag_238:\n        /* \"#utility.yul\":5818:5884   */\n      tag_239\n        /* \"#utility.yul\":5880:5882   */\n      0x60\n        /* \"#utility.yul\":5869:5878   */\n      dup4\n        /* \"#utility.yul\":5865:5883   */\n      add\n        /* \"#utility.yul\":5856:5862   */\n      dup5\n        /* \"#utility.yul\":5818:5884   */\n      tag_138\n      jump\t// in\n    tag_239:\n        /* \"#utility.yul\":5168:5891   */\n      swap6\n      swap5\n      pop\n      pop\n      pop\n      pop\n      pop\n      jump\t// out\n        /* \"#utility.yul\":5897:6076   */\n    tag_139:\n        /* \"#utility.yul\":6037:6068   */\n      0x496e73756666696369656e742074726561737572792062616c616e6365000000\n        /* \"#utility.yul\":6033:6034   */\n      0x00\n        /* \"#utility.yul\":6025:6031   */\n      dup3\n        /* \"#utility.yul\":6021:6035   */\n      add\n        /* \"#utility.yul\":6014:6069   */\n      mstore\n        /* \"#utility.yul\":5897:6076   */\n      pop\n      jump\t// out\n        /* \"#utility.yul\":6082:6448   */\n    tag_140:\n        /* \"#utility.yul\":6224:6227   */\n      0x00\n        /* \"#utility.yul\":6245:6312   */\n      tag_242\n        /* \"#utility.yul\":6309:6311   */\n      0x1d\n        /* \"#utility.yul\":6304:6307   */\n      dup4\n        /* \"#utility.yul\":6245:6312   */\n      tag_133\n      jump\t// in\n    tag_242:\n        /* \"#utility.yul\":6238:6312   */\n      swap2\n      pop\n        /* \"#utility.yul\":6321:6414   */\n      tag_243\n        /* \"#utility.yul\":6410:6413   */\n      dup3\n        /* \"#utility.yul\":6321:6414   */\n      tag_139\n      jump\t// in\n    tag_243:\n        /* \"#utility.yul\":6439:6441   */\n      0x20\n        /* \"#utility.yul\":6434:6437   */\n      dup3\n        /* \"#utility.yul\":6430:6442   */\n      add\n        /* \"#utility.yul\":6423:6442   */\n      swap1\n      pop\n        /* \"#utility.yul\":6082:6448   */\n      swap2\n      swap1\n      pop\n      jump\t// out\n        /* \"#utility.yul\":6454:6873   */\n    tag_49:\n        /* \"#utility.yul\":6620:6624   */\n      0x00\n        /* \"#utility.yul\":6658:6660   */\n      0x20\n        /* \"#utility.yul\":6647:6656   */\n      dup3\n        /* \"#utility.yul\":6643:6661   */\n      add\n        /* \"#utility.yul\":6635:6661   */\n      swap1\n      pop\n        /* \"#utility.yul\":6707:6716   */\n      dup2\n        /* \"#utility.yul\":6701:6705   */\n      dup2\n        /* \"#utility.yul\":6697:6717   */\n      sub\n        /* \"#utility.yul\":6693:6694   */\n      0x00\n        /* \"#utility.yul\":6682:6691   */\n      dup4\n        /* \"#utility.yul\":6678:6695   */\n      add\n        /* \"#utility.yul\":6671:6718   */\n      mstore\n        /* \"#utility.yul\":6735:6866   */\n      tag_245\n        /* \"#utility.yul\":6861:6865   */\n      dup2\n        /* \"#utility.yul\":6735:6866   */\n      tag_140\n      jump\t// in\n    tag_245:\n        /* \"#utility.yul\":6727:6866   */\n      swap1\n      pop\n        /* \"#utility.yul\":6454:6873   */\n      swap2\n      swap1\n      pop\n      jump\t// out\n        /* \"#utility.yul\":6879:7104   */\n    tag_141:\n        /* \"#utility.yul\":7019:7053   */\n      0x4f6e6c7920746865206f776e65722063616e206d6f646966792074686520636f\n        /* \"#utility.yul\":7015:7016   */\n      0x00\n        /* \"#utility.yul\":7007:7013   */\n      dup3\n        /* \"#utility.yul\":7003:7017   */\n      add\n        /* \"#utility.yul\":6996:7054   */\n      mstore\n        /* \"#utility.yul\":7088:7096   */\n      0x6e74726163740000000000000000000000000000000000000000000000000000\n        /* \"#utility.yul\":7083:7085   */\n      0x20\n        /* \"#utility.yul\":7075:7081   */\n      dup3\n        /* \"#utility.yul\":7071:7086   */\n      add\n        /* \"#utility.yul\":7064:7097   */\n      mstore\n        /* \"#utility.yul\":6879:7104   */\n      pop\n      jump\t// out\n        /* \"#utility.yul\":7110:7476   */\n    tag_142:\n        /* \"#utility.yul\":7252:7255   */\n      0x00\n        /* \"#utility.yul\":7273:7340   */\n      tag_248\n        /* \"#utility.yul\":7337:7339   */\n      0x26\n        /* \"#utility.yul\":7332:7335   */\n      dup4\n        /* \"#utility.yul\":7273:7340   */\n      tag_133\n      jump\t// in\n    tag_248:\n        /* \"#utility.yul\":7266:7340   */\n      swap2\n      pop\n        /* \"#utility.yul\":7349:7442   */\n      tag_249\n        /* \"#utility.yul\":7438:7441   */\n      dup3\n        /* \"#utility.yul\":7349:7442   */\n      tag_141\n      jump\t// in\n    tag_249:\n        /* \"#utility.yul\":7467:7469   */\n      0x40\n        /* \"#utility.yul\":7462:7465   */\n      dup3\n        /* \"#utility.yul\":7458:7470   */\n      add\n        /* \"#utility.yul\":7451:7470   */\n      swap1\n      pop\n        /* \"#utility.yul\":7110:7476   */\n      swap2\n      swap1\n      pop\n      jump\t// out\n        /* \"#utility.yul\":7482:7901   */\n    tag_53:\n        /* \"#utility.yul\":7648:7652   */\n      0x00\n        /* \"#utility.yul\":7686:7688   */\n      0x20\n        /* \"#utility.yul\":7675:7684   */\n      dup3\n        /* \"#utility.yul\":7671:7689   */\n      add\n        /* \"#utility.yul\":7663:7689   */\n      swap1\n      pop\n        /* \"#utility.yul\":7735:7744   */\n      dup2\n        /* \"#utility.yul\":7729:7733   */\n      dup2\n        /* \"#utility.yul\":7725:7745   */\n      sub\n        /* \"#utility.yul\":7721:7722   */\n      0x00\n        /* \"#utility.yul\":7710:7719   */\n      dup4\n        /* \"#utility.yul\":7706:7723   */\n      add\n        /* \"#utility.yul\":7699:7746   */\n      mstore\n        /* \"#utility.yul\":7763:7894   */\n      tag_251\n        /* \"#utility.yul\":7889:7893   */\n      dup2\n        /* \"#utility.yul\":7763:7894   */\n      tag_142\n      jump\t// in\n    tag_251:\n        /* \"#utility.yul\":7755:7894   */\n      swap1\n      pop\n        /* \"#utility.yul\":7482:7901   */\n      swap2\n      swap1\n      pop\n      jump\t// out\n        /* \"#utility.yul\":7907:8087   */\n    tag_143:\n        /* \"#utility.yul\":7955:8032   */\n      0x4e487b7100000000000000000000000000000000000000000000000000000000\n        /* \"#utility.yul\":7952:7953   */\n      0x00\n        /* \"#utility.yul\":7945:8033   */\n      mstore\n        /* \"#utility.yul\":8052:8056   */\n      0x11\n        /* \"#utility.yul\":8049:8050   */\n      0x04\n        /* \"#utility.yul\":8042:8057   */\n      mstore\n        /* \"#utility.yul\":8076:8080   */\n      0x24\n        /* \"#utility.yul\":8073:8074   */\n      0x00\n        /* \"#utility.yul\":8066:8081   */\n      revert\n        /* \"#utility.yul\":8093:8287   */\n    tag_56:\n        /* \"#utility.yul\":8133:8137   */\n      0x00\n        /* \"#utility.yul\":8153:8173   */\n      tag_254\n        /* \"#utility.yul\":8171:8172   */\n      dup3\n        /* \"#utility.yul\":8153:8173   */\n      tag_120\n      jump\t// in\n    tag_254:\n        /* \"#utility.yul\":8148:8173   */\n      swap2\n      pop\n        /* \"#utility.yul\":8187:8207   */\n      tag_255\n        /* \"#utility.yul\":8205:8206   */\n      dup4\n        /* \"#utility.yul\":8187:8207   */\n      tag_120\n      jump\t// in\n    tag_255:\n        /* \"#utility.yul\":8182:8207   */\n      swap3\n      pop\n        /* \"#utility.yul\":8231:8232   */\n      dup3\n        /* \"#utility.yul\":8228:8229   */\n      dup3\n        /* \"#utility.yul\":8224:8233   */\n      sub\n        /* \"#utility.yul\":8216:8233   */\n      swap1\n      pop\n        /* \"#utility.yul\":8255:8256   */\n      dup2\n        /* \"#utility.yul\":8249:8253   */\n      dup2\n        /* \"#utility.yul\":8246:8257   */\n      gt\n        /* \"#utility.yul\":8243:8280   */\n      iszero\n      tag_256\n      jumpi\n        /* \"#utility.yul\":8260:8278   */\n      tag_257\n      tag_143\n      jump\t// in\n    tag_257:\n        /* \"#utility.yul\":8243:8280   */\n    tag_256:\n        /* \"#utility.yul\":8093:8287   */\n      swap3\n      swap2\n      pop\n      pop\n      jump\t// out\n        /* \"#utility.yul\":8293:8440   */\n    tag_144:\n        /* \"#utility.yul\":8394:8405   */\n      0x00\n        /* \"#utility.yul\":8431:8434   */\n      dup2\n        /* \"#utility.yul\":8416:8434   */\n      swap1\n      pop\n        /* \"#utility.yul\":8293:8440   */\n      swap3\n      swap2\n      pop\n      pop\n      jump\t// out\n        /* \"#utility.yul\":8446:8560   */\n    tag_145:\n      pop\n      jump\t// out\n        /* \"#utility.yul\":8566:8964   */\n    tag_146:\n        /* \"#utility.yul\":8725:8728   */\n      0x00\n        /* \"#utility.yul\":8746:8829   */\n      tag_261\n        /* \"#utility.yul\":8827:8828   */\n      0x00\n        /* \"#utility.yul\":8822:8825   */\n      dup4\n        /* \"#utility.yul\":8746:8829   */\n      tag_144\n      jump\t// in\n    tag_261:\n        /* \"#utility.yul\":8739:8829   */\n      swap2\n      pop\n        /* \"#utility.yul\":8838:8931   */\n      tag_262\n        /* \"#utility.yul\":8927:8930   */\n      dup3\n        /* \"#utility.yul\":8838:8931   */\n      tag_145\n      jump\t// in\n    tag_262:\n        /* \"#utility.yul\":8956:8957   */\n      0x00\n        /* \"#utility.yul\":8951:8954   */\n      dup3\n        /* \"#utility.yul\":8947:8958   */\n      add\n        /* \"#utility.yul\":8940:8958   */\n      swap1\n      pop\n        /* \"#utility.yul\":8566:8964   */\n      swap2\n      swap1\n      pop\n      jump\t// out\n        /* \"#utility.yul\":8970:9349   */\n    tag_58:\n        /* \"#utility.yul\":9154:9157   */\n      0x00\n        /* \"#utility.yul\":9176:9323   */\n      tag_264\n        /* \"#utility.yul\":9319:9322   */\n      dup3\n        /* \"#utility.yul\":9176:9323   */\n      tag_146\n      jump\t// in\n    tag_264:\n        /* \"#utility.yul\":9169:9323   */\n      swap2\n      pop\n        /* \"#utility.yul\":9340:9343   */\n      dup2\n        /* \"#utility.yul\":9333:9343   */\n      swap1\n      pop\n        /* \"#utility.yul\":8970:9349   */\n      swap2\n      swap1\n      pop\n      jump\t// out\n        /* \"#utility.yul\":9355:9525   */\n    tag_147:\n        /* \"#utility.yul\":9495:9517   */\n      0x4661696c656420746f2073656e64204574686572000000000000000000000000\n        /* \"#utility.yul\":9491:9492   */\n      0x00\n        /* \"#utility.yul\":9483:9489   */\n      dup3\n        /* \"#utility.yul\":9479:9493   */\n      add\n        /* \"#utility.yul\":9472:9518   */\n      mstore\n        /* \"#utility.yul\":9355:9525   */\n      pop\n      jump\t// out\n        /* \"#utility.yul\":9531:9897   */\n    tag_148:\n        /* \"#utility.yul\":9673:9676   */\n      0x00\n        /* \"#utility.yul\":9694:9761   */\n      tag_267\n        /* \"#utility.yul\":9758:9760   */\n      0x14\n        /* \"#utility.yul\":9753:9756   */\n      dup4\n        /* \"#utility.yul\":9694:9761   */\n      tag_133\n      jump\t// in\n    tag_267:\n        /* \"#utility.yul\":9687:9761   */\n      swap2\n      pop\n        /* \"#utility.yul\":9770:9863   */\n      tag_268\n        /* \"#utility.yul\":9859:9862   */\n      dup3\n        /* \"#utility.yul\":9770:9863   */\n      tag_147\n      jump\t// in\n    tag_268:\n        /* \"#utility.yul\":9888:9890   */\n      0x20\n        /* \"#utility.yul\":9883:9886   */\n      dup3\n        /* \"#utility.yul\":9879:9891   */\n      add\n        /* \"#utility.yul\":9872:9891   */\n      swap1\n      pop\n        /* \"#utility.yul\":9531:9897   */\n      swap2\n      swap1\n      pop\n      jump\t// out\n        /* \"#utility.yul\":9903:10322   */\n    tag_64:\n        /* \"#utility.yul\":10069:10073   */\n      0x00\n        /* \"#utility.yul\":10107:10109   */\n      0x20\n        /* \"#utility.yul\":10096:10105   */\n      dup3\n        /* \"#utility.yul\":10092:10110   */\n      add\n        /* \"#utility.yul\":10084:10110   */\n      swap1\n      pop\n        /* \"#utility.yul\":10156:10165   */\n      dup2\n        /* \"#utility.yul\":10150:10154   */\n      dup2\n        /* \"#utility.yul\":10146:10166   */\n      sub\n        /* \"#utility.yul\":10142:10143   */\n      0x00\n        /* \"#utility.yul\":10131:10140   */\n      dup4\n        /* \"#utility.yul\":10127:10144   */\n      add\n        /* \"#utility.yul\":10120:10167   */\n      mstore\n        /* \"#utility.yul\":10184:10315   */\n      tag_270\n        /* \"#utility.yul\":10310:10314   */\n      dup2\n        /* \"#utility.yul\":10184:10315   */\n      tag_148\n      jump\t// in\n    tag_270:\n        /* \"#utility.yul\":10176:10315   */\n      swap1\n      pop\n        /* \"#utility.yul\":9903:10322   */\n      swap2\n      swap1\n      pop\n      jump\t// out\n        /* \"#utility.yul\":10328:10571   */\n    tag_149:\n        /* \"#utility.yul\":10468:10502   */\n      0x4f6e6c792074686520726567697374657265642075736572732063616e20696e\n        /* \"#utility.yul\":10464:10465   */\n      0x00\n        /* \"#utility.yul\":10456:10462   */\n      dup3\n        /* \"#utility.yul\":10452:10466   */\n      add\n        /* \"#utility.yul\":10445:10503   */\n      mstore\n        /* \"#utility.yul\":10537:10563   */\n      0x74657261637420776974682074686520636f6e74726163740000000000000000\n        /* \"#utility.yul\":10532:10534   */\n      0x20\n        /* \"#utility.yul\":10524:10530   */\n      dup3\n        /* \"#utility.yul\":10520:10535   */\n      add\n        /* \"#utility.yul\":10513:10564   */\n      mstore\n        /* \"#utility.yul\":10328:10571   */\n      pop\n      jump\t// out\n        /* \"#utility.yul\":10577:10943   */\n    tag_150:\n        /* \"#utility.yul\":10719:10722   */\n      0x00\n        /* \"#utility.yul\":10740:10807   */\n      tag_273\n        /* \"#utility.yul\":10804:10806   */\n      0x38\n        /* \"#utility.yul\":10799:10802   */\n      dup4\n        /* \"#utility.yul\":10740:10807   */\n      tag_133\n      jump\t// in\n    tag_273:\n        /* \"#utility.yul\":10733:10807   */\n      swap2\n      pop\n        /* \"#utility.yul\":10816:10909   */\n      tag_274\n        /* \"#utility.yul\":10905:10908   */\n      dup3\n        /* \"#utility.yul\":10816:10909   */\n      tag_149\n      jump\t// in\n    tag_274:\n        /* \"#utility.yul\":10934:10936   */\n      0x40\n        /* \"#utility.yul\":10929:10932   */\n      dup3\n        /* \"#utility.yul\":10925:10937   */\n      add\n        /* \"#utility.yul\":10918:10937   */\n      swap1\n      pop\n        /* \"#utility.yul\":10577:10943   */\n      swap2\n      swap1\n      pop\n      jump\t// out\n        /* \"#utility.yul\":10949:11368   */\n    tag_68:\n        /* \"#utility.yul\":11115:11119   */\n      0x00\n        /* \"#utility.yul\":11153:11155   */\n      0x20\n        /* \"#utility.yul\":11142:11151   */\n      dup3\n        /* \"#utility.yul\":11138:11156   */\n      add\n        /* \"#utility.yul\":11130:11156   */\n      swap1\n      pop\n        /* \"#utility.yul\":11202:11211   */\n      dup2\n        /* \"#utility.yul\":11196:11200   */\n      dup2\n        /* \"#utility.yul\":11192:11212   */\n      sub\n        /* \"#utility.yul\":11188:11189   */\n      0x00\n        /* \"#utility.yul\":11177:11186   */\n      dup4\n        /* \"#utility.yul\":11173:11190   */\n      add\n        /* \"#utility.yul\":11166:11213   */\n      mstore\n        /* \"#utility.yul\":11230:11361   */\n      tag_276\n        /* \"#utility.yul\":11356:11360   */\n      dup2\n        /* \"#utility.yul\":11230:11361   */\n      tag_150\n      jump\t// in\n    tag_276:\n        /* \"#utility.yul\":11222:11361   */\n      swap1\n      pop\n        /* \"#utility.yul\":10949:11368   */\n      swap2\n      swap1\n      pop\n      jump\t// out\n        /* \"#utility.yul\":11374:11784   */\n    tag_75:\n        /* \"#utility.yul\":11414:11421   */\n      0x00\n        /* \"#utility.yul\":11437:11457   */\n      tag_278\n        /* \"#utility.yul\":11455:11456   */\n      dup3\n        /* \"#utility.yul\":11437:11457   */\n      tag_120\n      jump\t// in\n    tag_278:\n        /* \"#utility.yul\":11432:11457   */\n      swap2\n      pop\n        /* \"#utility.yul\":11471:11491   */\n      tag_279\n        /* \"#utility.yul\":11489:11490   */\n      dup4\n        /* \"#utility.yul\":11471:11491   */\n      tag_120\n      jump\t// in\n    tag_279:\n        /* \"#utility.yul\":11466:11491   */\n      swap3\n      pop\n        /* \"#utility.yul\":11526:11527   */\n      dup3\n        /* \"#utility.yul\":11523:11524   */\n      dup3\n        /* \"#utility.yul\":11519:11528   */\n      mul\n        /* \"#utility.yul\":11548:11578   */\n      tag_280\n        /* \"#utility.yul\":11566:11577   */\n      dup2\n        /* \"#utility.yul\":11548:11578   */\n      tag_120\n      jump\t// in\n    tag_280:\n        /* \"#utility.yul\":11537:11578   */\n      swap2\n      pop\n        /* \"#utility.yul\":11727:11728   */\n      dup3\n        /* \"#utility.yul\":11718:11725   */\n      dup3\n        /* \"#utility.yul\":11714:11729   */\n      div\n        /* \"#utility.yul\":11711:11712   */\n      dup5\n        /* \"#utility.yul\":11708:11730   */\n      eq\n        /* \"#utility.yul\":11688:11689   */\n      dup4\n        /* \"#utility.yul\":11681:11690   */\n      iszero\n        /* \"#utility.yul\":11661:11744   */\n      or\n        /* \"#utility.yul\":11638:11777   */\n      tag_281\n      jumpi\n        /* \"#utility.yul\":11757:11775   */\n      tag_282\n      tag_143\n      jump\t// in\n    tag_282:\n        /* \"#utility.yul\":11638:11777   */\n    tag_281:\n        /* \"#utility.yul\":11422:11784   */\n      pop\n        /* \"#utility.yul\":11374:11784   */\n      swap3\n      swap2\n      pop\n      pop\n      jump\t// out\n        /* \"#utility.yul\":11790:11970   */\n    tag_151:\n        /* \"#utility.yul\":11838:11915   */\n      0x4e487b7100000000000000000000000000000000000000000000000000000000\n        /* \"#utility.yul\":11835:11836   */\n      0x00\n        /* \"#utility.yul\":11828:11916   */\n      mstore\n        /* \"#utility.yul\":11935:11939   */\n      0x12\n        /* \"#utility.yul\":11932:11933   */\n      0x04\n        /* \"#utility.yul\":11925:11940   */\n      mstore\n        /* \"#utility.yul\":11959:11963   */\n      0x24\n        /* \"#utility.yul\":11956:11957   */\n      0x00\n        /* \"#utility.yul\":11949:11964   */\n      revert\n        /* \"#utility.yul\":11976:12161   */\n    tag_77:\n        /* \"#utility.yul\":12016:12017   */\n      0x00\n        /* \"#utility.yul\":12033:12053   */\n      tag_285\n        /* \"#utility.yul\":12051:12052   */\n      dup3\n        /* \"#utility.yul\":12033:12053   */\n      tag_120\n      jump\t// in\n    tag_285:\n        /* \"#utility.yul\":12028:12053   */\n      swap2\n      pop\n        /* \"#utility.yul\":12067:12087   */\n      tag_286\n        /* \"#utility.yul\":12085:12086   */\n      dup4\n        /* \"#utility.yul\":12067:12087   */\n      tag_120\n      jump\t// in\n    tag_286:\n        /* \"#utility.yul\":12062:12087   */\n      swap3\n      pop\n        /* \"#utility.yul\":12106:12107   */\n      dup3\n        /* \"#utility.yul\":12096:12131   */\n      tag_287\n      jumpi\n        /* \"#utility.yul\":12111:12129   */\n      tag_288\n      tag_151\n      jump\t// in\n    tag_288:\n        /* \"#utility.yul\":12096:12131   */\n    tag_287:\n        /* \"#utility.yul\":12153:12154   */\n      dup3\n        /* \"#utility.yul\":12150:12151   */\n      dup3\n        /* \"#utility.yul\":12146:12155   */\n      div\n        /* \"#utility.yul\":12141:12155   */\n      swap1\n      pop\n        /* \"#utility.yul\":11976:12161   */\n      swap3\n      swap2\n      pop\n      pop\n      jump\t// out\n        /* \"#utility.yul\":12167:12337   */\n    tag_152:\n        /* \"#utility.yul\":12307:12329   */\n      0x496e73756666696369656e742062616c616e6365000000000000000000000000\n        /* \"#utility.yul\":12303:12304   */\n      0x00\n        /* \"#utility.yul\":12295:12301   */\n      dup3\n        /* \"#utility.yul\":12291:12305   */\n      add\n        /* \"#utility.yul\":12284:12330   */\n      mstore\n        /* \"#utility.yul\":12167:12337   */\n      pop\n      jump\t// out\n        /* \"#utility.yul\":12343:12709   */\n    tag_153:\n        /* \"#utility.yul\":12485:12488   */\n      0x00\n        /* \"#utility.yul\":12506:12573   */\n      tag_291\n        /* \"#utility.yul\":12570:12572   */\n      0x14\n        /* \"#utility.yul\":12565:12568   */\n      dup4\n        /* \"#utility.yul\":12506:12573   */\n      tag_133\n      jump\t// in\n    tag_291:\n        /* \"#utility.yul\":12499:12573   */\n      swap2\n      pop\n        /* \"#utility.yul\":12582:12675   */\n      tag_292\n        /* \"#utility.yul\":12671:12674   */\n      dup3\n        /* \"#utility.yul\":12582:12675   */\n      tag_152\n      jump\t// in\n    tag_292:\n        /* \"#utility.yul\":12700:12702   */\n      0x20\n        /* \"#utility.yul\":12695:12698   */\n      dup3\n        /* \"#utility.yul\":12691:12703   */\n      add\n        /* \"#utility.yul\":12684:12703   */\n      swap1\n      pop\n        /* \"#utility.yul\":12343:12709   */\n      swap2\n      swap1\n      pop\n      jump\t// out\n        /* \"#utility.yul\":12715:13134   */\n    tag_81:\n        /* \"#utility.yul\":12881:12885   */\n      0x00\n        /* \"#utility.yul\":12919:12921   */\n      0x20\n        /* \"#utility.yul\":12908:12917   */\n      dup3\n        /* \"#utility.yul\":12904:12922   */\n      add\n        /* \"#utility.yul\":12896:12922   */\n      swap1\n      pop\n        /* \"#utility.yul\":12968:12977   */\n      dup2\n        /* \"#utility.yul\":12962:12966   */\n      dup2\n        /* \"#utility.yul\":12958:12978   */\n      sub\n        /* \"#utility.yul\":12954:12955   */\n      0x00\n        /* \"#utility.yul\":12943:12952   */\n      dup4\n        /* \"#utility.yul\":12939:12956   */\n      add\n        /* \"#utility.yul\":12932:12979   */\n      mstore\n        /* \"#utility.yul\":12996:13127   */\n      tag_294\n        /* \"#utility.yul\":13122:13126   */\n      dup2\n        /* \"#utility.yul\":12996:13127   */\n      tag_153\n      jump\t// in\n    tag_294:\n        /* \"#utility.yul\":12988:13127   */\n      swap1\n      pop\n        /* \"#utility.yul\":12715:13134   */\n      swap2\n      swap1\n      pop\n      jump\t// out\n        /* \"#utility.yul\":13140:13331   */\n    tag_84:\n        /* \"#utility.yul\":13180:13183   */\n      0x00\n        /* \"#utility.yul\":13199:13219   */\n      tag_296\n        /* \"#utility.yul\":13217:13218   */\n      dup3\n        /* \"#utility.yul\":13199:13219   */\n      tag_120\n      jump\t// in\n    tag_296:\n        /* \"#utility.yul\":13194:13219   */\n      swap2\n      pop\n        /* \"#utility.yul\":13233:13253   */\n      tag_297\n        /* \"#utility.yul\":13251:13252   */\n      dup4\n        /* \"#utility.yul\":13233:13253   */\n      tag_120\n      jump\t// in\n    tag_297:\n        /* \"#utility.yul\":13228:13253   */\n      swap3\n      pop\n        /* \"#utility.yul\":13276:13277   */\n      dup3\n        /* \"#utility.yul\":13273:13274   */\n      dup3\n        /* \"#utility.yul\":13269:13278   */\n      add\n        /* \"#utility.yul\":13262:13278   */\n      swap1\n      pop\n        /* \"#utility.yul\":13297:13300   */\n      dup1\n        /* \"#utility.yul\":13294:13295   */\n      dup3\n        /* \"#utility.yul\":13291:13301   */\n      gt\n        /* \"#utility.yul\":13288:13324   */\n      iszero\n      tag_298\n      jumpi\n        /* \"#utility.yul\":13304:13322   */\n      tag_299\n      tag_143\n      jump\t// in\n    tag_299:\n        /* \"#utility.yul\":13288:13324   */\n    tag_298:\n        /* \"#utility.yul\":13140:13331   */\n      swap3\n      swap2\n      pop\n      pop\n      jump\t// out\n        /* \"#utility.yul\":13337:13517   */\n    tag_154:\n        /* \"#utility.yul\":13385:13462   */\n      0x4e487b7100000000000000000000000000000000000000000000000000000000\n        /* \"#utility.yul\":13382:13383   */\n      0x00\n        /* \"#utility.yul\":13375:13463   */\n      mstore\n        /* \"#utility.yul\":13482:13486   */\n      0x41\n        /* \"#utility.yul\":13479:13480   */\n      0x04\n        /* \"#utility.yul\":13472:13487   */\n      mstore\n        /* \"#utility.yul\":13506:13510   */\n      0x24\n        /* \"#utility.yul\":13503:13504   */\n      0x00\n        /* \"#utility.yul\":13496:13511   */\n      revert\n        /* \"#utility.yul\":13523:13703   */\n    tag_155:\n        /* \"#utility.yul\":13571:13648   */\n      0x4e487b7100000000000000000000000000000000000000000000000000000000\n        /* \"#utility.yul\":13568:13569   */\n      0x00\n        /* \"#utility.yul\":13561:13649   */\n      mstore\n        /* \"#utility.yul\":13668:13672   */\n      0x22\n        /* \"#utility.yul\":13665:13666   */\n      0x04\n        /* \"#utility.yul\":13658:13673   */\n      mstore\n        /* \"#utility.yul\":13692:13696   */\n      0x24\n        /* \"#utility.yul\":13689:13690   */\n      0x00\n        /* \"#utility.yul\":13682:13697   */\n      revert\n        /* \"#utility.yul\":13709:14029   */\n    tag_102:\n        /* \"#utility.yul\":13753:13759   */\n      0x00\n        /* \"#utility.yul\":13790:13791   */\n      0x02\n        /* \"#utility.yul\":13784:13788   */\n      dup3\n        /* \"#utility.yul\":13780:13792   */\n      div\n        /* \"#utility.yul\":13770:13792   */\n      swap1\n      pop\n        /* \"#utility.yul\":13837:13838   */\n      0x01\n        /* \"#utility.yul\":13831:13835   */\n      dup3\n        /* \"#utility.yul\":13827:13839   */\n      and\n        /* \"#utility.yul\":13858:13876   */\n      dup1\n        /* \"#utility.yul\":13848:13929   */\n      tag_303\n      jumpi\n        /* \"#utility.yul\":13914:13918   */\n      0x7f\n        /* \"#utility.yul\":13906:13912   */\n      dup3\n        /* \"#utility.yul\":13902:13919   */\n      and\n        /* \"#utility.yul\":13892:13919   */\n      swap2\n      pop\n        /* \"#utility.yul\":13848:13929   */\n    tag_303:\n        /* \"#utility.yul\":13976:13978   */\n      0x20\n        /* \"#utility.yul\":13968:13974   */\n      dup3\n        /* \"#utility.yul\":13965:13979   */\n      lt\n        /* \"#utility.yul\":13945:13963   */\n      dup2\n        /* \"#utility.yul\":13942:13980   */\n      sub\n        /* \"#utility.yul\":13939:14023   */\n      tag_304\n      jumpi\n        /* \"#utility.yul\":13995:14013   */\n      tag_305\n      tag_155\n      jump\t// in\n    tag_305:\n        /* \"#utility.yul\":13939:14023   */\n    tag_304:\n        /* \"#utility.yul\":13760:14029   */\n      pop\n        /* \"#utility.yul\":13709:14029   */\n      swap2\n      swap1\n      pop\n      jump\t// out\n        /* \"#utility.yul\":14035:14176   */\n    tag_156:\n        /* \"#utility.yul\":14084:14088   */\n      0x00\n        /* \"#utility.yul\":14107:14110   */\n      dup2\n        /* \"#utility.yul\":14099:14110   */\n      swap1\n      pop\n        /* \"#utility.yul\":14130:14133   */\n      dup2\n        /* \"#utility.yul\":14127:14128   */\n      0x00\n        /* \"#utility.yul\":14120:14134   */\n      mstore\n        /* \"#utility.yul\":14164:14168   */\n      0x20\n        /* \"#utility.yul\":14161:14162   */\n      0x00\n        /* \"#utility.yul\":14151:14169   */\n      keccak256\n        /* \"#utility.yul\":14143:14169   */\n      swap1\n      pop\n        /* \"#utility.yul\":14035:14176   */\n      swap2\n      swap1\n      pop\n      jump\t// out\n        /* \"#utility.yul\":14182:14275   */\n    tag_157:\n        /* \"#utility.yul\":14219:14225   */\n      0x00\n        /* \"#utility.yul\":14266:14268   */\n      0x20\n        /* \"#utility.yul\":14261:14263   */\n      0x1f\n        /* \"#utility.yul\":14254:14259   */\n      dup4\n        /* \"#utility.yul\":14250:14264   */\n      add\n        /* \"#utility.yul\":14246:14269   */\n      div\n        /* \"#utility.yul\":14236:14269   */\n      swap1\n      pop\n        /* \"#utility.yul\":14182:14275   */\n      swap2\n      swap1\n      pop\n      jump\t// out\n        /* \"#utility.yul\":14281:14388   */\n    tag_158:\n        /* \"#utility.yul\":14325:14333   */\n      0x00\n        /* \"#utility.yul\":14375:14380   */\n      dup3\n        /* \"#utility.yul\":14369:14373   */\n      dup3\n        /* \"#utility.yul\":14365:14381   */\n      shl\n        /* \"#utility.yul\":14344:14381   */\n      swap1\n      pop\n        /* \"#utility.yul\":14281:14388   */\n      swap3\n      swap2\n      pop\n      pop\n      jump\t// out\n        /* \"#utility.yul\":14394:14787   */\n    tag_159:\n        /* \"#utility.yul\":14463:14469   */\n      0x00\n        /* \"#utility.yul\":14513:14514   */\n      0x08\n        /* \"#utility.yul\":14501:14511   */\n      dup4\n        /* \"#utility.yul\":14497:14515   */\n      mul\n        /* \"#utility.yul\":14536:14633   */\n      tag_310\n        /* \"#utility.yul\":14566:14632   */\n      0xffffffffffffffffffffffffffffffffffffffffffffffffffffffffffffffff\n        /* \"#utility.yul\":14555:14564   */\n      dup3\n        /* \"#utility.yul\":14536:14633   */\n      tag_158\n      jump\t// in\n    tag_310:\n        /* \"#utility.yul\":14654:14693   */\n      tag_311\n        /* \"#utility.yul\":14684:14692   */\n      dup7\n        /* \"#utility.yul\":14673:14682   */\n      dup4\n        /* \"#utility.yul\":14654:14693   */\n      tag_158\n      jump\t// in\n    tag_311:\n        /* \"#utility.yul\":14642:14693   */\n      swap6\n      pop\n        /* \"#utility.yul\":14726:14730   */\n      dup1\n        /* \"#utility.yul\":14722:14731   */\n      not\n        /* \"#utility.yul\":14715:14720   */\n      dup5\n        /* \"#utility.yul\":14711:14732   */\n      and\n        /* \"#utility.yul\":14702:14732   */\n      swap4\n      pop\n        /* \"#utility.yul\":14775:14779   */\n      dup1\n        /* \"#utility.yul\":14765:14773   */\n      dup7\n        /* \"#utility.yul\":14761:14780   */\n      and\n        /* \"#utility.yul\":14754:14759   */\n      dup5\n        /* \"#utility.yul\":14751:14781   */\n      or\n        /* \"#utility.yul\":14741:14781   */\n      swap3\n      pop\n        /* \"#utility.yul\":14470:14787   */\n      pop\n      pop\n        /* \"#utility.yul\":14394:14787   */\n      swap4\n      swap3\n      pop\n      pop\n      pop\n      jump\t// out\n        /* \"#utility.yul\":14793:14853   */\n    tag_160:\n        /* \"#utility.yul\":14821:14824   */\n      0x00\n        /* \"#utility.yul\":14842:14847   */\n      dup2\n        /* \"#utility.yul\":14835:14847   */\n      swap1\n      pop\n        /* \"#utility.yul\":14793:14853   */\n      swap2\n      swap1\n      pop\n      jump\t// out\n        /* \"#utility.yul\":14859:15001   */\n    tag_161:\n        /* \"#utility.yul\":14909:14918   */\n      0x00\n        /* \"#utility.yul\":14942:14995   */\n      tag_314\n        /* \"#utility.yul\":14960:14994   */\n      tag_315\n        /* \"#utility.yul\":14969:14993   */\n      tag_316\n        /* \"#utility.yul\":14987:14992   */\n      dup5\n        /* \"#utility.yul\":14969:14993   */\n      tag_120\n      jump\t// in\n    tag_316:\n        /* \"#utility.yul\":14960:14994   */\n      tag_160\n      jump\t// in\n    tag_315:\n        /* \"#utility.yul\":14942:14995   */\n      tag_120\n      jump\t// in\n    tag_314:\n        /* \"#utility.yul\":14929:14995   */\n      swap1\n      pop\n        /* \"#utility.yul\":14859:15001   */\n      swap2\n      swap1\n      pop\n      jump\t// out\n        /* \"#utility.yul\":15007:15082   */\n    tag_162:\n        /* \"#utility.yul\":15050:15053   */\n      0x00\n        /* \"#utility.yul\":15071:15076   */\n      dup2\n        /* \"#utility.yul\":15064:15076   */\n      swap1\n      pop\n        /* \"#utility.yul\":15007:15082   */\n      swap2\n      swap1\n      pop\n      jump\t// out\n        /* \"#utility.yul\":15088:15357   */\n    tag_163:\n        /* \"#utility.yul\":15198:15237   */\n      tag_319\n        /* \"#utility.yul\":15229:15236   */\n      dup4\n        /* \"#utility.yul\":15198:15237   */\n      tag_161\n      jump\t// in\n    tag_319:\n        /* \"#utility.yul\":15259:15350   */\n      tag_320\n        /* \"#utility.yul\":15308:15349   */\n      tag_321\n        /* \"#utility.yul\":15332:15348   */\n      dup3\n        /* \"#utility.yul\":15308:15349   */\n      tag_162\n      jump\t// in\n    tag_321:\n        /* \"#utility.yul\":15300:15306   */\n      dup5\n        /* \"#utility.yul\":15293:15297   */\n      dup5\n        /* \"#utility.yul\":15287:15298   */\n      sload\n        /* \"#utility.yul\":15259:15350   */\n      tag_159\n      jump\t// in\n    tag_320:\n        /* \"#utility.yul\":15253:15257   */\n      dup3\n        /* \"#utility.yul\":15246:15351   */\n      sstore\n        /* \"#utility.yul\":15164:15357   */\n      pop\n        /* \"#utility.yul\":15088:15357   */\n      pop\n      pop\n      pop\n      jump\t// out\n        /* \"#utility.yul\":15363:15436   */\n    tag_164:\n        /* \"#utility.yul\":15408:15411   */\n      0x00\n        /* \"#utility.yul\":15363:15436   */\n      swap1\n      jump\t// out\n        /* \"#utility.yul\":15442:15631   */\n    tag_165:\n        /* \"#utility.yul\":15519:15551   */\n      tag_324\n      tag_164\n      jump\t// in\n    tag_324:\n        /* \"#utility.yul\":15560:15625   */\n      tag_325\n        /* \"#utility.yul\":15618:15624   */\n      dup2\n        /* \"#utility.yul\":15610:15616   */\n      dup5\n        /* \"#utility.yul\":15604:15608   */\n      dup5\n        /* \"#utility.yul\":15560:15625   */\n      tag_163\n      jump\t// in\n    tag_325:\n        /* \"#utility.yul\":15495:15631   */\n      pop\n        /* \"#utility.yul\":15442:15631   */\n      pop\n      pop\n      jump\t// out\n        /* \"#utility.yul\":15637:15823   */\n    tag_166:\n        /* \"#utility.yul\":15697:15817   */\n    tag_327:\n        /* \"#utility.yul\":15714:15717   */\n      dup2\n        /* \"#utility.yul\":15707:15712   */\n      dup2\n        /* \"#utility.yul\":15704:15718   */\n      lt\n        /* \"#utility.yul\":15697:15817   */\n      iszero\n      tag_329\n      jumpi\n        /* \"#utility.yul\":15768:15807   */\n      tag_330\n        /* \"#utility.yul\":15805:15806   */\n      0x00\n        /* \"#utility.yul\":15798:15803   */\n      dup3\n        /* \"#utility.yul\":15768:15807   */\n      tag_165\n      jump\t// in\n    tag_330:\n        /* \"#utility.yul\":15741:15742   */\n      0x01\n        /* \"#utility.yul\":15734:15739   */\n      dup2\n        /* \"#utility.yul\":15730:15743   */\n      add\n        /* \"#utility.yul\":15721:15743   */\n      swap1\n      pop\n        /* \"#utility.yul\":15697:15817   */\n      jump(tag_327)\n    tag_329:\n        /* \"#utility.yul\":15637:15823   */\n      pop\n      pop\n      jump\t// out\n        /* \"#utility.yul\":15829:16372   */\n    tag_167:\n        /* \"#utility.yul\":15930:15932   */\n      0x1f\n        /* \"#utility.yul\":15925:15928   */\n      dup3\n        /* \"#utility.yul\":15922:15933   */\n      gt\n        /* \"#utility.yul\":15919:16365   */\n      iszero\n      tag_332\n      jumpi\n        /* \"#utility.yul\":15964:16002   */\n      tag_333\n        /* \"#utility.yul\":15996:16001   */\n      dup2\n        /* \"#utility.yul\":15964:16002   */\n      tag_156\n      jump\t// in\n    tag_333:\n        /* \"#utility.yul\":16048:16077   */\n      tag_334\n        /* \"#utility.yul\":16066:16076   */\n      dup5\n        /* \"#utility.yul\":16048:16077   */\n      tag_157\n      jump\t// in\n    tag_334:\n        /* \"#utility.yul\":16038:16046   */\n      dup2\n        /* \"#utility.yul\":16034:16078   */\n      add\n        /* \"#utility.yul\":16231:16233   */\n      0x20\n        /* \"#utility.yul\":16219:16229   */\n      dup6\n        /* \"#utility.yul\":16216:16234   */\n      lt\n        /* \"#utility.yul\":16213:16262   */\n      iszero\n      tag_335\n      jumpi\n        /* \"#utility.yul\":16252:16260   */\n      dup2\n        /* \"#utility.yul\":16237:16260   */\n      swap1\n      pop\n        /* \"#utility.yul\":16213:16262   */\n    tag_335:\n        /* \"#utility.yul\":16275:16355   */\n      tag_336\n        /* \"#utility.yul\":16331:16353   */\n      tag_337\n        /* \"#utility.yul\":16349:16352   */\n      dup6\n        /* \"#utility.yul\":16331:16353   */\n      tag_157\n      jump\t// in\n    tag_337:\n        /* \"#utility.yul\":16321:16329   */\n      dup4\n        /* \"#utility.yul\":16317:16354   */\n      add\n        /* \"#utility.yul\":16304:16315   */\n      dup3\n        /* \"#utility.yul\":16275:16355   */\n      tag_166\n      jump\t// in\n    tag_336:\n        /* \"#utility.yul\":15934:16365   */\n      pop\n      pop\n        /* \"#utility.yul\":15919:16365   */\n    tag_332:\n        /* \"#utility.yul\":15829:16372   */\n      pop\n      pop\n      pop\n      jump\t// out\n        /* \"#utility.yul\":16378:16495   */\n    tag_168:\n        /* \"#utility.yul\":16432:16440   */\n      0x00\n        /* \"#utility.yul\":16482:16487   */\n      dup3\n        /* \"#utility.yul\":16476:16480   */\n      dup3\n        /* \"#utility.yul\":16472:16488   */\n      shr\n        /* \"#utility.yul\":16451:16488   */\n      swap1\n      pop\n        /* \"#utility.yul\":16378:16495   */\n      swap3\n      swap2\n      pop\n      pop\n      jump\t// out\n        /* \"#utility.yul\":16501:16670   */\n    tag_169:\n        /* \"#utility.yul\":16545:16551   */\n      0x00\n        /* \"#utility.yul\":16578:16629   */\n      tag_340\n        /* \"#utility.yul\":16626:16627   */\n      0x00\n        /* \"#utility.yul\":16622:16628   */\n      not\n        /* \"#utility.yul\":16614:16619   */\n      dup5\n        /* \"#utility.yul\":16611:16612   */\n      0x08\n        /* \"#utility.yul\":16607:16620   */\n      mul\n        /* \"#utility.yul\":16578:16629   */\n      tag_168\n      jump\t// in\n    tag_340:\n        /* \"#utility.yul\":16574:16630   */\n      not\n        /* \"#utility.yul\":16659:16663   */\n      dup1\n        /* \"#utility.yul\":16653:16657   */\n      dup4\n        /* \"#utility.yul\":16649:16664   */\n      and\n        /* \"#utility.yul\":16639:16664   */\n      swap2\n      pop\n        /* \"#utility.yul\":16552:16670   */\n      pop\n        /* \"#utility.yul\":16501:16670   */\n      swap3\n      swap2\n      pop\n      pop\n      jump\t// out\n        /* \"#utility.yul\":16675:16970   */\n    tag_170:\n        /* \"#utility.yul\":16751:16755   */\n      0x00\n        /* \"#utility.yul\":16897:16926   */\n      tag_342\n        /* \"#utility.yul\":16922:16925   */\n      dup4\n        /* \"#utility.yul\":16916:16920   */\n      dup4\n        /* \"#utility.yul\":16897:16926   */\n      tag_169\n      jump\t// in\n    tag_342:\n        /* \"#utility.yul\":16889:16926   */\n      swap2\n      pop\n        /* \"#utility.yul\":16959:16962   */\n      dup3\n        /* \"#utility.yul\":16956:16957   */\n      0x02\n        /* \"#utility.yul\":16952:16963   */\n      mul\n        /* \"#utility.yul\":16946:16950   */\n      dup3\n        /* \"#utility.yul\":16943:16964   */\n      or\n        /* \"#utility.yul\":16935:16964   */\n      swap1\n      pop\n        /* \"#utility.yul\":16675:16970   */\n      swap3\n      swap2\n      pop\n      pop\n      jump\t// out\n        /* \"#utility.yul\":16975:18370   */\n    tag_96:\n        /* \"#utility.yul\":17092:17129   */\n      tag_344\n        /* \"#utility.yul\":17125:17128   */\n      dup3\n        /* \"#utility.yul\":17092:17129   */\n      tag_132\n      jump\t// in\n    tag_344:\n        /* \"#utility.yul\":17194:17212   */\n      0xffffffffffffffff\n        /* \"#utility.yul\":17186:17192   */\n      dup2\n        /* \"#utility.yul\":17183:17213   */\n      gt\n        /* \"#utility.yul\":17180:17236   */\n      iszero\n      tag_345\n      jumpi\n        /* \"#utility.yul\":17216:17234   */\n      tag_346\n      tag_154\n      jump\t// in\n    tag_346:\n        /* \"#utility.yul\":17180:17236   */\n    tag_345:\n        /* \"#utility.yul\":17260:17298   */\n      tag_347\n        /* \"#utility.yul\":17292:17296   */\n      dup3\n        /* \"#utility.yul\":17286:17297   */\n      sload\n        /* \"#utility.yul\":17260:17298   */\n      tag_102\n      jump\t// in\n    tag_347:\n        /* \"#utility.yul\":17345:17412   */\n      tag_348\n        /* \"#utility.yul\":17405:17411   */\n      dup3\n        /* \"#utility.yul\":17397:17403   */\n      dup3\n        /* \"#utility.yul\":17391:17395   */\n      dup6\n        /* \"#utility.yul\":17345:17412   */\n      tag_167\n      jump\t// in\n    tag_348:\n        /* \"#utility.yul\":17439:17440   */\n      0x00\n        /* \"#utility.yul\":17463:17467   */\n      0x20\n        /* \"#utility.yul\":17450:17467   */\n      swap1\n      pop\n        /* \"#utility.yul\":17495:17497   */\n      0x1f\n        /* \"#utility.yul\":17487:17493   */\n      dup4\n        /* \"#utility.yul\":17484:17498   */\n      gt\n        /* \"#utility.yul\":17512:17513   */\n      0x01\n        /* \"#utility.yul\":17507:18125   */\n      dup2\n      eq\n      tag_350\n      jumpi\n        /* \"#utility.yul\":18169:18170   */\n      0x00\n        /* \"#utility.yul\":18186:18192   */\n      dup5\n        /* \"#utility.yul\":18183:18260   */\n      iszero\n      tag_351\n      jumpi\n        /* \"#utility.yul\":18235:18244   */\n      dup3\n        /* \"#utility.yul\":18230:18233   */\n      dup8\n        /* \"#utility.yul\":18226:18245   */\n      add\n        /* \"#utility.yul\":18220:18246   */\n      mload\n        /* \"#utility.yul\":18211:18246   */\n      swap1\n      pop\n        /* \"#utility.yul\":18183:18260   */\n    tag_351:\n        /* \"#utility.yul\":18286:18353   */\n      tag_352\n        /* \"#utility.yul\":18346:18352   */\n      dup6\n        /* \"#utility.yul\":18339:18344   */\n      dup3\n        /* \"#utility.yul\":18286:18353   */\n      tag_170\n      jump\t// in\n    tag_352:\n        /* \"#utility.yul\":18280:18284   */\n      dup7\n        /* \"#utility.yul\":18273:18354   */\n      sstore\n        /* \"#utility.yul\":18142:18364   */\n      pop\n        /* \"#utility.yul\":17477:18364   */\n      jump(tag_349)\n        /* \"#utility.yul\":17507:18125   */\n    tag_350:\n        /* \"#utility.yul\":17559:17563   */\n      0x1f\n        /* \"#utility.yul\":17555:17564   */\n      not\n        /* \"#utility.yul\":17547:17553   */\n      dup5\n        /* \"#utility.yul\":17543:17565   */\n      and\n        /* \"#utility.yul\":17593:17630   */\n      tag_353\n        /* \"#utility.yul\":17625:17629   */\n      dup7\n        /* \"#utility.yul\":17593:17630   */\n      tag_156\n      jump\t// in\n    tag_353:\n        /* \"#utility.yul\":17652:17653   */\n      0x00\n        /* \"#utility.yul\":17666:17874   */\n    tag_354:\n        /* \"#utility.yul\":17680:17687   */\n      dup3\n        /* \"#utility.yul\":17677:17678   */\n      dup2\n        /* \"#utility.yul\":17674:17688   */\n      lt\n        /* \"#utility.yul\":17666:17874   */\n      iszero\n      tag_356\n      jumpi\n        /* \"#utility.yul\":17759:17768   */\n      dup5\n        /* \"#utility.yul\":17754:17757   */\n      dup10\n        /* \"#utility.yul\":17750:17769   */\n      add\n        /* \"#utility.yul\":17744:17770   */\n      mload\n        /* \"#utility.yul\":17736:17742   */\n      dup3\n        /* \"#utility.yul\":17729:17771   */\n      sstore\n        /* \"#utility.yul\":17810:17811   */\n      0x01\n        /* \"#utility.yul\":17802:17808   */\n      dup3\n        /* \"#utility.yul\":17798:17812   */\n      add\n        /* \"#utility.yul\":17788:17812   */\n      swap2\n      pop\n        /* \"#utility.yul\":17857:17859   */\n      0x20\n        /* \"#utility.yul\":17846:17855   */\n      dup6\n        /* \"#utility.yul\":17842:17860   */\n      add\n        /* \"#utility.yul\":17829:17860   */\n      swap5\n      pop\n        /* \"#utility.yul\":17703:17707   */\n      0x20\n        /* \"#utility.yul\":17700:17701   */\n      dup2\n        /* \"#utility.yul\":17696:17708   */\n      add\n        /* \"#utility.yul\":17691:17708   */\n      swap1\n      pop\n        /* \"#utility.yul\":17666:17874   */\n      jump(tag_354)\n    tag_356:\n        /* \"#utility.yul\":17902:17908   */\n      dup7\n        /* \"#utility.yul\":17893:17900   */\n      dup4\n        /* \"#utility.yul\":17890:17909   */\n      lt\n        /* \"#utility.yul\":17887:18066   */\n      iszero\n      tag_357\n      jumpi\n        /* \"#utility.yul\":17960:17969   */\n      dup5\n        /* \"#utility.yul\":17955:17958   */\n      dup10\n        /* \"#utility.yul\":17951:17970   */\n      add\n        /* \"#utility.yul\":17945:17971   */\n      mload\n        /* \"#utility.yul\":18003:18051   */\n      tag_358\n        /* \"#utility.yul\":18045:18049   */\n      0x1f\n        /* \"#utility.yul\":18037:18043   */\n      dup10\n        /* \"#utility.yul\":18033:18050   */\n      and\n        /* \"#utility.yul\":18022:18031   */\n      dup3\n        /* \"#utility.yul\":18003:18051   */\n      tag_169\n      jump\t// in\n    tag_358:\n        /* \"#utility.yul\":17995:18001   */\n      dup4\n        /* \"#utility.yul\":17988:18052   */\n      sstore\n        /* \"#utility.yul\":17910:18066   */\n      pop\n        /* \"#utility.yul\":17887:18066   */\n    tag_357:\n        /* \"#utility.yul\":18112:18113   */\n      0x01\n        /* \"#utility.yul\":18108:18109   */\n      0x02\n        /* \"#utility.yul\":18100:18106   */\n      dup9\n        /* \"#utility.yul\":18096:18110   */\n      mul\n        /* \"#utility.yul\":18092:18114   */\n      add\n        /* \"#utility.yul\":18086:18090   */\n      dup9\n        /* \"#utility.yul\":18079:18115   */\n      sstore\n        /* \"#utility.yul\":17514:18125   */\n      pop\n      pop\n      pop\n        /* \"#utility.yul\":17477:18364   */\n    tag_349:\n      pop\n        /* \"#utility.yul\":17067:18370   */\n      pop\n      pop\n      pop\n        /* \"#utility.yul\":16975:18370   */\n      pop\n      pop\n      jump\t// out\n        /* \"#utility.yul\":18376:18524   */\n    tag_171:\n        /* \"#utility.yul\":18478:18489   */\n      0x00\n        /* \"#utility.yul\":18515:18518   */\n      dup2\n        /* \"#utility.yul\":18500:18518   */\n      swap1\n      pop\n        /* \"#utility.yul\":18376:18524   */\n      swap3\n      swap2\n      pop\n      pop\n      jump\t// out\n        /* \"#utility.yul\":18530:18678   */\n    tag_172:\n        /* \"#utility.yul\":18628:18634   */\n      dup3\n        /* \"#utility.yul\":18623:18626   */\n      dup2\n        /* \"#utility.yul\":18618:18621   */\n      dup4\n        /* \"#utility.yul\":18605:18635   */\n      calldatacopy\n        /* \"#utility.yul\":18669:18670   */\n      0x00\n        /* \"#utility.yul\":18660:18666   */\n      dup4\n        /* \"#utility.yul\":18655:18658   */\n      dup4\n        /* \"#utility.yul\":18651:18667   */\n      add\n        /* \"#utility.yul\":18644:18671   */\n      mstore\n        /* \"#utility.yul\":18530:18678   */\n      pop\n      pop\n      pop\n      jump\t// out\n        /* \"#utility.yul\":18708:19038   */\n    tag_173:\n        /* \"#utility.yul\":18824:18827   */\n      0x00\n        /* \"#utility.yul\":18845:18934   */\n      tag_362\n        /* \"#utility.yul\":18927:18933   */\n      dup4\n        /* \"#utility.yul\":18922:18925   */\n      dup6\n        /* \"#utility.yul\":18845:18934   */\n      tag_171\n      jump\t// in\n    tag_362:\n        /* \"#utility.yul\":18838:18934   */\n      swap4\n      pop\n        /* \"#utility.yul\":18944:19000   */\n      tag_363\n        /* \"#utility.yul\":18993:18999   */\n      dup4\n        /* \"#utility.yul\":18988:18991   */\n      dup6\n        /* \"#utility.yul\":18981:18986   */\n      dup5\n        /* \"#utility.yul\":18944:19000   */\n      tag_172\n      jump\t// in\n    tag_363:\n        /* \"#utility.yul\":19025:19031   */\n      dup3\n        /* \"#utility.yul\":19020:19023   */\n      dup5\n        /* \"#utility.yul\":19016:19032   */\n      add\n        /* \"#utility.yul\":19009:19032   */\n      swap1\n      pop\n        /* \"#utility.yul\":18708:19038   */\n      swap4\n      swap3\n      pop\n      pop\n      pop\n      jump\t// out\n        /* \"#utility.yul\":19044:19339   */\n    tag_99:\n        /* \"#utility.yul\":19186:19189   */\n      0x00\n        /* \"#utility.yul\":19208:19313   */\n      tag_365\n        /* \"#utility.yul\":19309:19312   */\n      dup3\n        /* \"#utility.yul\":19300:19306   */\n      dup5\n        /* \"#utility.yul\":19292:19298   */\n      dup7\n        /* \"#utility.yul\":19208:19313   */\n      tag_173\n      jump\t// in\n    tag_365:\n        /* \"#utility.yul\":19201:19313   */\n      swap2\n      pop\n        /* \"#utility.yul\":19330:19333   */\n      dup2\n        /* \"#utility.yul\":19323:19333   */\n      swap1\n      pop\n        /* \"#utility.yul\":19044:19339   */\n      swap4\n      swap3\n      pop\n      pop\n      pop\n      jump\t// out\n\n    auxdata: 0xa2646970667358221220e23f4569ee52c73ec99d36aedc80a291648dd130a7d7e65c80f350e81acb943e64736f6c634300081a0033\n}\n",
				"bytecode": {
					"linkReferences": {},
					"object": "6080604052348015600e575f80fd5b506040516116db3803806116db8339818101604052810190602e919060ab565b3360015f6101000a81548173ffffffffffffffffffffffffffffffffffffffff021916908373ffffffffffffffffffffffffffffffffffffffff160217905550805f819055505060d1565b5f80fd5b5f819050919050565b608d81607d565b81146096575f80fd5b50565b5f8151905060a5816086565b92915050565b5f6020828403121560bd5760bc6079565b5b5f60c8848285016099565b91505092915050565b6115fd806100de5f395ff3fe608060405260043610610073575f3560e01c8063313dab201161004d578063313dab20146100f85780633ffbd47f14610122578063a87430ba1461014a578063b6b55f25146101895761007a565b806311f1fc991461007e57806312065fe0146100a65780632e1a7d4d146100d05761007a565b3661007a57005b5f80fd5b348015610089575f80fd5b506100a4600480360381019061009f9190610c25565b6101a5565b005b3480156100b1575f80fd5b506100ba6103c5565b6040516100c79190610c5f565b60405180910390f35b3480156100db575f80fd5b506100f660048036038101906100f19190610c25565b610498565b005b348015610103575f80fd5b5061010c610734565b6040516101199190610c5f565b60405180910390f35b34801561012d575f80fd5b5061014860048036038101906101439190610cd9565b61073a565b005b348015610155575f80fd5b50610170600480360381019061016b9190610db1565b61097d565b6040516101809493929190610e66565b60405180910390f35b6101a3600480360381019061019e9190610c25565b610ac1565b005b808060025410156101eb576040517f08c379a00000000000000000000000000000000000000000000000000000000081526004016101e290610f01565b60405180910390fd5b3373ffffffffffffffffffffffffffffffffffffffff1660015f9054906101000a900473ffffffffffffffffffffffffffffffffffffffff1673ffffffffffffffffffffffffffffffffffffffff161461027a576040517f08c379a000000000000000000000000000000000000000000000000000000000815260040161027190610f8f565b60405180910390fd5b8160025f82825461028b9190610fda565b925050819055505f60015f9054906101000a900473ffffffffffffffffffffffffffffffffffffffff1673ffffffffffffffffffffffffffffffffffffffff16836040516102d89061103a565b5f6040518083038185875af1925050503d805f8114610312576040519150601f19603f3d011682016040523d82523d5f602084013e610317565b606091505b505090508061035b576040517f08c379a000000000000000000000000000000000000000000000000000000000815260040161035290611098565b60405180910390fd5b8260015f9054906101000a900473ffffffffffffffffffffffffffffffffffffffff1673ffffffffffffffffffffffffffffffffffffffff167f233c84dc0c19fbf51f9fa92214ffd8a59f512e0098bff5827455d02e401221c060405160405180910390a3505050565b5f60035f3373ffffffffffffffffffffffffffffffffffffffff1673ffffffffffffffffffffffffffffffffffffffff1681526020019081526020015f206003015f9054906101000a900460ff16610452576040517f08c379a000000000000000000000000000000000000000000000000000000000815260040161044990611126565b60405180910390fd5b60035f3373ffffffffffffffffffffffffffffffffffffffff1673ffffffffffffffffffffffffffffffffffffffff1681526020019081526020015f2060020154905090565b60035f3373ffffffffffffffffffffffffffffffffffffffff1673ffffffffffffffffffffffffffffffffffffffff1681526020019081526020015f206003015f9054906101000a900460ff16610524576040517f08c379a000000000000000000000000000000000000000000000000000000000815260040161051b90611126565b60405180910390fd5b5f6127105f54836105359190611144565b61053f91906111b2565b90505f818361054e9190610fda565b90508260035f3373ffffffffffffffffffffffffffffffffffffffff1673ffffffffffffffffffffffffffffffffffffffff1681526020019081526020015f206002015410156105d3576040517f08c379a00000000000000000000000000000000000000000000000000000000081526004016105ca9061122c565b60405180910390fd5b8260035f3373ffffffffffffffffffffffffffffffffffffffff1673ffffffffffffffffffffffffffffffffffffffff1681526020019081526020015f206002015f8282546106229190610fda565b925050819055508160025f82825461063a919061124a565b925050819055505f3373ffffffffffffffffffffffffffffffffffffffff16846040516106669061103a565b5f6040518083038185875af1925050503d805f81146106a0576040519150601f19603f3d011682016040523d82523d5f602084013e6106a5565b606091505b50509050806106e9576040517f08c379a00000000000000000000000000000000000000000000000000000000081526004016106e090611098565b60405180910390fd5b82823373ffffffffffffffffffffffffffffffffffffffff167fdf273cb619d95419a9cd0ec88123a0538c85064229baa6363788f743fff90deb60405160405180910390a450505050565b60025481565b60035f3373ffffffffffffffffffffffffffffffffffffffff1673ffffffffffffffffffffffffffffffffffffffff1681526020019081526020015f206003015f9054906101000a900460ff16156107c7576040517f08c379a00000000000000000000000000000000000000000000000000000000081526004016107be90611126565b60405180910390fd5b604051806080016040528085858080601f0160208091040260200160405190810160405280939291908181526020018383808284375f81840152601f19601f82011690508083019250505050505050815260200183838080601f0160208091040260200160405190810160405280939291908181526020018383808284375f81840152601f19601f8201169050808301925050505050505081526020015f81526020016001151581525060035f3373ffffffffffffffffffffffffffffffffffffffff1673ffffffffffffffffffffffffffffffffffffffff1681526020019081526020015f205f820151815f0190816108c191906114a4565b5060208201518160010190816108d791906114a4565b50604082015181600201556060820151816003015f6101000a81548160ff02191690831515021790555090505081816040516109149291906115af565b6040518091039020848460405161092c9291906115af565b60405180910390203373ffffffffffffffffffffffffffffffffffffffff167f92822564bab8864c3a47b34e8d23fbce5c46234eb5da261f94087b995ac0f33b60405160405180910390a450505050565b6003602052805f5260405f205f91509050805f01805461099c906112d7565b80601f01602080910402602001604051908101604052809291908181526020018280546109c8906112d7565b8015610a135780601f106109ea57610100808354040283529160200191610a13565b820191905f5260205f20905b8154815290600101906020018083116109f657829003601f168201915b505050505090806001018054610a28906112d7565b80601f0160208091040260200160405190810160405280929190818152602001828054610a54906112d7565b8015610a9f5780601f10610a7657610100808354040283529160200191610a9f565b820191905f5260205f20905b815481529060010190602001808311610a8257829003601f168201915b505050505090806002015490806003015f9054906101000a900460ff16905084565b60035f3373ffffffffffffffffffffffffffffffffffffffff1673ffffffffffffffffffffffffffffffffffffffff1681526020019081526020015f206003015f9054906101000a900460ff16610b4d576040517f08c379a0000000000000000000000000000000000000000000000000000000008152600401610b4490611126565b60405180910390fd5b8060035f3373ffffffffffffffffffffffffffffffffffffffff1673ffffffffffffffffffffffffffffffffffffffff1681526020019081526020015f206002015f828254610b9c919061124a565b92505081905550803373ffffffffffffffffffffffffffffffffffffffff167fe1fffcc4923d04b559f4d29a8bfc6cda04eb5b0d3c460751c2402c5c5cc9109c60405160405180910390a350565b5f80fd5b5f80fd5b5f819050919050565b610c0481610bf2565b8114610c0e575f80fd5b50565b5f81359050610c1f81610bfb565b92915050565b5f60208284031215610c3a57610c39610bea565b5b5f610c4784828501610c11565b91505092915050565b610c5981610bf2565b82525050565b5f602082019050610c725f830184610c50565b92915050565b5f80fd5b5f80fd5b5f80fd5b5f8083601f840112610c9957610c98610c78565b5b8235905067ffffffffffffffff811115610cb657610cb5610c7c565b5b602083019150836001820283011115610cd257610cd1610c80565b5b9250929050565b5f805f8060408587031215610cf157610cf0610bea565b5b5f85013567ffffffffffffffff811115610d0e57610d0d610bee565b5b610d1a87828801610c84565b9450945050602085013567ffffffffffffffff811115610d3d57610d3c610bee565b5b610d4987828801610c84565b925092505092959194509250565b5f73ffffffffffffffffffffffffffffffffffffffff82169050919050565b5f610d8082610d57565b9050919050565b610d9081610d76565b8114610d9a575f80fd5b50565b5f81359050610dab81610d87565b92915050565b5f60208284031215610dc657610dc5610bea565b5b5f610dd384828501610d9d565b91505092915050565b5f81519050919050565b5f82825260208201905092915050565b8281835e5f83830152505050565b5f601f19601f8301169050919050565b5f610e1e82610ddc565b610e288185610de6565b9350610e38818560208601610df6565b610e4181610e04565b840191505092915050565b5f8115159050919050565b610e6081610e4c565b82525050565b5f6080820190508181035f830152610e7e8187610e14565b90508181036020830152610e928186610e14565b9050610ea16040830185610c50565b610eae6060830184610e57565b95945050505050565b7f496e73756666696369656e742074726561737572792062616c616e63650000005f82015250565b5f610eeb601d83610de6565b9150610ef682610eb7565b602082019050919050565b5f6020820190508181035f830152610f1881610edf565b9050919050565b7f4f6e6c7920746865206f776e65722063616e206d6f646966792074686520636f5f8201527f6e74726163740000000000000000000000000000000000000000000000000000602082015250565b5f610f79602683610de6565b9150610f8482610f1f565b604082019050919050565b5f6020820190508181035f830152610fa681610f6d565b9050919050565b7f4e487b71000000000000000000000000000000000000000000000000000000005f52601160045260245ffd5b5f610fe482610bf2565b9150610fef83610bf2565b925082820390508181111561100757611006610fad565b5b92915050565b5f81905092915050565b50565b5f6110255f8361100d565b915061103082611017565b5f82019050919050565b5f6110448261101a565b9150819050919050565b7f4661696c656420746f2073656e642045746865720000000000000000000000005f82015250565b5f611082601483610de6565b915061108d8261104e565b602082019050919050565b5f6020820190508181035f8301526110af81611076565b9050919050565b7f4f6e6c792074686520726567697374657265642075736572732063616e20696e5f8201527f74657261637420776974682074686520636f6e74726163740000000000000000602082015250565b5f611110603883610de6565b915061111b826110b6565b604082019050919050565b5f6020820190508181035f83015261113d81611104565b9050919050565b5f61114e82610bf2565b915061115983610bf2565b925082820261116781610bf2565b9150828204841483151761117e5761117d610fad565b5b5092915050565b7f4e487b71000000000000000000000000000000000000000000000000000000005f52601260045260245ffd5b5f6111bc82610bf2565b91506111c783610bf2565b9250826111d7576111d6611185565b5b828204905092915050565b7f496e73756666696369656e742062616c616e63650000000000000000000000005f82015250565b5f611216601483610de6565b9150611221826111e2565b602082019050919050565b5f6020820190508181035f8301526112438161120a565b9050919050565b5f61125482610bf2565b915061125f83610bf2565b925082820190508082111561127757611276610fad565b5b92915050565b7f4e487b71000000000000000000000000000000000000000000000000000000005f52604160045260245ffd5b7f4e487b71000000000000000000000000000000000000000000000000000000005f52602260045260245ffd5b5f60028204905060018216806112ee57607f821691505b602082108103611301576113006112aa565b5b50919050565b5f819050815f5260205f209050919050565b5f6020601f8301049050919050565b5f82821b905092915050565b5f600883026113637fffffffffffffffffffffffffffffffffffffffffffffffffffffffffffffffff82611328565b61136d8683611328565b95508019841693508086168417925050509392505050565b5f819050919050565b5f6113a86113a361139e84610bf2565b611385565b610bf2565b9050919050565b5f819050919050565b6113c18361138e565b6113d56113cd826113af565b848454611334565b825550505050565b5f90565b6113e96113dd565b6113f48184846113b8565b505050565b5b818110156114175761140c5f826113e1565b6001810190506113fa565b5050565b601f82111561145c5761142d81611307565b61143684611319565b81016020851015611445578190505b61145961145185611319565b8301826113f9565b50505b505050565b5f82821c905092915050565b5f61147c5f1984600802611461565b1980831691505092915050565b5f611494838361146d565b9150826002028217905092915050565b6114ad82610ddc565b67ffffffffffffffff8111156114c6576114c561127d565b5b6114d082546112d7565b6114db82828561141b565b5f60209050601f83116001811461150c575f84156114fa578287015190505b6115048582611489565b86555061156b565b601f19841661151a86611307565b5f5b828110156115415784890151825560018201915060208501945060208101905061151c565b8683101561155e578489015161155a601f89168261146d565b8355505b6001600288020188555050505b505050505050565b5f81905092915050565b828183375f83830152505050565b5f6115968385611573565b93506115a383858461157d565b82840190509392505050565b5f6115bb82848661158b565b9150819050939250505056fea2646970667358221220e23f4569ee52c73ec99d36aedc80a291648dd130a7d7e65c80f350e81acb943e64736f6c634300081a0033",
					"opcodes": "PUSH1 0x80 PUSH1 0x40 MSTORE CALLVALUE DUP1 ISZERO PUSH1 0xE JUMPI PUSH0 DUP1 REVERT JUMPDEST POP PUSH1 0x40 MLOAD PUSH2 0x16DB CODESIZE SUB DUP1 PUSH2 0x16DB DUP4 CODECOPY DUP2 DUP2 ADD PUSH1 0x40 MSTORE DUP2 ADD SWAP1 PUSH1 0x2E SWAP2 SWAP1 PUSH1 0xAB JUMP JUMPDEST CALLER PUSH1 0x1 PUSH0 PUSH2 0x100 EXP DUP2 SLOAD DUP2 PUSH20 0xFFFFFFFFFFFFFFFFFFFFFFFFFFFFFFFFFFFFFFFF MUL NOT AND SWAP1 DUP4 PUSH20 0xFFFFFFFFFFFFFFFFFFFFFFFFFFFFFFFFFFFFFFFF AND MUL OR SWAP1 SSTORE POP DUP1 PUSH0 DUP2 SWAP1 SSTORE POP POP PUSH1 0xD1 JUMP JUMPDEST PUSH0 DUP1 REVERT JUMPDEST PUSH0 DUP2 SWAP1 POP SWAP2 SWAP1 POP JUMP JUMPDEST PUSH1 0x8D DUP2 PUSH1 0x7D JUMP JUMPDEST DUP2 EQ PUSH1 0x96 JUMPI PUSH0 DUP1 REVERT JUMPDEST POP JUMP JUMPDEST PUSH0 DUP2 MLOAD SWAP1 POP PUSH1 0xA5 DUP2 PUSH1 0x86 JUMP JUMPDEST SWAP3 SWAP2 POP POP JUMP JUMPDEST PUSH0 PUSH1 0x20 DUP3 DUP5 SUB SLT ISZERO PUSH1 0xBD JUMPI PUSH1 0xBC PUSH1 0x79 JUMP JUMPDEST JUMPDEST PUSH0 PUSH1 0xC8 DUP5 DUP3 DUP6 ADD PUSH1 0x99 JUMP JUMPDEST SWAP2 POP POP SWAP3 SWAP2 POP POP JUMP JUMPDEST PUSH2 0x15FD DUP1 PUSH2 0xDE PUSH0 CODECOPY PUSH0 RETURN INVALID PUSH1 0x80 PUSH1 0x40 MSTORE PUSH1 0x4 CALLDATASIZE LT PUSH2 0x73 JUMPI PUSH0 CALLDATALOAD PUSH1 0xE0 SHR DUP1 PUSH4 0x313DAB20 GT PUSH2 0x4D JUMPI DUP1 PUSH4 0x313DAB20 EQ PUSH2 0xF8 JUMPI DUP1 PUSH4 0x3FFBD47F EQ PUSH2 0x122 JUMPI DUP1 PUSH4 0xA87430BA EQ PUSH2 0x14A JUMPI DUP1 PUSH4 0xB6B55F25 EQ PUSH2 0x189 JUMPI PUSH2 0x7A JUMP JUMPDEST DUP1 PUSH4 0x11F1FC99 EQ PUSH2 0x7E JUMPI DUP1 PUSH4 0x12065FE0 EQ PUSH2 0xA6 JUMPI DUP1 PUSH4 0x2E1A7D4D EQ PUSH2 0xD0 JUMPI PUSH2 0x7A JUMP JUMPDEST CALLDATASIZE PUSH2 0x7A JUMPI STOP JUMPDEST PUSH0 DUP1 REVERT JUMPDEST CALLVALUE DUP1 ISZERO PUSH2 0x89 JUMPI PUSH0 DUP1 REVERT JUMPDEST POP PUSH2 0xA4 PUSH1 0x4 DUP1 CALLDATASIZE SUB DUP2 ADD SWAP1 PUSH2 0x9F SWAP2 SWAP1 PUSH2 0xC25 JUMP JUMPDEST PUSH2 0x1A5 JUMP JUMPDEST STOP JUMPDEST CALLVALUE DUP1 ISZERO PUSH2 0xB1 JUMPI PUSH0 DUP1 REVERT JUMPDEST POP PUSH2 0xBA PUSH2 0x3C5 JUMP JUMPDEST PUSH1 0x40 MLOAD PUSH2 0xC7 SWAP2 SWAP1 PUSH2 0xC5F JUMP JUMPDEST PUSH1 0x40 MLOAD DUP1 SWAP2 SUB SWAP1 RETURN JUMPDEST CALLVALUE DUP1 ISZERO PUSH2 0xDB JUMPI PUSH0 DUP1 REVERT JUMPDEST POP PUSH2 0xF6 PUSH1 0x4 DUP1 CALLDATASIZE SUB DUP2 ADD SWAP1 PUSH2 0xF1 SWAP2 SWAP1 PUSH2 0xC25 JUMP JUMPDEST PUSH2 0x498 JUMP JUMPDEST STOP JUMPDEST CALLVALUE DUP1 ISZERO PUSH2 0x103 JUMPI PUSH0 DUP1 REVERT JUMPDEST POP PUSH2 0x10C PUSH2 0x734 JUMP JUMPDEST PUSH1 0x40 MLOAD PUSH2 0x119 SWAP2 SWAP1 PUSH2 0xC5F JUMP JUMPDEST PUSH1 0x40 MLOAD DUP1 SWAP2 SUB SWAP1 RETURN JUMPDEST CALLVALUE DUP1 ISZERO PUSH2 0x12D JUMPI PUSH0 DUP1 REVERT JUMPDEST POP PUSH2 0x148 PUSH1 0x4 DUP1 CALLDATASIZE SUB DUP2 ADD SWAP1 PUSH2 0x143 SWAP2 SWAP1 PUSH2 0xCD9 JUMP JUMPDEST PUSH2 0x73A JUMP JUMPDEST STOP JUMPDEST CALLVALUE DUP1 ISZERO PUSH2 0x155 JUMPI PUSH0 DUP1 REVERT JUMPDEST POP PUSH2 0x170 PUSH1 0x4 DUP1 CALLDATASIZE SUB DUP2 ADD SWAP1 PUSH2 0x16B SWAP2 SWAP1 PUSH2 0xDB1 JUMP JUMPDEST PUSH2 0x97D JUMP JUMPDEST PUSH1 0x40 MLOAD PUSH2 0x180 SWAP5 SWAP4 SWAP3 SWAP2 SWAP1 PUSH2 0xE66 JUMP JUMPDEST PUSH1 0x40 MLOAD DUP1 SWAP2 SUB SWAP1 RETURN JUMPDEST PUSH2 0x1A3 PUSH1 0x4 DUP1 CALLDATASIZE SUB DUP2 ADD SWAP1 PUSH2 0x19E SWAP2 SWAP1 PUSH2 0xC25 JUMP JUMPDEST PUSH2 0xAC1 JUMP JUMPDEST STOP JUMPDEST DUP1 DUP1 PUSH1 0x2 SLOAD LT ISZERO PUSH2 0x1EB JUMPI PUSH1 0x40 MLOAD PUSH32 0x8C379A000000000000000000000000000000000000000000000000000000000 DUP2 MSTORE PUSH1 0x4 ADD PUSH2 0x1E2 SWAP1 PUSH2 0xF01 JUMP JUMPDEST PUSH1 0x40 MLOAD DUP1 SWAP2 SUB SWAP1 REVERT JUMPDEST CALLER PUSH20 0xFFFFFFFFFFFFFFFFFFFFFFFFFFFFFFFFFFFFFFFF AND PUSH1 0x1 PUSH0 SWAP1 SLOAD SWAP1 PUSH2 0x100 EXP SWAP1 DIV PUSH20 0xFFFFFFFFFFFFFFFFFFFFFFFFFFFFFFFFFFFFFFFF AND PUSH20 0xFFFFFFFFFFFFFFFFFFFFFFFFFFFFFFFFFFFFFFFF AND EQ PUSH2 0x27A JUMPI PUSH1 0x40 MLOAD PUSH32 0x8C379A000000000000000000000000000000000000000000000000000000000 DUP2 MSTORE PUSH1 0x4 ADD PUSH2 0x271 SWAP1 PUSH2 0xF8F JUMP JUMPDEST PUSH1 0x40 MLOAD DUP1 SWAP2 SUB SWAP1 REVERT JUMPDEST DUP2 PUSH1 0x2 PUSH0 DUP3 DUP3 SLOAD PUSH2 0x28B SWAP2 SWAP1 PUSH2 0xFDA JUMP JUMPDEST SWAP3 POP POP DUP2 SWAP1 SSTORE POP PUSH0 PUSH1 0x1 PUSH0 SWAP1 SLOAD SWAP1 PUSH2 0x100 EXP SWAP1 DIV PUSH20 0xFFFFFFFFFFFFFFFFFFFFFFFFFFFFFFFFFFFFFFFF AND PUSH20 0xFFFFFFFFFFFFFFFFFFFFFFFFFFFFFFFFFFFFFFFF AND DUP4 PUSH1 0x40 MLOAD PUSH2 0x2D8 SWAP1 PUSH2 0x103A JUMP JUMPDEST PUSH0 PUSH1 0x40 MLOAD DUP1 DUP4 SUB DUP2 DUP6 DUP8 GAS CALL SWAP3 POP POP POP RETURNDATASIZE DUP1 PUSH0 DUP2 EQ PUSH2 0x312 JUMPI PUSH1 0x40 MLOAD SWAP2 POP PUSH1 0x1F NOT PUSH1 0x3F RETURNDATASIZE ADD AND DUP3 ADD PUSH1 0x40 MSTORE RETURNDATASIZE DUP3 MSTORE RETURNDATASIZE PUSH0 PUSH1 0x20 DUP5 ADD RETURNDATACOPY PUSH2 0x317 JUMP JUMPDEST PUSH1 0x60 SWAP2 POP JUMPDEST POP POP SWAP1 POP DUP1 PUSH2 0x35B JUMPI PUSH1 0x40 MLOAD PUSH32 0x8C379A000000000000000000000000000000000000000000000000000000000 DUP2 MSTORE PUSH1 0x4 ADD PUSH2 0x352 SWAP1 PUSH2 0x1098 JUMP JUMPDEST PUSH1 0x40 MLOAD DUP1 SWAP2 SUB SWAP1 REVERT JUMPDEST DUP3 PUSH1 0x1 PUSH0 SWAP1 SLOAD SWAP1 PUSH2 0x100 EXP SWAP1 DIV PUSH20 0xFFFFFFFFFFFFFFFFFFFFFFFFFFFFFFFFFFFFFFFF AND PUSH20 0xFFFFFFFFFFFFFFFFFFFFFFFFFFFFFFFFFFFFFFFF AND PUSH32 0x233C84DC0C19FBF51F9FA92214FFD8A59F512E0098BFF5827455D02E401221C0 PUSH1 0x40 MLOAD PUSH1 0x40 MLOAD DUP1 SWAP2 SUB SWAP1 LOG3 POP POP POP JUMP JUMPDEST PUSH0 PUSH1 0x3 PUSH0 CALLER PUSH20 0xFFFFFFFFFFFFFFFFFFFFFFFFFFFFFFFFFFFFFFFF AND PUSH20 0xFFFFFFFFFFFFFFFFFFFFFFFFFFFFFFFFFFFFFFFF AND DUP2 MSTORE PUSH1 0x20 ADD SWAP1 DUP2 MSTORE PUSH1 0x20 ADD PUSH0 KECCAK256 PUSH1 0x3 ADD PUSH0 SWAP1 SLOAD SWAP1 PUSH2 0x100 EXP SWAP1 DIV PUSH1 0xFF AND PUSH2 0x452 JUMPI PUSH1 0x40 MLOAD PUSH32 0x8C379A000000000000000000000000000000000000000000000000000000000 DUP2 MSTORE PUSH1 0x4 ADD PUSH2 0x449 SWAP1 PUSH2 0x1126 JUMP JUMPDEST PUSH1 0x40 MLOAD DUP1 SWAP2 SUB SWAP1 REVERT JUMPDEST PUSH1 0x3 PUSH0 CALLER PUSH20 0xFFFFFFFFFFFFFFFFFFFFFFFFFFFFFFFFFFFFFFFF AND PUSH20 0xFFFFFFFFFFFFFFFFFFFFFFFFFFFFFFFFFFFFFFFF AND DUP2 MSTORE PUSH1 0x20 ADD SWAP1 DUP2 MSTORE PUSH1 0x20 ADD PUSH0 KECCAK256 PUSH1 0x2 ADD SLOAD SWAP1 POP SWAP1 JUMP JUMPDEST PUSH1 0x3 PUSH0 CALLER PUSH20 0xFFFFFFFFFFFFFFFFFFFFFFFFFFFFFFFFFFFFFFFF AND PUSH20 0xFFFFFFFFFFFFFFFFFFFFFFFFFFFFFFFFFFFFFFFF AND DUP2 MSTORE PUSH1 0x20 ADD SWAP1 DUP2 MSTORE PUSH1 0x20 ADD PUSH0 KECCAK256 PUSH1 0x3 ADD PUSH0 SWAP1 SLOAD SWAP1 PUSH2 0x100 EXP SWAP1 DIV PUSH1 0xFF AND PUSH2 0x524 JUMPI PUSH1 0x40 MLOAD PUSH32 0x8C379A000000000000000000000000000000000000000000000000000000000 DUP2 MSTORE PUSH1 0x4 ADD PUSH2 0x51B SWAP1 PUSH2 0x1126 JUMP JUMPDEST PUSH1 0x40 MLOAD DUP1 SWAP2 SUB SWAP1 REVERT JUMPDEST PUSH0 PUSH2 0x2710 PUSH0 SLOAD DUP4 PUSH2 0x535 SWAP2 SWAP1 PUSH2 0x1144 JUMP JUMPDEST PUSH2 0x53F SWAP2 SWAP1 PUSH2 0x11B2 JUMP JUMPDEST SWAP1 POP PUSH0 DUP2 DUP4 PUSH2 0x54E SWAP2 SWAP1 PUSH2 0xFDA JUMP JUMPDEST SWAP1 POP DUP3 PUSH1 0x3 PUSH0 CALLER PUSH20 0xFFFFFFFFFFFFFFFFFFFFFFFFFFFFFFFFFFFFFFFF AND PUSH20 0xFFFFFFFFFFFFFFFFFFFFFFFFFFFFFFFFFFFFFFFF AND DUP2 MSTORE PUSH1 0x20 ADD SWAP1 DUP2 MSTORE PUSH1 0x20 ADD PUSH0 KECCAK256 PUSH1 0x2 ADD SLOAD LT ISZERO PUSH2 0x5D3 JUMPI PUSH1 0x40 MLOAD PUSH32 0x8C379A000000000000000000000000000000000000000000000000000000000 DUP2 MSTORE PUSH1 0x4 ADD PUSH2 0x5CA SWAP1 PUSH2 0x122C JUMP JUMPDEST PUSH1 0x40 MLOAD DUP1 SWAP2 SUB SWAP1 REVERT JUMPDEST DUP3 PUSH1 0x3 PUSH0 CALLER PUSH20 0xFFFFFFFFFFFFFFFFFFFFFFFFFFFFFFFFFFFFFFFF AND PUSH20 0xFFFFFFFFFFFFFFFFFFFFFFFFFFFFFFFFFFFFFFFF AND DUP2 MSTORE PUSH1 0x20 ADD SWAP1 DUP2 MSTORE PUSH1 0x20 ADD PUSH0 KECCAK256 PUSH1 0x2 ADD PUSH0 DUP3 DUP3 SLOAD PUSH2 0x622 SWAP2 SWAP1 PUSH2 0xFDA JUMP JUMPDEST SWAP3 POP POP DUP2 SWAP1 SSTORE POP DUP2 PUSH1 0x2 PUSH0 DUP3 DUP3 SLOAD PUSH2 0x63A SWAP2 SWAP1 PUSH2 0x124A JUMP JUMPDEST SWAP3 POP POP DUP2 SWAP1 SSTORE POP PUSH0 CALLER PUSH20 0xFFFFFFFFFFFFFFFFFFFFFFFFFFFFFFFFFFFFFFFF AND DUP5 PUSH1 0x40 MLOAD PUSH2 0x666 SWAP1 PUSH2 0x103A JUMP JUMPDEST PUSH0 PUSH1 0x40 MLOAD DUP1 DUP4 SUB DUP2 DUP6 DUP8 GAS CALL SWAP3 POP POP POP RETURNDATASIZE DUP1 PUSH0 DUP2 EQ PUSH2 0x6A0 JUMPI PUSH1 0x40 MLOAD SWAP2 POP PUSH1 0x1F NOT PUSH1 0x3F RETURNDATASIZE ADD AND DUP3 ADD PUSH1 0x40 MSTORE RETURNDATASIZE DUP3 MSTORE RETURNDATASIZE PUSH0 PUSH1 0x20 DUP5 ADD RETURNDATACOPY PUSH2 0x6A5 JUMP JUMPDEST PUSH1 0x60 SWAP2 POP JUMPDEST POP POP SWAP1 POP DUP1 PUSH2 0x6E9 JUMPI PUSH1 0x40 MLOAD PUSH32 0x8C379A000000000000000000000000000000000000000000000000000000000 DUP2 MSTORE PUSH1 0x4 ADD PUSH2 0x6E0 SWAP1 PUSH2 0x1098 JUMP JUMPDEST PUSH1 0x40 MLOAD DUP1 SWAP2 SUB SWAP1 REVERT JUMPDEST DUP3 DUP3 CALLER PUSH20 0xFFFFFFFFFFFFFFFFFFFFFFFFFFFFFFFFFFFFFFFF AND PUSH32 0xDF273CB619D95419A9CD0EC88123A0538C85064229BAA6363788F743FFF90DEB PUSH1 0x40 MLOAD PUSH1 0x40 MLOAD DUP1 SWAP2 SUB SWAP1 LOG4 POP POP POP POP JUMP JUMPDEST PUSH1 0x2 SLOAD DUP2 JUMP JUMPDEST PUSH1 0x3 PUSH0 CALLER PUSH20 0xFFFFFFFFFFFFFFFFFFFFFFFFFFFFFFFFFFFFFFFF AND PUSH20 0xFFFFFFFFFFFFFFFFFFFFFFFFFFFFFFFFFFFFFFFF AND DUP2 MSTORE PUSH1 0x20 ADD SWAP1 DUP2 MSTORE PUSH1 0x20 ADD PUSH0 KECCAK256 PUSH1 0x3 ADD PUSH0 SWAP1 SLOAD SWAP1 PUSH2 0x100 EXP SWAP1 DIV PUSH1 0xFF AND ISZERO PUSH2 0x7C7 JUMPI PUSH1 0x40 MLOAD PUSH32 0x8C379A000000000000000000000000000000000000000000000000000000000 DUP2 MSTORE PUSH1 0x4 ADD PUSH2 0x7BE SWAP1 PUSH2 0x1126 JUMP JUMPDEST PUSH1 0x40 MLOAD DUP1 SWAP2 SUB SWAP1 REVERT JUMPDEST PUSH1 0x40 MLOAD DUP1 PUSH1 0x80 ADD PUSH1 0x40 MSTORE DUP1 DUP6 DUP6 DUP1 DUP1 PUSH1 0x1F ADD PUSH1 0x20 DUP1 SWAP2 DIV MUL PUSH1 0x20 ADD PUSH1 0x40 MLOAD SWAP1 DUP2 ADD PUSH1 0x40 MSTORE DUP1 SWAP4 SWAP3 SWAP2 SWAP1 DUP2 DUP2 MSTORE PUSH1 0x20 ADD DUP4 DUP4 DUP1 DUP3 DUP5 CALLDATACOPY PUSH0 DUP2 DUP5 ADD MSTORE PUSH1 0x1F NOT PUSH1 0x1F DUP3 ADD AND SWAP1 POP DUP1 DUP4 ADD SWAP3 POP POP POP POP POP POP POP DUP2 MSTORE PUSH1 0x20 ADD DUP4 DUP4 DUP1 DUP1 PUSH1 0x1F ADD PUSH1 0x20 DUP1 SWAP2 DIV MUL PUSH1 0x20 ADD PUSH1 0x40 MLOAD SWAP1 DUP2 ADD PUSH1 0x40 MSTORE DUP1 SWAP4 SWAP3 SWAP2 SWAP1 DUP2 DUP2 MSTORE PUSH1 0x20 ADD DUP4 DUP4 DUP1 DUP3 DUP5 CALLDATACOPY PUSH0 DUP2 DUP5 ADD MSTORE PUSH1 0x1F NOT PUSH1 0x1F DUP3 ADD AND SWAP1 POP DUP1 DUP4 ADD SWAP3 POP POP POP POP POP POP POP DUP2 MSTORE PUSH1 0x20 ADD PUSH0 DUP2 MSTORE PUSH1 0x20 ADD PUSH1 0x1 ISZERO ISZERO DUP2 MSTORE POP PUSH1 0x3 PUSH0 CALLER PUSH20 0xFFFFFFFFFFFFFFFFFFFFFFFFFFFFFFFFFFFFFFFF AND PUSH20 0xFFFFFFFFFFFFFFFFFFFFFFFFFFFFFFFFFFFFFFFF AND DUP2 MSTORE PUSH1 0x20 ADD SWAP1 DUP2 MSTORE PUSH1 0x20 ADD PUSH0 KECCAK256 PUSH0 DUP3 ADD MLOAD DUP2 PUSH0 ADD SWAP1 DUP2 PUSH2 0x8C1 SWAP2 SWAP1 PUSH2 0x14A4 JUMP JUMPDEST POP PUSH1 0x20 DUP3 ADD MLOAD DUP2 PUSH1 0x1 ADD SWAP1 DUP2 PUSH2 0x8D7 SWAP2 SWAP1 PUSH2 0x14A4 JUMP JUMPDEST POP PUSH1 0x40 DUP3 ADD MLOAD DUP2 PUSH1 0x2 ADD SSTORE PUSH1 0x60 DUP3 ADD MLOAD DUP2 PUSH1 0x3 ADD PUSH0 PUSH2 0x100 EXP DUP2 SLOAD DUP2 PUSH1 0xFF MUL NOT AND SWAP1 DUP4 ISZERO ISZERO MUL OR SWAP1 SSTORE POP SWAP1 POP POP DUP2 DUP2 PUSH1 0x40 MLOAD PUSH2 0x914 SWAP3 SWAP2 SWAP1 PUSH2 0x15AF JUMP JUMPDEST PUSH1 0x40 MLOAD DUP1 SWAP2 SUB SWAP1 KECCAK256 DUP5 DUP5 PUSH1 0x40 MLOAD PUSH2 0x92C SWAP3 SWAP2 SWAP1 PUSH2 0x15AF JUMP JUMPDEST PUSH1 0x40 MLOAD DUP1 SWAP2 SUB SWAP1 KECCAK256 CALLER PUSH20 0xFFFFFFFFFFFFFFFFFFFFFFFFFFFFFFFFFFFFFFFF AND PUSH32 0x92822564BAB8864C3A47B34E8D23FBCE5C46234EB5DA261F94087B995AC0F33B PUSH1 0x40 MLOAD PUSH1 0x40 MLOAD DUP1 SWAP2 SUB SWAP1 LOG4 POP POP POP POP JUMP JUMPDEST PUSH1 0x3 PUSH1 0x20 MSTORE DUP1 PUSH0 MSTORE PUSH1 0x40 PUSH0 KECCAK256 PUSH0 SWAP2 POP SWAP1 POP DUP1 PUSH0 ADD DUP1 SLOAD PUSH2 0x99C SWAP1 PUSH2 0x12D7 JUMP JUMPDEST DUP1 PUSH1 0x1F ADD PUSH1 0x20 DUP1 SWAP2 DIV MUL PUSH1 0x20 ADD PUSH1 0x40 MLOAD SWAP1 DUP2 ADD PUSH1 0x40 MSTORE DUP1 SWAP3 SWAP2 SWAP1 DUP2 DUP2 MSTORE PUSH1 0x20 ADD DUP3 DUP1 SLOAD PUSH2 0x9C8 SWAP1 PUSH2 0x12D7 JUMP JUMPDEST DUP1 ISZERO PUSH2 0xA13 JUMPI DUP1 PUSH1 0x1F LT PUSH2 0x9EA JUMPI PUSH2 0x100 DUP1 DUP4 SLOAD DIV MUL DUP4 MSTORE SWAP2 PUSH1 0x20 ADD SWAP2 PUSH2 0xA13 JUMP JUMPDEST DUP3 ADD SWAP2 SWAP1 PUSH0 MSTORE PUSH1 0x20 PUSH0 KECCAK256 SWAP1 JUMPDEST DUP2 SLOAD DUP2 MSTORE SWAP1 PUSH1 0x1 ADD SWAP1 PUSH1 0x20 ADD DUP1 DUP4 GT PUSH2 0x9F6 JUMPI DUP3 SWAP1 SUB PUSH1 0x1F AND DUP3 ADD SWAP2 JUMPDEST POP POP POP POP POP SWAP1 DUP1 PUSH1 0x1 ADD DUP1 SLOAD PUSH2 0xA28 SWAP1 PUSH2 0x12D7 JUMP JUMPDEST DUP1 PUSH1 0x1F ADD PUSH1 0x20 DUP1 SWAP2 DIV MUL PUSH1 0x20 ADD PUSH1 0x40 MLOAD SWAP1 DUP2 ADD PUSH1 0x40 MSTORE DUP1 SWAP3 SWAP2 SWAP1 DUP2 DUP2 MSTORE PUSH1 0x20 ADD DUP3 DUP1 SLOAD PUSH2 0xA54 SWAP1 PUSH2 0x12D7 JUMP JUMPDEST DUP1 ISZERO PUSH2 0xA9F JUMPI DUP1 PUSH1 0x1F LT PUSH2 0xA76 JUMPI PUSH2 0x100 DUP1 DUP4 SLOAD DIV MUL DUP4 MSTORE SWAP2 PUSH1 0x20 ADD SWAP2 PUSH2 0xA9F JUMP JUMPDEST DUP3 ADD SWAP2 SWAP1 PUSH0 MSTORE PUSH1 0x20 PUSH0 KECCAK256 SWAP1 JUMPDEST DUP2 SLOAD DUP2 MSTORE SWAP1 PUSH1 0x1 ADD SWAP1 PUSH1 0x20 ADD DUP1 DUP4 GT PUSH2 0xA82 JUMPI DUP3 SWAP1 SUB PUSH1 0x1F AND DUP3 ADD SWAP2 JUMPDEST POP POP POP POP POP SWAP1 DUP1 PUSH1 0x2 ADD SLOAD SWAP1 DUP1 PUSH1 0x3 ADD PUSH0 SWAP1 SLOAD SWAP1 PUSH2 0x100 EXP SWAP1 DIV PUSH1 0xFF AND SWAP1 POP DUP5 JUMP JUMPDEST PUSH1 0x3 PUSH0 CALLER PUSH20 0xFFFFFFFFFFFFFFFFFFFFFFFFFFFFFFFFFFFFFFFF AND PUSH20 0xFFFFFFFFFFFFFFFFFFFFFFFFFFFFFFFFFFFFFFFF AND DUP2 MSTORE PUSH1 0x20 ADD SWAP1 DUP2 MSTORE PUSH1 0x20 ADD PUSH0 KECCAK256 PUSH1 0x3 ADD PUSH0 SWAP1 SLOAD SWAP1 PUSH2 0x100 EXP SWAP1 DIV PUSH1 0xFF AND PUSH2 0xB4D JUMPI PUSH1 0x40 MLOAD PUSH32 0x8C379A000000000000000000000000000000000000000000000000000000000 DUP2 MSTORE PUSH1 0x4 ADD PUSH2 0xB44 SWAP1 PUSH2 0x1126 JUMP JUMPDEST PUSH1 0x40 MLOAD DUP1 SWAP2 SUB SWAP1 REVERT JUMPDEST DUP1 PUSH1 0x3 PUSH0 CALLER PUSH20 0xFFFFFFFFFFFFFFFFFFFFFFFFFFFFFFFFFFFFFFFF AND PUSH20 0xFFFFFFFFFFFFFFFFFFFFFFFFFFFFFFFFFFFFFFFF AND DUP2 MSTORE PUSH1 0x20 ADD SWAP1 DUP2 MSTORE PUSH1 0x20 ADD PUSH0 KECCAK256 PUSH1 0x2 ADD PUSH0 DUP3 DUP3 SLOAD PUSH2 0xB9C SWAP2 SWAP1 PUSH2 0x124A JUMP JUMPDEST SWAP3 POP POP DUP2 SWAP1 SSTORE POP DUP1 CALLER PUSH20 0xFFFFFFFFFFFFFFFFFFFFFFFFFFFFFFFFFFFFFFFF AND PUSH32 0xE1FFFCC4923D04B559F4D29A8BFC6CDA04EB5B0D3C460751C2402C5C5CC9109C PUSH1 0x40 MLOAD PUSH1 0x40 MLOAD DUP1 SWAP2 SUB SWAP1 LOG3 POP JUMP JUMPDEST PUSH0 DUP1 REVERT JUMPDEST PUSH0 DUP1 REVERT JUMPDEST PUSH0 DUP2 SWAP1 POP SWAP2 SWAP1 POP JUMP JUMPDEST PUSH2 0xC04 DUP2 PUSH2 0xBF2 JUMP JUMPDEST DUP2 EQ PUSH2 0xC0E JUMPI PUSH0 DUP1 REVERT JUMPDEST POP JUMP JUMPDEST PUSH0 DUP2 CALLDATALOAD SWAP1 POP PUSH2 0xC1F DUP2 PUSH2 0xBFB JUMP JUMPDEST SWAP3 SWAP2 POP POP JUMP JUMPDEST PUSH0 PUSH1 0x20 DUP3 DUP5 SUB SLT ISZERO PUSH2 0xC3A JUMPI PUSH2 0xC39 PUSH2 0xBEA JUMP JUMPDEST JUMPDEST PUSH0 PUSH2 0xC47 DUP5 DUP3 DUP6 ADD PUSH2 0xC11 JUMP JUMPDEST SWAP2 POP POP SWAP3 SWAP2 POP POP JUMP JUMPDEST PUSH2 0xC59 DUP2 PUSH2 0xBF2 JUMP JUMPDEST DUP3 MSTORE POP POP JUMP JUMPDEST PUSH0 PUSH1 0x20 DUP3 ADD SWAP1 POP PUSH2 0xC72 PUSH0 DUP4 ADD DUP5 PUSH2 0xC50 JUMP JUMPDEST SWAP3 SWAP2 POP POP JUMP JUMPDEST PUSH0 DUP1 REVERT JUMPDEST PUSH0 DUP1 REVERT JUMPDEST PUSH0 DUP1 REVERT JUMPDEST PUSH0 DUP1 DUP4 PUSH1 0x1F DUP5 ADD SLT PUSH2 0xC99 JUMPI PUSH2 0xC98 PUSH2 0xC78 JUMP JUMPDEST JUMPDEST DUP3 CALLDATALOAD SWAP1 POP PUSH8 0xFFFFFFFFFFFFFFFF DUP2 GT ISZERO PUSH2 0xCB6 JUMPI PUSH2 0xCB5 PUSH2 0xC7C JUMP JUMPDEST JUMPDEST PUSH1 0x20 DUP4 ADD SWAP2 POP DUP4 PUSH1 0x1 DUP3 MUL DUP4 ADD GT ISZERO PUSH2 0xCD2 JUMPI PUSH2 0xCD1 PUSH2 0xC80 JUMP JUMPDEST JUMPDEST SWAP3 POP SWAP3 SWAP1 POP JUMP JUMPDEST PUSH0 DUP1 PUSH0 DUP1 PUSH1 0x40 DUP6 DUP8 SUB SLT ISZERO PUSH2 0xCF1 JUMPI PUSH2 0xCF0 PUSH2 0xBEA JUMP JUMPDEST JUMPDEST PUSH0 DUP6 ADD CALLDATALOAD PUSH8 0xFFFFFFFFFFFFFFFF DUP2 GT ISZERO PUSH2 0xD0E JUMPI PUSH2 0xD0D PUSH2 0xBEE JUMP JUMPDEST JUMPDEST PUSH2 0xD1A DUP8 DUP3 DUP9 ADD PUSH2 0xC84 JUMP JUMPDEST SWAP5 POP SWAP5 POP POP PUSH1 0x20 DUP6 ADD CALLDATALOAD PUSH8 0xFFFFFFFFFFFFFFFF DUP2 GT ISZERO PUSH2 0xD3D JUMPI PUSH2 0xD3C PUSH2 0xBEE JUMP JUMPDEST JUMPDEST PUSH2 0xD49 DUP8 DUP3 DUP9 ADD PUSH2 0xC84 JUMP JUMPDEST SWAP3 POP SWAP3 POP POP SWAP3 SWAP6 SWAP2 SWAP5 POP SWAP3 POP JUMP JUMPDEST PUSH0 PUSH20 0xFFFFFFFFFFFFFFFFFFFFFFFFFFFFFFFFFFFFFFFF DUP3 AND SWAP1 POP SWAP2 SWAP1 POP JUMP JUMPDEST PUSH0 PUSH2 0xD80 DUP3 PUSH2 0xD57 JUMP JUMPDEST SWAP1 POP SWAP2 SWAP1 POP JUMP JUMPDEST PUSH2 0xD90 DUP2 PUSH2 0xD76 JUMP JUMPDEST DUP2 EQ PUSH2 0xD9A JUMPI PUSH0 DUP1 REVERT JUMPDEST POP JUMP JUMPDEST PUSH0 DUP2 CALLDATALOAD SWAP1 POP PUSH2 0xDAB DUP2 PUSH2 0xD87 JUMP JUMPDEST SWAP3 SWAP2 POP POP JUMP JUMPDEST PUSH0 PUSH1 0x20 DUP3 DUP5 SUB SLT ISZERO PUSH2 0xDC6 JUMPI PUSH2 0xDC5 PUSH2 0xBEA JUMP JUMPDEST JUMPDEST PUSH0 PUSH2 0xDD3 DUP5 DUP3 DUP6 ADD PUSH2 0xD9D JUMP JUMPDEST SWAP2 POP POP SWAP3 SWAP2 POP POP JUMP JUMPDEST PUSH0 DUP2 MLOAD SWAP1 POP SWAP2 SWAP1 POP JUMP JUMPDEST PUSH0 DUP3 DUP3 MSTORE PUSH1 0x20 DUP3 ADD SWAP1 POP SWAP3 SWAP2 POP POP JUMP JUMPDEST DUP3 DUP2 DUP4 MCOPY PUSH0 DUP4 DUP4 ADD MSTORE POP POP POP JUMP JUMPDEST PUSH0 PUSH1 0x1F NOT PUSH1 0x1F DUP4 ADD AND SWAP1 POP SWAP2 SWAP1 POP JUMP JUMPDEST PUSH0 PUSH2 0xE1E DUP3 PUSH2 0xDDC JUMP JUMPDEST PUSH2 0xE28 DUP2 DUP6 PUSH2 0xDE6 JUMP JUMPDEST SWAP4 POP PUSH2 0xE38 DUP2 DUP6 PUSH1 0x20 DUP7 ADD PUSH2 0xDF6 JUMP JUMPDEST PUSH2 0xE41 DUP2 PUSH2 0xE04 JUMP JUMPDEST DUP5 ADD SWAP2 POP POP SWAP3 SWAP2 POP POP JUMP JUMPDEST PUSH0 DUP2 ISZERO ISZERO SWAP1 POP SWAP2 SWAP1 POP JUMP JUMPDEST PUSH2 0xE60 DUP2 PUSH2 0xE4C JUMP JUMPDEST DUP3 MSTORE POP POP JUMP JUMPDEST PUSH0 PUSH1 0x80 DUP3 ADD SWAP1 POP DUP2 DUP2 SUB PUSH0 DUP4 ADD MSTORE PUSH2 0xE7E DUP2 DUP8 PUSH2 0xE14 JUMP JUMPDEST SWAP1 POP DUP2 DUP2 SUB PUSH1 0x20 DUP4 ADD MSTORE PUSH2 0xE92 DUP2 DUP7 PUSH2 0xE14 JUMP JUMPDEST SWAP1 POP PUSH2 0xEA1 PUSH1 0x40 DUP4 ADD DUP6 PUSH2 0xC50 JUMP JUMPDEST PUSH2 0xEAE PUSH1 0x60 DUP4 ADD DUP5 PUSH2 0xE57 JUMP JUMPDEST SWAP6 SWAP5 POP POP POP POP POP JUMP JUMPDEST PUSH32 0x496E73756666696369656E742074726561737572792062616C616E6365000000 PUSH0 DUP3 ADD MSTORE POP JUMP JUMPDEST PUSH0 PUSH2 0xEEB PUSH1 0x1D DUP4 PUSH2 0xDE6 JUMP JUMPDEST SWAP2 POP PUSH2 0xEF6 DUP3 PUSH2 0xEB7 JUMP JUMPDEST PUSH1 0x20 DUP3 ADD SWAP1 POP SWAP2 SWAP1 POP JUMP JUMPDEST PUSH0 PUSH1 0x20 DUP3 ADD SWAP1 POP DUP2 DUP2 SUB PUSH0 DUP4 ADD MSTORE PUSH2 0xF18 DUP2 PUSH2 0xEDF JUMP JUMPDEST SWAP1 POP SWAP2 SWAP1 POP JUMP JUMPDEST PUSH32 0x4F6E6C7920746865206F776E65722063616E206D6F646966792074686520636F PUSH0 DUP3 ADD MSTORE PUSH32 0x6E74726163740000000000000000000000000000000000000000000000000000 PUSH1 0x20 DUP3 ADD MSTORE POP JUMP JUMPDEST PUSH0 PUSH2 0xF79 PUSH1 0x26 DUP4 PUSH2 0xDE6 JUMP JUMPDEST SWAP2 POP PUSH2 0xF84 DUP3 PUSH2 0xF1F JUMP JUMPDEST PUSH1 0x40 DUP3 ADD SWAP1 POP SWAP2 SWAP1 POP JUMP JUMPDEST PUSH0 PUSH1 0x20 DUP3 ADD SWAP1 POP DUP2 DUP2 SUB PUSH0 DUP4 ADD MSTORE PUSH2 0xFA6 DUP2 PUSH2 0xF6D JUMP JUMPDEST SWAP1 POP SWAP2 SWAP1 POP JUMP JUMPDEST PUSH32 0x4E487B7100000000000000000000000000000000000000000000000000000000 PUSH0 MSTORE PUSH1 0x11 PUSH1 0x4 MSTORE PUSH1 0x24 PUSH0 REVERT JUMPDEST PUSH0 PUSH2 0xFE4 DUP3 PUSH2 0xBF2 JUMP JUMPDEST SWAP2 POP PUSH2 0xFEF DUP4 PUSH2 0xBF2 JUMP JUMPDEST SWAP3 POP DUP3 DUP3 SUB SWAP1 POP DUP2 DUP2 GT ISZERO PUSH2 0x1007 JUMPI PUSH2 0x1006 PUSH2 0xFAD JUMP JUMPDEST JUMPDEST SWAP3 SWAP2 POP POP JUMP JUMPDEST PUSH0 DUP2 SWAP1 POP SWAP3 SWAP2 POP POP JUMP JUMPDEST POP JUMP JUMPDEST PUSH0 PUSH2 0x1025 PUSH0 DUP4 PUSH2 0x100D JUMP JUMPDEST SWAP2 POP PUSH2 0x1030 DUP3 PUSH2 0x1017 JUMP JUMPDEST PUSH0 DUP3 ADD SWAP1 POP SWAP2 SWAP1 POP JUMP JUMPDEST PUSH0 PUSH2 0x1044 DUP3 PUSH2 0x101A JUMP JUMPDEST SWAP2 POP DUP2 SWAP1 POP SWAP2 SWAP1 POP JUMP JUMPDEST PUSH32 0x4661696C656420746F2073656E64204574686572000000000000000000000000 PUSH0 DUP3 ADD MSTORE POP JUMP JUMPDEST PUSH0 PUSH2 0x1082 PUSH1 0x14 DUP4 PUSH2 0xDE6 JUMP JUMPDEST SWAP2 POP PUSH2 0x108D DUP3 PUSH2 0x104E JUMP JUMPDEST PUSH1 0x20 DUP3 ADD SWAP1 POP SWAP2 SWAP1 POP JUMP JUMPDEST PUSH0 PUSH1 0x20 DUP3 ADD SWAP1 POP DUP2 DUP2 SUB PUSH0 DUP4 ADD MSTORE PUSH2 0x10AF DUP2 PUSH2 0x1076 JUMP JUMPDEST SWAP1 POP SWAP2 SWAP1 POP JUMP JUMPDEST PUSH32 0x4F6E6C792074686520726567697374657265642075736572732063616E20696E PUSH0 DUP3 ADD MSTORE PUSH32 0x74657261637420776974682074686520636F6E74726163740000000000000000 PUSH1 0x20 DUP3 ADD MSTORE POP JUMP JUMPDEST PUSH0 PUSH2 0x1110 PUSH1 0x38 DUP4 PUSH2 0xDE6 JUMP JUMPDEST SWAP2 POP PUSH2 0x111B DUP3 PUSH2 0x10B6 JUMP JUMPDEST PUSH1 0x40 DUP3 ADD SWAP1 POP SWAP2 SWAP1 POP JUMP JUMPDEST PUSH0 PUSH1 0x20 DUP3 ADD SWAP1 POP DUP2 DUP2 SUB PUSH0 DUP4 ADD MSTORE PUSH2 0x113D DUP2 PUSH2 0x1104 JUMP JUMPDEST SWAP1 POP SWAP2 SWAP1 POP JUMP JUMPDEST PUSH0 PUSH2 0x114E DUP3 PUSH2 0xBF2 JUMP JUMPDEST SWAP2 POP PUSH2 0x1159 DUP4 PUSH2 0xBF2 JUMP JUMPDEST SWAP3 POP DUP3 DUP3 MUL PUSH2 0x1167 DUP2 PUSH2 0xBF2 JUMP JUMPDEST SWAP2 POP DUP3 DUP3 DIV DUP5 EQ DUP4 ISZERO OR PUSH2 0x117E JUMPI PUSH2 0x117D PUSH2 0xFAD JUMP JUMPDEST JUMPDEST POP SWAP3 SWAP2 POP POP JUMP JUMPDEST PUSH32 0x4E487B7100000000000000000000000000000000000000000000000000000000 PUSH0 MSTORE PUSH1 0x12 PUSH1 0x4 MSTORE PUSH1 0x24 PUSH0 REVERT JUMPDEST PUSH0 PUSH2 0x11BC DUP3 PUSH2 0xBF2 JUMP JUMPDEST SWAP2 POP PUSH2 0x11C7 DUP4 PUSH2 0xBF2 JUMP JUMPDEST SWAP3 POP DUP3 PUSH2 0x11D7 JUMPI PUSH2 0x11D6 PUSH2 0x1185 JUMP JUMPDEST JUMPDEST DUP3 DUP3 DIV SWAP1 POP SWAP3 SWAP2 POP POP JUMP JUMPDEST PUSH32 0x496E73756666696369656E742062616C616E6365000000000000000000000000 PUSH0 DUP3 ADD MSTORE POP JUMP JUMPDEST PUSH0 PUSH2 0x1216 PUSH1 0x14 DUP4 PUSH2 0xDE6 JUMP JUMPDEST SWAP2 POP PUSH2 0x1221 DUP3 PUSH2 0x11E2 JUMP JUMPDEST PUSH1 0x20 DUP3 ADD SWAP1 POP SWAP2 SWAP1 POP JUMP JUMPDEST PUSH0 PUSH1 0x20 DUP3 ADD SWAP1 POP DUP2 DUP2 SUB PUSH0 DUP4 ADD MSTORE PUSH2 0x1243 DUP2 PUSH2 0x120A JUMP JUMPDEST SWAP1 POP SWAP2 SWAP1 POP JUMP JUMPDEST PUSH0 PUSH2 0x1254 DUP3 PUSH2 0xBF2 JUMP JUMPDEST SWAP2 POP PUSH2 0x125F DUP4 PUSH2 0xBF2 JUMP JUMPDEST SWAP3 POP DUP3 DUP3 ADD SWAP1 POP DUP1 DUP3 GT ISZERO PUSH2 0x1277 JUMPI PUSH2 0x1276 PUSH2 0xFAD JUMP JUMPDEST JUMPDEST SWAP3 SWAP2 POP POP JUMP JUMPDEST PUSH32 0x4E487B7100000000000000000000000000000000000000000000000000000000 PUSH0 MSTORE PUSH1 0x41 PUSH1 0x4 MSTORE PUSH1 0x24 PUSH0 REVERT JUMPDEST PUSH32 0x4E487B7100000000000000000000000000000000000000000000000000000000 PUSH0 MSTORE PUSH1 0x22 PUSH1 0x4 MSTORE PUSH1 0x24 PUSH0 REVERT JUMPDEST PUSH0 PUSH1 0x2 DUP3 DIV SWAP1 POP PUSH1 0x1 DUP3 AND DUP1 PUSH2 0x12EE JUMPI PUSH1 0x7F DUP3 AND SWAP2 POP JUMPDEST PUSH1 0x20 DUP3 LT DUP2 SUB PUSH2 0x1301 JUMPI PUSH2 0x1300 PUSH2 0x12AA JUMP JUMPDEST JUMPDEST POP SWAP2 SWAP1 POP JUMP JUMPDEST PUSH0 DUP2 SWAP1 POP DUP2 PUSH0 MSTORE PUSH1 0x20 PUSH0 KECCAK256 SWAP1 POP SWAP2 SWAP1 POP JUMP JUMPDEST PUSH0 PUSH1 0x20 PUSH1 0x1F DUP4 ADD DIV SWAP1 POP SWAP2 SWAP1 POP JUMP JUMPDEST PUSH0 DUP3 DUP3 SHL SWAP1 POP SWAP3 SWAP2 POP POP JUMP JUMPDEST PUSH0 PUSH1 0x8 DUP4 MUL PUSH2 0x1363 PUSH32 0xFFFFFFFFFFFFFFFFFFFFFFFFFFFFFFFFFFFFFFFFFFFFFFFFFFFFFFFFFFFFFFFF DUP3 PUSH2 0x1328 JUMP JUMPDEST PUSH2 0x136D DUP7 DUP4 PUSH2 0x1328 JUMP JUMPDEST SWAP6 POP DUP1 NOT DUP5 AND SWAP4 POP DUP1 DUP7 AND DUP5 OR SWAP3 POP POP POP SWAP4 SWAP3 POP POP POP JUMP JUMPDEST PUSH0 DUP2 SWAP1 POP SWAP2 SWAP1 POP JUMP JUMPDEST PUSH0 PUSH2 0x13A8 PUSH2 0x13A3 PUSH2 0x139E DUP5 PUSH2 0xBF2 JUMP JUMPDEST PUSH2 0x1385 JUMP JUMPDEST PUSH2 0xBF2 JUMP JUMPDEST SWAP1 POP SWAP2 SWAP1 POP JUMP JUMPDEST PUSH0 DUP2 SWAP1 POP SWAP2 SWAP1 POP JUMP JUMPDEST PUSH2 0x13C1 DUP4 PUSH2 0x138E JUMP JUMPDEST PUSH2 0x13D5 PUSH2 0x13CD DUP3 PUSH2 0x13AF JUMP JUMPDEST DUP5 DUP5 SLOAD PUSH2 0x1334 JUMP JUMPDEST DUP3 SSTORE POP POP POP POP JUMP JUMPDEST PUSH0 SWAP1 JUMP JUMPDEST PUSH2 0x13E9 PUSH2 0x13DD JUMP JUMPDEST PUSH2 0x13F4 DUP2 DUP5 DUP5 PUSH2 0x13B8 JUMP JUMPDEST POP POP POP JUMP JUMPDEST JUMPDEST DUP2 DUP2 LT ISZERO PUSH2 0x1417 JUMPI PUSH2 0x140C PUSH0 DUP3 PUSH2 0x13E1 JUMP JUMPDEST PUSH1 0x1 DUP2 ADD SWAP1 POP PUSH2 0x13FA JUMP JUMPDEST POP POP JUMP JUMPDEST PUSH1 0x1F DUP3 GT ISZERO PUSH2 0x145C JUMPI PUSH2 0x142D DUP2 PUSH2 0x1307 JUMP JUMPDEST PUSH2 0x1436 DUP5 PUSH2 0x1319 JUMP JUMPDEST DUP2 ADD PUSH1 0x20 DUP6 LT ISZERO PUSH2 0x1445 JUMPI DUP2 SWAP1 POP JUMPDEST PUSH2 0x1459 PUSH2 0x1451 DUP6 PUSH2 0x1319 JUMP JUMPDEST DUP4 ADD DUP3 PUSH2 0x13F9 JUMP JUMPDEST POP POP JUMPDEST POP POP POP JUMP JUMPDEST PUSH0 DUP3 DUP3 SHR SWAP1 POP SWAP3 SWAP2 POP POP JUMP JUMPDEST PUSH0 PUSH2 0x147C PUSH0 NOT DUP5 PUSH1 0x8 MUL PUSH2 0x1461 JUMP JUMPDEST NOT DUP1 DUP4 AND SWAP2 POP POP SWAP3 SWAP2 POP POP JUMP JUMPDEST PUSH0 PUSH2 0x1494 DUP4 DUP4 PUSH2 0x146D JUMP JUMPDEST SWAP2 POP DUP3 PUSH1 0x2 MUL DUP3 OR SWAP1 POP SWAP3 SWAP2 POP POP JUMP JUMPDEST PUSH2 0x14AD DUP3 PUSH2 0xDDC JUMP JUMPDEST PUSH8 0xFFFFFFFFFFFFFFFF DUP2 GT ISZERO PUSH2 0x14C6 JUMPI PUSH2 0x14C5 PUSH2 0x127D JUMP JUMPDEST JUMPDEST PUSH2 0x14D0 DUP3 SLOAD PUSH2 0x12D7 JUMP JUMPDEST PUSH2 0x14DB DUP3 DUP3 DUP6 PUSH2 0x141B JUMP JUMPDEST PUSH0 PUSH1 0x20 SWAP1 POP PUSH1 0x1F DUP4 GT PUSH1 0x1 DUP2 EQ PUSH2 0x150C JUMPI PUSH0 DUP5 ISZERO PUSH2 0x14FA JUMPI DUP3 DUP8 ADD MLOAD SWAP1 POP JUMPDEST PUSH2 0x1504 DUP6 DUP3 PUSH2 0x1489 JUMP JUMPDEST DUP7 SSTORE POP PUSH2 0x156B JUMP JUMPDEST PUSH1 0x1F NOT DUP5 AND PUSH2 0x151A DUP7 PUSH2 0x1307 JUMP JUMPDEST PUSH0 JUMPDEST DUP3 DUP2 LT ISZERO PUSH2 0x1541 JUMPI DUP5 DUP10 ADD MLOAD DUP3 SSTORE PUSH1 0x1 DUP3 ADD SWAP2 POP PUSH1 0x20 DUP6 ADD SWAP5 POP PUSH1 0x20 DUP2 ADD SWAP1 POP PUSH2 0x151C JUMP JUMPDEST DUP7 DUP4 LT ISZERO PUSH2 0x155E JUMPI DUP5 DUP10 ADD MLOAD PUSH2 0x155A PUSH1 0x1F DUP10 AND DUP3 PUSH2 0x146D JUMP JUMPDEST DUP4 SSTORE POP JUMPDEST PUSH1 0x1 PUSH1 0x2 DUP9 MUL ADD DUP9 SSTORE POP POP POP JUMPDEST POP POP POP POP POP POP JUMP JUMPDEST PUSH0 DUP2 SWAP1 POP SWAP3 SWAP2 POP POP JUMP JUMPDEST DUP3 DUP2 DUP4 CALLDATACOPY PUSH0 DUP4 DUP4 ADD MSTORE POP POP POP JUMP JUMPDEST PUSH0 PUSH2 0x1596 DUP4 DUP6 PUSH2 0x1573 JUMP JUMPDEST SWAP4 POP PUSH2 0x15A3 DUP4 DUP6 DUP5 PUSH2 0x157D JUMP JUMPDEST DUP3 DUP5 ADD SWAP1 POP SWAP4 SWAP3 POP POP POP JUMP JUMPDEST PUSH0 PUSH2 0x15BB DUP3 DUP5 DUP7 PUSH2 0x158B JUMP JUMPDEST SWAP2 POP DUP2 SWAP1 POP SWAP4 SWAP3 POP POP POP JUMP INVALID LOG2 PUSH5 0x6970667358 0x22 SLT KECCAK256 0xE2 EXTCODEHASH GASLIMIT PUSH10 0xEE52C73EC99D36AEDC80 LOG2 SWAP2 PUSH5 0x8DD130A7D7 0xE6 TLOAD DUP1 RETURN POP 0xE8 BYTE 0xCB SWAP5 RETURNDATACOPY PUSH5 0x736F6C6343 STOP ADDMOD BYTE STOP CALLER "
				},
				"gasEstimates": {
					"creation": {
						"codeDepositCost": "1125800",
						"executionCost": "infinite",
						"totalCost": "infinite"
					},
					"external": {
						"deposit(uint256)": "infinite",
						"getBalance()": "4793",
						"register(string,string)": "infinite",
						"treasuryBalance()": "2425",
						"users(address)": "infinite",
						"withdraw(uint256)": "infinite",
						"withdrawTreasury(uint256)": "infinite"
					}
				},
				"methodIdentifiers": {
					"deposit(uint256)": "b6b55f25",
					"getBalance()": "12065fe0",
					"register(string,string)": "3ffbd47f",
					"treasuryBalance()": "313dab20",
					"users(address)": "a87430ba",
					"withdraw(uint256)": "2e1a7d4d",
					"withdrawTreasury(uint256)": "11f1fc99"
				}
			},
			"storageLayout": {
				"storage": [
					{
						"astId": 3,
						"contract": "contracts/EntregableFinalMod2.sol:EntregableFinalMod2",
						"label": "fee",
						"offset": 0,
						"slot": "0",
						"type": "t_uint256"
					},
					{
						"astId": 5,
						"contract": "contracts/EntregableFinalMod2.sol:EntregableFinalMod2",
						"label": "owner",
						"offset": 0,
						"slot": "1",
						"type": "t_address"
					},
					{
						"astId": 7,
						"contract": "contracts/EntregableFinalMod2.sol:EntregableFinalMod2",
						"label": "treasuryBalance",
						"offset": 0,
						"slot": "2",
						"type": "t_uint256"
					},
					{
						"astId": 21,
						"contract": "contracts/EntregableFinalMod2.sol:EntregableFinalMod2",
						"label": "users",
						"offset": 0,
						"slot": "3",
						"type": "t_mapping(t_address,t_struct(User)16_storage)"
					}
				],
				"types": {
					"t_address": {
						"encoding": "inplace",
						"label": "address",
						"numberOfBytes": "20"
					},
					"t_bool": {
						"encoding": "inplace",
						"label": "bool",
						"numberOfBytes": "1"
					},
					"t_mapping(t_address,t_struct(User)16_storage)": {
						"encoding": "mapping",
						"key": "t_address",
						"label": "mapping(address => struct EntregableFinalMod2.User)",
						"numberOfBytes": "32",
						"value": "t_struct(User)16_storage"
					},
					"t_string_storage": {
						"encoding": "bytes",
						"label": "string",
						"numberOfBytes": "32"
					},
					"t_struct(User)16_storage": {
						"encoding": "inplace",
						"label": "struct EntregableFinalMod2.User",
						"members": [
							{
								"astId": 9,
								"contract": "contracts/EntregableFinalMod2.sol:EntregableFinalMod2",
								"label": "name",
								"offset": 0,
								"slot": "0",
								"type": "t_string_storage"
							},
							{
								"astId": 11,
								"contract": "contracts/EntregableFinalMod2.sol:EntregableFinalMod2",
								"label": "lastName",
								"offset": 0,
								"slot": "1",
								"type": "t_string_storage"
							},
							{
								"astId": 13,
								"contract": "contracts/EntregableFinalMod2.sol:EntregableFinalMod2",
								"label": "balance",
								"offset": 0,
								"slot": "2",
								"type": "t_uint256"
							},
							{
								"astId": 15,
								"contract": "contracts/EntregableFinalMod2.sol:EntregableFinalMod2",
								"label": "isRegistered",
								"offset": 0,
								"slot": "3",
								"type": "t_bool"
							}
						],
						"numberOfBytes": "128"
					},
					"t_uint256": {
						"encoding": "inplace",
						"label": "uint256",
						"numberOfBytes": "32"
					}
				}
			},
			"userdoc": {
				"kind": "user",
				"methods": {},
				"version": 1
			}
		}
	}
}