{
	"contracts/Mappings.sol": {
		"Mappings": {
			"abi": [
				{
					"inputs": [
						{
							"internalType": "address",
							"name": "_userAddress",
							"type": "address"
						},
						{
							"internalType": "uint256",
							"name": "_balance",
							"type": "uint256"
						}
					],
					"name": "addBalance",
					"outputs": [],
					"stateMutability": "nonpayable",
					"type": "function"
				},
				{
					"inputs": [
						{
							"internalType": "address",
							"name": "_userAddress",
							"type": "address"
						}
					],
					"name": "addToWhitelist",
					"outputs": [],
					"stateMutability": "nonpayable",
					"type": "function"
				},
				{
					"inputs": [
						{
							"internalType": "address",
							"name": "",
							"type": "address"
						}
					],
					"name": "balances",
					"outputs": [
						{
							"internalType": "uint256",
							"name": "",
							"type": "uint256"
						}
					],
					"stateMutability": "view",
					"type": "function"
				},
				{
					"inputs": [],
					"name": "name",
					"outputs": [
						{
							"internalType": "string",
							"name": "",
							"type": "string"
						}
					],
					"stateMutability": "view",
					"type": "function"
				},
				{
					"inputs": [
						{
							"internalType": "address",
							"name": "_userAddress",
							"type": "address"
						}
					],
					"name": "removeFromWhitelist",
					"outputs": [],
					"stateMutability": "nonpayable",
					"type": "function"
				},
				{
					"inputs": [
						{
							"internalType": "string",
							"name": "_name",
							"type": "string"
						}
					],
					"name": "setName",
					"outputs": [],
					"stateMutability": "nonpayable",
					"type": "function"
				},
				{
					"inputs": [
						{
							"internalType": "address",
							"name": "",
							"type": "address"
						}
					],
					"name": "whitelist",
					"outputs": [
						{
							"internalType": "bool",
							"name": "",
							"type": "bool"
						}
					],
					"stateMutability": "view",
					"type": "function"
				}
			],
			"devdoc": {
				"kind": "dev",
				"methods": {},
				"version": 1
			},
			"evm": {
				"assembly": "    /* \"contracts/Mappings.sol\":59:802  contract Mappings {... */\n  mstore(0x40, 0x80)\n  callvalue\n  dup1\n  iszero\n  tag_1\n  jumpi\n  0x00\n  dup1\n  revert\ntag_1:\n  pop\n  dataSize(sub_0)\n  dup1\n  dataOffset(sub_0)\n  0x00\n  codecopy\n  0x00\n  return\nstop\n\nsub_0: assembly {\n        /* \"contracts/Mappings.sol\":59:802  contract Mappings {... */\n      mstore(0x40, 0x80)\n      callvalue\n      dup1\n      iszero\n      tag_1\n      jumpi\n      0x00\n      dup1\n      revert\n    tag_1:\n      pop\n      jumpi(tag_2, lt(calldatasize, 0x04))\n      shr(0xe0, calldataload(0x00))\n      dup1\n      0x8ab1d681\n      gt\n      tag_10\n      jumpi\n      dup1\n      0x8ab1d681\n      eq\n      tag_6\n      jumpi\n      dup1\n      0x9b19251a\n      eq\n      tag_7\n      jumpi\n      dup1\n      0xc47f0027\n      eq\n      tag_8\n      jumpi\n      dup1\n      0xe43252d7\n      eq\n      tag_9\n      jumpi\n      jump(tag_2)\n    tag_10:\n      dup1\n      0x06fdde03\n      eq\n      tag_3\n      jumpi\n      dup1\n      0x21e5383a\n      eq\n      tag_4\n      jumpi\n      dup1\n      0x27e235e3\n      eq\n      tag_5\n      jumpi\n    tag_2:\n      0x00\n      dup1\n      revert\n        /* \"contracts/Mappings.sol\":130:148  string public name */\n    tag_3:\n      tag_11\n      tag_12\n      jump\t// in\n    tag_11:\n      mload(0x40)\n      tag_13\n      swap2\n      swap1\n      tag_14\n      jump\t// in\n    tag_13:\n      mload(0x40)\n      dup1\n      swap2\n      sub\n      swap1\n      return\n        /* \"contracts/Mappings.sol\":686:800  function addBalance(address _userAddress, uint _balance) public {... */\n    tag_4:\n      tag_15\n      0x04\n      dup1\n      calldatasize\n      sub\n      dup2\n      add\n      swap1\n      tag_16\n      swap2\n      swap1\n      tag_17\n      jump\t// in\n    tag_16:\n      tag_18\n      jump\t// in\n    tag_15:\n      stop\n        /* \"contracts/Mappings.sol\":155:195  mapping(address => uint) public balances */\n    tag_5:\n      tag_19\n      0x04\n      dup1\n      calldatasize\n      sub\n      dup2\n      add\n      swap1\n      tag_20\n      swap2\n      swap1\n      tag_21\n      jump\t// in\n    tag_20:\n      tag_22\n      jump\t// in\n    tag_19:\n      mload(0x40)\n      tag_23\n      swap2\n      swap1\n      tag_24\n      jump\t// in\n    tag_23:\n      mload(0x40)\n      dup1\n      swap2\n      sub\n      swap1\n      return\n        /* \"contracts/Mappings.sol\":537:664  function removeFromWhitelist(address _userAddress) checkIsInWhiteList public  {... */\n    tag_6:\n      tag_25\n      0x04\n      dup1\n      calldatasize\n      sub\n      dup2\n      add\n      swap1\n      tag_26\n      swap2\n      swap1\n      tag_21\n      jump\t// in\n    tag_26:\n      tag_27\n      jump\t// in\n    tag_25:\n      stop\n        /* \"contracts/Mappings.sol\":83:124  mapping(address => bool) public whitelist */\n    tag_7:\n      tag_28\n      0x04\n      dup1\n      calldatasize\n      sub\n      dup2\n      add\n      swap1\n      tag_29\n      swap2\n      swap1\n      tag_21\n      jump\t// in\n    tag_29:\n      tag_30\n      jump\t// in\n    tag_28:\n      mload(0x40)\n      tag_31\n      swap2\n      swap1\n      tag_32\n      jump\t// in\n    tag_31:\n      mload(0x40)\n      dup1\n      swap2\n      sub\n      swap1\n      return\n        /* \"contracts/Mappings.sol\":438:531  function setName(string memory _name) checkIsInWhiteList public {... */\n    tag_8:\n      tag_33\n      0x04\n      dup1\n      calldatasize\n      sub\n      dup2\n      add\n      swap1\n      tag_34\n      swap2\n      swap1\n      tag_35\n      jump\t// in\n    tag_34:\n      tag_36\n      jump\t// in\n    tag_33:\n      stop\n        /* \"contracts/Mappings.sol\":331:432  function addToWhitelist(address _userAddress) public  {... */\n    tag_9:\n      tag_37\n      0x04\n      dup1\n      calldatasize\n      sub\n      dup2\n      add\n      swap1\n      tag_38\n      swap2\n      swap1\n      tag_21\n      jump\t// in\n    tag_38:\n      tag_39\n      jump\t// in\n    tag_37:\n      stop\n        /* \"contracts/Mappings.sol\":130:148  string public name */\n    tag_12:\n      0x01\n      dup1\n      sload\n      tag_40\n      swap1\n      tag_41\n      jump\t// in\n    tag_40:\n      dup1\n      0x1f\n      add\n      0x20\n      dup1\n      swap2\n      div\n      mul\n      0x20\n      add\n      mload(0x40)\n      swap1\n      dup2\n      add\n      0x40\n      mstore\n      dup1\n      swap3\n      swap2\n      swap1\n      dup2\n      dup2\n      mstore\n      0x20\n      add\n      dup3\n      dup1\n      sload\n      tag_42\n      swap1\n      tag_41\n      jump\t// in\n    tag_42:\n      dup1\n      iszero\n      tag_43\n      jumpi\n      dup1\n      0x1f\n      lt\n      tag_44\n      jumpi\n      0x0100\n      dup1\n      dup4\n      sload\n      div\n      mul\n      dup4\n      mstore\n      swap2\n      0x20\n      add\n      swap2\n      jump(tag_43)\n    tag_44:\n      dup3\n      add\n      swap2\n      swap1\n      0x00\n      mstore\n      keccak256(0x00, 0x20)\n      swap1\n    tag_45:\n      dup2\n      sload\n      dup2\n      mstore\n      swap1\n      0x01\n      add\n      swap1\n      0x20\n      add\n      dup1\n      dup4\n      gt\n      tag_45\n      jumpi\n      dup3\n      swap1\n      sub\n      0x1f\n      and\n      dup3\n      add\n      swap2\n    tag_43:\n      pop\n      pop\n      pop\n      pop\n      pop\n      dup2\n      jump\t// out\n        /* \"contracts/Mappings.sol\":686:800  function addBalance(address _userAddress, uint _balance) public {... */\n    tag_18:\n        /* \"contracts/Mappings.sol\":785:793  _balance */\n      dup1\n        /* \"contracts/Mappings.sol\":760:768  balances */\n      0x02\n        /* \"contracts/Mappings.sol\":760:782  balances[_userAddress] */\n      0x00\n        /* \"contracts/Mappings.sol\":769:781  _userAddress */\n      dup5\n        /* \"contracts/Mappings.sol\":760:782  balances[_userAddress] */\n      0xffffffffffffffffffffffffffffffffffffffff\n      and\n      0xffffffffffffffffffffffffffffffffffffffff\n      and\n      dup2\n      mstore\n      0x20\n      add\n      swap1\n      dup2\n      mstore\n      0x20\n      add\n      0x00\n      keccak256\n        /* \"contracts/Mappings.sol\":760:793  balances[_userAddress] = _balance */\n      dup2\n      swap1\n      sstore\n      pop\n        /* \"contracts/Mappings.sol\":686:800  function addBalance(address _userAddress, uint _balance) public {... */\n      pop\n      pop\n      jump\t// out\n        /* \"contracts/Mappings.sol\":155:195  mapping(address => uint) public balances */\n    tag_22:\n      mstore(0x20, 0x02)\n      dup1\n      0x00\n      mstore\n      keccak256(0x00, 0x40)\n      0x00\n      swap2\n      pop\n      swap1\n      pop\n      sload\n      dup2\n      jump\t// out\n        /* \"contracts/Mappings.sol\":537:664  function removeFromWhitelist(address _userAddress) checkIsInWhiteList public  {... */\n    tag_27:\n        /* \"contracts/Mappings.sol\":273:277  true */\n      0x01\n        /* \"contracts/Mappings.sol\":248:277  whitelist[msg.sender] == true */\n      iszero\n      iszero\n        /* \"contracts/Mappings.sol\":248:257  whitelist */\n      0x00\n        /* \"contracts/Mappings.sol\":248:269  whitelist[msg.sender] */\n      dup1\n        /* \"contracts/Mappings.sol\":258:268  msg.sender */\n      caller\n        /* \"contracts/Mappings.sol\":248:269  whitelist[msg.sender] */\n      0xffffffffffffffffffffffffffffffffffffffff\n      and\n      0xffffffffffffffffffffffffffffffffffffffff\n      and\n      dup2\n      mstore\n      0x20\n      add\n      swap1\n      dup2\n      mstore\n      0x20\n      add\n      0x00\n      keccak256\n      0x00\n      swap1\n      sload\n      swap1\n      0x0100\n      exp\n      swap1\n      div\n      0xff\n      and\n        /* \"contracts/Mappings.sol\":248:277  whitelist[msg.sender] == true */\n      iszero\n      iszero\n      eq\n        /* \"contracts/Mappings.sol\":240:307  require(whitelist[msg.sender] == true, \"Not part of the whitelist\") */\n      tag_48\n      jumpi\n      mload(0x40)\n      0x08c379a000000000000000000000000000000000000000000000000000000000\n      dup2\n      mstore\n      0x04\n      add\n      tag_49\n      swap1\n      tag_50\n      jump\t// in\n    tag_49:\n      mload(0x40)\n      dup1\n      swap2\n      sub\n      swap1\n      revert\n    tag_48:\n        /* \"contracts/Mappings.sol\":652:657  false */\n      0x00\n        /* \"contracts/Mappings.sol\":626:635  whitelist */\n      dup1\n        /* \"contracts/Mappings.sol\":626:649  whitelist[_userAddress] */\n      0x00\n        /* \"contracts/Mappings.sol\":636:648  _userAddress */\n      dup4\n        /* \"contracts/Mappings.sol\":626:649  whitelist[_userAddress] */\n      0xffffffffffffffffffffffffffffffffffffffff\n      and\n      0xffffffffffffffffffffffffffffffffffffffff\n      and\n      dup2\n      mstore\n      0x20\n      add\n      swap1\n      dup2\n      mstore\n      0x20\n      add\n      0x00\n      keccak256\n      0x00\n        /* \"contracts/Mappings.sol\":626:657  whitelist[_userAddress] = false */\n      0x0100\n      exp\n      dup2\n      sload\n      dup2\n      0xff\n      mul\n      not\n      and\n      swap1\n      dup4\n      iszero\n      iszero\n      mul\n      or\n      swap1\n      sstore\n      pop\n        /* \"contracts/Mappings.sol\":537:664  function removeFromWhitelist(address _userAddress) checkIsInWhiteList public  {... */\n      pop\n      jump\t// out\n        /* \"contracts/Mappings.sol\":83:124  mapping(address => bool) public whitelist */\n    tag_30:\n      mstore(0x20, 0x00)\n      dup1\n      0x00\n      mstore\n      keccak256(0x00, 0x40)\n      0x00\n      swap2\n      pop\n      sload\n      swap1\n      0x0100\n      exp\n      swap1\n      div\n      0xff\n      and\n      dup2\n      jump\t// out\n        /* \"contracts/Mappings.sol\":438:531  function setName(string memory _name) checkIsInWhiteList public {... */\n    tag_36:\n        /* \"contracts/Mappings.sol\":273:277  true */\n      0x01\n        /* \"contracts/Mappings.sol\":248:277  whitelist[msg.sender] == true */\n      iszero\n      iszero\n        /* \"contracts/Mappings.sol\":248:257  whitelist */\n      0x00\n        /* \"contracts/Mappings.sol\":248:269  whitelist[msg.sender] */\n      dup1\n        /* \"contracts/Mappings.sol\":258:268  msg.sender */\n      caller\n        /* \"contracts/Mappings.sol\":248:269  whitelist[msg.sender] */\n      0xffffffffffffffffffffffffffffffffffffffff\n      and\n      0xffffffffffffffffffffffffffffffffffffffff\n      and\n      dup2\n      mstore\n      0x20\n      add\n      swap1\n      dup2\n      mstore\n      0x20\n      add\n      0x00\n      keccak256\n      0x00\n      swap1\n      sload\n      swap1\n      0x0100\n      exp\n      swap1\n      div\n      0xff\n      and\n        /* \"contracts/Mappings.sol\":248:277  whitelist[msg.sender] == true */\n      iszero\n      iszero\n      eq\n        /* \"contracts/Mappings.sol\":240:307  require(whitelist[msg.sender] == true, \"Not part of the whitelist\") */\n      tag_53\n      jumpi\n      mload(0x40)\n      0x08c379a000000000000000000000000000000000000000000000000000000000\n      dup2\n      mstore\n      0x04\n      add\n      tag_54\n      swap1\n      tag_50\n      jump\t// in\n    tag_54:\n      mload(0x40)\n      dup1\n      swap2\n      sub\n      swap1\n      revert\n    tag_53:\n        /* \"contracts/Mappings.sol\":519:524  _name */\n      dup1\n        /* \"contracts/Mappings.sol\":512:516  name */\n      0x01\n        /* \"contracts/Mappings.sol\":512:524  name = _name */\n      swap1\n      dup2\n      tag_56\n      swap2\n      swap1\n      tag_57\n      jump\t// in\n    tag_56:\n      pop\n        /* \"contracts/Mappings.sol\":438:531  function setName(string memory _name) checkIsInWhiteList public {... */\n      pop\n      jump\t// out\n        /* \"contracts/Mappings.sol\":331:432  function addToWhitelist(address _userAddress) public  {... */\n    tag_39:\n        /* \"contracts/Mappings.sol\":421:425  true */\n      0x01\n        /* \"contracts/Mappings.sol\":395:404  whitelist */\n      0x00\n        /* \"contracts/Mappings.sol\":395:418  whitelist[_userAddress] */\n      dup1\n        /* \"contracts/Mappings.sol\":405:417  _userAddress */\n      dup4\n        /* \"contracts/Mappings.sol\":395:418  whitelist[_userAddress] */\n      0xffffffffffffffffffffffffffffffffffffffff\n      and\n      0xffffffffffffffffffffffffffffffffffffffff\n      and\n      dup2\n      mstore\n      0x20\n      add\n      swap1\n      dup2\n      mstore\n      0x20\n      add\n      0x00\n      keccak256\n      0x00\n        /* \"contracts/Mappings.sol\":395:425  whitelist[_userAddress] = true */\n      0x0100\n      exp\n      dup2\n      sload\n      dup2\n      0xff\n      mul\n      not\n      and\n      swap1\n      dup4\n      iszero\n      iszero\n      mul\n      or\n      swap1\n      sstore\n      pop\n        /* \"contracts/Mappings.sol\":331:432  function addToWhitelist(address _userAddress) public  {... */\n      pop\n      jump\t// out\n        /* \"#utility.yul\":7:106   */\n    tag_59:\n        /* \"#utility.yul\":59:65   */\n      0x00\n        /* \"#utility.yul\":93:98   */\n      dup2\n        /* \"#utility.yul\":87:99   */\n      mload\n        /* \"#utility.yul\":77:99   */\n      swap1\n      pop\n        /* \"#utility.yul\":7:106   */\n      swap2\n      swap1\n      pop\n      jump\t// out\n        /* \"#utility.yul\":112:281   */\n    tag_60:\n        /* \"#utility.yul\":196:207   */\n      0x00\n        /* \"#utility.yul\":230:236   */\n      dup3\n        /* \"#utility.yul\":225:228   */\n      dup3\n        /* \"#utility.yul\":218:237   */\n      mstore\n        /* \"#utility.yul\":270:274   */\n      0x20\n        /* \"#utility.yul\":265:268   */\n      dup3\n        /* \"#utility.yul\":261:275   */\n      add\n        /* \"#utility.yul\":246:275   */\n      swap1\n      pop\n        /* \"#utility.yul\":112:281   */\n      swap3\n      swap2\n      pop\n      pop\n      jump\t// out\n        /* \"#utility.yul\":287:426   */\n    tag_61:\n        /* \"#utility.yul\":376:382   */\n      dup3\n        /* \"#utility.yul\":371:374   */\n      dup2\n        /* \"#utility.yul\":366:369   */\n      dup4\n        /* \"#utility.yul\":360:383   */\n      mcopy\n        /* \"#utility.yul\":417:418   */\n      0x00\n        /* \"#utility.yul\":408:414   */\n      dup4\n        /* \"#utility.yul\":403:406   */\n      dup4\n        /* \"#utility.yul\":399:415   */\n      add\n        /* \"#utility.yul\":392:419   */\n      mstore\n        /* \"#utility.yul\":287:426   */\n      pop\n      pop\n      pop\n      jump\t// out\n        /* \"#utility.yul\":432:534   */\n    tag_62:\n        /* \"#utility.yul\":473:479   */\n      0x00\n        /* \"#utility.yul\":524:526   */\n      0x1f\n        /* \"#utility.yul\":520:527   */\n      not\n        /* \"#utility.yul\":515:517   */\n      0x1f\n        /* \"#utility.yul\":508:513   */\n      dup4\n        /* \"#utility.yul\":504:518   */\n      add\n        /* \"#utility.yul\":500:528   */\n      and\n        /* \"#utility.yul\":490:528   */\n      swap1\n      pop\n        /* \"#utility.yul\":432:534   */\n      swap2\n      swap1\n      pop\n      jump\t// out\n        /* \"#utility.yul\":540:917   */\n    tag_63:\n        /* \"#utility.yul\":628:631   */\n      0x00\n        /* \"#utility.yul\":656:695   */\n      tag_110\n        /* \"#utility.yul\":689:694   */\n      dup3\n        /* \"#utility.yul\":656:695   */\n      tag_59\n      jump\t// in\n    tag_110:\n        /* \"#utility.yul\":711:782   */\n      tag_111\n        /* \"#utility.yul\":775:781   */\n      dup2\n        /* \"#utility.yul\":770:773   */\n      dup6\n        /* \"#utility.yul\":711:782   */\n      tag_60\n      jump\t// in\n    tag_111:\n        /* \"#utility.yul\":704:782   */\n      swap4\n      pop\n        /* \"#utility.yul\":791:856   */\n      tag_112\n        /* \"#utility.yul\":849:855   */\n      dup2\n        /* \"#utility.yul\":844:847   */\n      dup6\n        /* \"#utility.yul\":837:841   */\n      0x20\n        /* \"#utility.yul\":830:835   */\n      dup7\n        /* \"#utility.yul\":826:842   */\n      add\n        /* \"#utility.yul\":791:856   */\n      tag_61\n      jump\t// in\n    tag_112:\n        /* \"#utility.yul\":881:910   */\n      tag_113\n        /* \"#utility.yul\":903:909   */\n      dup2\n        /* \"#utility.yul\":881:910   */\n      tag_62\n      jump\t// in\n    tag_113:\n        /* \"#utility.yul\":876:879   */\n      dup5\n        /* \"#utility.yul\":872:911   */\n      add\n        /* \"#utility.yul\":865:911   */\n      swap2\n      pop\n        /* \"#utility.yul\":632:917   */\n      pop\n        /* \"#utility.yul\":540:917   */\n      swap3\n      swap2\n      pop\n      pop\n      jump\t// out\n        /* \"#utility.yul\":923:1236   */\n    tag_14:\n        /* \"#utility.yul\":1036:1040   */\n      0x00\n        /* \"#utility.yul\":1074:1076   */\n      0x20\n        /* \"#utility.yul\":1063:1072   */\n      dup3\n        /* \"#utility.yul\":1059:1077   */\n      add\n        /* \"#utility.yul\":1051:1077   */\n      swap1\n      pop\n        /* \"#utility.yul\":1123:1132   */\n      dup2\n        /* \"#utility.yul\":1117:1121   */\n      dup2\n        /* \"#utility.yul\":1113:1133   */\n      sub\n        /* \"#utility.yul\":1109:1110   */\n      0x00\n        /* \"#utility.yul\":1098:1107   */\n      dup4\n        /* \"#utility.yul\":1094:1111   */\n      add\n        /* \"#utility.yul\":1087:1134   */\n      mstore\n        /* \"#utility.yul\":1151:1229   */\n      tag_115\n        /* \"#utility.yul\":1224:1228   */\n      dup2\n        /* \"#utility.yul\":1215:1221   */\n      dup5\n        /* \"#utility.yul\":1151:1229   */\n      tag_63\n      jump\t// in\n    tag_115:\n        /* \"#utility.yul\":1143:1229   */\n      swap1\n      pop\n        /* \"#utility.yul\":923:1236   */\n      swap3\n      swap2\n      pop\n      pop\n      jump\t// out\n        /* \"#utility.yul\":1242:1317   */\n    tag_64:\n        /* \"#utility.yul\":1275:1281   */\n      0x00\n        /* \"#utility.yul\":1308:1310   */\n      0x40\n        /* \"#utility.yul\":1302:1311   */\n      mload\n        /* \"#utility.yul\":1292:1311   */\n      swap1\n      pop\n        /* \"#utility.yul\":1242:1317   */\n      swap1\n      jump\t// out\n        /* \"#utility.yul\":1323:1440   */\n    tag_65:\n        /* \"#utility.yul\":1432:1433   */\n      0x00\n        /* \"#utility.yul\":1429:1430   */\n      dup1\n        /* \"#utility.yul\":1422:1434   */\n      revert\n        /* \"#utility.yul\":1446:1563   */\n    tag_66:\n        /* \"#utility.yul\":1555:1556   */\n      0x00\n        /* \"#utility.yul\":1552:1553   */\n      dup1\n        /* \"#utility.yul\":1545:1557   */\n      revert\n        /* \"#utility.yul\":1569:1695   */\n    tag_67:\n        /* \"#utility.yul\":1606:1613   */\n      0x00\n        /* \"#utility.yul\":1646:1688   */\n      0xffffffffffffffffffffffffffffffffffffffff\n        /* \"#utility.yul\":1639:1644   */\n      dup3\n        /* \"#utility.yul\":1635:1689   */\n      and\n        /* \"#utility.yul\":1624:1689   */\n      swap1\n      pop\n        /* \"#utility.yul\":1569:1695   */\n      swap2\n      swap1\n      pop\n      jump\t// out\n        /* \"#utility.yul\":1701:1797   */\n    tag_68:\n        /* \"#utility.yul\":1738:1745   */\n      0x00\n        /* \"#utility.yul\":1767:1791   */\n      tag_121\n        /* \"#utility.yul\":1785:1790   */\n      dup3\n        /* \"#utility.yul\":1767:1791   */\n      tag_67\n      jump\t// in\n    tag_121:\n        /* \"#utility.yul\":1756:1791   */\n      swap1\n      pop\n        /* \"#utility.yul\":1701:1797   */\n      swap2\n      swap1\n      pop\n      jump\t// out\n        /* \"#utility.yul\":1803:1925   */\n    tag_69:\n        /* \"#utility.yul\":1876:1900   */\n      tag_123\n        /* \"#utility.yul\":1894:1899   */\n      dup2\n        /* \"#utility.yul\":1876:1900   */\n      tag_68\n      jump\t// in\n    tag_123:\n        /* \"#utility.yul\":1869:1874   */\n      dup2\n        /* \"#utility.yul\":1866:1901   */\n      eq\n        /* \"#utility.yul\":1856:1919   */\n      tag_124\n      jumpi\n        /* \"#utility.yul\":1915:1916   */\n      0x00\n        /* \"#utility.yul\":1912:1913   */\n      dup1\n        /* \"#utility.yul\":1905:1917   */\n      revert\n        /* \"#utility.yul\":1856:1919   */\n    tag_124:\n        /* \"#utility.yul\":1803:1925   */\n      pop\n      jump\t// out\n        /* \"#utility.yul\":1931:2070   */\n    tag_70:\n        /* \"#utility.yul\":1977:1982   */\n      0x00\n        /* \"#utility.yul\":2015:2021   */\n      dup2\n        /* \"#utility.yul\":2002:2022   */\n      calldataload\n        /* \"#utility.yul\":1993:2022   */\n      swap1\n      pop\n        /* \"#utility.yul\":2031:2064   */\n      tag_126\n        /* \"#utility.yul\":2058:2063   */\n      dup2\n        /* \"#utility.yul\":2031:2064   */\n      tag_69\n      jump\t// in\n    tag_126:\n        /* \"#utility.yul\":1931:2070   */\n      swap3\n      swap2\n      pop\n      pop\n      jump\t// out\n        /* \"#utility.yul\":2076:2153   */\n    tag_71:\n        /* \"#utility.yul\":2113:2120   */\n      0x00\n        /* \"#utility.yul\":2142:2147   */\n      dup2\n        /* \"#utility.yul\":2131:2147   */\n      swap1\n      pop\n        /* \"#utility.yul\":2076:2153   */\n      swap2\n      swap1\n      pop\n      jump\t// out\n        /* \"#utility.yul\":2159:2281   */\n    tag_72:\n        /* \"#utility.yul\":2232:2256   */\n      tag_129\n        /* \"#utility.yul\":2250:2255   */\n      dup2\n        /* \"#utility.yul\":2232:2256   */\n      tag_71\n      jump\t// in\n    tag_129:\n        /* \"#utility.yul\":2225:2230   */\n      dup2\n        /* \"#utility.yul\":2222:2257   */\n      eq\n        /* \"#utility.yul\":2212:2275   */\n      tag_130\n      jumpi\n        /* \"#utility.yul\":2271:2272   */\n      0x00\n        /* \"#utility.yul\":2268:2269   */\n      dup1\n        /* \"#utility.yul\":2261:2273   */\n      revert\n        /* \"#utility.yul\":2212:2275   */\n    tag_130:\n        /* \"#utility.yul\":2159:2281   */\n      pop\n      jump\t// out\n        /* \"#utility.yul\":2287:2426   */\n    tag_73:\n        /* \"#utility.yul\":2333:2338   */\n      0x00\n        /* \"#utility.yul\":2371:2377   */\n      dup2\n        /* \"#utility.yul\":2358:2378   */\n      calldataload\n        /* \"#utility.yul\":2349:2378   */\n      swap1\n      pop\n        /* \"#utility.yul\":2387:2420   */\n      tag_132\n        /* \"#utility.yul\":2414:2419   */\n      dup2\n        /* \"#utility.yul\":2387:2420   */\n      tag_72\n      jump\t// in\n    tag_132:\n        /* \"#utility.yul\":2287:2426   */\n      swap3\n      swap2\n      pop\n      pop\n      jump\t// out\n        /* \"#utility.yul\":2432:2906   */\n    tag_17:\n        /* \"#utility.yul\":2500:2506   */\n      0x00\n        /* \"#utility.yul\":2508:2514   */\n      dup1\n        /* \"#utility.yul\":2557:2559   */\n      0x40\n        /* \"#utility.yul\":2545:2554   */\n      dup4\n        /* \"#utility.yul\":2536:2543   */\n      dup6\n        /* \"#utility.yul\":2532:2555   */\n      sub\n        /* \"#utility.yul\":2528:2560   */\n      slt\n        /* \"#utility.yul\":2525:2644   */\n      iszero\n      tag_134\n      jumpi\n        /* \"#utility.yul\":2563:2642   */\n      tag_135\n      tag_65\n      jump\t// in\n    tag_135:\n        /* \"#utility.yul\":2525:2644   */\n    tag_134:\n        /* \"#utility.yul\":2683:2684   */\n      0x00\n        /* \"#utility.yul\":2708:2761   */\n      tag_136\n        /* \"#utility.yul\":2753:2760   */\n      dup6\n        /* \"#utility.yul\":2744:2750   */\n      dup3\n        /* \"#utility.yul\":2733:2742   */\n      dup7\n        /* \"#utility.yul\":2729:2751   */\n      add\n        /* \"#utility.yul\":2708:2761   */\n      tag_70\n      jump\t// in\n    tag_136:\n        /* \"#utility.yul\":2698:2761   */\n      swap3\n      pop\n        /* \"#utility.yul\":2654:2771   */\n      pop\n        /* \"#utility.yul\":2810:2812   */\n      0x20\n        /* \"#utility.yul\":2836:2889   */\n      tag_137\n        /* \"#utility.yul\":2881:2888   */\n      dup6\n        /* \"#utility.yul\":2872:2878   */\n      dup3\n        /* \"#utility.yul\":2861:2870   */\n      dup7\n        /* \"#utility.yul\":2857:2879   */\n      add\n        /* \"#utility.yul\":2836:2889   */\n      tag_73\n      jump\t// in\n    tag_137:\n        /* \"#utility.yul\":2826:2889   */\n      swap2\n      pop\n        /* \"#utility.yul\":2781:2899   */\n      pop\n        /* \"#utility.yul\":2432:2906   */\n      swap3\n      pop\n      swap3\n      swap1\n      pop\n      jump\t// out\n        /* \"#utility.yul\":2912:3241   */\n    tag_21:\n        /* \"#utility.yul\":2971:2977   */\n      0x00\n        /* \"#utility.yul\":3020:3022   */\n      0x20\n        /* \"#utility.yul\":3008:3017   */\n      dup3\n        /* \"#utility.yul\":2999:3006   */\n      dup5\n        /* \"#utility.yul\":2995:3018   */\n      sub\n        /* \"#utility.yul\":2991:3023   */\n      slt\n        /* \"#utility.yul\":2988:3107   */\n      iszero\n      tag_139\n      jumpi\n        /* \"#utility.yul\":3026:3105   */\n      tag_140\n      tag_65\n      jump\t// in\n    tag_140:\n        /* \"#utility.yul\":2988:3107   */\n    tag_139:\n        /* \"#utility.yul\":3146:3147   */\n      0x00\n        /* \"#utility.yul\":3171:3224   */\n      tag_141\n        /* \"#utility.yul\":3216:3223   */\n      dup5\n        /* \"#utility.yul\":3207:3213   */\n      dup3\n        /* \"#utility.yul\":3196:3205   */\n      dup6\n        /* \"#utility.yul\":3192:3214   */\n      add\n        /* \"#utility.yul\":3171:3224   */\n      tag_70\n      jump\t// in\n    tag_141:\n        /* \"#utility.yul\":3161:3224   */\n      swap2\n      pop\n        /* \"#utility.yul\":3117:3234   */\n      pop\n        /* \"#utility.yul\":2912:3241   */\n      swap3\n      swap2\n      pop\n      pop\n      jump\t// out\n        /* \"#utility.yul\":3247:3365   */\n    tag_74:\n        /* \"#utility.yul\":3334:3358   */\n      tag_143\n        /* \"#utility.yul\":3352:3357   */\n      dup2\n        /* \"#utility.yul\":3334:3358   */\n      tag_71\n      jump\t// in\n    tag_143:\n        /* \"#utility.yul\":3329:3332   */\n      dup3\n        /* \"#utility.yul\":3322:3359   */\n      mstore\n        /* \"#utility.yul\":3247:3365   */\n      pop\n      pop\n      jump\t// out\n        /* \"#utility.yul\":3371:3593   */\n    tag_24:\n        /* \"#utility.yul\":3464:3468   */\n      0x00\n        /* \"#utility.yul\":3502:3504   */\n      0x20\n        /* \"#utility.yul\":3491:3500   */\n      dup3\n        /* \"#utility.yul\":3487:3505   */\n      add\n        /* \"#utility.yul\":3479:3505   */\n      swap1\n      pop\n        /* \"#utility.yul\":3515:3586   */\n      tag_145\n        /* \"#utility.yul\":3583:3584   */\n      0x00\n        /* \"#utility.yul\":3572:3581   */\n      dup4\n        /* \"#utility.yul\":3568:3585   */\n      add\n        /* \"#utility.yul\":3559:3565   */\n      dup5\n        /* \"#utility.yul\":3515:3586   */\n      tag_74\n      jump\t// in\n    tag_145:\n        /* \"#utility.yul\":3371:3593   */\n      swap3\n      swap2\n      pop\n      pop\n      jump\t// out\n        /* \"#utility.yul\":3599:3689   */\n    tag_75:\n        /* \"#utility.yul\":3633:3640   */\n      0x00\n        /* \"#utility.yul\":3676:3681   */\n      dup2\n        /* \"#utility.yul\":3669:3682   */\n      iszero\n        /* \"#utility.yul\":3662:3683   */\n      iszero\n        /* \"#utility.yul\":3651:3683   */\n      swap1\n      pop\n        /* \"#utility.yul\":3599:3689   */\n      swap2\n      swap1\n      pop\n      jump\t// out\n        /* \"#utility.yul\":3695:3804   */\n    tag_76:\n        /* \"#utility.yul\":3776:3797   */\n      tag_148\n        /* \"#utility.yul\":3791:3796   */\n      dup2\n        /* \"#utility.yul\":3776:3797   */\n      tag_75\n      jump\t// in\n    tag_148:\n        /* \"#utility.yul\":3771:3774   */\n      dup3\n        /* \"#utility.yul\":3764:3798   */\n      mstore\n        /* \"#utility.yul\":3695:3804   */\n      pop\n      pop\n      jump\t// out\n        /* \"#utility.yul\":3810:4020   */\n    tag_32:\n        /* \"#utility.yul\":3897:3901   */\n      0x00\n        /* \"#utility.yul\":3935:3937   */\n      0x20\n        /* \"#utility.yul\":3924:3933   */\n      dup3\n        /* \"#utility.yul\":3920:3938   */\n      add\n        /* \"#utility.yul\":3912:3938   */\n      swap1\n      pop\n        /* \"#utility.yul\":3948:4013   */\n      tag_150\n        /* \"#utility.yul\":4010:4011   */\n      0x00\n        /* \"#utility.yul\":3999:4008   */\n      dup4\n        /* \"#utility.yul\":3995:4012   */\n      add\n        /* \"#utility.yul\":3986:3992   */\n      dup5\n        /* \"#utility.yul\":3948:4013   */\n      tag_76\n      jump\t// in\n    tag_150:\n        /* \"#utility.yul\":3810:4020   */\n      swap3\n      swap2\n      pop\n      pop\n      jump\t// out\n        /* \"#utility.yul\":4026:4143   */\n    tag_77:\n        /* \"#utility.yul\":4135:4136   */\n      0x00\n        /* \"#utility.yul\":4132:4133   */\n      dup1\n        /* \"#utility.yul\":4125:4137   */\n      revert\n        /* \"#utility.yul\":4149:4266   */\n    tag_78:\n        /* \"#utility.yul\":4258:4259   */\n      0x00\n        /* \"#utility.yul\":4255:4256   */\n      dup1\n        /* \"#utility.yul\":4248:4260   */\n      revert\n        /* \"#utility.yul\":4272:4452   */\n    tag_79:\n        /* \"#utility.yul\":4320:4397   */\n      0x4e487b7100000000000000000000000000000000000000000000000000000000\n        /* \"#utility.yul\":4317:4318   */\n      0x00\n        /* \"#utility.yul\":4310:4398   */\n      mstore\n        /* \"#utility.yul\":4417:4421   */\n      0x41\n        /* \"#utility.yul\":4414:4415   */\n      0x04\n        /* \"#utility.yul\":4407:4422   */\n      mstore\n        /* \"#utility.yul\":4441:4445   */\n      0x24\n        /* \"#utility.yul\":4438:4439   */\n      0x00\n        /* \"#utility.yul\":4431:4446   */\n      revert\n        /* \"#utility.yul\":4458:4739   */\n    tag_80:\n        /* \"#utility.yul\":4541:4568   */\n      tag_155\n        /* \"#utility.yul\":4563:4567   */\n      dup3\n        /* \"#utility.yul\":4541:4568   */\n      tag_62\n      jump\t// in\n    tag_155:\n        /* \"#utility.yul\":4533:4539   */\n      dup2\n        /* \"#utility.yul\":4529:4569   */\n      add\n        /* \"#utility.yul\":4671:4677   */\n      dup2\n        /* \"#utility.yul\":4659:4669   */\n      dup2\n        /* \"#utility.yul\":4656:4678   */\n      lt\n        /* \"#utility.yul\":4635:4653   */\n      0xffffffffffffffff\n        /* \"#utility.yul\":4623:4633   */\n      dup3\n        /* \"#utility.yul\":4620:4654   */\n      gt\n        /* \"#utility.yul\":4617:4679   */\n      or\n        /* \"#utility.yul\":4614:4702   */\n      iszero\n      tag_156\n      jumpi\n        /* \"#utility.yul\":4682:4700   */\n      tag_157\n      tag_79\n      jump\t// in\n    tag_157:\n        /* \"#utility.yul\":4614:4702   */\n    tag_156:\n        /* \"#utility.yul\":4722:4732   */\n      dup1\n        /* \"#utility.yul\":4718:4720   */\n      0x40\n        /* \"#utility.yul\":4711:4733   */\n      mstore\n        /* \"#utility.yul\":4501:4739   */\n      pop\n        /* \"#utility.yul\":4458:4739   */\n      pop\n      pop\n      jump\t// out\n        /* \"#utility.yul\":4745:4874   */\n    tag_81:\n        /* \"#utility.yul\":4779:4785   */\n      0x00\n        /* \"#utility.yul\":4806:4826   */\n      tag_159\n      tag_64\n      jump\t// in\n    tag_159:\n        /* \"#utility.yul\":4796:4826   */\n      swap1\n      pop\n        /* \"#utility.yul\":4835:4868   */\n      tag_160\n        /* \"#utility.yul\":4863:4867   */\n      dup3\n        /* \"#utility.yul\":4855:4861   */\n      dup3\n        /* \"#utility.yul\":4835:4868   */\n      tag_80\n      jump\t// in\n    tag_160:\n        /* \"#utility.yul\":4745:4874   */\n      swap2\n      swap1\n      pop\n      jump\t// out\n        /* \"#utility.yul\":4880:5188   */\n    tag_82:\n        /* \"#utility.yul\":4942:4946   */\n      0x00\n        /* \"#utility.yul\":5032:5050   */\n      0xffffffffffffffff\n        /* \"#utility.yul\":5024:5030   */\n      dup3\n        /* \"#utility.yul\":5021:5051   */\n      gt\n        /* \"#utility.yul\":5018:5074   */\n      iszero\n      tag_162\n      jumpi\n        /* \"#utility.yul\":5054:5072   */\n      tag_163\n      tag_79\n      jump\t// in\n    tag_163:\n        /* \"#utility.yul\":5018:5074   */\n    tag_162:\n        /* \"#utility.yul\":5092:5121   */\n      tag_164\n        /* \"#utility.yul\":5114:5120   */\n      dup3\n        /* \"#utility.yul\":5092:5121   */\n      tag_62\n      jump\t// in\n    tag_164:\n        /* \"#utility.yul\":5084:5121   */\n      swap1\n      pop\n        /* \"#utility.yul\":5176:5180   */\n      0x20\n        /* \"#utility.yul\":5170:5174   */\n      dup2\n        /* \"#utility.yul\":5166:5181   */\n      add\n        /* \"#utility.yul\":5158:5181   */\n      swap1\n      pop\n        /* \"#utility.yul\":4880:5188   */\n      swap2\n      swap1\n      pop\n      jump\t// out\n        /* \"#utility.yul\":5194:5342   */\n    tag_83:\n        /* \"#utility.yul\":5292:5298   */\n      dup3\n        /* \"#utility.yul\":5287:5290   */\n      dup2\n        /* \"#utility.yul\":5282:5285   */\n      dup4\n        /* \"#utility.yul\":5269:5299   */\n      calldatacopy\n        /* \"#utility.yul\":5333:5334   */\n      0x00\n        /* \"#utility.yul\":5324:5330   */\n      dup4\n        /* \"#utility.yul\":5319:5322   */\n      dup4\n        /* \"#utility.yul\":5315:5331   */\n      add\n        /* \"#utility.yul\":5308:5335   */\n      mstore\n        /* \"#utility.yul\":5194:5342   */\n      pop\n      pop\n      pop\n      jump\t// out\n        /* \"#utility.yul\":5348:5773   */\n    tag_84:\n        /* \"#utility.yul\":5426:5431   */\n      0x00\n        /* \"#utility.yul\":5451:5517   */\n      tag_167\n        /* \"#utility.yul\":5467:5516   */\n      tag_168\n        /* \"#utility.yul\":5509:5515   */\n      dup5\n        /* \"#utility.yul\":5467:5516   */\n      tag_82\n      jump\t// in\n    tag_168:\n        /* \"#utility.yul\":5451:5517   */\n      tag_81\n      jump\t// in\n    tag_167:\n        /* \"#utility.yul\":5442:5517   */\n      swap1\n      pop\n        /* \"#utility.yul\":5540:5546   */\n      dup3\n        /* \"#utility.yul\":5533:5538   */\n      dup2\n        /* \"#utility.yul\":5526:5547   */\n      mstore\n        /* \"#utility.yul\":5578:5582   */\n      0x20\n        /* \"#utility.yul\":5571:5576   */\n      dup2\n        /* \"#utility.yul\":5567:5583   */\n      add\n        /* \"#utility.yul\":5616:5619   */\n      dup5\n        /* \"#utility.yul\":5607:5613   */\n      dup5\n        /* \"#utility.yul\":5602:5605   */\n      dup5\n        /* \"#utility.yul\":5598:5614   */\n      add\n        /* \"#utility.yul\":5595:5620   */\n      gt\n        /* \"#utility.yul\":5592:5704   */\n      iszero\n      tag_169\n      jumpi\n        /* \"#utility.yul\":5623:5702   */\n      tag_170\n      tag_78\n      jump\t// in\n    tag_170:\n        /* \"#utility.yul\":5592:5704   */\n    tag_169:\n        /* \"#utility.yul\":5713:5767   */\n      tag_171\n        /* \"#utility.yul\":5760:5766   */\n      dup5\n        /* \"#utility.yul\":5755:5758   */\n      dup3\n        /* \"#utility.yul\":5750:5753   */\n      dup6\n        /* \"#utility.yul\":5713:5767   */\n      tag_83\n      jump\t// in\n    tag_171:\n        /* \"#utility.yul\":5432:5773   */\n      pop\n        /* \"#utility.yul\":5348:5773   */\n      swap4\n      swap3\n      pop\n      pop\n      pop\n      jump\t// out\n        /* \"#utility.yul\":5793:6133   */\n    tag_85:\n        /* \"#utility.yul\":5849:5854   */\n      0x00\n        /* \"#utility.yul\":5898:5901   */\n      dup3\n        /* \"#utility.yul\":5891:5895   */\n      0x1f\n        /* \"#utility.yul\":5883:5889   */\n      dup4\n        /* \"#utility.yul\":5879:5896   */\n      add\n        /* \"#utility.yul\":5875:5902   */\n      slt\n        /* \"#utility.yul\":5865:5987   */\n      tag_173\n      jumpi\n        /* \"#utility.yul\":5906:5985   */\n      tag_174\n      tag_77\n      jump\t// in\n    tag_174:\n        /* \"#utility.yul\":5865:5987   */\n    tag_173:\n        /* \"#utility.yul\":6023:6029   */\n      dup2\n        /* \"#utility.yul\":6010:6030   */\n      calldataload\n        /* \"#utility.yul\":6048:6127   */\n      tag_175\n        /* \"#utility.yul\":6123:6126   */\n      dup5\n        /* \"#utility.yul\":6115:6121   */\n      dup3\n        /* \"#utility.yul\":6108:6112   */\n      0x20\n        /* \"#utility.yul\":6100:6106   */\n      dup7\n        /* \"#utility.yul\":6096:6113   */\n      add\n        /* \"#utility.yul\":6048:6127   */\n      tag_84\n      jump\t// in\n    tag_175:\n        /* \"#utility.yul\":6039:6127   */\n      swap2\n      pop\n        /* \"#utility.yul\":5855:6133   */\n      pop\n        /* \"#utility.yul\":5793:6133   */\n      swap3\n      swap2\n      pop\n      pop\n      jump\t// out\n        /* \"#utility.yul\":6139:6648   */\n    tag_35:\n        /* \"#utility.yul\":6208:6214   */\n      0x00\n        /* \"#utility.yul\":6257:6259   */\n      0x20\n        /* \"#utility.yul\":6245:6254   */\n      dup3\n        /* \"#utility.yul\":6236:6243   */\n      dup5\n        /* \"#utility.yul\":6232:6255   */\n      sub\n        /* \"#utility.yul\":6228:6260   */\n      slt\n        /* \"#utility.yul\":6225:6344   */\n      iszero\n      tag_177\n      jumpi\n        /* \"#utility.yul\":6263:6342   */\n      tag_178\n      tag_65\n      jump\t// in\n    tag_178:\n        /* \"#utility.yul\":6225:6344   */\n    tag_177:\n        /* \"#utility.yul\":6411:6412   */\n      0x00\n        /* \"#utility.yul\":6400:6409   */\n      dup3\n        /* \"#utility.yul\":6396:6413   */\n      add\n        /* \"#utility.yul\":6383:6414   */\n      calldataload\n        /* \"#utility.yul\":6441:6459   */\n      0xffffffffffffffff\n        /* \"#utility.yul\":6433:6439   */\n      dup2\n        /* \"#utility.yul\":6430:6460   */\n      gt\n        /* \"#utility.yul\":6427:6544   */\n      iszero\n      tag_179\n      jumpi\n        /* \"#utility.yul\":6463:6542   */\n      tag_180\n      tag_66\n      jump\t// in\n    tag_180:\n        /* \"#utility.yul\":6427:6544   */\n    tag_179:\n        /* \"#utility.yul\":6568:6631   */\n      tag_181\n        /* \"#utility.yul\":6623:6630   */\n      dup5\n        /* \"#utility.yul\":6614:6620   */\n      dup3\n        /* \"#utility.yul\":6603:6612   */\n      dup6\n        /* \"#utility.yul\":6599:6621   */\n      add\n        /* \"#utility.yul\":6568:6631   */\n      tag_85\n      jump\t// in\n    tag_181:\n        /* \"#utility.yul\":6558:6631   */\n      swap2\n      pop\n        /* \"#utility.yul\":6354:6641   */\n      pop\n        /* \"#utility.yul\":6139:6648   */\n      swap3\n      swap2\n      pop\n      pop\n      jump\t// out\n        /* \"#utility.yul\":6654:6834   */\n    tag_86:\n        /* \"#utility.yul\":6702:6779   */\n      0x4e487b7100000000000000000000000000000000000000000000000000000000\n        /* \"#utility.yul\":6699:6700   */\n      0x00\n        /* \"#utility.yul\":6692:6780   */\n      mstore\n        /* \"#utility.yul\":6799:6803   */\n      0x22\n        /* \"#utility.yul\":6796:6797   */\n      0x04\n        /* \"#utility.yul\":6789:6804   */\n      mstore\n        /* \"#utility.yul\":6823:6827   */\n      0x24\n        /* \"#utility.yul\":6820:6821   */\n      0x00\n        /* \"#utility.yul\":6813:6828   */\n      revert\n        /* \"#utility.yul\":6840:7160   */\n    tag_41:\n        /* \"#utility.yul\":6884:6890   */\n      0x00\n        /* \"#utility.yul\":6921:6922   */\n      0x02\n        /* \"#utility.yul\":6915:6919   */\n      dup3\n        /* \"#utility.yul\":6911:6923   */\n      div\n        /* \"#utility.yul\":6901:6923   */\n      swap1\n      pop\n        /* \"#utility.yul\":6968:6969   */\n      0x01\n        /* \"#utility.yul\":6962:6966   */\n      dup3\n        /* \"#utility.yul\":6958:6970   */\n      and\n        /* \"#utility.yul\":6989:7007   */\n      dup1\n        /* \"#utility.yul\":6979:7060   */\n      tag_184\n      jumpi\n        /* \"#utility.yul\":7045:7049   */\n      0x7f\n        /* \"#utility.yul\":7037:7043   */\n      dup3\n        /* \"#utility.yul\":7033:7050   */\n      and\n        /* \"#utility.yul\":7023:7050   */\n      swap2\n      pop\n        /* \"#utility.yul\":6979:7060   */\n    tag_184:\n        /* \"#utility.yul\":7107:7109   */\n      0x20\n        /* \"#utility.yul\":7099:7105   */\n      dup3\n        /* \"#utility.yul\":7096:7110   */\n      lt\n        /* \"#utility.yul\":7076:7094   */\n      dup2\n        /* \"#utility.yul\":7073:7111   */\n      sub\n        /* \"#utility.yul\":7070:7154   */\n      tag_185\n      jumpi\n        /* \"#utility.yul\":7126:7144   */\n      tag_186\n      tag_86\n      jump\t// in\n    tag_186:\n        /* \"#utility.yul\":7070:7154   */\n    tag_185:\n        /* \"#utility.yul\":6891:7160   */\n      pop\n        /* \"#utility.yul\":6840:7160   */\n      swap2\n      swap1\n      pop\n      jump\t// out\n        /* \"#utility.yul\":7166:7341   */\n    tag_87:\n        /* \"#utility.yul\":7306:7333   */\n      0x4e6f742070617274206f66207468652077686974656c69737400000000000000\n        /* \"#utility.yul\":7302:7303   */\n      0x00\n        /* \"#utility.yul\":7294:7300   */\n      dup3\n        /* \"#utility.yul\":7290:7304   */\n      add\n        /* \"#utility.yul\":7283:7334   */\n      mstore\n        /* \"#utility.yul\":7166:7341   */\n      pop\n      jump\t// out\n        /* \"#utility.yul\":7347:7713   */\n    tag_88:\n        /* \"#utility.yul\":7489:7492   */\n      0x00\n        /* \"#utility.yul\":7510:7577   */\n      tag_189\n        /* \"#utility.yul\":7574:7576   */\n      0x19\n        /* \"#utility.yul\":7569:7572   */\n      dup4\n        /* \"#utility.yul\":7510:7577   */\n      tag_60\n      jump\t// in\n    tag_189:\n        /* \"#utility.yul\":7503:7577   */\n      swap2\n      pop\n        /* \"#utility.yul\":7586:7679   */\n      tag_190\n        /* \"#utility.yul\":7675:7678   */\n      dup3\n        /* \"#utility.yul\":7586:7679   */\n      tag_87\n      jump\t// in\n    tag_190:\n        /* \"#utility.yul\":7704:7706   */\n      0x20\n        /* \"#utility.yul\":7699:7702   */\n      dup3\n        /* \"#utility.yul\":7695:7707   */\n      add\n        /* \"#utility.yul\":7688:7707   */\n      swap1\n      pop\n        /* \"#utility.yul\":7347:7713   */\n      swap2\n      swap1\n      pop\n      jump\t// out\n        /* \"#utility.yul\":7719:8138   */\n    tag_50:\n        /* \"#utility.yul\":7885:7889   */\n      0x00\n        /* \"#utility.yul\":7923:7925   */\n      0x20\n        /* \"#utility.yul\":7912:7921   */\n      dup3\n        /* \"#utility.yul\":7908:7926   */\n      add\n        /* \"#utility.yul\":7900:7926   */\n      swap1\n      pop\n        /* \"#utility.yul\":7972:7981   */\n      dup2\n        /* \"#utility.yul\":7966:7970   */\n      dup2\n        /* \"#utility.yul\":7962:7982   */\n      sub\n        /* \"#utility.yul\":7958:7959   */\n      0x00\n        /* \"#utility.yul\":7947:7956   */\n      dup4\n        /* \"#utility.yul\":7943:7960   */\n      add\n        /* \"#utility.yul\":7936:7983   */\n      mstore\n        /* \"#utility.yul\":8000:8131   */\n      tag_192\n        /* \"#utility.yul\":8126:8130   */\n      dup2\n        /* \"#utility.yul\":8000:8131   */\n      tag_88\n      jump\t// in\n    tag_192:\n        /* \"#utility.yul\":7992:8131   */\n      swap1\n      pop\n        /* \"#utility.yul\":7719:8138   */\n      swap2\n      swap1\n      pop\n      jump\t// out\n        /* \"#utility.yul\":8144:8285   */\n    tag_89:\n        /* \"#utility.yul\":8193:8197   */\n      0x00\n        /* \"#utility.yul\":8216:8219   */\n      dup2\n        /* \"#utility.yul\":8208:8219   */\n      swap1\n      pop\n        /* \"#utility.yul\":8239:8242   */\n      dup2\n        /* \"#utility.yul\":8236:8237   */\n      0x00\n        /* \"#utility.yul\":8229:8243   */\n      mstore\n        /* \"#utility.yul\":8273:8277   */\n      0x20\n        /* \"#utility.yul\":8270:8271   */\n      0x00\n        /* \"#utility.yul\":8260:8278   */\n      keccak256\n        /* \"#utility.yul\":8252:8278   */\n      swap1\n      pop\n        /* \"#utility.yul\":8144:8285   */\n      swap2\n      swap1\n      pop\n      jump\t// out\n        /* \"#utility.yul\":8291:8384   */\n    tag_90:\n        /* \"#utility.yul\":8328:8334   */\n      0x00\n        /* \"#utility.yul\":8375:8377   */\n      0x20\n        /* \"#utility.yul\":8370:8372   */\n      0x1f\n        /* \"#utility.yul\":8363:8368   */\n      dup4\n        /* \"#utility.yul\":8359:8373   */\n      add\n        /* \"#utility.yul\":8355:8378   */\n      div\n        /* \"#utility.yul\":8345:8378   */\n      swap1\n      pop\n        /* \"#utility.yul\":8291:8384   */\n      swap2\n      swap1\n      pop\n      jump\t// out\n        /* \"#utility.yul\":8390:8497   */\n    tag_91:\n        /* \"#utility.yul\":8434:8442   */\n      0x00\n        /* \"#utility.yul\":8484:8489   */\n      dup3\n        /* \"#utility.yul\":8478:8482   */\n      dup3\n        /* \"#utility.yul\":8474:8490   */\n      shl\n        /* \"#utility.yul\":8453:8490   */\n      swap1\n      pop\n        /* \"#utility.yul\":8390:8497   */\n      swap3\n      swap2\n      pop\n      pop\n      jump\t// out\n        /* \"#utility.yul\":8503:8896   */\n    tag_92:\n        /* \"#utility.yul\":8572:8578   */\n      0x00\n        /* \"#utility.yul\":8622:8623   */\n      0x08\n        /* \"#utility.yul\":8610:8620   */\n      dup4\n        /* \"#utility.yul\":8606:8624   */\n      mul\n        /* \"#utility.yul\":8645:8742   */\n      tag_197\n        /* \"#utility.yul\":8675:8741   */\n      0xffffffffffffffffffffffffffffffffffffffffffffffffffffffffffffffff\n        /* \"#utility.yul\":8664:8673   */\n      dup3\n        /* \"#utility.yul\":8645:8742   */\n      tag_91\n      jump\t// in\n    tag_197:\n        /* \"#utility.yul\":8763:8802   */\n      tag_198\n        /* \"#utility.yul\":8793:8801   */\n      dup7\n        /* \"#utility.yul\":8782:8791   */\n      dup4\n        /* \"#utility.yul\":8763:8802   */\n      tag_91\n      jump\t// in\n    tag_198:\n        /* \"#utility.yul\":8751:8802   */\n      swap6\n      pop\n        /* \"#utility.yul\":8835:8839   */\n      dup1\n        /* \"#utility.yul\":8831:8840   */\n      not\n        /* \"#utility.yul\":8824:8829   */\n      dup5\n        /* \"#utility.yul\":8820:8841   */\n      and\n        /* \"#utility.yul\":8811:8841   */\n      swap4\n      pop\n        /* \"#utility.yul\":8884:8888   */\n      dup1\n        /* \"#utility.yul\":8874:8882   */\n      dup7\n        /* \"#utility.yul\":8870:8889   */\n      and\n        /* \"#utility.yul\":8863:8868   */\n      dup5\n        /* \"#utility.yul\":8860:8890   */\n      or\n        /* \"#utility.yul\":8850:8890   */\n      swap3\n      pop\n        /* \"#utility.yul\":8579:8896   */\n      pop\n      pop\n        /* \"#utility.yul\":8503:8896   */\n      swap4\n      swap3\n      pop\n      pop\n      pop\n      jump\t// out\n        /* \"#utility.yul\":8902:8962   */\n    tag_93:\n        /* \"#utility.yul\":8930:8933   */\n      0x00\n        /* \"#utility.yul\":8951:8956   */\n      dup2\n        /* \"#utility.yul\":8944:8956   */\n      swap1\n      pop\n        /* \"#utility.yul\":8902:8962   */\n      swap2\n      swap1\n      pop\n      jump\t// out\n        /* \"#utility.yul\":8968:9110   */\n    tag_94:\n        /* \"#utility.yul\":9018:9027   */\n      0x00\n        /* \"#utility.yul\":9051:9104   */\n      tag_201\n        /* \"#utility.yul\":9069:9103   */\n      tag_202\n        /* \"#utility.yul\":9078:9102   */\n      tag_203\n        /* \"#utility.yul\":9096:9101   */\n      dup5\n        /* \"#utility.yul\":9078:9102   */\n      tag_71\n      jump\t// in\n    tag_203:\n        /* \"#utility.yul\":9069:9103   */\n      tag_93\n      jump\t// in\n    tag_202:\n        /* \"#utility.yul\":9051:9104   */\n      tag_71\n      jump\t// in\n    tag_201:\n        /* \"#utility.yul\":9038:9104   */\n      swap1\n      pop\n        /* \"#utility.yul\":8968:9110   */\n      swap2\n      swap1\n      pop\n      jump\t// out\n        /* \"#utility.yul\":9116:9191   */\n    tag_95:\n        /* \"#utility.yul\":9159:9162   */\n      0x00\n        /* \"#utility.yul\":9180:9185   */\n      dup2\n        /* \"#utility.yul\":9173:9185   */\n      swap1\n      pop\n        /* \"#utility.yul\":9116:9191   */\n      swap2\n      swap1\n      pop\n      jump\t// out\n        /* \"#utility.yul\":9197:9466   */\n    tag_96:\n        /* \"#utility.yul\":9307:9346   */\n      tag_206\n        /* \"#utility.yul\":9338:9345   */\n      dup4\n        /* \"#utility.yul\":9307:9346   */\n      tag_94\n      jump\t// in\n    tag_206:\n        /* \"#utility.yul\":9368:9459   */\n      tag_207\n        /* \"#utility.yul\":9417:9458   */\n      tag_208\n        /* \"#utility.yul\":9441:9457   */\n      dup3\n        /* \"#utility.yul\":9417:9458   */\n      tag_95\n      jump\t// in\n    tag_208:\n        /* \"#utility.yul\":9409:9415   */\n      dup5\n        /* \"#utility.yul\":9402:9406   */\n      dup5\n        /* \"#utility.yul\":9396:9407   */\n      sload\n        /* \"#utility.yul\":9368:9459   */\n      tag_92\n      jump\t// in\n    tag_207:\n        /* \"#utility.yul\":9362:9366   */\n      dup3\n        /* \"#utility.yul\":9355:9460   */\n      sstore\n        /* \"#utility.yul\":9273:9466   */\n      pop\n        /* \"#utility.yul\":9197:9466   */\n      pop\n      pop\n      pop\n      jump\t// out\n        /* \"#utility.yul\":9472:9545   */\n    tag_97:\n        /* \"#utility.yul\":9517:9520   */\n      0x00\n        /* \"#utility.yul\":9472:9545   */\n      swap1\n      jump\t// out\n        /* \"#utility.yul\":9551:9740   */\n    tag_98:\n        /* \"#utility.yul\":9628:9660   */\n      tag_211\n      tag_97\n      jump\t// in\n    tag_211:\n        /* \"#utility.yul\":9669:9734   */\n      tag_212\n        /* \"#utility.yul\":9727:9733   */\n      dup2\n        /* \"#utility.yul\":9719:9725   */\n      dup5\n        /* \"#utility.yul\":9713:9717   */\n      dup5\n        /* \"#utility.yul\":9669:9734   */\n      tag_96\n      jump\t// in\n    tag_212:\n        /* \"#utility.yul\":9604:9740   */\n      pop\n        /* \"#utility.yul\":9551:9740   */\n      pop\n      pop\n      jump\t// out\n        /* \"#utility.yul\":9746:9932   */\n    tag_99:\n        /* \"#utility.yul\":9806:9926   */\n    tag_214:\n        /* \"#utility.yul\":9823:9826   */\n      dup2\n        /* \"#utility.yul\":9816:9821   */\n      dup2\n        /* \"#utility.yul\":9813:9827   */\n      lt\n        /* \"#utility.yul\":9806:9926   */\n      iszero\n      tag_216\n      jumpi\n        /* \"#utility.yul\":9877:9916   */\n      tag_217\n        /* \"#utility.yul\":9914:9915   */\n      0x00\n        /* \"#utility.yul\":9907:9912   */\n      dup3\n        /* \"#utility.yul\":9877:9916   */\n      tag_98\n      jump\t// in\n    tag_217:\n        /* \"#utility.yul\":9850:9851   */\n      0x01\n        /* \"#utility.yul\":9843:9848   */\n      dup2\n        /* \"#utility.yul\":9839:9852   */\n      add\n        /* \"#utility.yul\":9830:9852   */\n      swap1\n      pop\n        /* \"#utility.yul\":9806:9926   */\n      jump(tag_214)\n    tag_216:\n        /* \"#utility.yul\":9746:9932   */\n      pop\n      pop\n      jump\t// out\n        /* \"#utility.yul\":9938:10481   */\n    tag_100:\n        /* \"#utility.yul\":10039:10041   */\n      0x1f\n        /* \"#utility.yul\":10034:10037   */\n      dup3\n        /* \"#utility.yul\":10031:10042   */\n      gt\n        /* \"#utility.yul\":10028:10474   */\n      iszero\n      tag_219\n      jumpi\n        /* \"#utility.yul\":10073:10111   */\n      tag_220\n        /* \"#utility.yul\":10105:10110   */\n      dup2\n        /* \"#utility.yul\":10073:10111   */\n      tag_89\n      jump\t// in\n    tag_220:\n        /* \"#utility.yul\":10157:10186   */\n      tag_221\n        /* \"#utility.yul\":10175:10185   */\n      dup5\n        /* \"#utility.yul\":10157:10186   */\n      tag_90\n      jump\t// in\n    tag_221:\n        /* \"#utility.yul\":10147:10155   */\n      dup2\n        /* \"#utility.yul\":10143:10187   */\n      add\n        /* \"#utility.yul\":10340:10342   */\n      0x20\n        /* \"#utility.yul\":10328:10338   */\n      dup6\n        /* \"#utility.yul\":10325:10343   */\n      lt\n        /* \"#utility.yul\":10322:10371   */\n      iszero\n      tag_222\n      jumpi\n        /* \"#utility.yul\":10361:10369   */\n      dup2\n        /* \"#utility.yul\":10346:10369   */\n      swap1\n      pop\n        /* \"#utility.yul\":10322:10371   */\n    tag_222:\n        /* \"#utility.yul\":10384:10464   */\n      tag_223\n        /* \"#utility.yul\":10440:10462   */\n      tag_224\n        /* \"#utility.yul\":10458:10461   */\n      dup6\n        /* \"#utility.yul\":10440:10462   */\n      tag_90\n      jump\t// in\n    tag_224:\n        /* \"#utility.yul\":10430:10438   */\n      dup4\n        /* \"#utility.yul\":10426:10463   */\n      add\n        /* \"#utility.yul\":10413:10424   */\n      dup3\n        /* \"#utility.yul\":10384:10464   */\n      tag_99\n      jump\t// in\n    tag_223:\n        /* \"#utility.yul\":10043:10474   */\n      pop\n      pop\n        /* \"#utility.yul\":10028:10474   */\n    tag_219:\n        /* \"#utility.yul\":9938:10481   */\n      pop\n      pop\n      pop\n      jump\t// out\n        /* \"#utility.yul\":10487:10604   */\n    tag_101:\n        /* \"#utility.yul\":10541:10549   */\n      0x00\n        /* \"#utility.yul\":10591:10596   */\n      dup3\n        /* \"#utility.yul\":10585:10589   */\n      dup3\n        /* \"#utility.yul\":10581:10597   */\n      shr\n        /* \"#utility.yul\":10560:10597   */\n      swap1\n      pop\n        /* \"#utility.yul\":10487:10604   */\n      swap3\n      swap2\n      pop\n      pop\n      jump\t// out\n        /* \"#utility.yul\":10610:10779   */\n    tag_102:\n        /* \"#utility.yul\":10654:10660   */\n      0x00\n        /* \"#utility.yul\":10687:10738   */\n      tag_227\n        /* \"#utility.yul\":10735:10736   */\n      0x00\n        /* \"#utility.yul\":10731:10737   */\n      not\n        /* \"#utility.yul\":10723:10728   */\n      dup5\n        /* \"#utility.yul\":10720:10721   */\n      0x08\n        /* \"#utility.yul\":10716:10729   */\n      mul\n        /* \"#utility.yul\":10687:10738   */\n      tag_101\n      jump\t// in\n    tag_227:\n        /* \"#utility.yul\":10683:10739   */\n      not\n        /* \"#utility.yul\":10768:10772   */\n      dup1\n        /* \"#utility.yul\":10762:10766   */\n      dup4\n        /* \"#utility.yul\":10758:10773   */\n      and\n        /* \"#utility.yul\":10748:10773   */\n      swap2\n      pop\n        /* \"#utility.yul\":10661:10779   */\n      pop\n        /* \"#utility.yul\":10610:10779   */\n      swap3\n      swap2\n      pop\n      pop\n      jump\t// out\n        /* \"#utility.yul\":10784:11079   */\n    tag_103:\n        /* \"#utility.yul\":10860:10864   */\n      0x00\n        /* \"#utility.yul\":11006:11035   */\n      tag_229\n        /* \"#utility.yul\":11031:11034   */\n      dup4\n        /* \"#utility.yul\":11025:11029   */\n      dup4\n        /* \"#utility.yul\":11006:11035   */\n      tag_102\n      jump\t// in\n    tag_229:\n        /* \"#utility.yul\":10998:11035   */\n      swap2\n      pop\n        /* \"#utility.yul\":11068:11071   */\n      dup3\n        /* \"#utility.yul\":11065:11066   */\n      0x02\n        /* \"#utility.yul\":11061:11072   */\n      mul\n        /* \"#utility.yul\":11055:11059   */\n      dup3\n        /* \"#utility.yul\":11052:11073   */\n      or\n        /* \"#utility.yul\":11044:11073   */\n      swap1\n      pop\n        /* \"#utility.yul\":10784:11079   */\n      swap3\n      swap2\n      pop\n      pop\n      jump\t// out\n        /* \"#utility.yul\":11084:12479   */\n    tag_57:\n        /* \"#utility.yul\":11201:11238   */\n      tag_231\n        /* \"#utility.yul\":11234:11237   */\n      dup3\n        /* \"#utility.yul\":11201:11238   */\n      tag_59\n      jump\t// in\n    tag_231:\n        /* \"#utility.yul\":11303:11321   */\n      0xffffffffffffffff\n        /* \"#utility.yul\":11295:11301   */\n      dup2\n        /* \"#utility.yul\":11292:11322   */\n      gt\n        /* \"#utility.yul\":11289:11345   */\n      iszero\n      tag_232\n      jumpi\n        /* \"#utility.yul\":11325:11343   */\n      tag_233\n      tag_79\n      jump\t// in\n    tag_233:\n        /* \"#utility.yul\":11289:11345   */\n    tag_232:\n        /* \"#utility.yul\":11369:11407   */\n      tag_234\n        /* \"#utility.yul\":11401:11405   */\n      dup3\n        /* \"#utility.yul\":11395:11406   */\n      sload\n        /* \"#utility.yul\":11369:11407   */\n      tag_41\n      jump\t// in\n    tag_234:\n        /* \"#utility.yul\":11454:11521   */\n      tag_235\n        /* \"#utility.yul\":11514:11520   */\n      dup3\n        /* \"#utility.yul\":11506:11512   */\n      dup3\n        /* \"#utility.yul\":11500:11504   */\n      dup6\n        /* \"#utility.yul\":11454:11521   */\n      tag_100\n      jump\t// in\n    tag_235:\n        /* \"#utility.yul\":11548:11549   */\n      0x00\n        /* \"#utility.yul\":11572:11576   */\n      0x20\n        /* \"#utility.yul\":11559:11576   */\n      swap1\n      pop\n        /* \"#utility.yul\":11604:11606   */\n      0x1f\n        /* \"#utility.yul\":11596:11602   */\n      dup4\n        /* \"#utility.yul\":11593:11607   */\n      gt\n        /* \"#utility.yul\":11621:11622   */\n      0x01\n        /* \"#utility.yul\":11616:12234   */\n      dup2\n      eq\n      tag_237\n      jumpi\n        /* \"#utility.yul\":12278:12279   */\n      0x00\n        /* \"#utility.yul\":12295:12301   */\n      dup5\n        /* \"#utility.yul\":12292:12369   */\n      iszero\n      tag_238\n      jumpi\n        /* \"#utility.yul\":12344:12353   */\n      dup3\n        /* \"#utility.yul\":12339:12342   */\n      dup8\n        /* \"#utility.yul\":12335:12354   */\n      add\n        /* \"#utility.yul\":12329:12355   */\n      mload\n        /* \"#utility.yul\":12320:12355   */\n      swap1\n      pop\n        /* \"#utility.yul\":12292:12369   */\n    tag_238:\n        /* \"#utility.yul\":12395:12462   */\n      tag_239\n        /* \"#utility.yul\":12455:12461   */\n      dup6\n        /* \"#utility.yul\":12448:12453   */\n      dup3\n        /* \"#utility.yul\":12395:12462   */\n      tag_103\n      jump\t// in\n    tag_239:\n        /* \"#utility.yul\":12389:12393   */\n      dup7\n        /* \"#utility.yul\":12382:12463   */\n      sstore\n        /* \"#utility.yul\":12251:12473   */\n      pop\n        /* \"#utility.yul\":11586:12473   */\n      jump(tag_236)\n        /* \"#utility.yul\":11616:12234   */\n    tag_237:\n        /* \"#utility.yul\":11668:11672   */\n      0x1f\n        /* \"#utility.yul\":11664:11673   */\n      not\n        /* \"#utility.yul\":11656:11662   */\n      dup5\n        /* \"#utility.yul\":11652:11674   */\n      and\n        /* \"#utility.yul\":11702:11739   */\n      tag_240\n        /* \"#utility.yul\":11734:11738   */\n      dup7\n        /* \"#utility.yul\":11702:11739   */\n      tag_89\n      jump\t// in\n    tag_240:\n        /* \"#utility.yul\":11761:11762   */\n      0x00\n        /* \"#utility.yul\":11775:11983   */\n    tag_241:\n        /* \"#utility.yul\":11789:11796   */\n      dup3\n        /* \"#utility.yul\":11786:11787   */\n      dup2\n        /* \"#utility.yul\":11783:11797   */\n      lt\n        /* \"#utility.yul\":11775:11983   */\n      iszero\n      tag_243\n      jumpi\n        /* \"#utility.yul\":11868:11877   */\n      dup5\n        /* \"#utility.yul\":11863:11866   */\n      dup10\n        /* \"#utility.yul\":11859:11878   */\n      add\n        /* \"#utility.yul\":11853:11879   */\n      mload\n        /* \"#utility.yul\":11845:11851   */\n      dup3\n        /* \"#utility.yul\":11838:11880   */\n      sstore\n        /* \"#utility.yul\":11919:11920   */\n      0x01\n        /* \"#utility.yul\":11911:11917   */\n      dup3\n        /* \"#utility.yul\":11907:11921   */\n      add\n        /* \"#utility.yul\":11897:11921   */\n      swap2\n      pop\n        /* \"#utility.yul\":11966:11968   */\n      0x20\n        /* \"#utility.yul\":11955:11964   */\n      dup6\n        /* \"#utility.yul\":11951:11969   */\n      add\n        /* \"#utility.yul\":11938:11969   */\n      swap5\n      pop\n        /* \"#utility.yul\":11812:11816   */\n      0x20\n        /* \"#utility.yul\":11809:11810   */\n      dup2\n        /* \"#utility.yul\":11805:11817   */\n      add\n        /* \"#utility.yul\":11800:11817   */\n      swap1\n      pop\n        /* \"#utility.yul\":11775:11983   */\n      jump(tag_241)\n    tag_243:\n        /* \"#utility.yul\":12011:12017   */\n      dup7\n        /* \"#utility.yul\":12002:12009   */\n      dup4\n        /* \"#utility.yul\":11999:12018   */\n      lt\n        /* \"#utility.yul\":11996:12175   */\n      iszero\n      tag_244\n      jumpi\n        /* \"#utility.yul\":12069:12078   */\n      dup5\n        /* \"#utility.yul\":12064:12067   */\n      dup10\n        /* \"#utility.yul\":12060:12079   */\n      add\n        /* \"#utility.yul\":12054:12080   */\n      mload\n        /* \"#utility.yul\":12112:12160   */\n      tag_245\n        /* \"#utility.yul\":12154:12158   */\n      0x1f\n        /* \"#utility.yul\":12146:12152   */\n      dup10\n        /* \"#utility.yul\":12142:12159   */\n      and\n        /* \"#utility.yul\":12131:12140   */\n      dup3\n        /* \"#utility.yul\":12112:12160   */\n      tag_102\n      jump\t// in\n    tag_245:\n        /* \"#utility.yul\":12104:12110   */\n      dup4\n        /* \"#utility.yul\":12097:12161   */\n      sstore\n        /* \"#utility.yul\":12019:12175   */\n      pop\n        /* \"#utility.yul\":11996:12175   */\n    tag_244:\n        /* \"#utility.yul\":12221:12222   */\n      0x01\n        /* \"#utility.yul\":12217:12218   */\n      0x02\n        /* \"#utility.yul\":12209:12215   */\n      dup9\n        /* \"#utility.yul\":12205:12219   */\n      mul\n        /* \"#utility.yul\":12201:12223   */\n      add\n        /* \"#utility.yul\":12195:12199   */\n      dup9\n        /* \"#utility.yul\":12188:12224   */\n      sstore\n        /* \"#utility.yul\":11623:12234   */\n      pop\n      pop\n      pop\n        /* \"#utility.yul\":11586:12473   */\n    tag_236:\n      pop\n        /* \"#utility.yul\":11176:12479   */\n      pop\n      pop\n      pop\n        /* \"#utility.yul\":11084:12479   */\n      pop\n      pop\n      jump\t// out\n\n    auxdata: 0xa264697066735822122045cae36984009c80cac40e4c29edbd89612c2f579383dc1145c8976024f7309b64736f6c634300081a0033\n}\n",
				"bytecode": {
					"linkReferences": {},
					"object": "6080604052348015600e575f80fd5b50610b1a8061001c5f395ff3fe608060405234801561000f575f80fd5b506004361061007b575f3560e01c80638ab1d681116100595780638ab1d681146100e95780639b19251a14610105578063c47f002714610135578063e43252d7146101515761007b565b806306fdde031461007f57806321e5383a1461009d57806327e235e3146100b9575b5f80fd5b61008761016d565b60405161009491906104be565b60405180910390f35b6100b760048036038101906100b2919061057c565b6101f9565b005b6100d360048036038101906100ce91906105ba565b61023f565b6040516100e091906105f4565b60405180910390f35b61010360048036038101906100fe91906105ba565b610254565b005b61011f600480360381019061011a91906105ba565b610339565b60405161012c9190610627565b60405180910390f35b61014f600480360381019061014a919061076c565b610355565b005b61016b600480360381019061016691906105ba565b6103f7565b005b6001805461017a906107e0565b80601f01602080910402602001604051908101604052809291908181526020018280546101a6906107e0565b80156101f15780601f106101c8576101008083540402835291602001916101f1565b820191905f5260205f20905b8154815290600101906020018083116101d457829003601f168201915b505050505081565b8060025f8473ffffffffffffffffffffffffffffffffffffffff1673ffffffffffffffffffffffffffffffffffffffff1681526020019081526020015f20819055505050565b6002602052805f5260405f205f915090505481565b600115155f803373ffffffffffffffffffffffffffffffffffffffff1673ffffffffffffffffffffffffffffffffffffffff1681526020019081526020015f205f9054906101000a900460ff161515146102e3576040517f08c379a00000000000000000000000000000000000000000000000000000000081526004016102da9061085a565b60405180910390fd5b5f805f8373ffffffffffffffffffffffffffffffffffffffff1673ffffffffffffffffffffffffffffffffffffffff1681526020019081526020015f205f6101000a81548160ff02191690831515021790555050565b5f602052805f5260405f205f915054906101000a900460ff1681565b600115155f803373ffffffffffffffffffffffffffffffffffffffff1673ffffffffffffffffffffffffffffffffffffffff1681526020019081526020015f205f9054906101000a900460ff161515146103e4576040517f08c379a00000000000000000000000000000000000000000000000000000000081526004016103db9061085a565b60405180910390fd5b80600190816103f39190610a15565b5050565b60015f808373ffffffffffffffffffffffffffffffffffffffff1673ffffffffffffffffffffffffffffffffffffffff1681526020019081526020015f205f6101000a81548160ff02191690831515021790555050565b5f81519050919050565b5f82825260208201905092915050565b8281835e5f83830152505050565b5f601f19601f8301169050919050565b5f6104908261044e565b61049a8185610458565b93506104aa818560208601610468565b6104b381610476565b840191505092915050565b5f6020820190508181035f8301526104d68184610486565b905092915050565b5f604051905090565b5f80fd5b5f80fd5b5f73ffffffffffffffffffffffffffffffffffffffff82169050919050565b5f610518826104ef565b9050919050565b6105288161050e565b8114610532575f80fd5b50565b5f813590506105438161051f565b92915050565b5f819050919050565b61055b81610549565b8114610565575f80fd5b50565b5f8135905061057681610552565b92915050565b5f8060408385031215610592576105916104e7565b5b5f61059f85828601610535565b92505060206105b085828601610568565b9150509250929050565b5f602082840312156105cf576105ce6104e7565b5b5f6105dc84828501610535565b91505092915050565b6105ee81610549565b82525050565b5f6020820190506106075f8301846105e5565b92915050565b5f8115159050919050565b6106218161060d565b82525050565b5f60208201905061063a5f830184610618565b92915050565b5f80fd5b5f80fd5b7f4e487b71000000000000000000000000000000000000000000000000000000005f52604160045260245ffd5b61067e82610476565b810181811067ffffffffffffffff8211171561069d5761069c610648565b5b80604052505050565b5f6106af6104de565b90506106bb8282610675565b919050565b5f67ffffffffffffffff8211156106da576106d9610648565b5b6106e382610476565b9050602081019050919050565b828183375f83830152505050565b5f61071061070b846106c0565b6106a6565b90508281526020810184848401111561072c5761072b610644565b5b6107378482856106f0565b509392505050565b5f82601f83011261075357610752610640565b5b81356107638482602086016106fe565b91505092915050565b5f60208284031215610781576107806104e7565b5b5f82013567ffffffffffffffff81111561079e5761079d6104eb565b5b6107aa8482850161073f565b91505092915050565b7f4e487b71000000000000000000000000000000000000000000000000000000005f52602260045260245ffd5b5f60028204905060018216806107f757607f821691505b60208210810361080a576108096107b3565b5b50919050565b7f4e6f742070617274206f66207468652077686974656c697374000000000000005f82015250565b5f610844601983610458565b915061084f82610810565b602082019050919050565b5f6020820190508181035f83015261087181610838565b9050919050565b5f819050815f5260205f209050919050565b5f6020601f8301049050919050565b5f82821b905092915050565b5f600883026108d47fffffffffffffffffffffffffffffffffffffffffffffffffffffffffffffffff82610899565b6108de8683610899565b95508019841693508086168417925050509392505050565b5f819050919050565b5f61091961091461090f84610549565b6108f6565b610549565b9050919050565b5f819050919050565b610932836108ff565b61094661093e82610920565b8484546108a5565b825550505050565b5f90565b61095a61094e565b610965818484610929565b505050565b5b818110156109885761097d5f82610952565b60018101905061096b565b5050565b601f8211156109cd5761099e81610878565b6109a78461088a565b810160208510156109b6578190505b6109ca6109c28561088a565b83018261096a565b50505b505050565b5f82821c905092915050565b5f6109ed5f19846008026109d2565b1980831691505092915050565b5f610a0583836109de565b9150826002028217905092915050565b610a1e8261044e565b67ffffffffffffffff811115610a3757610a36610648565b5b610a4182546107e0565b610a4c82828561098c565b5f60209050601f831160018114610a7d575f8415610a6b578287015190505b610a7585826109fa565b865550610adc565b601f198416610a8b86610878565b5f5b82811015610ab257848901518255600182019150602085019450602081019050610a8d565b86831015610acf5784890151610acb601f8916826109de565b8355505b6001600288020188555050505b50505050505056fea264697066735822122045cae36984009c80cac40e4c29edbd89612c2f579383dc1145c8976024f7309b64736f6c634300081a0033",
					"opcodes": "PUSH1 0x80 PUSH1 0x40 MSTORE CALLVALUE DUP1 ISZERO PUSH1 0xE JUMPI PUSH0 DUP1 REVERT JUMPDEST POP PUSH2 0xB1A DUP1 PUSH2 0x1C PUSH0 CODECOPY PUSH0 RETURN INVALID PUSH1 0x80 PUSH1 0x40 MSTORE CALLVALUE DUP1 ISZERO PUSH2 0xF JUMPI PUSH0 DUP1 REVERT JUMPDEST POP PUSH1 0x4 CALLDATASIZE LT PUSH2 0x7B JUMPI PUSH0 CALLDATALOAD PUSH1 0xE0 SHR DUP1 PUSH4 0x8AB1D681 GT PUSH2 0x59 JUMPI DUP1 PUSH4 0x8AB1D681 EQ PUSH2 0xE9 JUMPI DUP1 PUSH4 0x9B19251A EQ PUSH2 0x105 JUMPI DUP1 PUSH4 0xC47F0027 EQ PUSH2 0x135 JUMPI DUP1 PUSH4 0xE43252D7 EQ PUSH2 0x151 JUMPI PUSH2 0x7B JUMP JUMPDEST DUP1 PUSH4 0x6FDDE03 EQ PUSH2 0x7F JUMPI DUP1 PUSH4 0x21E5383A EQ PUSH2 0x9D JUMPI DUP1 PUSH4 0x27E235E3 EQ PUSH2 0xB9 JUMPI JUMPDEST PUSH0 DUP1 REVERT JUMPDEST PUSH2 0x87 PUSH2 0x16D JUMP JUMPDEST PUSH1 0x40 MLOAD PUSH2 0x94 SWAP2 SWAP1 PUSH2 0x4BE JUMP JUMPDEST PUSH1 0x40 MLOAD DUP1 SWAP2 SUB SWAP1 RETURN JUMPDEST PUSH2 0xB7 PUSH1 0x4 DUP1 CALLDATASIZE SUB DUP2 ADD SWAP1 PUSH2 0xB2 SWAP2 SWAP1 PUSH2 0x57C JUMP JUMPDEST PUSH2 0x1F9 JUMP JUMPDEST STOP JUMPDEST PUSH2 0xD3 PUSH1 0x4 DUP1 CALLDATASIZE SUB DUP2 ADD SWAP1 PUSH2 0xCE SWAP2 SWAP1 PUSH2 0x5BA JUMP JUMPDEST PUSH2 0x23F JUMP JUMPDEST PUSH1 0x40 MLOAD PUSH2 0xE0 SWAP2 SWAP1 PUSH2 0x5F4 JUMP JUMPDEST PUSH1 0x40 MLOAD DUP1 SWAP2 SUB SWAP1 RETURN JUMPDEST PUSH2 0x103 PUSH1 0x4 DUP1 CALLDATASIZE SUB DUP2 ADD SWAP1 PUSH2 0xFE SWAP2 SWAP1 PUSH2 0x5BA JUMP JUMPDEST PUSH2 0x254 JUMP JUMPDEST STOP JUMPDEST PUSH2 0x11F PUSH1 0x4 DUP1 CALLDATASIZE SUB DUP2 ADD SWAP1 PUSH2 0x11A SWAP2 SWAP1 PUSH2 0x5BA JUMP JUMPDEST PUSH2 0x339 JUMP JUMPDEST PUSH1 0x40 MLOAD PUSH2 0x12C SWAP2 SWAP1 PUSH2 0x627 JUMP JUMPDEST PUSH1 0x40 MLOAD DUP1 SWAP2 SUB SWAP1 RETURN JUMPDEST PUSH2 0x14F PUSH1 0x4 DUP1 CALLDATASIZE SUB DUP2 ADD SWAP1 PUSH2 0x14A SWAP2 SWAP1 PUSH2 0x76C JUMP JUMPDEST PUSH2 0x355 JUMP JUMPDEST STOP JUMPDEST PUSH2 0x16B PUSH1 0x4 DUP1 CALLDATASIZE SUB DUP2 ADD SWAP1 PUSH2 0x166 SWAP2 SWAP1 PUSH2 0x5BA JUMP JUMPDEST PUSH2 0x3F7 JUMP JUMPDEST STOP JUMPDEST PUSH1 0x1 DUP1 SLOAD PUSH2 0x17A SWAP1 PUSH2 0x7E0 JUMP JUMPDEST DUP1 PUSH1 0x1F ADD PUSH1 0x20 DUP1 SWAP2 DIV MUL PUSH1 0x20 ADD PUSH1 0x40 MLOAD SWAP1 DUP2 ADD PUSH1 0x40 MSTORE DUP1 SWAP3 SWAP2 SWAP1 DUP2 DUP2 MSTORE PUSH1 0x20 ADD DUP3 DUP1 SLOAD PUSH2 0x1A6 SWAP1 PUSH2 0x7E0 JUMP JUMPDEST DUP1 ISZERO PUSH2 0x1F1 JUMPI DUP1 PUSH1 0x1F LT PUSH2 0x1C8 JUMPI PUSH2 0x100 DUP1 DUP4 SLOAD DIV MUL DUP4 MSTORE SWAP2 PUSH1 0x20 ADD SWAP2 PUSH2 0x1F1 JUMP JUMPDEST DUP3 ADD SWAP2 SWAP1 PUSH0 MSTORE PUSH1 0x20 PUSH0 KECCAK256 SWAP1 JUMPDEST DUP2 SLOAD DUP2 MSTORE SWAP1 PUSH1 0x1 ADD SWAP1 PUSH1 0x20 ADD DUP1 DUP4 GT PUSH2 0x1D4 JUMPI DUP3 SWAP1 SUB PUSH1 0x1F AND DUP3 ADD SWAP2 JUMPDEST POP POP POP POP POP DUP2 JUMP JUMPDEST DUP1 PUSH1 0x2 PUSH0 DUP5 PUSH20 0xFFFFFFFFFFFFFFFFFFFFFFFFFFFFFFFFFFFFFFFF AND PUSH20 0xFFFFFFFFFFFFFFFFFFFFFFFFFFFFFFFFFFFFFFFF AND DUP2 MSTORE PUSH1 0x20 ADD SWAP1 DUP2 MSTORE PUSH1 0x20 ADD PUSH0 KECCAK256 DUP2 SWAP1 SSTORE POP POP POP JUMP JUMPDEST PUSH1 0x2 PUSH1 0x20 MSTORE DUP1 PUSH0 MSTORE PUSH1 0x40 PUSH0 KECCAK256 PUSH0 SWAP2 POP SWAP1 POP SLOAD DUP2 JUMP JUMPDEST PUSH1 0x1 ISZERO ISZERO PUSH0 DUP1 CALLER PUSH20 0xFFFFFFFFFFFFFFFFFFFFFFFFFFFFFFFFFFFFFFFF AND PUSH20 0xFFFFFFFFFFFFFFFFFFFFFFFFFFFFFFFFFFFFFFFF AND DUP2 MSTORE PUSH1 0x20 ADD SWAP1 DUP2 MSTORE PUSH1 0x20 ADD PUSH0 KECCAK256 PUSH0 SWAP1 SLOAD SWAP1 PUSH2 0x100 EXP SWAP1 DIV PUSH1 0xFF AND ISZERO ISZERO EQ PUSH2 0x2E3 JUMPI PUSH1 0x40 MLOAD PUSH32 0x8C379A000000000000000000000000000000000000000000000000000000000 DUP2 MSTORE PUSH1 0x4 ADD PUSH2 0x2DA SWAP1 PUSH2 0x85A JUMP JUMPDEST PUSH1 0x40 MLOAD DUP1 SWAP2 SUB SWAP1 REVERT JUMPDEST PUSH0 DUP1 PUSH0 DUP4 PUSH20 0xFFFFFFFFFFFFFFFFFFFFFFFFFFFFFFFFFFFFFFFF AND PUSH20 0xFFFFFFFFFFFFFFFFFFFFFFFFFFFFFFFFFFFFFFFF AND DUP2 MSTORE PUSH1 0x20 ADD SWAP1 DUP2 MSTORE PUSH1 0x20 ADD PUSH0 KECCAK256 PUSH0 PUSH2 0x100 EXP DUP2 SLOAD DUP2 PUSH1 0xFF MUL NOT AND SWAP1 DUP4 ISZERO ISZERO MUL OR SWAP1 SSTORE POP POP JUMP JUMPDEST PUSH0 PUSH1 0x20 MSTORE DUP1 PUSH0 MSTORE PUSH1 0x40 PUSH0 KECCAK256 PUSH0 SWAP2 POP SLOAD SWAP1 PUSH2 0x100 EXP SWAP1 DIV PUSH1 0xFF AND DUP2 JUMP JUMPDEST PUSH1 0x1 ISZERO ISZERO PUSH0 DUP1 CALLER PUSH20 0xFFFFFFFFFFFFFFFFFFFFFFFFFFFFFFFFFFFFFFFF AND PUSH20 0xFFFFFFFFFFFFFFFFFFFFFFFFFFFFFFFFFFFFFFFF AND DUP2 MSTORE PUSH1 0x20 ADD SWAP1 DUP2 MSTORE PUSH1 0x20 ADD PUSH0 KECCAK256 PUSH0 SWAP1 SLOAD SWAP1 PUSH2 0x100 EXP SWAP1 DIV PUSH1 0xFF AND ISZERO ISZERO EQ PUSH2 0x3E4 JUMPI PUSH1 0x40 MLOAD PUSH32 0x8C379A000000000000000000000000000000000000000000000000000000000 DUP2 MSTORE PUSH1 0x4 ADD PUSH2 0x3DB SWAP1 PUSH2 0x85A JUMP JUMPDEST PUSH1 0x40 MLOAD DUP1 SWAP2 SUB SWAP1 REVERT JUMPDEST DUP1 PUSH1 0x1 SWAP1 DUP2 PUSH2 0x3F3 SWAP2 SWAP1 PUSH2 0xA15 JUMP JUMPDEST POP POP JUMP JUMPDEST PUSH1 0x1 PUSH0 DUP1 DUP4 PUSH20 0xFFFFFFFFFFFFFFFFFFFFFFFFFFFFFFFFFFFFFFFF AND PUSH20 0xFFFFFFFFFFFFFFFFFFFFFFFFFFFFFFFFFFFFFFFF AND DUP2 MSTORE PUSH1 0x20 ADD SWAP1 DUP2 MSTORE PUSH1 0x20 ADD PUSH0 KECCAK256 PUSH0 PUSH2 0x100 EXP DUP2 SLOAD DUP2 PUSH1 0xFF MUL NOT AND SWAP1 DUP4 ISZERO ISZERO MUL OR SWAP1 SSTORE POP POP JUMP JUMPDEST PUSH0 DUP2 MLOAD SWAP1 POP SWAP2 SWAP1 POP JUMP JUMPDEST PUSH0 DUP3 DUP3 MSTORE PUSH1 0x20 DUP3 ADD SWAP1 POP SWAP3 SWAP2 POP POP JUMP JUMPDEST DUP3 DUP2 DUP4 MCOPY PUSH0 DUP4 DUP4 ADD MSTORE POP POP POP JUMP JUMPDEST PUSH0 PUSH1 0x1F NOT PUSH1 0x1F DUP4 ADD AND SWAP1 POP SWAP2 SWAP1 POP JUMP JUMPDEST PUSH0 PUSH2 0x490 DUP3 PUSH2 0x44E JUMP JUMPDEST PUSH2 0x49A DUP2 DUP6 PUSH2 0x458 JUMP JUMPDEST SWAP4 POP PUSH2 0x4AA DUP2 DUP6 PUSH1 0x20 DUP7 ADD PUSH2 0x468 JUMP JUMPDEST PUSH2 0x4B3 DUP2 PUSH2 0x476 JUMP JUMPDEST DUP5 ADD SWAP2 POP POP SWAP3 SWAP2 POP POP JUMP JUMPDEST PUSH0 PUSH1 0x20 DUP3 ADD SWAP1 POP DUP2 DUP2 SUB PUSH0 DUP4 ADD MSTORE PUSH2 0x4D6 DUP2 DUP5 PUSH2 0x486 JUMP JUMPDEST SWAP1 POP SWAP3 SWAP2 POP POP JUMP JUMPDEST PUSH0 PUSH1 0x40 MLOAD SWAP1 POP SWAP1 JUMP JUMPDEST PUSH0 DUP1 REVERT JUMPDEST PUSH0 DUP1 REVERT JUMPDEST PUSH0 PUSH20 0xFFFFFFFFFFFFFFFFFFFFFFFFFFFFFFFFFFFFFFFF DUP3 AND SWAP1 POP SWAP2 SWAP1 POP JUMP JUMPDEST PUSH0 PUSH2 0x518 DUP3 PUSH2 0x4EF JUMP JUMPDEST SWAP1 POP SWAP2 SWAP1 POP JUMP JUMPDEST PUSH2 0x528 DUP2 PUSH2 0x50E JUMP JUMPDEST DUP2 EQ PUSH2 0x532 JUMPI PUSH0 DUP1 REVERT JUMPDEST POP JUMP JUMPDEST PUSH0 DUP2 CALLDATALOAD SWAP1 POP PUSH2 0x543 DUP2 PUSH2 0x51F JUMP JUMPDEST SWAP3 SWAP2 POP POP JUMP JUMPDEST PUSH0 DUP2 SWAP1 POP SWAP2 SWAP1 POP JUMP JUMPDEST PUSH2 0x55B DUP2 PUSH2 0x549 JUMP JUMPDEST DUP2 EQ PUSH2 0x565 JUMPI PUSH0 DUP1 REVERT JUMPDEST POP JUMP JUMPDEST PUSH0 DUP2 CALLDATALOAD SWAP1 POP PUSH2 0x576 DUP2 PUSH2 0x552 JUMP JUMPDEST SWAP3 SWAP2 POP POP JUMP JUMPDEST PUSH0 DUP1 PUSH1 0x40 DUP4 DUP6 SUB SLT ISZERO PUSH2 0x592 JUMPI PUSH2 0x591 PUSH2 0x4E7 JUMP JUMPDEST JUMPDEST PUSH0 PUSH2 0x59F DUP6 DUP3 DUP7 ADD PUSH2 0x535 JUMP JUMPDEST SWAP3 POP POP PUSH1 0x20 PUSH2 0x5B0 DUP6 DUP3 DUP7 ADD PUSH2 0x568 JUMP JUMPDEST SWAP2 POP POP SWAP3 POP SWAP3 SWAP1 POP JUMP JUMPDEST PUSH0 PUSH1 0x20 DUP3 DUP5 SUB SLT ISZERO PUSH2 0x5CF JUMPI PUSH2 0x5CE PUSH2 0x4E7 JUMP JUMPDEST JUMPDEST PUSH0 PUSH2 0x5DC DUP5 DUP3 DUP6 ADD PUSH2 0x535 JUMP JUMPDEST SWAP2 POP POP SWAP3 SWAP2 POP POP JUMP JUMPDEST PUSH2 0x5EE DUP2 PUSH2 0x549 JUMP JUMPDEST DUP3 MSTORE POP POP JUMP JUMPDEST PUSH0 PUSH1 0x20 DUP3 ADD SWAP1 POP PUSH2 0x607 PUSH0 DUP4 ADD DUP5 PUSH2 0x5E5 JUMP JUMPDEST SWAP3 SWAP2 POP POP JUMP JUMPDEST PUSH0 DUP2 ISZERO ISZERO SWAP1 POP SWAP2 SWAP1 POP JUMP JUMPDEST PUSH2 0x621 DUP2 PUSH2 0x60D JUMP JUMPDEST DUP3 MSTORE POP POP JUMP JUMPDEST PUSH0 PUSH1 0x20 DUP3 ADD SWAP1 POP PUSH2 0x63A PUSH0 DUP4 ADD DUP5 PUSH2 0x618 JUMP JUMPDEST SWAP3 SWAP2 POP POP JUMP JUMPDEST PUSH0 DUP1 REVERT JUMPDEST PUSH0 DUP1 REVERT JUMPDEST PUSH32 0x4E487B7100000000000000000000000000000000000000000000000000000000 PUSH0 MSTORE PUSH1 0x41 PUSH1 0x4 MSTORE PUSH1 0x24 PUSH0 REVERT JUMPDEST PUSH2 0x67E DUP3 PUSH2 0x476 JUMP JUMPDEST DUP2 ADD DUP2 DUP2 LT PUSH8 0xFFFFFFFFFFFFFFFF DUP3 GT OR ISZERO PUSH2 0x69D JUMPI PUSH2 0x69C PUSH2 0x648 JUMP JUMPDEST JUMPDEST DUP1 PUSH1 0x40 MSTORE POP POP POP JUMP JUMPDEST PUSH0 PUSH2 0x6AF PUSH2 0x4DE JUMP JUMPDEST SWAP1 POP PUSH2 0x6BB DUP3 DUP3 PUSH2 0x675 JUMP JUMPDEST SWAP2 SWAP1 POP JUMP JUMPDEST PUSH0 PUSH8 0xFFFFFFFFFFFFFFFF DUP3 GT ISZERO PUSH2 0x6DA JUMPI PUSH2 0x6D9 PUSH2 0x648 JUMP JUMPDEST JUMPDEST PUSH2 0x6E3 DUP3 PUSH2 0x476 JUMP JUMPDEST SWAP1 POP PUSH1 0x20 DUP2 ADD SWAP1 POP SWAP2 SWAP1 POP JUMP JUMPDEST DUP3 DUP2 DUP4 CALLDATACOPY PUSH0 DUP4 DUP4 ADD MSTORE POP POP POP JUMP JUMPDEST PUSH0 PUSH2 0x710 PUSH2 0x70B DUP5 PUSH2 0x6C0 JUMP JUMPDEST PUSH2 0x6A6 JUMP JUMPDEST SWAP1 POP DUP3 DUP2 MSTORE PUSH1 0x20 DUP2 ADD DUP5 DUP5 DUP5 ADD GT ISZERO PUSH2 0x72C JUMPI PUSH2 0x72B PUSH2 0x644 JUMP JUMPDEST JUMPDEST PUSH2 0x737 DUP5 DUP3 DUP6 PUSH2 0x6F0 JUMP JUMPDEST POP SWAP4 SWAP3 POP POP POP JUMP JUMPDEST PUSH0 DUP3 PUSH1 0x1F DUP4 ADD SLT PUSH2 0x753 JUMPI PUSH2 0x752 PUSH2 0x640 JUMP JUMPDEST JUMPDEST DUP2 CALLDATALOAD PUSH2 0x763 DUP5 DUP3 PUSH1 0x20 DUP7 ADD PUSH2 0x6FE JUMP JUMPDEST SWAP2 POP POP SWAP3 SWAP2 POP POP JUMP JUMPDEST PUSH0 PUSH1 0x20 DUP3 DUP5 SUB SLT ISZERO PUSH2 0x781 JUMPI PUSH2 0x780 PUSH2 0x4E7 JUMP JUMPDEST JUMPDEST PUSH0 DUP3 ADD CALLDATALOAD PUSH8 0xFFFFFFFFFFFFFFFF DUP2 GT ISZERO PUSH2 0x79E JUMPI PUSH2 0x79D PUSH2 0x4EB JUMP JUMPDEST JUMPDEST PUSH2 0x7AA DUP5 DUP3 DUP6 ADD PUSH2 0x73F JUMP JUMPDEST SWAP2 POP POP SWAP3 SWAP2 POP POP JUMP JUMPDEST PUSH32 0x4E487B7100000000000000000000000000000000000000000000000000000000 PUSH0 MSTORE PUSH1 0x22 PUSH1 0x4 MSTORE PUSH1 0x24 PUSH0 REVERT JUMPDEST PUSH0 PUSH1 0x2 DUP3 DIV SWAP1 POP PUSH1 0x1 DUP3 AND DUP1 PUSH2 0x7F7 JUMPI PUSH1 0x7F DUP3 AND SWAP2 POP JUMPDEST PUSH1 0x20 DUP3 LT DUP2 SUB PUSH2 0x80A JUMPI PUSH2 0x809 PUSH2 0x7B3 JUMP JUMPDEST JUMPDEST POP SWAP2 SWAP1 POP JUMP JUMPDEST PUSH32 0x4E6F742070617274206F66207468652077686974656C69737400000000000000 PUSH0 DUP3 ADD MSTORE POP JUMP JUMPDEST PUSH0 PUSH2 0x844 PUSH1 0x19 DUP4 PUSH2 0x458 JUMP JUMPDEST SWAP2 POP PUSH2 0x84F DUP3 PUSH2 0x810 JUMP JUMPDEST PUSH1 0x20 DUP3 ADD SWAP1 POP SWAP2 SWAP1 POP JUMP JUMPDEST PUSH0 PUSH1 0x20 DUP3 ADD SWAP1 POP DUP2 DUP2 SUB PUSH0 DUP4 ADD MSTORE PUSH2 0x871 DUP2 PUSH2 0x838 JUMP JUMPDEST SWAP1 POP SWAP2 SWAP1 POP JUMP JUMPDEST PUSH0 DUP2 SWAP1 POP DUP2 PUSH0 MSTORE PUSH1 0x20 PUSH0 KECCAK256 SWAP1 POP SWAP2 SWAP1 POP JUMP JUMPDEST PUSH0 PUSH1 0x20 PUSH1 0x1F DUP4 ADD DIV SWAP1 POP SWAP2 SWAP1 POP JUMP JUMPDEST PUSH0 DUP3 DUP3 SHL SWAP1 POP SWAP3 SWAP2 POP POP JUMP JUMPDEST PUSH0 PUSH1 0x8 DUP4 MUL PUSH2 0x8D4 PUSH32 0xFFFFFFFFFFFFFFFFFFFFFFFFFFFFFFFFFFFFFFFFFFFFFFFFFFFFFFFFFFFFFFFF DUP3 PUSH2 0x899 JUMP JUMPDEST PUSH2 0x8DE DUP7 DUP4 PUSH2 0x899 JUMP JUMPDEST SWAP6 POP DUP1 NOT DUP5 AND SWAP4 POP DUP1 DUP7 AND DUP5 OR SWAP3 POP POP POP SWAP4 SWAP3 POP POP POP JUMP JUMPDEST PUSH0 DUP2 SWAP1 POP SWAP2 SWAP1 POP JUMP JUMPDEST PUSH0 PUSH2 0x919 PUSH2 0x914 PUSH2 0x90F DUP5 PUSH2 0x549 JUMP JUMPDEST PUSH2 0x8F6 JUMP JUMPDEST PUSH2 0x549 JUMP JUMPDEST SWAP1 POP SWAP2 SWAP1 POP JUMP JUMPDEST PUSH0 DUP2 SWAP1 POP SWAP2 SWAP1 POP JUMP JUMPDEST PUSH2 0x932 DUP4 PUSH2 0x8FF JUMP JUMPDEST PUSH2 0x946 PUSH2 0x93E DUP3 PUSH2 0x920 JUMP JUMPDEST DUP5 DUP5 SLOAD PUSH2 0x8A5 JUMP JUMPDEST DUP3 SSTORE POP POP POP POP JUMP JUMPDEST PUSH0 SWAP1 JUMP JUMPDEST PUSH2 0x95A PUSH2 0x94E JUMP JUMPDEST PUSH2 0x965 DUP2 DUP5 DUP5 PUSH2 0x929 JUMP JUMPDEST POP POP POP JUMP JUMPDEST JUMPDEST DUP2 DUP2 LT ISZERO PUSH2 0x988 JUMPI PUSH2 0x97D PUSH0 DUP3 PUSH2 0x952 JUMP JUMPDEST PUSH1 0x1 DUP2 ADD SWAP1 POP PUSH2 0x96B JUMP JUMPDEST POP POP JUMP JUMPDEST PUSH1 0x1F DUP3 GT ISZERO PUSH2 0x9CD JUMPI PUSH2 0x99E DUP2 PUSH2 0x878 JUMP JUMPDEST PUSH2 0x9A7 DUP5 PUSH2 0x88A JUMP JUMPDEST DUP2 ADD PUSH1 0x20 DUP6 LT ISZERO PUSH2 0x9B6 JUMPI DUP2 SWAP1 POP JUMPDEST PUSH2 0x9CA PUSH2 0x9C2 DUP6 PUSH2 0x88A JUMP JUMPDEST DUP4 ADD DUP3 PUSH2 0x96A JUMP JUMPDEST POP POP JUMPDEST POP POP POP JUMP JUMPDEST PUSH0 DUP3 DUP3 SHR SWAP1 POP SWAP3 SWAP2 POP POP JUMP JUMPDEST PUSH0 PUSH2 0x9ED PUSH0 NOT DUP5 PUSH1 0x8 MUL PUSH2 0x9D2 JUMP JUMPDEST NOT DUP1 DUP4 AND SWAP2 POP POP SWAP3 SWAP2 POP POP JUMP JUMPDEST PUSH0 PUSH2 0xA05 DUP4 DUP4 PUSH2 0x9DE JUMP JUMPDEST SWAP2 POP DUP3 PUSH1 0x2 MUL DUP3 OR SWAP1 POP SWAP3 SWAP2 POP POP JUMP JUMPDEST PUSH2 0xA1E DUP3 PUSH2 0x44E JUMP JUMPDEST PUSH8 0xFFFFFFFFFFFFFFFF DUP2 GT ISZERO PUSH2 0xA37 JUMPI PUSH2 0xA36 PUSH2 0x648 JUMP JUMPDEST JUMPDEST PUSH2 0xA41 DUP3 SLOAD PUSH2 0x7E0 JUMP JUMPDEST PUSH2 0xA4C DUP3 DUP3 DUP6 PUSH2 0x98C JUMP JUMPDEST PUSH0 PUSH1 0x20 SWAP1 POP PUSH1 0x1F DUP4 GT PUSH1 0x1 DUP2 EQ PUSH2 0xA7D JUMPI PUSH0 DUP5 ISZERO PUSH2 0xA6B JUMPI DUP3 DUP8 ADD MLOAD SWAP1 POP JUMPDEST PUSH2 0xA75 DUP6 DUP3 PUSH2 0x9FA JUMP JUMPDEST DUP7 SSTORE POP PUSH2 0xADC JUMP JUMPDEST PUSH1 0x1F NOT DUP5 AND PUSH2 0xA8B DUP7 PUSH2 0x878 JUMP JUMPDEST PUSH0 JUMPDEST DUP3 DUP2 LT ISZERO PUSH2 0xAB2 JUMPI DUP5 DUP10 ADD MLOAD DUP3 SSTORE PUSH1 0x1 DUP3 ADD SWAP2 POP PUSH1 0x20 DUP6 ADD SWAP5 POP PUSH1 0x20 DUP2 ADD SWAP1 POP PUSH2 0xA8D JUMP JUMPDEST DUP7 DUP4 LT ISZERO PUSH2 0xACF JUMPI DUP5 DUP10 ADD MLOAD PUSH2 0xACB PUSH1 0x1F DUP10 AND DUP3 PUSH2 0x9DE JUMP JUMPDEST DUP4 SSTORE POP JUMPDEST PUSH1 0x1 PUSH1 0x2 DUP9 MUL ADD DUP9 SSTORE POP POP POP JUMPDEST POP POP POP POP POP POP JUMP INVALID LOG2 PUSH5 0x6970667358 0x22 SLT KECCAK256 GASLIMIT 0xCA 0xE3 PUSH10 0x84009C80CAC40E4C29ED 0xBD DUP10 PUSH2 0x2C2F JUMPI SWAP4 DUP4 0xDC GT GASLIMIT 0xC8 SWAP8 PUSH1 0x24 0xF7 ADDRESS SWAP12 PUSH5 0x736F6C6343 STOP ADDMOD BYTE STOP CALLER "
				},
				"gasEstimates": {
					"creation": {
						"codeDepositCost": "568400",
						"executionCost": "598",
						"totalCost": "568998"
					},
					"external": {
						"addBalance(address,uint256)": "22845",
						"addToWhitelist(address)": "24869",
						"balances(address)": "2847",
						"name()": "infinite",
						"removeFromWhitelist(address)": "27059",
						"setName(string)": "infinite",
						"whitelist(address)": "2854"
					}
				},
				"methodIdentifiers": {
					"addBalance(address,uint256)": "21e5383a",
					"addToWhitelist(address)": "e43252d7",
					"balances(address)": "27e235e3",
					"name()": "06fdde03",
					"removeFromWhitelist(address)": "8ab1d681",
					"setName(string)": "c47f0027",
					"whitelist(address)": "9b19251a"
				}
			},
			"storageLayout": {
				"storage": [
					{
						"astId": 5,
						"contract": "contracts/Mappings.sol:Mappings",
						"label": "whitelist",
						"offset": 0,
						"slot": "0",
						"type": "t_mapping(t_address,t_bool)"
					},
					{
						"astId": 7,
						"contract": "contracts/Mappings.sol:Mappings",
						"label": "name",
						"offset": 0,
						"slot": "1",
						"type": "t_string_storage"
					},
					{
						"astId": 11,
						"contract": "contracts/Mappings.sol:Mappings",
						"label": "balances",
						"offset": 0,
						"slot": "2",
						"type": "t_mapping(t_address,t_uint256)"
					}
				],
				"types": {
					"t_address": {
						"encoding": "inplace",
						"label": "address",
						"numberOfBytes": "20"
					},
					"t_bool": {
						"encoding": "inplace",
						"label": "bool",
						"numberOfBytes": "1"
					},
					"t_mapping(t_address,t_bool)": {
						"encoding": "mapping",
						"key": "t_address",
						"label": "mapping(address => bool)",
						"numberOfBytes": "32",
						"value": "t_bool"
					},
					"t_mapping(t_address,t_uint256)": {
						"encoding": "mapping",
						"key": "t_address",
						"label": "mapping(address => uint256)",
						"numberOfBytes": "32",
						"value": "t_uint256"
					},
					"t_string_storage": {
						"encoding": "bytes",
						"label": "string",
						"numberOfBytes": "32"
					},
					"t_uint256": {
						"encoding": "inplace",
						"label": "uint256",
						"numberOfBytes": "32"
					}
				}
			},
			"userdoc": {
				"kind": "user",
				"methods": {},
				"version": 1
			}
		}
	}
}