{
	"data": {
		"bytecode": {
			"linkReferences": {},
			"object": "6080604052348015600e575f80fd5b503360015f6101000a81548173ffffffffffffffffffffffffffffffffffffffff021916908373ffffffffffffffffffffffffffffffffffffffff160217905550610def8061005c5f395ff3fe608060405234801561000f575f80fd5b506004361061004a575f3560e01c806378a9eeed1461004e5780639ebecab01461006c578063b0c8f9dc1461009c578063f745630f146100cc575b5f80fd5b6100566100e8565b6040516100639190610604565b60405180910390f35b61008660048036038101906100819190610668565b6101bb565b60405161009391906106db565b60405180910390f35b6100b660048036038101906100b19190610827565b6102ae565b6040516100c3919061087d565b60405180910390f35b6100e660048036038101906100e19190610896565b6103d5565b005b60605f805480602002602001604051908101604052809291908181526020015f905b828210156101b2578382905f5260205f200180546101279061091d565b80601f01602080910402602001604051908101604052809291908181526020018280546101539061091d565b801561019e5780601f106101755761010080835404028352916020019161019e565b820191905f5260205f20905b81548152906001019060200180831161018157829003601f168201915b50505050508152602001906001019061010a565b50505050905090565b6060815f805490508110610204576040517f08c379a00000000000000000000000000000000000000000000000000000000081526004016101fb90610997565b60405180910390fd5b5f8381548110610217576102166109b5565b5b905f5260205f2001805461022a9061091d565b80601f01602080910402602001604051908101604052809291908181526020018280546102569061091d565b80156102a15780601f10610278576101008083540402835291602001916102a1565b820191905f5260205f20905b81548152906001019060200180831161028457829003601f168201915b5050505050915050919050565b5f3373ffffffffffffffffffffffffffffffffffffffff1660015f9054906101000a900473ffffffffffffffffffffffffffffffffffffffff1673ffffffffffffffffffffffffffffffffffffffff161461033e576040517f08c379a000000000000000000000000000000000000000000000000000000000815260040161033590610a52565b60405180910390fd5b5f82908060018154018082558091505060019003905f5260205f20015f90919091909150908161036e9190610c0d565b5060015f805490506103809190610d09565b90503373ffffffffffffffffffffffffffffffffffffffff167fde4389d0e2b82c1da27da351a07c61a1c281a257dd810bc7fad7e95a2fffd0d2836040516103c89190610d86565b60405180910390a2919050565b3373ffffffffffffffffffffffffffffffffffffffff1660015f9054906101000a900473ffffffffffffffffffffffffffffffffffffffff1673ffffffffffffffffffffffffffffffffffffffff1614610464576040517f08c379a000000000000000000000000000000000000000000000000000000000815260040161045b90610a52565b60405180910390fd5b815f8054905081106104ab576040517f08c379a00000000000000000000000000000000000000000000000000000000081526004016104a290610997565b60405180910390fd5b815f84815481106104bf576104be6109b5565b5b905f5260205f200190816104d39190610c0d565b50505050565b5f81519050919050565b5f82825260208201905092915050565b5f819050602082019050919050565b5f81519050919050565b5f82825260208201905092915050565b8281835e5f83830152505050565b5f601f19601f8301169050919050565b5f61054482610502565b61054e818561050c565b935061055e81856020860161051c565b6105678161052a565b840191505092915050565b5f61057d838361053a565b905092915050565b5f602082019050919050565b5f61059b826104d9565b6105a581856104e3565b9350836020820285016105b7856104f3565b805f5b858110156105f257848403895281516105d38582610572565b94506105de83610585565b925060208a019950506001810190506105ba565b50829750879550505050505092915050565b5f6020820190508181035f83015261061c8184610591565b905092915050565b5f604051905090565b5f80fd5b5f80fd5b5f819050919050565b61064781610635565b8114610651575f80fd5b50565b5f813590506106628161063e565b92915050565b5f6020828403121561067d5761067c61062d565b5b5f61068a84828501610654565b91505092915050565b5f82825260208201905092915050565b5f6106ad82610502565b6106b78185610693565b93506106c781856020860161051c565b6106d08161052a565b840191505092915050565b5f6020820190508181035f8301526106f381846106a3565b905092915050565b5f80fd5b5f80fd5b7f4e487b71000000000000000000000000000000000000000000000000000000005f52604160045260245ffd5b6107398261052a565b810181811067ffffffffffffffff8211171561075857610757610703565b5b80604052505050565b5f61076a610624565b90506107768282610730565b919050565b5f67ffffffffffffffff82111561079557610794610703565b5b61079e8261052a565b9050602081019050919050565b828183375f83830152505050565b5f6107cb6107c68461077b565b610761565b9050828152602081018484840111156107e7576107e66106ff565b5b6107f28482856107ab565b509392505050565b5f82601f83011261080e5761080d6106fb565b5b813561081e8482602086016107b9565b91505092915050565b5f6020828403121561083c5761083b61062d565b5b5f82013567ffffffffffffffff81111561085957610858610631565b5b610865848285016107fa565b91505092915050565b61087781610635565b82525050565b5f6020820190506108905f83018461086e565b92915050565b5f80604083850312156108ac576108ab61062d565b5b5f6108b985828601610654565b925050602083013567ffffffffffffffff8111156108da576108d9610631565b5b6108e6858286016107fa565b9150509250929050565b7f4e487b71000000000000000000000000000000000000000000000000000000005f52602260045260245ffd5b5f600282049050600182168061093457607f821691505b602082108103610947576109466108f0565b5b50919050565b7f496e646578206f7574206f6620626f756e6473000000000000000000000000005f82015250565b5f610981601383610693565b915061098c8261094d565b602082019050919050565b5f6020820190508181035f8301526109ae81610975565b9050919050565b7f4e487b71000000000000000000000000000000000000000000000000000000005f52603260045260245ffd5b7f4f6e6c7920746865206f776e65722063616e206d6f646966792074686520636f5f8201527f6e74726163740000000000000000000000000000000000000000000000000000602082015250565b5f610a3c602683610693565b9150610a47826109e2565b604082019050919050565b5f6020820190508181035f830152610a6981610a30565b9050919050565b5f819050815f5260205f209050919050565b5f6020601f8301049050919050565b5f82821b905092915050565b5f60088302610acc7fffffffffffffffffffffffffffffffffffffffffffffffffffffffffffffffff82610a91565b610ad68683610a91565b95508019841693508086168417925050509392505050565b5f819050919050565b5f610b11610b0c610b0784610635565b610aee565b610635565b9050919050565b5f819050919050565b610b2a83610af7565b610b3e610b3682610b18565b848454610a9d565b825550505050565b5f90565b610b52610b46565b610b5d818484610b21565b505050565b5b81811015610b8057610b755f82610b4a565b600181019050610b63565b5050565b601f821115610bc557610b9681610a70565b610b9f84610a82565b81016020851015610bae578190505b610bc2610bba85610a82565b830182610b62565b50505b505050565b5f82821c905092915050565b5f610be55f1984600802610bca565b1980831691505092915050565b5f610bfd8383610bd6565b9150826002028217905092915050565b610c1682610502565b67ffffffffffffffff811115610c2f57610c2e610703565b5b610c39825461091d565b610c44828285610b84565b5f60209050601f831160018114610c75575f8415610c63578287015190505b610c6d8582610bf2565b865550610cd4565b601f198416610c8386610a70565b5f5b82811015610caa57848901518255600182019150602085019450602081019050610c85565b86831015610cc75784890151610cc3601f891682610bd6565b8355505b6001600288020188555050505b505050505050565b7f4e487b71000000000000000000000000000000000000000000000000000000005f52601160045260245ffd5b5f610d1382610635565b9150610d1e83610635565b9250828203905081811115610d3657610d35610cdc565b5b92915050565b7f4f424a45435420414444454400000000000000000000000000000000000000005f82015250565b5f610d70600c83610693565b9150610d7b82610d3c565b602082019050919050565b5f6040820190508181035f830152610d9d81610d64565b90508181036020830152610db181846106a3565b90509291505056fea2646970667358221220eede180c77cd8289323788ec6cd917eb795d9d974b262931580f67a169971ec764736f6c634300081a0033",
			"opcodes": "PUSH1 0x80 PUSH1 0x40 MSTORE CALLVALUE DUP1 ISZERO PUSH1 0xE JUMPI PUSH0 DUP1 REVERT JUMPDEST POP CALLER PUSH1 0x1 PUSH0 PUSH2 0x100 EXP DUP2 SLOAD DUP2 PUSH20 0xFFFFFFFFFFFFFFFFFFFFFFFFFFFFFFFFFFFFFFFF MUL NOT AND SWAP1 DUP4 PUSH20 0xFFFFFFFFFFFFFFFFFFFFFFFFFFFFFFFFFFFFFFFF AND MUL OR SWAP1 SSTORE POP PUSH2 0xDEF DUP1 PUSH2 0x5C PUSH0 CODECOPY PUSH0 RETURN INVALID PUSH1 0x80 PUSH1 0x40 MSTORE CALLVALUE DUP1 ISZERO PUSH2 0xF JUMPI PUSH0 DUP1 REVERT JUMPDEST POP PUSH1 0x4 CALLDATASIZE LT PUSH2 0x4A JUMPI PUSH0 CALLDATALOAD PUSH1 0xE0 SHR DUP1 PUSH4 0x78A9EEED EQ PUSH2 0x4E JUMPI DUP1 PUSH4 0x9EBECAB0 EQ PUSH2 0x6C JUMPI DUP1 PUSH4 0xB0C8F9DC EQ PUSH2 0x9C JUMPI DUP1 PUSH4 0xF745630F EQ PUSH2 0xCC JUMPI JUMPDEST PUSH0 DUP1 REVERT JUMPDEST PUSH2 0x56 PUSH2 0xE8 JUMP JUMPDEST PUSH1 0x40 MLOAD PUSH2 0x63 SWAP2 SWAP1 PUSH2 0x604 JUMP JUMPDEST PUSH1 0x40 MLOAD DUP1 SWAP2 SUB SWAP1 RETURN JUMPDEST PUSH2 0x86 PUSH1 0x4 DUP1 CALLDATASIZE SUB DUP2 ADD SWAP1 PUSH2 0x81 SWAP2 SWAP1 PUSH2 0x668 JUMP JUMPDEST PUSH2 0x1BB JUMP JUMPDEST PUSH1 0x40 MLOAD PUSH2 0x93 SWAP2 SWAP1 PUSH2 0x6DB JUMP JUMPDEST PUSH1 0x40 MLOAD DUP1 SWAP2 SUB SWAP1 RETURN JUMPDEST PUSH2 0xB6 PUSH1 0x4 DUP1 CALLDATASIZE SUB DUP2 ADD SWAP1 PUSH2 0xB1 SWAP2 SWAP1 PUSH2 0x827 JUMP JUMPDEST PUSH2 0x2AE JUMP JUMPDEST PUSH1 0x40 MLOAD PUSH2 0xC3 SWAP2 SWAP1 PUSH2 0x87D JUMP JUMPDEST PUSH1 0x40 MLOAD DUP1 SWAP2 SUB SWAP1 RETURN JUMPDEST PUSH2 0xE6 PUSH1 0x4 DUP1 CALLDATASIZE SUB DUP2 ADD SWAP1 PUSH2 0xE1 SWAP2 SWAP1 PUSH2 0x896 JUMP JUMPDEST PUSH2 0x3D5 JUMP JUMPDEST STOP JUMPDEST PUSH1 0x60 PUSH0 DUP1 SLOAD DUP1 PUSH1 0x20 MUL PUSH1 0x20 ADD PUSH1 0x40 MLOAD SWAP1 DUP2 ADD PUSH1 0x40 MSTORE DUP1 SWAP3 SWAP2 SWAP1 DUP2 DUP2 MSTORE PUSH1 0x20 ADD PUSH0 SWAP1 JUMPDEST DUP3 DUP3 LT ISZERO PUSH2 0x1B2 JUMPI DUP4 DUP3 SWAP1 PUSH0 MSTORE PUSH1 0x20 PUSH0 KECCAK256 ADD DUP1 SLOAD PUSH2 0x127 SWAP1 PUSH2 0x91D JUMP JUMPDEST DUP1 PUSH1 0x1F ADD PUSH1 0x20 DUP1 SWAP2 DIV MUL PUSH1 0x20 ADD PUSH1 0x40 MLOAD SWAP1 DUP2 ADD PUSH1 0x40 MSTORE DUP1 SWAP3 SWAP2 SWAP1 DUP2 DUP2 MSTORE PUSH1 0x20 ADD DUP3 DUP1 SLOAD PUSH2 0x153 SWAP1 PUSH2 0x91D JUMP JUMPDEST DUP1 ISZERO PUSH2 0x19E JUMPI DUP1 PUSH1 0x1F LT PUSH2 0x175 JUMPI PUSH2 0x100 DUP1 DUP4 SLOAD DIV MUL DUP4 MSTORE SWAP2 PUSH1 0x20 ADD SWAP2 PUSH2 0x19E JUMP JUMPDEST DUP3 ADD SWAP2 SWAP1 PUSH0 MSTORE PUSH1 0x20 PUSH0 KECCAK256 SWAP1 JUMPDEST DUP2 SLOAD DUP2 MSTORE SWAP1 PUSH1 0x1 ADD SWAP1 PUSH1 0x20 ADD DUP1 DUP4 GT PUSH2 0x181 JUMPI DUP3 SWAP1 SUB PUSH1 0x1F AND DUP3 ADD SWAP2 JUMPDEST POP POP POP POP POP DUP2 MSTORE PUSH1 0x20 ADD SWAP1 PUSH1 0x1 ADD SWAP1 PUSH2 0x10A JUMP JUMPDEST POP POP POP POP SWAP1 POP SWAP1 JUMP JUMPDEST PUSH1 0x60 DUP2 PUSH0 DUP1 SLOAD SWAP1 POP DUP2 LT PUSH2 0x204 JUMPI PUSH1 0x40 MLOAD PUSH32 0x8C379A000000000000000000000000000000000000000000000000000000000 DUP2 MSTORE PUSH1 0x4 ADD PUSH2 0x1FB SWAP1 PUSH2 0x997 JUMP JUMPDEST PUSH1 0x40 MLOAD DUP1 SWAP2 SUB SWAP1 REVERT JUMPDEST PUSH0 DUP4 DUP2 SLOAD DUP2 LT PUSH2 0x217 JUMPI PUSH2 0x216 PUSH2 0x9B5 JUMP JUMPDEST JUMPDEST SWAP1 PUSH0 MSTORE PUSH1 0x20 PUSH0 KECCAK256 ADD DUP1 SLOAD PUSH2 0x22A SWAP1 PUSH2 0x91D JUMP JUMPDEST DUP1 PUSH1 0x1F ADD PUSH1 0x20 DUP1 SWAP2 DIV MUL PUSH1 0x20 ADD PUSH1 0x40 MLOAD SWAP1 DUP2 ADD PUSH1 0x40 MSTORE DUP1 SWAP3 SWAP2 SWAP1 DUP2 DUP2 MSTORE PUSH1 0x20 ADD DUP3 DUP1 SLOAD PUSH2 0x256 SWAP1 PUSH2 0x91D JUMP JUMPDEST DUP1 ISZERO PUSH2 0x2A1 JUMPI DUP1 PUSH1 0x1F LT PUSH2 0x278 JUMPI PUSH2 0x100 DUP1 DUP4 SLOAD DIV MUL DUP4 MSTORE SWAP2 PUSH1 0x20 ADD SWAP2 PUSH2 0x2A1 JUMP JUMPDEST DUP3 ADD SWAP2 SWAP1 PUSH0 MSTORE PUSH1 0x20 PUSH0 KECCAK256 SWAP1 JUMPDEST DUP2 SLOAD DUP2 MSTORE SWAP1 PUSH1 0x1 ADD SWAP1 PUSH1 0x20 ADD DUP1 DUP4 GT PUSH2 0x284 JUMPI DUP3 SWAP1 SUB PUSH1 0x1F AND DUP3 ADD SWAP2 JUMPDEST POP POP POP POP POP SWAP2 POP POP SWAP2 SWAP1 POP JUMP JUMPDEST PUSH0 CALLER PUSH20 0xFFFFFFFFFFFFFFFFFFFFFFFFFFFFFFFFFFFFFFFF AND PUSH1 0x1 PUSH0 SWAP1 SLOAD SWAP1 PUSH2 0x100 EXP SWAP1 DIV PUSH20 0xFFFFFFFFFFFFFFFFFFFFFFFFFFFFFFFFFFFFFFFF AND PUSH20 0xFFFFFFFFFFFFFFFFFFFFFFFFFFFFFFFFFFFFFFFF AND EQ PUSH2 0x33E JUMPI PUSH1 0x40 MLOAD PUSH32 0x8C379A000000000000000000000000000000000000000000000000000000000 DUP2 MSTORE PUSH1 0x4 ADD PUSH2 0x335 SWAP1 PUSH2 0xA52 JUMP JUMPDEST PUSH1 0x40 MLOAD DUP1 SWAP2 SUB SWAP1 REVERT JUMPDEST PUSH0 DUP3 SWAP1 DUP1 PUSH1 0x1 DUP2 SLOAD ADD DUP1 DUP3 SSTORE DUP1 SWAP2 POP POP PUSH1 0x1 SWAP1 SUB SWAP1 PUSH0 MSTORE PUSH1 0x20 PUSH0 KECCAK256 ADD PUSH0 SWAP1 SWAP2 SWAP1 SWAP2 SWAP1 SWAP2 POP SWAP1 DUP2 PUSH2 0x36E SWAP2 SWAP1 PUSH2 0xC0D JUMP JUMPDEST POP PUSH1 0x1 PUSH0 DUP1 SLOAD SWAP1 POP PUSH2 0x380 SWAP2 SWAP1 PUSH2 0xD09 JUMP JUMPDEST SWAP1 POP CALLER PUSH20 0xFFFFFFFFFFFFFFFFFFFFFFFFFFFFFFFFFFFFFFFF AND PUSH32 0xDE4389D0E2B82C1DA27DA351A07C61A1C281A257DD810BC7FAD7E95A2FFFD0D2 DUP4 PUSH1 0x40 MLOAD PUSH2 0x3C8 SWAP2 SWAP1 PUSH2 0xD86 JUMP JUMPDEST PUSH1 0x40 MLOAD DUP1 SWAP2 SUB SWAP1 LOG2 SWAP2 SWAP1 POP JUMP JUMPDEST CALLER PUSH20 0xFFFFFFFFFFFFFFFFFFFFFFFFFFFFFFFFFFFFFFFF AND PUSH1 0x1 PUSH0 SWAP1 SLOAD SWAP1 PUSH2 0x100 EXP SWAP1 DIV PUSH20 0xFFFFFFFFFFFFFFFFFFFFFFFFFFFFFFFFFFFFFFFF AND PUSH20 0xFFFFFFFFFFFFFFFFFFFFFFFFFFFFFFFFFFFFFFFF AND EQ PUSH2 0x464 JUMPI PUSH1 0x40 MLOAD PUSH32 0x8C379A000000000000000000000000000000000000000000000000000000000 DUP2 MSTORE PUSH1 0x4 ADD PUSH2 0x45B SWAP1 PUSH2 0xA52 JUMP JUMPDEST PUSH1 0x40 MLOAD DUP1 SWAP2 SUB SWAP1 REVERT JUMPDEST DUP2 PUSH0 DUP1 SLOAD SWAP1 POP DUP2 LT PUSH2 0x4AB JUMPI PUSH1 0x40 MLOAD PUSH32 0x8C379A000000000000000000000000000000000000000000000000000000000 DUP2 MSTORE PUSH1 0x4 ADD PUSH2 0x4A2 SWAP1 PUSH2 0x997 JUMP JUMPDEST PUSH1 0x40 MLOAD DUP1 SWAP2 SUB SWAP1 REVERT JUMPDEST DUP2 PUSH0 DUP5 DUP2 SLOAD DUP2 LT PUSH2 0x4BF JUMPI PUSH2 0x4BE PUSH2 0x9B5 JUMP JUMPDEST JUMPDEST SWAP1 PUSH0 MSTORE PUSH1 0x20 PUSH0 KECCAK256 ADD SWAP1 DUP2 PUSH2 0x4D3 SWAP2 SWAP1 PUSH2 0xC0D JUMP JUMPDEST POP POP POP POP JUMP JUMPDEST PUSH0 DUP2 MLOAD SWAP1 POP SWAP2 SWAP1 POP JUMP JUMPDEST PUSH0 DUP3 DUP3 MSTORE PUSH1 0x20 DUP3 ADD SWAP1 POP SWAP3 SWAP2 POP POP JUMP JUMPDEST PUSH0 DUP2 SWAP1 POP PUSH1 0x20 DUP3 ADD SWAP1 POP SWAP2 SWAP1 POP JUMP JUMPDEST PUSH0 DUP2 MLOAD SWAP1 POP SWAP2 SWAP1 POP JUMP JUMPDEST PUSH0 DUP3 DUP3 MSTORE PUSH1 0x20 DUP3 ADD SWAP1 POP SWAP3 SWAP2 POP POP JUMP JUMPDEST DUP3 DUP2 DUP4 MCOPY PUSH0 DUP4 DUP4 ADD MSTORE POP POP POP JUMP JUMPDEST PUSH0 PUSH1 0x1F NOT PUSH1 0x1F DUP4 ADD AND SWAP1 POP SWAP2 SWAP1 POP JUMP JUMPDEST PUSH0 PUSH2 0x544 DUP3 PUSH2 0x502 JUMP JUMPDEST PUSH2 0x54E DUP2 DUP6 PUSH2 0x50C JUMP JUMPDEST SWAP4 POP PUSH2 0x55E DUP2 DUP6 PUSH1 0x20 DUP7 ADD PUSH2 0x51C JUMP JUMPDEST PUSH2 0x567 DUP2 PUSH2 0x52A JUMP JUMPDEST DUP5 ADD SWAP2 POP POP SWAP3 SWAP2 POP POP JUMP JUMPDEST PUSH0 PUSH2 0x57D DUP4 DUP4 PUSH2 0x53A JUMP JUMPDEST SWAP1 POP SWAP3 SWAP2 POP POP JUMP JUMPDEST PUSH0 PUSH1 0x20 DUP3 ADD SWAP1 POP SWAP2 SWAP1 POP JUMP JUMPDEST PUSH0 PUSH2 0x59B DUP3 PUSH2 0x4D9 JUMP JUMPDEST PUSH2 0x5A5 DUP2 DUP6 PUSH2 0x4E3 JUMP JUMPDEST SWAP4 POP DUP4 PUSH1 0x20 DUP3 MUL DUP6 ADD PUSH2 0x5B7 DUP6 PUSH2 0x4F3 JUMP JUMPDEST DUP1 PUSH0 JUMPDEST DUP6 DUP2 LT ISZERO PUSH2 0x5F2 JUMPI DUP5 DUP5 SUB DUP10 MSTORE DUP2 MLOAD PUSH2 0x5D3 DUP6 DUP3 PUSH2 0x572 JUMP JUMPDEST SWAP5 POP PUSH2 0x5DE DUP4 PUSH2 0x585 JUMP JUMPDEST SWAP3 POP PUSH1 0x20 DUP11 ADD SWAP10 POP POP PUSH1 0x1 DUP2 ADD SWAP1 POP PUSH2 0x5BA JUMP JUMPDEST POP DUP3 SWAP8 POP DUP8 SWAP6 POP POP POP POP POP POP SWAP3 SWAP2 POP POP JUMP JUMPDEST PUSH0 PUSH1 0x20 DUP3 ADD SWAP1 POP DUP2 DUP2 SUB PUSH0 DUP4 ADD MSTORE PUSH2 0x61C DUP2 DUP5 PUSH2 0x591 JUMP JUMPDEST SWAP1 POP SWAP3 SWAP2 POP POP JUMP JUMPDEST PUSH0 PUSH1 0x40 MLOAD SWAP1 POP SWAP1 JUMP JUMPDEST PUSH0 DUP1 REVERT JUMPDEST PUSH0 DUP1 REVERT JUMPDEST PUSH0 DUP2 SWAP1 POP SWAP2 SWAP1 POP JUMP JUMPDEST PUSH2 0x647 DUP2 PUSH2 0x635 JUMP JUMPDEST DUP2 EQ PUSH2 0x651 JUMPI PUSH0 DUP1 REVERT JUMPDEST POP JUMP JUMPDEST PUSH0 DUP2 CALLDATALOAD SWAP1 POP PUSH2 0x662 DUP2 PUSH2 0x63E JUMP JUMPDEST SWAP3 SWAP2 POP POP JUMP JUMPDEST PUSH0 PUSH1 0x20 DUP3 DUP5 SUB SLT ISZERO PUSH2 0x67D JUMPI PUSH2 0x67C PUSH2 0x62D JUMP JUMPDEST JUMPDEST PUSH0 PUSH2 0x68A DUP5 DUP3 DUP6 ADD PUSH2 0x654 JUMP JUMPDEST SWAP2 POP POP SWAP3 SWAP2 POP POP JUMP JUMPDEST PUSH0 DUP3 DUP3 MSTORE PUSH1 0x20 DUP3 ADD SWAP1 POP SWAP3 SWAP2 POP POP JUMP JUMPDEST PUSH0 PUSH2 0x6AD DUP3 PUSH2 0x502 JUMP JUMPDEST PUSH2 0x6B7 DUP2 DUP6 PUSH2 0x693 JUMP JUMPDEST SWAP4 POP PUSH2 0x6C7 DUP2 DUP6 PUSH1 0x20 DUP7 ADD PUSH2 0x51C JUMP JUMPDEST PUSH2 0x6D0 DUP2 PUSH2 0x52A JUMP JUMPDEST DUP5 ADD SWAP2 POP POP SWAP3 SWAP2 POP POP JUMP JUMPDEST PUSH0 PUSH1 0x20 DUP3 ADD SWAP1 POP DUP2 DUP2 SUB PUSH0 DUP4 ADD MSTORE PUSH2 0x6F3 DUP2 DUP5 PUSH2 0x6A3 JUMP JUMPDEST SWAP1 POP SWAP3 SWAP2 POP POP JUMP JUMPDEST PUSH0 DUP1 REVERT JUMPDEST PUSH0 DUP1 REVERT JUMPDEST PUSH32 0x4E487B7100000000000000000000000000000000000000000000000000000000 PUSH0 MSTORE PUSH1 0x41 PUSH1 0x4 MSTORE PUSH1 0x24 PUSH0 REVERT JUMPDEST PUSH2 0x739 DUP3 PUSH2 0x52A JUMP JUMPDEST DUP2 ADD DUP2 DUP2 LT PUSH8 0xFFFFFFFFFFFFFFFF DUP3 GT OR ISZERO PUSH2 0x758 JUMPI PUSH2 0x757 PUSH2 0x703 JUMP JUMPDEST JUMPDEST DUP1 PUSH1 0x40 MSTORE POP POP POP JUMP JUMPDEST PUSH0 PUSH2 0x76A PUSH2 0x624 JUMP JUMPDEST SWAP1 POP PUSH2 0x776 DUP3 DUP3 PUSH2 0x730 JUMP JUMPDEST SWAP2 SWAP1 POP JUMP JUMPDEST PUSH0 PUSH8 0xFFFFFFFFFFFFFFFF DUP3 GT ISZERO PUSH2 0x795 JUMPI PUSH2 0x794 PUSH2 0x703 JUMP JUMPDEST JUMPDEST PUSH2 0x79E DUP3 PUSH2 0x52A JUMP JUMPDEST SWAP1 POP PUSH1 0x20 DUP2 ADD SWAP1 POP SWAP2 SWAP1 POP JUMP JUMPDEST DUP3 DUP2 DUP4 CALLDATACOPY PUSH0 DUP4 DUP4 ADD MSTORE POP POP POP JUMP JUMPDEST PUSH0 PUSH2 0x7CB PUSH2 0x7C6 DUP5 PUSH2 0x77B JUMP JUMPDEST PUSH2 0x761 JUMP JUMPDEST SWAP1 POP DUP3 DUP2 MSTORE PUSH1 0x20 DUP2 ADD DUP5 DUP5 DUP5 ADD GT ISZERO PUSH2 0x7E7 JUMPI PUSH2 0x7E6 PUSH2 0x6FF JUMP JUMPDEST JUMPDEST PUSH2 0x7F2 DUP5 DUP3 DUP6 PUSH2 0x7AB JUMP JUMPDEST POP SWAP4 SWAP3 POP POP POP JUMP JUMPDEST PUSH0 DUP3 PUSH1 0x1F DUP4 ADD SLT PUSH2 0x80E JUMPI PUSH2 0x80D PUSH2 0x6FB JUMP JUMPDEST JUMPDEST DUP2 CALLDATALOAD PUSH2 0x81E DUP5 DUP3 PUSH1 0x20 DUP7 ADD PUSH2 0x7B9 JUMP JUMPDEST SWAP2 POP POP SWAP3 SWAP2 POP POP JUMP JUMPDEST PUSH0 PUSH1 0x20 DUP3 DUP5 SUB SLT ISZERO PUSH2 0x83C JUMPI PUSH2 0x83B PUSH2 0x62D JUMP JUMPDEST JUMPDEST PUSH0 DUP3 ADD CALLDATALOAD PUSH8 0xFFFFFFFFFFFFFFFF DUP2 GT ISZERO PUSH2 0x859 JUMPI PUSH2 0x858 PUSH2 0x631 JUMP JUMPDEST JUMPDEST PUSH2 0x865 DUP5 DUP3 DUP6 ADD PUSH2 0x7FA JUMP JUMPDEST SWAP2 POP POP SWAP3 SWAP2 POP POP JUMP JUMPDEST PUSH2 0x877 DUP2 PUSH2 0x635 JUMP JUMPDEST DUP3 MSTORE POP POP JUMP JUMPDEST PUSH0 PUSH1 0x20 DUP3 ADD SWAP1 POP PUSH2 0x890 PUSH0 DUP4 ADD DUP5 PUSH2 0x86E JUMP JUMPDEST SWAP3 SWAP2 POP POP JUMP JUMPDEST PUSH0 DUP1 PUSH1 0x40 DUP4 DUP6 SUB SLT ISZERO PUSH2 0x8AC JUMPI PUSH2 0x8AB PUSH2 0x62D JUMP JUMPDEST JUMPDEST PUSH0 PUSH2 0x8B9 DUP6 DUP3 DUP7 ADD PUSH2 0x654 JUMP JUMPDEST SWAP3 POP POP PUSH1 0x20 DUP4 ADD CALLDATALOAD PUSH8 0xFFFFFFFFFFFFFFFF DUP2 GT ISZERO PUSH2 0x8DA JUMPI PUSH2 0x8D9 PUSH2 0x631 JUMP JUMPDEST JUMPDEST PUSH2 0x8E6 DUP6 DUP3 DUP7 ADD PUSH2 0x7FA JUMP JUMPDEST SWAP2 POP POP SWAP3 POP SWAP3 SWAP1 POP JUMP JUMPDEST PUSH32 0x4E487B7100000000000000000000000000000000000000000000000000000000 PUSH0 MSTORE PUSH1 0x22 PUSH1 0x4 MSTORE PUSH1 0x24 PUSH0 REVERT JUMPDEST PUSH0 PUSH1 0x2 DUP3 DIV SWAP1 POP PUSH1 0x1 DUP3 AND DUP1 PUSH2 0x934 JUMPI PUSH1 0x7F DUP3 AND SWAP2 POP JUMPDEST PUSH1 0x20 DUP3 LT DUP2 SUB PUSH2 0x947 JUMPI PUSH2 0x946 PUSH2 0x8F0 JUMP JUMPDEST JUMPDEST POP SWAP2 SWAP1 POP JUMP JUMPDEST PUSH32 0x496E646578206F7574206F6620626F756E647300000000000000000000000000 PUSH0 DUP3 ADD MSTORE POP JUMP JUMPDEST PUSH0 PUSH2 0x981 PUSH1 0x13 DUP4 PUSH2 0x693 JUMP JUMPDEST SWAP2 POP PUSH2 0x98C DUP3 PUSH2 0x94D JUMP JUMPDEST PUSH1 0x20 DUP3 ADD SWAP1 POP SWAP2 SWAP1 POP JUMP JUMPDEST PUSH0 PUSH1 0x20 DUP3 ADD SWAP1 POP DUP2 DUP2 SUB PUSH0 DUP4 ADD MSTORE PUSH2 0x9AE DUP2 PUSH2 0x975 JUMP JUMPDEST SWAP1 POP SWAP2 SWAP1 POP JUMP JUMPDEST PUSH32 0x4E487B7100000000000000000000000000000000000000000000000000000000 PUSH0 MSTORE PUSH1 0x32 PUSH1 0x4 MSTORE PUSH1 0x24 PUSH0 REVERT JUMPDEST PUSH32 0x4F6E6C7920746865206F776E65722063616E206D6F646966792074686520636F PUSH0 DUP3 ADD MSTORE PUSH32 0x6E74726163740000000000000000000000000000000000000000000000000000 PUSH1 0x20 DUP3 ADD MSTORE POP JUMP JUMPDEST PUSH0 PUSH2 0xA3C PUSH1 0x26 DUP4 PUSH2 0x693 JUMP JUMPDEST SWAP2 POP PUSH2 0xA47 DUP3 PUSH2 0x9E2 JUMP JUMPDEST PUSH1 0x40 DUP3 ADD SWAP1 POP SWAP2 SWAP1 POP JUMP JUMPDEST PUSH0 PUSH1 0x20 DUP3 ADD SWAP1 POP DUP2 DUP2 SUB PUSH0 DUP4 ADD MSTORE PUSH2 0xA69 DUP2 PUSH2 0xA30 JUMP JUMPDEST SWAP1 POP SWAP2 SWAP1 POP JUMP JUMPDEST PUSH0 DUP2 SWAP1 POP DUP2 PUSH0 MSTORE PUSH1 0x20 PUSH0 KECCAK256 SWAP1 POP SWAP2 SWAP1 POP JUMP JUMPDEST PUSH0 PUSH1 0x20 PUSH1 0x1F DUP4 ADD DIV SWAP1 POP SWAP2 SWAP1 POP JUMP JUMPDEST PUSH0 DUP3 DUP3 SHL SWAP1 POP SWAP3 SWAP2 POP POP JUMP JUMPDEST PUSH0 PUSH1 0x8 DUP4 MUL PUSH2 0xACC PUSH32 0xFFFFFFFFFFFFFFFFFFFFFFFFFFFFFFFFFFFFFFFFFFFFFFFFFFFFFFFFFFFFFFFF DUP3 PUSH2 0xA91 JUMP JUMPDEST PUSH2 0xAD6 DUP7 DUP4 PUSH2 0xA91 JUMP JUMPDEST SWAP6 POP DUP1 NOT DUP5 AND SWAP4 POP DUP1 DUP7 AND DUP5 OR SWAP3 POP POP POP SWAP4 SWAP3 POP POP POP JUMP JUMPDEST PUSH0 DUP2 SWAP1 POP SWAP2 SWAP1 POP JUMP JUMPDEST PUSH0 PUSH2 0xB11 PUSH2 0xB0C PUSH2 0xB07 DUP5 PUSH2 0x635 JUMP JUMPDEST PUSH2 0xAEE JUMP JUMPDEST PUSH2 0x635 JUMP JUMPDEST SWAP1 POP SWAP2 SWAP1 POP JUMP JUMPDEST PUSH0 DUP2 SWAP1 POP SWAP2 SWAP1 POP JUMP JUMPDEST PUSH2 0xB2A DUP4 PUSH2 0xAF7 JUMP JUMPDEST PUSH2 0xB3E PUSH2 0xB36 DUP3 PUSH2 0xB18 JUMP JUMPDEST DUP5 DUP5 SLOAD PUSH2 0xA9D JUMP JUMPDEST DUP3 SSTORE POP POP POP POP JUMP JUMPDEST PUSH0 SWAP1 JUMP JUMPDEST PUSH2 0xB52 PUSH2 0xB46 JUMP JUMPDEST PUSH2 0xB5D DUP2 DUP5 DUP5 PUSH2 0xB21 JUMP JUMPDEST POP POP POP JUMP JUMPDEST JUMPDEST DUP2 DUP2 LT ISZERO PUSH2 0xB80 JUMPI PUSH2 0xB75 PUSH0 DUP3 PUSH2 0xB4A JUMP JUMPDEST PUSH1 0x1 DUP2 ADD SWAP1 POP PUSH2 0xB63 JUMP JUMPDEST POP POP JUMP JUMPDEST PUSH1 0x1F DUP3 GT ISZERO PUSH2 0xBC5 JUMPI PUSH2 0xB96 DUP2 PUSH2 0xA70 JUMP JUMPDEST PUSH2 0xB9F DUP5 PUSH2 0xA82 JUMP JUMPDEST DUP2 ADD PUSH1 0x20 DUP6 LT ISZERO PUSH2 0xBAE JUMPI DUP2 SWAP1 POP JUMPDEST PUSH2 0xBC2 PUSH2 0xBBA DUP6 PUSH2 0xA82 JUMP JUMPDEST DUP4 ADD DUP3 PUSH2 0xB62 JUMP JUMPDEST POP POP JUMPDEST POP POP POP JUMP JUMPDEST PUSH0 DUP3 DUP3 SHR SWAP1 POP SWAP3 SWAP2 POP POP JUMP JUMPDEST PUSH0 PUSH2 0xBE5 PUSH0 NOT DUP5 PUSH1 0x8 MUL PUSH2 0xBCA JUMP JUMPDEST NOT DUP1 DUP4 AND SWAP2 POP POP SWAP3 SWAP2 POP POP JUMP JUMPDEST PUSH0 PUSH2 0xBFD DUP4 DUP4 PUSH2 0xBD6 JUMP JUMPDEST SWAP2 POP DUP3 PUSH1 0x2 MUL DUP3 OR SWAP1 POP SWAP3 SWAP2 POP POP JUMP JUMPDEST PUSH2 0xC16 DUP3 PUSH2 0x502 JUMP JUMPDEST PUSH8 0xFFFFFFFFFFFFFFFF DUP2 GT ISZERO PUSH2 0xC2F JUMPI PUSH2 0xC2E PUSH2 0x703 JUMP JUMPDEST JUMPDEST PUSH2 0xC39 DUP3 SLOAD PUSH2 0x91D JUMP JUMPDEST PUSH2 0xC44 DUP3 DUP3 DUP6 PUSH2 0xB84 JUMP JUMPDEST PUSH0 PUSH1 0x20 SWAP1 POP PUSH1 0x1F DUP4 GT PUSH1 0x1 DUP2 EQ PUSH2 0xC75 JUMPI PUSH0 DUP5 ISZERO PUSH2 0xC63 JUMPI DUP3 DUP8 ADD MLOAD SWAP1 POP JUMPDEST PUSH2 0xC6D DUP6 DUP3 PUSH2 0xBF2 JUMP JUMPDEST DUP7 SSTORE POP PUSH2 0xCD4 JUMP JUMPDEST PUSH1 0x1F NOT DUP5 AND PUSH2 0xC83 DUP7 PUSH2 0xA70 JUMP JUMPDEST PUSH0 JUMPDEST DUP3 DUP2 LT ISZERO PUSH2 0xCAA JUMPI DUP5 DUP10 ADD MLOAD DUP3 SSTORE PUSH1 0x1 DUP3 ADD SWAP2 POP PUSH1 0x20 DUP6 ADD SWAP5 POP PUSH1 0x20 DUP2 ADD SWAP1 POP PUSH2 0xC85 JUMP JUMPDEST DUP7 DUP4 LT ISZERO PUSH2 0xCC7 JUMPI DUP5 DUP10 ADD MLOAD PUSH2 0xCC3 PUSH1 0x1F DUP10 AND DUP3 PUSH2 0xBD6 JUMP JUMPDEST DUP4 SSTORE POP JUMPDEST PUSH1 0x1 PUSH1 0x2 DUP9 MUL ADD DUP9 SSTORE POP POP POP JUMPDEST POP POP POP POP POP POP JUMP JUMPDEST PUSH32 0x4E487B7100000000000000000000000000000000000000000000000000000000 PUSH0 MSTORE PUSH1 0x11 PUSH1 0x4 MSTORE PUSH1 0x24 PUSH0 REVERT JUMPDEST PUSH0 PUSH2 0xD13 DUP3 PUSH2 0x635 JUMP JUMPDEST SWAP2 POP PUSH2 0xD1E DUP4 PUSH2 0x635 JUMP JUMPDEST SWAP3 POP DUP3 DUP3 SUB SWAP1 POP DUP2 DUP2 GT ISZERO PUSH2 0xD36 JUMPI PUSH2 0xD35 PUSH2 0xCDC JUMP JUMPDEST JUMPDEST SWAP3 SWAP2 POP POP JUMP JUMPDEST PUSH32 0x4F424A4543542041444445440000000000000000000000000000000000000000 PUSH0 DUP3 ADD MSTORE POP JUMP JUMPDEST PUSH0 PUSH2 0xD70 PUSH1 0xC DUP4 PUSH2 0x693 JUMP JUMPDEST SWAP2 POP PUSH2 0xD7B DUP3 PUSH2 0xD3C JUMP JUMPDEST PUSH1 0x20 DUP3 ADD SWAP1 POP SWAP2 SWAP1 POP JUMP JUMPDEST PUSH0 PUSH1 0x40 DUP3 ADD SWAP1 POP DUP2 DUP2 SUB PUSH0 DUP4 ADD MSTORE PUSH2 0xD9D DUP2 PUSH2 0xD64 JUMP JUMPDEST SWAP1 POP DUP2 DUP2 SUB PUSH1 0x20 DUP4 ADD MSTORE PUSH2 0xDB1 DUP2 DUP5 PUSH2 0x6A3 JUMP JUMPDEST SWAP1 POP SWAP3 SWAP2 POP POP JUMP INVALID LOG2 PUSH5 0x6970667358 0x22 SLT KECCAK256 0xEE 0xDE XOR 0xC PUSH24 0xCD8289323788EC6CD917EB795D9D974B262931580F67A169 SWAP8 0x1E 0xC7 PUSH5 0x736F6C6343 STOP ADDMOD BYTE STOP CALLER "
		},
		"gasEstimates": {
			"creation": {
				"codeDepositCost": "713400",
				"executionCost": "25010",
				"totalCost": "738410"
			},
			"external": {
				"add(string)": "infinite",
				"getOne(uint256)": "infinite",
				"listAll()": "infinite",
				"update(uint256,string)": "infinite"
			}
		},
		"methodIdentifiers": {
			"add(string)": "b0c8f9dc",
			"getOne(uint256)": "9ebecab0",
			"listAll()": "78a9eeed",
			"update(uint256,string)": "f745630f"
		}
	},
	"abi": [
		{
			"inputs": [],
			"stateMutability": "nonpayable",
			"type": "constructor"
		},
		{
			"anonymous": false,
			"inputs": [
				{
					"indexed": true,
					"internalType": "address",
					"name": "editor",
					"type": "address"
				},
				{
					"indexed": false,
					"internalType": "string",
					"name": "key",
					"type": "string"
				},
				{
					"indexed": false,
					"internalType": "string",
					"name": "value",
					"type": "string"
				}
			],
			"name": "DataModified",
			"type": "event"
		},
		{
			"inputs": [
				{
					"internalType": "string",
					"name": "_myInfo",
					"type": "string"
				}
			],
			"name": "add",
			"outputs": [
				{
					"internalType": "uint256",
					"name": "index",
					"type": "uint256"
				}
			],
			"stateMutability": "nonpayable",
			"type": "function"
		},
		{
			"inputs": [
				{
					"internalType": "uint256",
					"name": "_index",
					"type": "uint256"
				}
			],
			"name": "getOne",
			"outputs": [
				{
					"internalType": "string",
					"name": "",
					"type": "string"
				}
			],
			"stateMutability": "view",
			"type": "function"
		},
		{
			"inputs": [],
			"name": "listAll",
			"outputs": [
				{
					"internalType": "string[]",
					"name": "",
					"type": "string[]"
				}
			],
			"stateMutability": "view",
			"type": "function"
		},
		{
			"inputs": [
				{
					"internalType": "uint256",
					"name": "_index",
					"type": "uint256"
				},
				{
					"internalType": "string",
					"name": "newInfo",
					"type": "string"
				}
			],
			"name": "update",
			"outputs": [],
			"stateMutability": "nonpayable",
			"type": "function"
		}
	]
}