{
	"data": {
		"bytecode": {
			"linkReferences": {},
			"object": "6080604052348015600e575f80fd5b50610b748061001c5f395ff3fe608060405234801561000f575f80fd5b506004361061004a575f3560e01c80630bf803e41461004e57806350c001971461007e57806394b1a5bc1461009a578063edc2784e146100ca575b5f80fd5b610068600480360381019061006391906104b6565b6100e8565b6040516100759190610515565b60405180910390f35b61009860048036038101906100939190610558565b610132565b005b6100b460048036038101906100af91906105b2565b6101a5565b6040516100c1919061063d565b60405180910390f35b6100d2610296565b6040516100df9190610760565b60405180910390f35b5f8082908060018154018082558091505060019003905f5260205f20015f909190919091509081610119919061097a565b5060015f8054905061012b9190610a76565b9050919050565b5f805490508210610178576040517f08c379a000000000000000000000000000000000000000000000000000000000815260040161016f90610af3565b60405180910390fd5b805f838154811061018c5761018b610b11565b5b905f5260205f200190816101a0919061097a565b505050565b60605f8054905082106101ed576040517f08c379a00000000000000000000000000000000000000000000000000000000081526004016101e490610af3565b60405180910390fd5b5f8281548110610200576101ff610b11565b5b905f5260205f20018054610213906107ad565b80601f016020809104026020016040519081016040528092919081815260200182805461023f906107ad565b801561028a5780601f106102615761010080835404028352916020019161028a565b820191905f5260205f20905b81548152906001019060200180831161026d57829003601f168201915b50505050509050919050565b60605f805480602002602001604051908101604052809291908181526020015f905b82821015610360578382905f5260205f200180546102d5906107ad565b80601f0160208091040260200160405190810160405280929190818152602001828054610301906107ad565b801561034c5780601f106103235761010080835404028352916020019161034c565b820191905f5260205f20905b81548152906001019060200180831161032f57829003601f168201915b5050505050815260200190600101906102b8565b50505050905090565b5f604051905090565b5f80fd5b5f80fd5b5f80fd5b5f80fd5b5f601f19601f8301169050919050565b7f4e487b71000000000000000000000000000000000000000000000000000000005f52604160045260245ffd5b6103c882610382565b810181811067ffffffffffffffff821117156103e7576103e6610392565b5b80604052505050565b5f6103f9610369565b905061040582826103bf565b919050565b5f67ffffffffffffffff82111561042457610423610392565b5b61042d82610382565b9050602081019050919050565b828183375f83830152505050565b5f61045a6104558461040a565b6103f0565b9050828152602081018484840111156104765761047561037e565b5b61048184828561043a565b509392505050565b5f82601f83011261049d5761049c61037a565b5b81356104ad848260208601610448565b91505092915050565b5f602082840312156104cb576104ca610372565b5b5f82013567ffffffffffffffff8111156104e8576104e7610376565b5b6104f484828501610489565b91505092915050565b5f819050919050565b61050f816104fd565b82525050565b5f6020820190506105285f830184610506565b92915050565b610537816104fd565b8114610541575f80fd5b50565b5f813590506105528161052e565b92915050565b5f806040838503121561056e5761056d610372565b5b5f61057b85828601610544565b925050602083013567ffffffffffffffff81111561059c5761059b610376565b5b6105a885828601610489565b9150509250929050565b5f602082840312156105c7576105c6610372565b5b5f6105d484828501610544565b91505092915050565b5f81519050919050565b5f82825260208201905092915050565b8281835e5f83830152505050565b5f61060f826105dd565b61061981856105e7565b93506106298185602086016105f7565b61063281610382565b840191505092915050565b5f6020820190508181035f8301526106558184610605565b905092915050565b5f81519050919050565b5f82825260208201905092915050565b5f819050602082019050919050565b5f82825260208201905092915050565b5f6106a0826105dd565b6106aa8185610686565b93506106ba8185602086016105f7565b6106c381610382565b840191505092915050565b5f6106d98383610696565b905092915050565b5f602082019050919050565b5f6106f78261065d565b6107018185610667565b93508360208202850161071385610677565b805f5b8581101561074e578484038952815161072f85826106ce565b945061073a836106e1565b925060208a01995050600181019050610716565b50829750879550505050505092915050565b5f6020820190508181035f83015261077881846106ed565b905092915050565b7f4e487b71000000000000000000000000000000000000000000000000000000005f52602260045260245ffd5b5f60028204905060018216806107c457607f821691505b6020821081036107d7576107d6610780565b5b50919050565b5f819050815f5260205f209050919050565b5f6020601f8301049050919050565b5f82821b905092915050565b5f600883026108397fffffffffffffffffffffffffffffffffffffffffffffffffffffffffffffffff826107fe565b61084386836107fe565b95508019841693508086168417925050509392505050565b5f819050919050565b5f61087e610879610874846104fd565b61085b565b6104fd565b9050919050565b5f819050919050565b61089783610864565b6108ab6108a382610885565b84845461080a565b825550505050565b5f90565b6108bf6108b3565b6108ca81848461088e565b505050565b5b818110156108ed576108e25f826108b7565b6001810190506108d0565b5050565b601f82111561093257610903816107dd565b61090c846107ef565b8101602085101561091b578190505b61092f610927856107ef565b8301826108cf565b50505b505050565b5f82821c905092915050565b5f6109525f1984600802610937565b1980831691505092915050565b5f61096a8383610943565b9150826002028217905092915050565b610983826105dd565b67ffffffffffffffff81111561099c5761099b610392565b5b6109a682546107ad565b6109b18282856108f1565b5f60209050601f8311600181146109e2575f84156109d0578287015190505b6109da858261095f565b865550610a41565b601f1984166109f0866107dd565b5f5b82811015610a17578489015182556001820191506020850194506020810190506109f2565b86831015610a345784890151610a30601f891682610943565b8355505b6001600288020188555050505b505050505050565b7f4e487b71000000000000000000000000000000000000000000000000000000005f52601160045260245ffd5b5f610a80826104fd565b9150610a8b836104fd565b9250828203905081811115610aa357610aa2610a49565b5b92915050565b7f696e76616c696420696e646578000000000000000000000000000000000000005f82015250565b5f610add600d836105e7565b9150610ae882610aa9565b602082019050919050565b5f6020820190508181035f830152610b0a81610ad1565b9050919050565b7f4e487b71000000000000000000000000000000000000000000000000000000005f52603260045260245ffdfea26469706673582212209c7fbfe64f3111212ea4db6ef2e93a4c9832e3756008559852434309fb32584264736f6c634300081a0033",
			"opcodes": "PUSH1 0x80 PUSH1 0x40 MSTORE CALLVALUE DUP1 ISZERO PUSH1 0xE JUMPI PUSH0 DUP1 REVERT JUMPDEST POP PUSH2 0xB74 DUP1 PUSH2 0x1C PUSH0 CODECOPY PUSH0 RETURN INVALID PUSH1 0x80 PUSH1 0x40 MSTORE CALLVALUE DUP1 ISZERO PUSH2 0xF JUMPI PUSH0 DUP1 REVERT JUMPDEST POP PUSH1 0x4 CALLDATASIZE LT PUSH2 0x4A JUMPI PUSH0 CALLDATALOAD PUSH1 0xE0 SHR DUP1 PUSH4 0xBF803E4 EQ PUSH2 0x4E JUMPI DUP1 PUSH4 0x50C00197 EQ PUSH2 0x7E JUMPI DUP1 PUSH4 0x94B1A5BC EQ PUSH2 0x9A JUMPI DUP1 PUSH4 0xEDC2784E EQ PUSH2 0xCA JUMPI JUMPDEST PUSH0 DUP1 REVERT JUMPDEST PUSH2 0x68 PUSH1 0x4 DUP1 CALLDATASIZE SUB DUP2 ADD SWAP1 PUSH2 0x63 SWAP2 SWAP1 PUSH2 0x4B6 JUMP JUMPDEST PUSH2 0xE8 JUMP JUMPDEST PUSH1 0x40 MLOAD PUSH2 0x75 SWAP2 SWAP1 PUSH2 0x515 JUMP JUMPDEST PUSH1 0x40 MLOAD DUP1 SWAP2 SUB SWAP1 RETURN JUMPDEST PUSH2 0x98 PUSH1 0x4 DUP1 CALLDATASIZE SUB DUP2 ADD SWAP1 PUSH2 0x93 SWAP2 SWAP1 PUSH2 0x558 JUMP JUMPDEST PUSH2 0x132 JUMP JUMPDEST STOP JUMPDEST PUSH2 0xB4 PUSH1 0x4 DUP1 CALLDATASIZE SUB DUP2 ADD SWAP1 PUSH2 0xAF SWAP2 SWAP1 PUSH2 0x5B2 JUMP JUMPDEST PUSH2 0x1A5 JUMP JUMPDEST PUSH1 0x40 MLOAD PUSH2 0xC1 SWAP2 SWAP1 PUSH2 0x63D JUMP JUMPDEST PUSH1 0x40 MLOAD DUP1 SWAP2 SUB SWAP1 RETURN JUMPDEST PUSH2 0xD2 PUSH2 0x296 JUMP JUMPDEST PUSH1 0x40 MLOAD PUSH2 0xDF SWAP2 SWAP1 PUSH2 0x760 JUMP JUMPDEST PUSH1 0x40 MLOAD DUP1 SWAP2 SUB SWAP1 RETURN JUMPDEST PUSH0 DUP1 DUP3 SWAP1 DUP1 PUSH1 0x1 DUP2 SLOAD ADD DUP1 DUP3 SSTORE DUP1 SWAP2 POP POP PUSH1 0x1 SWAP1 SUB SWAP1 PUSH0 MSTORE PUSH1 0x20 PUSH0 KECCAK256 ADD PUSH0 SWAP1 SWAP2 SWAP1 SWAP2 SWAP1 SWAP2 POP SWAP1 DUP2 PUSH2 0x119 SWAP2 SWAP1 PUSH2 0x97A JUMP JUMPDEST POP PUSH1 0x1 PUSH0 DUP1 SLOAD SWAP1 POP PUSH2 0x12B SWAP2 SWAP1 PUSH2 0xA76 JUMP JUMPDEST SWAP1 POP SWAP2 SWAP1 POP JUMP JUMPDEST PUSH0 DUP1 SLOAD SWAP1 POP DUP3 LT PUSH2 0x178 JUMPI PUSH1 0x40 MLOAD PUSH32 0x8C379A000000000000000000000000000000000000000000000000000000000 DUP2 MSTORE PUSH1 0x4 ADD PUSH2 0x16F SWAP1 PUSH2 0xAF3 JUMP JUMPDEST PUSH1 0x40 MLOAD DUP1 SWAP2 SUB SWAP1 REVERT JUMPDEST DUP1 PUSH0 DUP4 DUP2 SLOAD DUP2 LT PUSH2 0x18C JUMPI PUSH2 0x18B PUSH2 0xB11 JUMP JUMPDEST JUMPDEST SWAP1 PUSH0 MSTORE PUSH1 0x20 PUSH0 KECCAK256 ADD SWAP1 DUP2 PUSH2 0x1A0 SWAP2 SWAP1 PUSH2 0x97A JUMP JUMPDEST POP POP POP JUMP JUMPDEST PUSH1 0x60 PUSH0 DUP1 SLOAD SWAP1 POP DUP3 LT PUSH2 0x1ED JUMPI PUSH1 0x40 MLOAD PUSH32 0x8C379A000000000000000000000000000000000000000000000000000000000 DUP2 MSTORE PUSH1 0x4 ADD PUSH2 0x1E4 SWAP1 PUSH2 0xAF3 JUMP JUMPDEST PUSH1 0x40 MLOAD DUP1 SWAP2 SUB SWAP1 REVERT JUMPDEST PUSH0 DUP3 DUP2 SLOAD DUP2 LT PUSH2 0x200 JUMPI PUSH2 0x1FF PUSH2 0xB11 JUMP JUMPDEST JUMPDEST SWAP1 PUSH0 MSTORE PUSH1 0x20 PUSH0 KECCAK256 ADD DUP1 SLOAD PUSH2 0x213 SWAP1 PUSH2 0x7AD JUMP JUMPDEST DUP1 PUSH1 0x1F ADD PUSH1 0x20 DUP1 SWAP2 DIV MUL PUSH1 0x20 ADD PUSH1 0x40 MLOAD SWAP1 DUP2 ADD PUSH1 0x40 MSTORE DUP1 SWAP3 SWAP2 SWAP1 DUP2 DUP2 MSTORE PUSH1 0x20 ADD DUP3 DUP1 SLOAD PUSH2 0x23F SWAP1 PUSH2 0x7AD JUMP JUMPDEST DUP1 ISZERO PUSH2 0x28A JUMPI DUP1 PUSH1 0x1F LT PUSH2 0x261 JUMPI PUSH2 0x100 DUP1 DUP4 SLOAD DIV MUL DUP4 MSTORE SWAP2 PUSH1 0x20 ADD SWAP2 PUSH2 0x28A JUMP JUMPDEST DUP3 ADD SWAP2 SWAP1 PUSH0 MSTORE PUSH1 0x20 PUSH0 KECCAK256 SWAP1 JUMPDEST DUP2 SLOAD DUP2 MSTORE SWAP1 PUSH1 0x1 ADD SWAP1 PUSH1 0x20 ADD DUP1 DUP4 GT PUSH2 0x26D JUMPI DUP3 SWAP1 SUB PUSH1 0x1F AND DUP3 ADD SWAP2 JUMPDEST POP POP POP POP POP SWAP1 POP SWAP2 SWAP1 POP JUMP JUMPDEST PUSH1 0x60 PUSH0 DUP1 SLOAD DUP1 PUSH1 0x20 MUL PUSH1 0x20 ADD PUSH1 0x40 MLOAD SWAP1 DUP2 ADD PUSH1 0x40 MSTORE DUP1 SWAP3 SWAP2 SWAP1 DUP2 DUP2 MSTORE PUSH1 0x20 ADD PUSH0 SWAP1 JUMPDEST DUP3 DUP3 LT ISZERO PUSH2 0x360 JUMPI DUP4 DUP3 SWAP1 PUSH0 MSTORE PUSH1 0x20 PUSH0 KECCAK256 ADD DUP1 SLOAD PUSH2 0x2D5 SWAP1 PUSH2 0x7AD JUMP JUMPDEST DUP1 PUSH1 0x1F ADD PUSH1 0x20 DUP1 SWAP2 DIV MUL PUSH1 0x20 ADD PUSH1 0x40 MLOAD SWAP1 DUP2 ADD PUSH1 0x40 MSTORE DUP1 SWAP3 SWAP2 SWAP1 DUP2 DUP2 MSTORE PUSH1 0x20 ADD DUP3 DUP1 SLOAD PUSH2 0x301 SWAP1 PUSH2 0x7AD JUMP JUMPDEST DUP1 ISZERO PUSH2 0x34C JUMPI DUP1 PUSH1 0x1F LT PUSH2 0x323 JUMPI PUSH2 0x100 DUP1 DUP4 SLOAD DIV MUL DUP4 MSTORE SWAP2 PUSH1 0x20 ADD SWAP2 PUSH2 0x34C JUMP JUMPDEST DUP3 ADD SWAP2 SWAP1 PUSH0 MSTORE PUSH1 0x20 PUSH0 KECCAK256 SWAP1 JUMPDEST DUP2 SLOAD DUP2 MSTORE SWAP1 PUSH1 0x1 ADD SWAP1 PUSH1 0x20 ADD DUP1 DUP4 GT PUSH2 0x32F JUMPI DUP3 SWAP1 SUB PUSH1 0x1F AND DUP3 ADD SWAP2 JUMPDEST POP POP POP POP POP DUP2 MSTORE PUSH1 0x20 ADD SWAP1 PUSH1 0x1 ADD SWAP1 PUSH2 0x2B8 JUMP JUMPDEST POP POP POP POP SWAP1 POP SWAP1 JUMP JUMPDEST PUSH0 PUSH1 0x40 MLOAD SWAP1 POP SWAP1 JUMP JUMPDEST PUSH0 DUP1 REVERT JUMPDEST PUSH0 DUP1 REVERT JUMPDEST PUSH0 DUP1 REVERT JUMPDEST PUSH0 DUP1 REVERT JUMPDEST PUSH0 PUSH1 0x1F NOT PUSH1 0x1F DUP4 ADD AND SWAP1 POP SWAP2 SWAP1 POP JUMP JUMPDEST PUSH32 0x4E487B7100000000000000000000000000000000000000000000000000000000 PUSH0 MSTORE PUSH1 0x41 PUSH1 0x4 MSTORE PUSH1 0x24 PUSH0 REVERT JUMPDEST PUSH2 0x3C8 DUP3 PUSH2 0x382 JUMP JUMPDEST DUP2 ADD DUP2 DUP2 LT PUSH8 0xFFFFFFFFFFFFFFFF DUP3 GT OR ISZERO PUSH2 0x3E7 JUMPI PUSH2 0x3E6 PUSH2 0x392 JUMP JUMPDEST JUMPDEST DUP1 PUSH1 0x40 MSTORE POP POP POP JUMP JUMPDEST PUSH0 PUSH2 0x3F9 PUSH2 0x369 JUMP JUMPDEST SWAP1 POP PUSH2 0x405 DUP3 DUP3 PUSH2 0x3BF JUMP JUMPDEST SWAP2 SWAP1 POP JUMP JUMPDEST PUSH0 PUSH8 0xFFFFFFFFFFFFFFFF DUP3 GT ISZERO PUSH2 0x424 JUMPI PUSH2 0x423 PUSH2 0x392 JUMP JUMPDEST JUMPDEST PUSH2 0x42D DUP3 PUSH2 0x382 JUMP JUMPDEST SWAP1 POP PUSH1 0x20 DUP2 ADD SWAP1 POP SWAP2 SWAP1 POP JUMP JUMPDEST DUP3 DUP2 DUP4 CALLDATACOPY PUSH0 DUP4 DUP4 ADD MSTORE POP POP POP JUMP JUMPDEST PUSH0 PUSH2 0x45A PUSH2 0x455 DUP5 PUSH2 0x40A JUMP JUMPDEST PUSH2 0x3F0 JUMP JUMPDEST SWAP1 POP DUP3 DUP2 MSTORE PUSH1 0x20 DUP2 ADD DUP5 DUP5 DUP5 ADD GT ISZERO PUSH2 0x476 JUMPI PUSH2 0x475 PUSH2 0x37E JUMP JUMPDEST JUMPDEST PUSH2 0x481 DUP5 DUP3 DUP6 PUSH2 0x43A JUMP JUMPDEST POP SWAP4 SWAP3 POP POP POP JUMP JUMPDEST PUSH0 DUP3 PUSH1 0x1F DUP4 ADD SLT PUSH2 0x49D JUMPI PUSH2 0x49C PUSH2 0x37A JUMP JUMPDEST JUMPDEST DUP2 CALLDATALOAD PUSH2 0x4AD DUP5 DUP3 PUSH1 0x20 DUP7 ADD PUSH2 0x448 JUMP JUMPDEST SWAP2 POP POP SWAP3 SWAP2 POP POP JUMP JUMPDEST PUSH0 PUSH1 0x20 DUP3 DUP5 SUB SLT ISZERO PUSH2 0x4CB JUMPI PUSH2 0x4CA PUSH2 0x372 JUMP JUMPDEST JUMPDEST PUSH0 DUP3 ADD CALLDATALOAD PUSH8 0xFFFFFFFFFFFFFFFF DUP2 GT ISZERO PUSH2 0x4E8 JUMPI PUSH2 0x4E7 PUSH2 0x376 JUMP JUMPDEST JUMPDEST PUSH2 0x4F4 DUP5 DUP3 DUP6 ADD PUSH2 0x489 JUMP JUMPDEST SWAP2 POP POP SWAP3 SWAP2 POP POP JUMP JUMPDEST PUSH0 DUP2 SWAP1 POP SWAP2 SWAP1 POP JUMP JUMPDEST PUSH2 0x50F DUP2 PUSH2 0x4FD JUMP JUMPDEST DUP3 MSTORE POP POP JUMP JUMPDEST PUSH0 PUSH1 0x20 DUP3 ADD SWAP1 POP PUSH2 0x528 PUSH0 DUP4 ADD DUP5 PUSH2 0x506 JUMP JUMPDEST SWAP3 SWAP2 POP POP JUMP JUMPDEST PUSH2 0x537 DUP2 PUSH2 0x4FD JUMP JUMPDEST DUP2 EQ PUSH2 0x541 JUMPI PUSH0 DUP1 REVERT JUMPDEST POP JUMP JUMPDEST PUSH0 DUP2 CALLDATALOAD SWAP1 POP PUSH2 0x552 DUP2 PUSH2 0x52E JUMP JUMPDEST SWAP3 SWAP2 POP POP JUMP JUMPDEST PUSH0 DUP1 PUSH1 0x40 DUP4 DUP6 SUB SLT ISZERO PUSH2 0x56E JUMPI PUSH2 0x56D PUSH2 0x372 JUMP JUMPDEST JUMPDEST PUSH0 PUSH2 0x57B DUP6 DUP3 DUP7 ADD PUSH2 0x544 JUMP JUMPDEST SWAP3 POP POP PUSH1 0x20 DUP4 ADD CALLDATALOAD PUSH8 0xFFFFFFFFFFFFFFFF DUP2 GT ISZERO PUSH2 0x59C JUMPI PUSH2 0x59B PUSH2 0x376 JUMP JUMPDEST JUMPDEST PUSH2 0x5A8 DUP6 DUP3 DUP7 ADD PUSH2 0x489 JUMP JUMPDEST SWAP2 POP POP SWAP3 POP SWAP3 SWAP1 POP JUMP JUMPDEST PUSH0 PUSH1 0x20 DUP3 DUP5 SUB SLT ISZERO PUSH2 0x5C7 JUMPI PUSH2 0x5C6 PUSH2 0x372 JUMP JUMPDEST JUMPDEST PUSH0 PUSH2 0x5D4 DUP5 DUP3 DUP6 ADD PUSH2 0x544 JUMP JUMPDEST SWAP2 POP POP SWAP3 SWAP2 POP POP JUMP JUMPDEST PUSH0 DUP2 MLOAD SWAP1 POP SWAP2 SWAP1 POP JUMP JUMPDEST PUSH0 DUP3 DUP3 MSTORE PUSH1 0x20 DUP3 ADD SWAP1 POP SWAP3 SWAP2 POP POP JUMP JUMPDEST DUP3 DUP2 DUP4 MCOPY PUSH0 DUP4 DUP4 ADD MSTORE POP POP POP JUMP JUMPDEST PUSH0 PUSH2 0x60F DUP3 PUSH2 0x5DD JUMP JUMPDEST PUSH2 0x619 DUP2 DUP6 PUSH2 0x5E7 JUMP JUMPDEST SWAP4 POP PUSH2 0x629 DUP2 DUP6 PUSH1 0x20 DUP7 ADD PUSH2 0x5F7 JUMP JUMPDEST PUSH2 0x632 DUP2 PUSH2 0x382 JUMP JUMPDEST DUP5 ADD SWAP2 POP POP SWAP3 SWAP2 POP POP JUMP JUMPDEST PUSH0 PUSH1 0x20 DUP3 ADD SWAP1 POP DUP2 DUP2 SUB PUSH0 DUP4 ADD MSTORE PUSH2 0x655 DUP2 DUP5 PUSH2 0x605 JUMP JUMPDEST SWAP1 POP SWAP3 SWAP2 POP POP JUMP JUMPDEST PUSH0 DUP2 MLOAD SWAP1 POP SWAP2 SWAP1 POP JUMP JUMPDEST PUSH0 DUP3 DUP3 MSTORE PUSH1 0x20 DUP3 ADD SWAP1 POP SWAP3 SWAP2 POP POP JUMP JUMPDEST PUSH0 DUP2 SWAP1 POP PUSH1 0x20 DUP3 ADD SWAP1 POP SWAP2 SWAP1 POP JUMP JUMPDEST PUSH0 DUP3 DUP3 MSTORE PUSH1 0x20 DUP3 ADD SWAP1 POP SWAP3 SWAP2 POP POP JUMP JUMPDEST PUSH0 PUSH2 0x6A0 DUP3 PUSH2 0x5DD JUMP JUMPDEST PUSH2 0x6AA DUP2 DUP6 PUSH2 0x686 JUMP JUMPDEST SWAP4 POP PUSH2 0x6BA DUP2 DUP6 PUSH1 0x20 DUP7 ADD PUSH2 0x5F7 JUMP JUMPDEST PUSH2 0x6C3 DUP2 PUSH2 0x382 JUMP JUMPDEST DUP5 ADD SWAP2 POP POP SWAP3 SWAP2 POP POP JUMP JUMPDEST PUSH0 PUSH2 0x6D9 DUP4 DUP4 PUSH2 0x696 JUMP JUMPDEST SWAP1 POP SWAP3 SWAP2 POP POP JUMP JUMPDEST PUSH0 PUSH1 0x20 DUP3 ADD SWAP1 POP SWAP2 SWAP1 POP JUMP JUMPDEST PUSH0 PUSH2 0x6F7 DUP3 PUSH2 0x65D JUMP JUMPDEST PUSH2 0x701 DUP2 DUP6 PUSH2 0x667 JUMP JUMPDEST SWAP4 POP DUP4 PUSH1 0x20 DUP3 MUL DUP6 ADD PUSH2 0x713 DUP6 PUSH2 0x677 JUMP JUMPDEST DUP1 PUSH0 JUMPDEST DUP6 DUP2 LT ISZERO PUSH2 0x74E JUMPI DUP5 DUP5 SUB DUP10 MSTORE DUP2 MLOAD PUSH2 0x72F DUP6 DUP3 PUSH2 0x6CE JUMP JUMPDEST SWAP5 POP PUSH2 0x73A DUP4 PUSH2 0x6E1 JUMP JUMPDEST SWAP3 POP PUSH1 0x20 DUP11 ADD SWAP10 POP POP PUSH1 0x1 DUP2 ADD SWAP1 POP PUSH2 0x716 JUMP JUMPDEST POP DUP3 SWAP8 POP DUP8 SWAP6 POP POP POP POP POP POP SWAP3 SWAP2 POP POP JUMP JUMPDEST PUSH0 PUSH1 0x20 DUP3 ADD SWAP1 POP DUP2 DUP2 SUB PUSH0 DUP4 ADD MSTORE PUSH2 0x778 DUP2 DUP5 PUSH2 0x6ED JUMP JUMPDEST SWAP1 POP SWAP3 SWAP2 POP POP JUMP JUMPDEST PUSH32 0x4E487B7100000000000000000000000000000000000000000000000000000000 PUSH0 MSTORE PUSH1 0x22 PUSH1 0x4 MSTORE PUSH1 0x24 PUSH0 REVERT JUMPDEST PUSH0 PUSH1 0x2 DUP3 DIV SWAP1 POP PUSH1 0x1 DUP3 AND DUP1 PUSH2 0x7C4 JUMPI PUSH1 0x7F DUP3 AND SWAP2 POP JUMPDEST PUSH1 0x20 DUP3 LT DUP2 SUB PUSH2 0x7D7 JUMPI PUSH2 0x7D6 PUSH2 0x780 JUMP JUMPDEST JUMPDEST POP SWAP2 SWAP1 POP JUMP JUMPDEST PUSH0 DUP2 SWAP1 POP DUP2 PUSH0 MSTORE PUSH1 0x20 PUSH0 KECCAK256 SWAP1 POP SWAP2 SWAP1 POP JUMP JUMPDEST PUSH0 PUSH1 0x20 PUSH1 0x1F DUP4 ADD DIV SWAP1 POP SWAP2 SWAP1 POP JUMP JUMPDEST PUSH0 DUP3 DUP3 SHL SWAP1 POP SWAP3 SWAP2 POP POP JUMP JUMPDEST PUSH0 PUSH1 0x8 DUP4 MUL PUSH2 0x839 PUSH32 0xFFFFFFFFFFFFFFFFFFFFFFFFFFFFFFFFFFFFFFFFFFFFFFFFFFFFFFFFFFFFFFFF DUP3 PUSH2 0x7FE JUMP JUMPDEST PUSH2 0x843 DUP7 DUP4 PUSH2 0x7FE JUMP JUMPDEST SWAP6 POP DUP1 NOT DUP5 AND SWAP4 POP DUP1 DUP7 AND DUP5 OR SWAP3 POP POP POP SWAP4 SWAP3 POP POP POP JUMP JUMPDEST PUSH0 DUP2 SWAP1 POP SWAP2 SWAP1 POP JUMP JUMPDEST PUSH0 PUSH2 0x87E PUSH2 0x879 PUSH2 0x874 DUP5 PUSH2 0x4FD JUMP JUMPDEST PUSH2 0x85B JUMP JUMPDEST PUSH2 0x4FD JUMP JUMPDEST SWAP1 POP SWAP2 SWAP1 POP JUMP JUMPDEST PUSH0 DUP2 SWAP1 POP SWAP2 SWAP1 POP JUMP JUMPDEST PUSH2 0x897 DUP4 PUSH2 0x864 JUMP JUMPDEST PUSH2 0x8AB PUSH2 0x8A3 DUP3 PUSH2 0x885 JUMP JUMPDEST DUP5 DUP5 SLOAD PUSH2 0x80A JUMP JUMPDEST DUP3 SSTORE POP POP POP POP JUMP JUMPDEST PUSH0 SWAP1 JUMP JUMPDEST PUSH2 0x8BF PUSH2 0x8B3 JUMP JUMPDEST PUSH2 0x8CA DUP2 DUP5 DUP5 PUSH2 0x88E JUMP JUMPDEST POP POP POP JUMP JUMPDEST JUMPDEST DUP2 DUP2 LT ISZERO PUSH2 0x8ED JUMPI PUSH2 0x8E2 PUSH0 DUP3 PUSH2 0x8B7 JUMP JUMPDEST PUSH1 0x1 DUP2 ADD SWAP1 POP PUSH2 0x8D0 JUMP JUMPDEST POP POP JUMP JUMPDEST PUSH1 0x1F DUP3 GT ISZERO PUSH2 0x932 JUMPI PUSH2 0x903 DUP2 PUSH2 0x7DD JUMP JUMPDEST PUSH2 0x90C DUP5 PUSH2 0x7EF JUMP JUMPDEST DUP2 ADD PUSH1 0x20 DUP6 LT ISZERO PUSH2 0x91B JUMPI DUP2 SWAP1 POP JUMPDEST PUSH2 0x92F PUSH2 0x927 DUP6 PUSH2 0x7EF JUMP JUMPDEST DUP4 ADD DUP3 PUSH2 0x8CF JUMP JUMPDEST POP POP JUMPDEST POP POP POP JUMP JUMPDEST PUSH0 DUP3 DUP3 SHR SWAP1 POP SWAP3 SWAP2 POP POP JUMP JUMPDEST PUSH0 PUSH2 0x952 PUSH0 NOT DUP5 PUSH1 0x8 MUL PUSH2 0x937 JUMP JUMPDEST NOT DUP1 DUP4 AND SWAP2 POP POP SWAP3 SWAP2 POP POP JUMP JUMPDEST PUSH0 PUSH2 0x96A DUP4 DUP4 PUSH2 0x943 JUMP JUMPDEST SWAP2 POP DUP3 PUSH1 0x2 MUL DUP3 OR SWAP1 POP SWAP3 SWAP2 POP POP JUMP JUMPDEST PUSH2 0x983 DUP3 PUSH2 0x5DD JUMP JUMPDEST PUSH8 0xFFFFFFFFFFFFFFFF DUP2 GT ISZERO PUSH2 0x99C JUMPI PUSH2 0x99B PUSH2 0x392 JUMP JUMPDEST JUMPDEST PUSH2 0x9A6 DUP3 SLOAD PUSH2 0x7AD JUMP JUMPDEST PUSH2 0x9B1 DUP3 DUP3 DUP6 PUSH2 0x8F1 JUMP JUMPDEST PUSH0 PUSH1 0x20 SWAP1 POP PUSH1 0x1F DUP4 GT PUSH1 0x1 DUP2 EQ PUSH2 0x9E2 JUMPI PUSH0 DUP5 ISZERO PUSH2 0x9D0 JUMPI DUP3 DUP8 ADD MLOAD SWAP1 POP JUMPDEST PUSH2 0x9DA DUP6 DUP3 PUSH2 0x95F JUMP JUMPDEST DUP7 SSTORE POP PUSH2 0xA41 JUMP JUMPDEST PUSH1 0x1F NOT DUP5 AND PUSH2 0x9F0 DUP7 PUSH2 0x7DD JUMP JUMPDEST PUSH0 JUMPDEST DUP3 DUP2 LT ISZERO PUSH2 0xA17 JUMPI DUP5 DUP10 ADD MLOAD DUP3 SSTORE PUSH1 0x1 DUP3 ADD SWAP2 POP PUSH1 0x20 DUP6 ADD SWAP5 POP PUSH1 0x20 DUP2 ADD SWAP1 POP PUSH2 0x9F2 JUMP JUMPDEST DUP7 DUP4 LT ISZERO PUSH2 0xA34 JUMPI DUP5 DUP10 ADD MLOAD PUSH2 0xA30 PUSH1 0x1F DUP10 AND DUP3 PUSH2 0x943 JUMP JUMPDEST DUP4 SSTORE POP JUMPDEST PUSH1 0x1 PUSH1 0x2 DUP9 MUL ADD DUP9 SSTORE POP POP POP JUMPDEST POP POP POP POP POP POP JUMP JUMPDEST PUSH32 0x4E487B7100000000000000000000000000000000000000000000000000000000 PUSH0 MSTORE PUSH1 0x11 PUSH1 0x4 MSTORE PUSH1 0x24 PUSH0 REVERT JUMPDEST PUSH0 PUSH2 0xA80 DUP3 PUSH2 0x4FD JUMP JUMPDEST SWAP2 POP PUSH2 0xA8B DUP4 PUSH2 0x4FD JUMP JUMPDEST SWAP3 POP DUP3 DUP3 SUB SWAP1 POP DUP2 DUP2 GT ISZERO PUSH2 0xAA3 JUMPI PUSH2 0xAA2 PUSH2 0xA49 JUMP JUMPDEST JUMPDEST SWAP3 SWAP2 POP POP JUMP JUMPDEST PUSH32 0x696E76616C696420696E64657800000000000000000000000000000000000000 PUSH0 DUP3 ADD MSTORE POP JUMP JUMPDEST PUSH0 PUSH2 0xADD PUSH1 0xD DUP4 PUSH2 0x5E7 JUMP JUMPDEST SWAP2 POP PUSH2 0xAE8 DUP3 PUSH2 0xAA9 JUMP JUMPDEST PUSH1 0x20 DUP3 ADD SWAP1 POP SWAP2 SWAP1 POP JUMP JUMPDEST PUSH0 PUSH1 0x20 DUP3 ADD SWAP1 POP DUP2 DUP2 SUB PUSH0 DUP4 ADD MSTORE PUSH2 0xB0A DUP2 PUSH2 0xAD1 JUMP JUMPDEST SWAP1 POP SWAP2 SWAP1 POP JUMP JUMPDEST PUSH32 0x4E487B7100000000000000000000000000000000000000000000000000000000 PUSH0 MSTORE PUSH1 0x32 PUSH1 0x4 MSTORE PUSH1 0x24 PUSH0 REVERT INVALID LOG2 PUSH5 0x6970667358 0x22 SLT KECCAK256 SWAP13 PUSH32 0xBFE64F3111212EA4DB6EF2E93A4C9832E3756008559852434309FB3258426473 PUSH16 0x6C634300081A00330000000000000000 "
		},
		"gasEstimates": {
			"creation": {
				"codeDepositCost": "586400",
				"executionCost": "617",
				"totalCost": "587017"
			},
			"external": {
				"addInfo(string)": "infinite",
				"getOneInfo(uint256)": "infinite",
				"listAllInfo()": "infinite",
				"updateInfo(uint256,string)": "infinite"
			}
		},
		"methodIdentifiers": {
			"addInfo(string)": "0bf803e4",
			"getOneInfo(uint256)": "94b1a5bc",
			"listAllInfo()": "edc2784e",
			"updateInfo(uint256,string)": "50c00197"
		}
	},
	"abi": [
		{
			"inputs": [
				{
					"internalType": "string",
					"name": "myInfo",
					"type": "string"
				}
			],
			"name": "addInfo",
			"outputs": [
				{
					"internalType": "uint256",
					"name": "index",
					"type": "uint256"
				}
			],
			"stateMutability": "nonpayable",
			"type": "function"
		},
		{
			"inputs": [
				{
					"internalType": "uint256",
					"name": "index",
					"type": "uint256"
				}
			],
			"name": "getOneInfo",
			"outputs": [
				{
					"internalType": "string",
					"name": "",
					"type": "string"
				}
			],
			"stateMutability": "view",
			"type": "function"
		},
		{
			"inputs": [],
			"name": "listAllInfo",
			"outputs": [
				{
					"internalType": "string[]",
					"name": "",
					"type": "string[]"
				}
			],
			"stateMutability": "view",
			"type": "function"
		},
		{
			"inputs": [
				{
					"internalType": "uint256",
					"name": "index",
					"type": "uint256"
				},
				{
					"internalType": "string",
					"name": "newInfo",
					"type": "string"
				}
			],
			"name": "updateInfo",
			"outputs": [],
			"stateMutability": "nonpayable",
			"type": "function"
		}
	]
}