{
	"data": {
		"bytecode": {
			"linkReferences": {},
			"object": "6080604052348015600e575f80fd5b50610b5d8061001c5f395ff3fe608060405234801561000f575f80fd5b506004361061004a575f3560e01c8063bbba17d31461004e578063c5f432781461006a578063dd68b1c314610086578063ee26fac3146100b9575b5f80fd5b6100686004803603810190610063919061060b565b6100da565b005b610084600480360381019061007f919061060b565b6101e7565b005b6100a0600480360381019061009b91906106e5565b610293565b6040516100b09493929190610814565b60405180910390f35b6100c1610378565b6040516100d19493929190610814565b60405180910390f35b60035f3373ffffffffffffffffffffffffffffffffffffffff1673ffffffffffffffffffffffffffffffffffffffff1681526020019081526020015f2060405180608001604052808681526020018581526020018415158152602001836001811115610149576101486107a1565b5b815250908060018154018082558091505060019003905f5260205f2090600302015f909190919091505f820151815f0190816101859190610a58565b50602082015181600101556040820151816002015f6101000a81548160ff02191690831515021790555060608201518160020160016101000a81548160ff021916908360018111156101da576101d96107a1565b5b0217905550505050505050565b60405180608001604052808581526020018481526020018315158152602001826001811115610219576102186107a1565b5b8152505f80820151815f0190816102309190610a58565b50602082015181600101556040820151816002015f6101000a81548160ff02191690831515021790555060608201518160020160016101000a81548160ff02191690836001811115610285576102846107a1565b5b021790555090505050505050565b6003602052815f5260405f2081815481106102ac575f80fd5b905f5260205f2090600302015f9150915050805f0180546102cc9061088b565b80601f01602080910402602001604051908101604052809291908181526020018280546102f89061088b565b80156103435780601f1061031a57610100808354040283529160200191610343565b820191905f5260205f20905b81548152906001019060200180831161032657829003601f168201915b505050505090806001015490806002015f9054906101000a900460ff16908060020160019054906101000a900460ff16905084565b5f805f0180546103879061088b565b80601f01602080910402602001604051908101604052809291908181526020018280546103b39061088b565b80156103fe5780601f106103d5576101008083540402835291602001916103fe565b820191905f5260205f20905b8154815290600101906020018083116103e157829003601f168201915b505050505090806001015490806002015f9054906101000a900460ff16908060020160019054906101000a900460ff16905084565b5f604051905090565b5f80fd5b5f80fd5b5f80fd5b5f80fd5b5f601f19601f8301169050919050565b7f4e487b71000000000000000000000000000000000000000000000000000000005f52604160045260245ffd5b6104928261044c565b810181811067ffffffffffffffff821117156104b1576104b061045c565b5b80604052505050565b5f6104c3610433565b90506104cf8282610489565b919050565b5f67ffffffffffffffff8211156104ee576104ed61045c565b5b6104f78261044c565b9050602081019050919050565b828183375f83830152505050565b5f61052461051f846104d4565b6104ba565b9050828152602081018484840111156105405761053f610448565b5b61054b848285610504565b509392505050565b5f82601f83011261056757610566610444565b5b8135610577848260208601610512565b91505092915050565b5f819050919050565b61059281610580565b811461059c575f80fd5b50565b5f813590506105ad81610589565b92915050565b5f8115159050919050565b6105c7816105b3565b81146105d1575f80fd5b50565b5f813590506105e2816105be565b92915050565b600281106105f4575f80fd5b50565b5f81359050610605816105e8565b92915050565b5f805f80608085870312156106235761062261043c565b5b5f85013567ffffffffffffffff8111156106405761063f610440565b5b61064c87828801610553565b945050602061065d8782880161059f565b935050604061066e878288016105d4565b925050606061067f878288016105f7565b91505092959194509250565b5f73ffffffffffffffffffffffffffffffffffffffff82169050919050565b5f6106b48261068b565b9050919050565b6106c4816106aa565b81146106ce575f80fd5b50565b5f813590506106df816106bb565b92915050565b5f80604083850312156106fb576106fa61043c565b5b5f610708858286016106d1565b92505060206107198582860161059f565b9150509250929050565b5f81519050919050565b5f82825260208201905092915050565b8281835e5f83830152505050565b5f61075582610723565b61075f818561072d565b935061076f81856020860161073d565b6107788161044c565b840191505092915050565b61078c81610580565b82525050565b61079b816105b3565b82525050565b7f4e487b71000000000000000000000000000000000000000000000000000000005f52602160045260245ffd5b600281106107df576107de6107a1565b5b50565b5f8190506107ef826107ce565b919050565b5f6107fe826107e2565b9050919050565b61080e816107f4565b82525050565b5f6080820190508181035f83015261082c818761074b565b905061083b6020830186610783565b6108486040830185610792565b6108556060830184610805565b95945050505050565b7f4e487b71000000000000000000000000000000000000000000000000000000005f52602260045260245ffd5b5f60028204905060018216806108a257607f821691505b6020821081036108b5576108b461085e565b5b50919050565b5f819050815f5260205f209050919050565b5f6020601f8301049050919050565b5f82821b905092915050565b5f600883026109177fffffffffffffffffffffffffffffffffffffffffffffffffffffffffffffffff826108dc565b61092186836108dc565b95508019841693508086168417925050509392505050565b5f819050919050565b5f61095c61095761095284610580565b610939565b610580565b9050919050565b5f819050919050565b61097583610942565b61098961098182610963565b8484546108e8565b825550505050565b5f90565b61099d610991565b6109a881848461096c565b505050565b5b818110156109cb576109c05f82610995565b6001810190506109ae565b5050565b601f821115610a10576109e1816108bb565b6109ea846108cd565b810160208510156109f9578190505b610a0d610a05856108cd565b8301826109ad565b50505b505050565b5f82821c905092915050565b5f610a305f1984600802610a15565b1980831691505092915050565b5f610a488383610a21565b9150826002028217905092915050565b610a6182610723565b67ffffffffffffffff811115610a7a57610a7961045c565b5b610a84825461088b565b610a8f8282856109cf565b5f60209050601f831160018114610ac0575f8415610aae578287015190505b610ab88582610a3d565b865550610b1f565b601f198416610ace866108bb565b5f5b82811015610af557848901518255600182019150602085019450602081019050610ad0565b86831015610b125784890151610b0e601f891682610a21565b8355505b6001600288020188555050505b50505050505056fea264697066735822122053806d9fa3a2cd8fbe84481dc5b2cc1d94b5029752a429f0db1a324a4c53eb5164736f6c634300081a0033",
			"opcodes": "PUSH1 0x80 PUSH1 0x40 MSTORE CALLVALUE DUP1 ISZERO PUSH1 0xE JUMPI PUSH0 DUP1 REVERT JUMPDEST POP PUSH2 0xB5D DUP1 PUSH2 0x1C PUSH0 CODECOPY PUSH0 RETURN INVALID PUSH1 0x80 PUSH1 0x40 MSTORE CALLVALUE DUP1 ISZERO PUSH2 0xF JUMPI PUSH0 DUP1 REVERT JUMPDEST POP PUSH1 0x4 CALLDATASIZE LT PUSH2 0x4A JUMPI PUSH0 CALLDATALOAD PUSH1 0xE0 SHR DUP1 PUSH4 0xBBBA17D3 EQ PUSH2 0x4E JUMPI DUP1 PUSH4 0xC5F43278 EQ PUSH2 0x6A JUMPI DUP1 PUSH4 0xDD68B1C3 EQ PUSH2 0x86 JUMPI DUP1 PUSH4 0xEE26FAC3 EQ PUSH2 0xB9 JUMPI JUMPDEST PUSH0 DUP1 REVERT JUMPDEST PUSH2 0x68 PUSH1 0x4 DUP1 CALLDATASIZE SUB DUP2 ADD SWAP1 PUSH2 0x63 SWAP2 SWAP1 PUSH2 0x60B JUMP JUMPDEST PUSH2 0xDA JUMP JUMPDEST STOP JUMPDEST PUSH2 0x84 PUSH1 0x4 DUP1 CALLDATASIZE SUB DUP2 ADD SWAP1 PUSH2 0x7F SWAP2 SWAP1 PUSH2 0x60B JUMP JUMPDEST PUSH2 0x1E7 JUMP JUMPDEST STOP JUMPDEST PUSH2 0xA0 PUSH1 0x4 DUP1 CALLDATASIZE SUB DUP2 ADD SWAP1 PUSH2 0x9B SWAP2 SWAP1 PUSH2 0x6E5 JUMP JUMPDEST PUSH2 0x293 JUMP JUMPDEST PUSH1 0x40 MLOAD PUSH2 0xB0 SWAP5 SWAP4 SWAP3 SWAP2 SWAP1 PUSH2 0x814 JUMP JUMPDEST PUSH1 0x40 MLOAD DUP1 SWAP2 SUB SWAP1 RETURN JUMPDEST PUSH2 0xC1 PUSH2 0x378 JUMP JUMPDEST PUSH1 0x40 MLOAD PUSH2 0xD1 SWAP5 SWAP4 SWAP3 SWAP2 SWAP1 PUSH2 0x814 JUMP JUMPDEST PUSH1 0x40 MLOAD DUP1 SWAP2 SUB SWAP1 RETURN JUMPDEST PUSH1 0x3 PUSH0 CALLER PUSH20 0xFFFFFFFFFFFFFFFFFFFFFFFFFFFFFFFFFFFFFFFF AND PUSH20 0xFFFFFFFFFFFFFFFFFFFFFFFFFFFFFFFFFFFFFFFF AND DUP2 MSTORE PUSH1 0x20 ADD SWAP1 DUP2 MSTORE PUSH1 0x20 ADD PUSH0 KECCAK256 PUSH1 0x40 MLOAD DUP1 PUSH1 0x80 ADD PUSH1 0x40 MSTORE DUP1 DUP7 DUP2 MSTORE PUSH1 0x20 ADD DUP6 DUP2 MSTORE PUSH1 0x20 ADD DUP5 ISZERO ISZERO DUP2 MSTORE PUSH1 0x20 ADD DUP4 PUSH1 0x1 DUP2 GT ISZERO PUSH2 0x149 JUMPI PUSH2 0x148 PUSH2 0x7A1 JUMP JUMPDEST JUMPDEST DUP2 MSTORE POP SWAP1 DUP1 PUSH1 0x1 DUP2 SLOAD ADD DUP1 DUP3 SSTORE DUP1 SWAP2 POP POP PUSH1 0x1 SWAP1 SUB SWAP1 PUSH0 MSTORE PUSH1 0x20 PUSH0 KECCAK256 SWAP1 PUSH1 0x3 MUL ADD PUSH0 SWAP1 SWAP2 SWAP1 SWAP2 SWAP1 SWAP2 POP PUSH0 DUP3 ADD MLOAD DUP2 PUSH0 ADD SWAP1 DUP2 PUSH2 0x185 SWAP2 SWAP1 PUSH2 0xA58 JUMP JUMPDEST POP PUSH1 0x20 DUP3 ADD MLOAD DUP2 PUSH1 0x1 ADD SSTORE PUSH1 0x40 DUP3 ADD MLOAD DUP2 PUSH1 0x2 ADD PUSH0 PUSH2 0x100 EXP DUP2 SLOAD DUP2 PUSH1 0xFF MUL NOT AND SWAP1 DUP4 ISZERO ISZERO MUL OR SWAP1 SSTORE POP PUSH1 0x60 DUP3 ADD MLOAD DUP2 PUSH1 0x2 ADD PUSH1 0x1 PUSH2 0x100 EXP DUP2 SLOAD DUP2 PUSH1 0xFF MUL NOT AND SWAP1 DUP4 PUSH1 0x1 DUP2 GT ISZERO PUSH2 0x1DA JUMPI PUSH2 0x1D9 PUSH2 0x7A1 JUMP JUMPDEST JUMPDEST MUL OR SWAP1 SSTORE POP POP POP POP POP POP POP JUMP JUMPDEST PUSH1 0x40 MLOAD DUP1 PUSH1 0x80 ADD PUSH1 0x40 MSTORE DUP1 DUP6 DUP2 MSTORE PUSH1 0x20 ADD DUP5 DUP2 MSTORE PUSH1 0x20 ADD DUP4 ISZERO ISZERO DUP2 MSTORE PUSH1 0x20 ADD DUP3 PUSH1 0x1 DUP2 GT ISZERO PUSH2 0x219 JUMPI PUSH2 0x218 PUSH2 0x7A1 JUMP JUMPDEST JUMPDEST DUP2 MSTORE POP PUSH0 DUP1 DUP3 ADD MLOAD DUP2 PUSH0 ADD SWAP1 DUP2 PUSH2 0x230 SWAP2 SWAP1 PUSH2 0xA58 JUMP JUMPDEST POP PUSH1 0x20 DUP3 ADD MLOAD DUP2 PUSH1 0x1 ADD SSTORE PUSH1 0x40 DUP3 ADD MLOAD DUP2 PUSH1 0x2 ADD PUSH0 PUSH2 0x100 EXP DUP2 SLOAD DUP2 PUSH1 0xFF MUL NOT AND SWAP1 DUP4 ISZERO ISZERO MUL OR SWAP1 SSTORE POP PUSH1 0x60 DUP3 ADD MLOAD DUP2 PUSH1 0x2 ADD PUSH1 0x1 PUSH2 0x100 EXP DUP2 SLOAD DUP2 PUSH1 0xFF MUL NOT AND SWAP1 DUP4 PUSH1 0x1 DUP2 GT ISZERO PUSH2 0x285 JUMPI PUSH2 0x284 PUSH2 0x7A1 JUMP JUMPDEST JUMPDEST MUL OR SWAP1 SSTORE POP SWAP1 POP POP POP POP POP POP JUMP JUMPDEST PUSH1 0x3 PUSH1 0x20 MSTORE DUP2 PUSH0 MSTORE PUSH1 0x40 PUSH0 KECCAK256 DUP2 DUP2 SLOAD DUP2 LT PUSH2 0x2AC JUMPI PUSH0 DUP1 REVERT JUMPDEST SWAP1 PUSH0 MSTORE PUSH1 0x20 PUSH0 KECCAK256 SWAP1 PUSH1 0x3 MUL ADD PUSH0 SWAP2 POP SWAP2 POP POP DUP1 PUSH0 ADD DUP1 SLOAD PUSH2 0x2CC SWAP1 PUSH2 0x88B JUMP JUMPDEST DUP1 PUSH1 0x1F ADD PUSH1 0x20 DUP1 SWAP2 DIV MUL PUSH1 0x20 ADD PUSH1 0x40 MLOAD SWAP1 DUP2 ADD PUSH1 0x40 MSTORE DUP1 SWAP3 SWAP2 SWAP1 DUP2 DUP2 MSTORE PUSH1 0x20 ADD DUP3 DUP1 SLOAD PUSH2 0x2F8 SWAP1 PUSH2 0x88B JUMP JUMPDEST DUP1 ISZERO PUSH2 0x343 JUMPI DUP1 PUSH1 0x1F LT PUSH2 0x31A JUMPI PUSH2 0x100 DUP1 DUP4 SLOAD DIV MUL DUP4 MSTORE SWAP2 PUSH1 0x20 ADD SWAP2 PUSH2 0x343 JUMP JUMPDEST DUP3 ADD SWAP2 SWAP1 PUSH0 MSTORE PUSH1 0x20 PUSH0 KECCAK256 SWAP1 JUMPDEST DUP2 SLOAD DUP2 MSTORE SWAP1 PUSH1 0x1 ADD SWAP1 PUSH1 0x20 ADD DUP1 DUP4 GT PUSH2 0x326 JUMPI DUP3 SWAP1 SUB PUSH1 0x1F AND DUP3 ADD SWAP2 JUMPDEST POP POP POP POP POP SWAP1 DUP1 PUSH1 0x1 ADD SLOAD SWAP1 DUP1 PUSH1 0x2 ADD PUSH0 SWAP1 SLOAD SWAP1 PUSH2 0x100 EXP SWAP1 DIV PUSH1 0xFF AND SWAP1 DUP1 PUSH1 0x2 ADD PUSH1 0x1 SWAP1 SLOAD SWAP1 PUSH2 0x100 EXP SWAP1 DIV PUSH1 0xFF AND SWAP1 POP DUP5 JUMP JUMPDEST PUSH0 DUP1 PUSH0 ADD DUP1 SLOAD PUSH2 0x387 SWAP1 PUSH2 0x88B JUMP JUMPDEST DUP1 PUSH1 0x1F ADD PUSH1 0x20 DUP1 SWAP2 DIV MUL PUSH1 0x20 ADD PUSH1 0x40 MLOAD SWAP1 DUP2 ADD PUSH1 0x40 MSTORE DUP1 SWAP3 SWAP2 SWAP1 DUP2 DUP2 MSTORE PUSH1 0x20 ADD DUP3 DUP1 SLOAD PUSH2 0x3B3 SWAP1 PUSH2 0x88B JUMP JUMPDEST DUP1 ISZERO PUSH2 0x3FE JUMPI DUP1 PUSH1 0x1F LT PUSH2 0x3D5 JUMPI PUSH2 0x100 DUP1 DUP4 SLOAD DIV MUL DUP4 MSTORE SWAP2 PUSH1 0x20 ADD SWAP2 PUSH2 0x3FE JUMP JUMPDEST DUP3 ADD SWAP2 SWAP1 PUSH0 MSTORE PUSH1 0x20 PUSH0 KECCAK256 SWAP1 JUMPDEST DUP2 SLOAD DUP2 MSTORE SWAP1 PUSH1 0x1 ADD SWAP1 PUSH1 0x20 ADD DUP1 DUP4 GT PUSH2 0x3E1 JUMPI DUP3 SWAP1 SUB PUSH1 0x1F AND DUP3 ADD SWAP2 JUMPDEST POP POP POP POP POP SWAP1 DUP1 PUSH1 0x1 ADD SLOAD SWAP1 DUP1 PUSH1 0x2 ADD PUSH0 SWAP1 SLOAD SWAP1 PUSH2 0x100 EXP SWAP1 DIV PUSH1 0xFF AND SWAP1 DUP1 PUSH1 0x2 ADD PUSH1 0x1 SWAP1 SLOAD SWAP1 PUSH2 0x100 EXP SWAP1 DIV PUSH1 0xFF AND SWAP1 POP DUP5 JUMP JUMPDEST PUSH0 PUSH1 0x40 MLOAD SWAP1 POP SWAP1 JUMP JUMPDEST PUSH0 DUP1 REVERT JUMPDEST PUSH0 DUP1 REVERT JUMPDEST PUSH0 DUP1 REVERT JUMPDEST PUSH0 DUP1 REVERT JUMPDEST PUSH0 PUSH1 0x1F NOT PUSH1 0x1F DUP4 ADD AND SWAP1 POP SWAP2 SWAP1 POP JUMP JUMPDEST PUSH32 0x4E487B7100000000000000000000000000000000000000000000000000000000 PUSH0 MSTORE PUSH1 0x41 PUSH1 0x4 MSTORE PUSH1 0x24 PUSH0 REVERT JUMPDEST PUSH2 0x492 DUP3 PUSH2 0x44C JUMP JUMPDEST DUP2 ADD DUP2 DUP2 LT PUSH8 0xFFFFFFFFFFFFFFFF DUP3 GT OR ISZERO PUSH2 0x4B1 JUMPI PUSH2 0x4B0 PUSH2 0x45C JUMP JUMPDEST JUMPDEST DUP1 PUSH1 0x40 MSTORE POP POP POP JUMP JUMPDEST PUSH0 PUSH2 0x4C3 PUSH2 0x433 JUMP JUMPDEST SWAP1 POP PUSH2 0x4CF DUP3 DUP3 PUSH2 0x489 JUMP JUMPDEST SWAP2 SWAP1 POP JUMP JUMPDEST PUSH0 PUSH8 0xFFFFFFFFFFFFFFFF DUP3 GT ISZERO PUSH2 0x4EE JUMPI PUSH2 0x4ED PUSH2 0x45C JUMP JUMPDEST JUMPDEST PUSH2 0x4F7 DUP3 PUSH2 0x44C JUMP JUMPDEST SWAP1 POP PUSH1 0x20 DUP2 ADD SWAP1 POP SWAP2 SWAP1 POP JUMP JUMPDEST DUP3 DUP2 DUP4 CALLDATACOPY PUSH0 DUP4 DUP4 ADD MSTORE POP POP POP JUMP JUMPDEST PUSH0 PUSH2 0x524 PUSH2 0x51F DUP5 PUSH2 0x4D4 JUMP JUMPDEST PUSH2 0x4BA JUMP JUMPDEST SWAP1 POP DUP3 DUP2 MSTORE PUSH1 0x20 DUP2 ADD DUP5 DUP5 DUP5 ADD GT ISZERO PUSH2 0x540 JUMPI PUSH2 0x53F PUSH2 0x448 JUMP JUMPDEST JUMPDEST PUSH2 0x54B DUP5 DUP3 DUP6 PUSH2 0x504 JUMP JUMPDEST POP SWAP4 SWAP3 POP POP POP JUMP JUMPDEST PUSH0 DUP3 PUSH1 0x1F DUP4 ADD SLT PUSH2 0x567 JUMPI PUSH2 0x566 PUSH2 0x444 JUMP JUMPDEST JUMPDEST DUP2 CALLDATALOAD PUSH2 0x577 DUP5 DUP3 PUSH1 0x20 DUP7 ADD PUSH2 0x512 JUMP JUMPDEST SWAP2 POP POP SWAP3 SWAP2 POP POP JUMP JUMPDEST PUSH0 DUP2 SWAP1 POP SWAP2 SWAP1 POP JUMP JUMPDEST PUSH2 0x592 DUP2 PUSH2 0x580 JUMP JUMPDEST DUP2 EQ PUSH2 0x59C JUMPI PUSH0 DUP1 REVERT JUMPDEST POP JUMP JUMPDEST PUSH0 DUP2 CALLDATALOAD SWAP1 POP PUSH2 0x5AD DUP2 PUSH2 0x589 JUMP JUMPDEST SWAP3 SWAP2 POP POP JUMP JUMPDEST PUSH0 DUP2 ISZERO ISZERO SWAP1 POP SWAP2 SWAP1 POP JUMP JUMPDEST PUSH2 0x5C7 DUP2 PUSH2 0x5B3 JUMP JUMPDEST DUP2 EQ PUSH2 0x5D1 JUMPI PUSH0 DUP1 REVERT JUMPDEST POP JUMP JUMPDEST PUSH0 DUP2 CALLDATALOAD SWAP1 POP PUSH2 0x5E2 DUP2 PUSH2 0x5BE JUMP JUMPDEST SWAP3 SWAP2 POP POP JUMP JUMPDEST PUSH1 0x2 DUP2 LT PUSH2 0x5F4 JUMPI PUSH0 DUP1 REVERT JUMPDEST POP JUMP JUMPDEST PUSH0 DUP2 CALLDATALOAD SWAP1 POP PUSH2 0x605 DUP2 PUSH2 0x5E8 JUMP JUMPDEST SWAP3 SWAP2 POP POP JUMP JUMPDEST PUSH0 DUP1 PUSH0 DUP1 PUSH1 0x80 DUP6 DUP8 SUB SLT ISZERO PUSH2 0x623 JUMPI PUSH2 0x622 PUSH2 0x43C JUMP JUMPDEST JUMPDEST PUSH0 DUP6 ADD CALLDATALOAD PUSH8 0xFFFFFFFFFFFFFFFF DUP2 GT ISZERO PUSH2 0x640 JUMPI PUSH2 0x63F PUSH2 0x440 JUMP JUMPDEST JUMPDEST PUSH2 0x64C DUP8 DUP3 DUP9 ADD PUSH2 0x553 JUMP JUMPDEST SWAP5 POP POP PUSH1 0x20 PUSH2 0x65D DUP8 DUP3 DUP9 ADD PUSH2 0x59F JUMP JUMPDEST SWAP4 POP POP PUSH1 0x40 PUSH2 0x66E DUP8 DUP3 DUP9 ADD PUSH2 0x5D4 JUMP JUMPDEST SWAP3 POP POP PUSH1 0x60 PUSH2 0x67F DUP8 DUP3 DUP9 ADD PUSH2 0x5F7 JUMP JUMPDEST SWAP2 POP POP SWAP3 SWAP6 SWAP2 SWAP5 POP SWAP3 POP JUMP JUMPDEST PUSH0 PUSH20 0xFFFFFFFFFFFFFFFFFFFFFFFFFFFFFFFFFFFFFFFF DUP3 AND SWAP1 POP SWAP2 SWAP1 POP JUMP JUMPDEST PUSH0 PUSH2 0x6B4 DUP3 PUSH2 0x68B JUMP JUMPDEST SWAP1 POP SWAP2 SWAP1 POP JUMP JUMPDEST PUSH2 0x6C4 DUP2 PUSH2 0x6AA JUMP JUMPDEST DUP2 EQ PUSH2 0x6CE JUMPI PUSH0 DUP1 REVERT JUMPDEST POP JUMP JUMPDEST PUSH0 DUP2 CALLDATALOAD SWAP1 POP PUSH2 0x6DF DUP2 PUSH2 0x6BB JUMP JUMPDEST SWAP3 SWAP2 POP POP JUMP JUMPDEST PUSH0 DUP1 PUSH1 0x40 DUP4 DUP6 SUB SLT ISZERO PUSH2 0x6FB JUMPI PUSH2 0x6FA PUSH2 0x43C JUMP JUMPDEST JUMPDEST PUSH0 PUSH2 0x708 DUP6 DUP3 DUP7 ADD PUSH2 0x6D1 JUMP JUMPDEST SWAP3 POP POP PUSH1 0x20 PUSH2 0x719 DUP6 DUP3 DUP7 ADD PUSH2 0x59F JUMP JUMPDEST SWAP2 POP POP SWAP3 POP SWAP3 SWAP1 POP JUMP JUMPDEST PUSH0 DUP2 MLOAD SWAP1 POP SWAP2 SWAP1 POP JUMP JUMPDEST PUSH0 DUP3 DUP3 MSTORE PUSH1 0x20 DUP3 ADD SWAP1 POP SWAP3 SWAP2 POP POP JUMP JUMPDEST DUP3 DUP2 DUP4 MCOPY PUSH0 DUP4 DUP4 ADD MSTORE POP POP POP JUMP JUMPDEST PUSH0 PUSH2 0x755 DUP3 PUSH2 0x723 JUMP JUMPDEST PUSH2 0x75F DUP2 DUP6 PUSH2 0x72D JUMP JUMPDEST SWAP4 POP PUSH2 0x76F DUP2 DUP6 PUSH1 0x20 DUP7 ADD PUSH2 0x73D JUMP JUMPDEST PUSH2 0x778 DUP2 PUSH2 0x44C JUMP JUMPDEST DUP5 ADD SWAP2 POP POP SWAP3 SWAP2 POP POP JUMP JUMPDEST PUSH2 0x78C DUP2 PUSH2 0x580 JUMP JUMPDEST DUP3 MSTORE POP POP JUMP JUMPDEST PUSH2 0x79B DUP2 PUSH2 0x5B3 JUMP JUMPDEST DUP3 MSTORE POP POP JUMP JUMPDEST PUSH32 0x4E487B7100000000000000000000000000000000000000000000000000000000 PUSH0 MSTORE PUSH1 0x21 PUSH1 0x4 MSTORE PUSH1 0x24 PUSH0 REVERT JUMPDEST PUSH1 0x2 DUP2 LT PUSH2 0x7DF JUMPI PUSH2 0x7DE PUSH2 0x7A1 JUMP JUMPDEST JUMPDEST POP JUMP JUMPDEST PUSH0 DUP2 SWAP1 POP PUSH2 0x7EF DUP3 PUSH2 0x7CE JUMP JUMPDEST SWAP2 SWAP1 POP JUMP JUMPDEST PUSH0 PUSH2 0x7FE DUP3 PUSH2 0x7E2 JUMP JUMPDEST SWAP1 POP SWAP2 SWAP1 POP JUMP JUMPDEST PUSH2 0x80E DUP2 PUSH2 0x7F4 JUMP JUMPDEST DUP3 MSTORE POP POP JUMP JUMPDEST PUSH0 PUSH1 0x80 DUP3 ADD SWAP1 POP DUP2 DUP2 SUB PUSH0 DUP4 ADD MSTORE PUSH2 0x82C DUP2 DUP8 PUSH2 0x74B JUMP JUMPDEST SWAP1 POP PUSH2 0x83B PUSH1 0x20 DUP4 ADD DUP7 PUSH2 0x783 JUMP JUMPDEST PUSH2 0x848 PUSH1 0x40 DUP4 ADD DUP6 PUSH2 0x792 JUMP JUMPDEST PUSH2 0x855 PUSH1 0x60 DUP4 ADD DUP5 PUSH2 0x805 JUMP JUMPDEST SWAP6 SWAP5 POP POP POP POP POP JUMP JUMPDEST PUSH32 0x4E487B7100000000000000000000000000000000000000000000000000000000 PUSH0 MSTORE PUSH1 0x22 PUSH1 0x4 MSTORE PUSH1 0x24 PUSH0 REVERT JUMPDEST PUSH0 PUSH1 0x2 DUP3 DIV SWAP1 POP PUSH1 0x1 DUP3 AND DUP1 PUSH2 0x8A2 JUMPI PUSH1 0x7F DUP3 AND SWAP2 POP JUMPDEST PUSH1 0x20 DUP3 LT DUP2 SUB PUSH2 0x8B5 JUMPI PUSH2 0x8B4 PUSH2 0x85E JUMP JUMPDEST JUMPDEST POP SWAP2 SWAP1 POP JUMP JUMPDEST PUSH0 DUP2 SWAP1 POP DUP2 PUSH0 MSTORE PUSH1 0x20 PUSH0 KECCAK256 SWAP1 POP SWAP2 SWAP1 POP JUMP JUMPDEST PUSH0 PUSH1 0x20 PUSH1 0x1F DUP4 ADD DIV SWAP1 POP SWAP2 SWAP1 POP JUMP JUMPDEST PUSH0 DUP3 DUP3 SHL SWAP1 POP SWAP3 SWAP2 POP POP JUMP JUMPDEST PUSH0 PUSH1 0x8 DUP4 MUL PUSH2 0x917 PUSH32 0xFFFFFFFFFFFFFFFFFFFFFFFFFFFFFFFFFFFFFFFFFFFFFFFFFFFFFFFFFFFFFFFF DUP3 PUSH2 0x8DC JUMP JUMPDEST PUSH2 0x921 DUP7 DUP4 PUSH2 0x8DC JUMP JUMPDEST SWAP6 POP DUP1 NOT DUP5 AND SWAP4 POP DUP1 DUP7 AND DUP5 OR SWAP3 POP POP POP SWAP4 SWAP3 POP POP POP JUMP JUMPDEST PUSH0 DUP2 SWAP1 POP SWAP2 SWAP1 POP JUMP JUMPDEST PUSH0 PUSH2 0x95C PUSH2 0x957 PUSH2 0x952 DUP5 PUSH2 0x580 JUMP JUMPDEST PUSH2 0x939 JUMP JUMPDEST PUSH2 0x580 JUMP JUMPDEST SWAP1 POP SWAP2 SWAP1 POP JUMP JUMPDEST PUSH0 DUP2 SWAP1 POP SWAP2 SWAP1 POP JUMP JUMPDEST PUSH2 0x975 DUP4 PUSH2 0x942 JUMP JUMPDEST PUSH2 0x989 PUSH2 0x981 DUP3 PUSH2 0x963 JUMP JUMPDEST DUP5 DUP5 SLOAD PUSH2 0x8E8 JUMP JUMPDEST DUP3 SSTORE POP POP POP POP JUMP JUMPDEST PUSH0 SWAP1 JUMP JUMPDEST PUSH2 0x99D PUSH2 0x991 JUMP JUMPDEST PUSH2 0x9A8 DUP2 DUP5 DUP5 PUSH2 0x96C JUMP JUMPDEST POP POP POP JUMP JUMPDEST JUMPDEST DUP2 DUP2 LT ISZERO PUSH2 0x9CB JUMPI PUSH2 0x9C0 PUSH0 DUP3 PUSH2 0x995 JUMP JUMPDEST PUSH1 0x1 DUP2 ADD SWAP1 POP PUSH2 0x9AE JUMP JUMPDEST POP POP JUMP JUMPDEST PUSH1 0x1F DUP3 GT ISZERO PUSH2 0xA10 JUMPI PUSH2 0x9E1 DUP2 PUSH2 0x8BB JUMP JUMPDEST PUSH2 0x9EA DUP5 PUSH2 0x8CD JUMP JUMPDEST DUP2 ADD PUSH1 0x20 DUP6 LT ISZERO PUSH2 0x9F9 JUMPI DUP2 SWAP1 POP JUMPDEST PUSH2 0xA0D PUSH2 0xA05 DUP6 PUSH2 0x8CD JUMP JUMPDEST DUP4 ADD DUP3 PUSH2 0x9AD JUMP JUMPDEST POP POP JUMPDEST POP POP POP JUMP JUMPDEST PUSH0 DUP3 DUP3 SHR SWAP1 POP SWAP3 SWAP2 POP POP JUMP JUMPDEST PUSH0 PUSH2 0xA30 PUSH0 NOT DUP5 PUSH1 0x8 MUL PUSH2 0xA15 JUMP JUMPDEST NOT DUP1 DUP4 AND SWAP2 POP POP SWAP3 SWAP2 POP POP JUMP JUMPDEST PUSH0 PUSH2 0xA48 DUP4 DUP4 PUSH2 0xA21 JUMP JUMPDEST SWAP2 POP DUP3 PUSH1 0x2 MUL DUP3 OR SWAP1 POP SWAP3 SWAP2 POP POP JUMP JUMPDEST PUSH2 0xA61 DUP3 PUSH2 0x723 JUMP JUMPDEST PUSH8 0xFFFFFFFFFFFFFFFF DUP2 GT ISZERO PUSH2 0xA7A JUMPI PUSH2 0xA79 PUSH2 0x45C JUMP JUMPDEST JUMPDEST PUSH2 0xA84 DUP3 SLOAD PUSH2 0x88B JUMP JUMPDEST PUSH2 0xA8F DUP3 DUP3 DUP6 PUSH2 0x9CF JUMP JUMPDEST PUSH0 PUSH1 0x20 SWAP1 POP PUSH1 0x1F DUP4 GT PUSH1 0x1 DUP2 EQ PUSH2 0xAC0 JUMPI PUSH0 DUP5 ISZERO PUSH2 0xAAE JUMPI DUP3 DUP8 ADD MLOAD SWAP1 POP JUMPDEST PUSH2 0xAB8 DUP6 DUP3 PUSH2 0xA3D JUMP JUMPDEST DUP7 SSTORE POP PUSH2 0xB1F JUMP JUMPDEST PUSH1 0x1F NOT DUP5 AND PUSH2 0xACE DUP7 PUSH2 0x8BB JUMP JUMPDEST PUSH0 JUMPDEST DUP3 DUP2 LT ISZERO PUSH2 0xAF5 JUMPI DUP5 DUP10 ADD MLOAD DUP3 SSTORE PUSH1 0x1 DUP3 ADD SWAP2 POP PUSH1 0x20 DUP6 ADD SWAP5 POP PUSH1 0x20 DUP2 ADD SWAP1 POP PUSH2 0xAD0 JUMP JUMPDEST DUP7 DUP4 LT ISZERO PUSH2 0xB12 JUMPI DUP5 DUP10 ADD MLOAD PUSH2 0xB0E PUSH1 0x1F DUP10 AND DUP3 PUSH2 0xA21 JUMP JUMPDEST DUP4 SSTORE POP JUMPDEST PUSH1 0x1 PUSH1 0x2 DUP9 MUL ADD DUP9 SSTORE POP POP POP JUMPDEST POP POP POP POP POP POP JUMP INVALID LOG2 PUSH5 0x6970667358 0x22 SLT KECCAK256 MSTORE8 DUP1 PUSH14 0x9FA3A2CD8FBE84481DC5B2CC1D94 0xB5 MUL SWAP8 MSTORE LOG4 0x29 CREATE 0xDB BYTE ORIGIN BLOBBASEFEE 0x4C MSTORE8 0xEB MLOAD PUSH5 0x736F6C6343 STOP ADDMOD BYTE STOP CALLER "
		},
		"gasEstimates": {
			"creation": {
				"codeDepositCost": "581800",
				"executionCost": "611",
				"totalCost": "582411"
			},
			"external": {
				"addCarToMap(string,uint256,bool,uint8)": "infinite",
				"car()": "infinite",
				"carMaps(address,uint256)": "infinite",
				"createCar(string,uint256,bool,uint8)": "infinite"
			}
		},
		"methodIdentifiers": {
			"addCarToMap(string,uint256,bool,uint8)": "bbba17d3",
			"car()": "ee26fac3",
			"carMaps(address,uint256)": "dd68b1c3",
			"createCar(string,uint256,bool,uint8)": "c5f43278"
		}
	},
	"abi": [
		{
			"inputs": [
				{
					"internalType": "string",
					"name": "_brand",
					"type": "string"
				},
				{
					"internalType": "uint256",
					"name": "_year",
					"type": "uint256"
				},
				{
					"internalType": "bool",
					"name": "_crashed",
					"type": "bool"
				},
				{
					"internalType": "enum Structs.Cartype",
					"name": "_type",
					"type": "uint8"
				}
			],
			"name": "addCarToMap",
			"outputs": [],
			"stateMutability": "nonpayable",
			"type": "function"
		},
		{
			"inputs": [],
			"name": "car",
			"outputs": [
				{
					"internalType": "string",
					"name": "brand",
					"type": "string"
				},
				{
					"internalType": "uint256",
					"name": "year",
					"type": "uint256"
				},
				{
					"internalType": "bool",
					"name": "crashed",
					"type": "bool"
				},
				{
					"internalType": "enum Structs.Cartype",
					"name": "carType",
					"type": "uint8"
				}
			],
			"stateMutability": "view",
			"type": "function"
		},
		{
			"inputs": [
				{
					"internalType": "address",
					"name": "",
					"type": "address"
				},
				{
					"internalType": "uint256",
					"name": "",
					"type": "uint256"
				}
			],
			"name": "carMaps",
			"outputs": [
				{
					"internalType": "string",
					"name": "brand",
					"type": "string"
				},
				{
					"internalType": "uint256",
					"name": "year",
					"type": "uint256"
				},
				{
					"internalType": "bool",
					"name": "crashed",
					"type": "bool"
				},
				{
					"internalType": "enum Structs.Cartype",
					"name": "carType",
					"type": "uint8"
				}
			],
			"stateMutability": "view",
			"type": "function"
		},
		{
			"inputs": [
				{
					"internalType": "string",
					"name": "_brand",
					"type": "string"
				},
				{
					"internalType": "uint256",
					"name": "_year",
					"type": "uint256"
				},
				{
					"internalType": "bool",
					"name": "_crashed",
					"type": "bool"
				},
				{
					"internalType": "enum Structs.Cartype",
					"name": "_type",
					"type": "uint8"
				}
			],
			"name": "createCar",
			"outputs": [],
			"stateMutability": "nonpayable",
			"type": "function"
		}
	]
}